{
  "contractName": "CryptoPaws",
  "abi": [
    {
      "inputs": [],
      "stateMutability": "nonpayable",
      "type": "constructor"
    },
    {
      "anonymous": false,
      "inputs": [
        {
          "indexed": true,
          "internalType": "address",
          "name": "owner",
          "type": "address"
        },
        {
          "indexed": true,
          "internalType": "address",
          "name": "approved",
          "type": "address"
        },
        {
          "indexed": true,
          "internalType": "uint256",
          "name": "tokenId",
          "type": "uint256"
        }
      ],
      "name": "Approval",
      "type": "event"
    },
    {
      "anonymous": false,
      "inputs": [
        {
          "indexed": true,
          "internalType": "address",
          "name": "owner",
          "type": "address"
        },
        {
          "indexed": true,
          "internalType": "address",
          "name": "operator",
          "type": "address"
        },
        {
          "indexed": false,
          "internalType": "bool",
          "name": "approved",
          "type": "bool"
        }
      ],
      "name": "ApprovalForAll",
      "type": "event"
    },
    {
      "anonymous": false,
      "inputs": [
        {
          "indexed": true,
          "internalType": "address",
          "name": "from",
          "type": "address"
        },
        {
          "indexed": true,
          "internalType": "address",
          "name": "to",
          "type": "address"
        },
        {
          "indexed": true,
          "internalType": "uint256",
          "name": "tokenId",
          "type": "uint256"
        }
      ],
      "name": "Transfer",
      "type": "event"
    },
    {
      "inputs": [
        {
          "internalType": "uint256",
          "name": "",
          "type": "uint256"
        }
      ],
      "name": "allPaws",
      "outputs": [
        {
          "internalType": "uint256",
          "name": "tokenId",
          "type": "uint256"
        },
        {
          "internalType": "string",
          "name": "tokenName",
          "type": "string"
        },
        {
          "internalType": "string",
          "name": "creationStr",
          "type": "string"
        },
        {
          "internalType": "string",
          "name": "tokenURI",
          "type": "string"
        },
        {
          "internalType": "address payable",
          "name": "mintedBy",
          "type": "address"
        },
        {
          "internalType": "address payable",
          "name": "currentOwner",
          "type": "address"
        },
        {
          "internalType": "uint256",
          "name": "price",
          "type": "uint256"
        },
        {
          "internalType": "uint256",
          "name": "timesTransferred",
          "type": "uint256"
        },
        {
          "internalType": "bool",
          "name": "forSale",
          "type": "bool"
        }
      ],
      "stateMutability": "view",
      "type": "function",
      "constant": true
    },
    {
      "inputs": [
        {
          "internalType": "address",
          "name": "to",
          "type": "address"
        },
        {
          "internalType": "uint256",
          "name": "tokenId",
          "type": "uint256"
        }
      ],
      "name": "approve",
      "outputs": [],
      "stateMutability": "nonpayable",
      "type": "function"
    },
    {
      "inputs": [
        {
          "internalType": "address",
          "name": "owner",
          "type": "address"
        }
      ],
      "name": "balanceOf",
      "outputs": [
        {
          "internalType": "uint256",
          "name": "",
          "type": "uint256"
        }
      ],
      "stateMutability": "view",
      "type": "function",
      "constant": true
    },
    {
      "inputs": [],
      "name": "baseURI",
      "outputs": [
        {
          "internalType": "string",
          "name": "",
          "type": "string"
        }
      ],
      "stateMutability": "view",
      "type": "function",
      "constant": true
    },
    {
      "inputs": [],
      "name": "collectionName",
      "outputs": [
        {
          "internalType": "string",
          "name": "",
          "type": "string"
        }
      ],
      "stateMutability": "view",
      "type": "function",
      "constant": true
    },
    {
      "inputs": [],
      "name": "collectionNameSymbol",
      "outputs": [
        {
          "internalType": "string",
          "name": "",
          "type": "string"
        }
      ],
      "stateMutability": "view",
      "type": "function",
      "constant": true
    },
    {
      "inputs": [
        {
          "internalType": "string",
          "name": "",
          "type": "string"
        }
      ],
      "name": "creationStrs",
      "outputs": [
        {
          "internalType": "bool",
          "name": "",
          "type": "bool"
        }
      ],
      "stateMutability": "view",
      "type": "function",
      "constant": true
    },
    {
      "inputs": [
        {
          "internalType": "uint256",
          "name": "tokenId",
          "type": "uint256"
        }
      ],
      "name": "getApproved",
      "outputs": [
        {
          "internalType": "address",
          "name": "",
          "type": "address"
        }
      ],
      "stateMutability": "view",
      "type": "function",
      "constant": true
    },
    {
      "inputs": [
        {
          "internalType": "address",
          "name": "owner",
          "type": "address"
        },
        {
          "internalType": "address",
          "name": "operator",
          "type": "address"
        }
      ],
      "name": "isApprovedForAll",
      "outputs": [
        {
          "internalType": "bool",
          "name": "",
          "type": "bool"
        }
      ],
      "stateMutability": "view",
      "type": "function",
      "constant": true
    },
    {
      "inputs": [],
      "name": "mintPrice",
      "outputs": [
        {
          "internalType": "uint256",
          "name": "",
          "type": "uint256"
        }
      ],
      "stateMutability": "view",
      "type": "function",
      "constant": true
    },
    {
      "inputs": [],
      "name": "name",
      "outputs": [
        {
          "internalType": "string",
          "name": "",
          "type": "string"
        }
      ],
      "stateMutability": "view",
      "type": "function",
      "constant": true
    },
    {
      "inputs": [
        {
          "internalType": "string",
          "name": "",
          "type": "string"
        }
      ],
      "name": "nameExists",
      "outputs": [
        {
          "internalType": "bool",
          "name": "",
          "type": "bool"
        }
      ],
      "stateMutability": "view",
      "type": "function",
      "constant": true
    },
    {
      "inputs": [
        {
          "internalType": "uint256",
          "name": "tokenId",
          "type": "uint256"
        }
      ],
      "name": "ownerOf",
      "outputs": [
        {
          "internalType": "address",
          "name": "",
          "type": "address"
        }
      ],
      "stateMutability": "view",
      "type": "function",
      "constant": true
    },
    {
      "inputs": [],
      "name": "pawCounter",
      "outputs": [
        {
          "internalType": "uint256",
          "name": "",
          "type": "uint256"
        }
      ],
      "stateMutability": "view",
      "type": "function",
      "constant": true
    },
    {
      "inputs": [
        {
          "internalType": "address",
          "name": "from",
          "type": "address"
        },
        {
          "internalType": "address",
          "name": "to",
          "type": "address"
        },
        {
          "internalType": "uint256",
          "name": "tokenId",
          "type": "uint256"
        }
      ],
      "name": "safeTransferFrom",
      "outputs": [],
      "stateMutability": "nonpayable",
      "type": "function"
    },
    {
      "inputs": [
        {
          "internalType": "address",
          "name": "from",
          "type": "address"
        },
        {
          "internalType": "address",
          "name": "to",
          "type": "address"
        },
        {
          "internalType": "uint256",
          "name": "tokenId",
          "type": "uint256"
        },
        {
          "internalType": "bytes",
          "name": "_data",
          "type": "bytes"
        }
      ],
      "name": "safeTransferFrom",
      "outputs": [],
      "stateMutability": "nonpayable",
      "type": "function"
    },
    {
      "inputs": [
        {
          "internalType": "address",
          "name": "operator",
          "type": "address"
        },
        {
          "internalType": "bool",
          "name": "approved",
          "type": "bool"
        }
      ],
      "name": "setApprovalForAll",
      "outputs": [],
      "stateMutability": "nonpayable",
      "type": "function"
    },
    {
      "inputs": [
        {
          "internalType": "bytes4",
          "name": "interfaceId",
          "type": "bytes4"
        }
      ],
      "name": "supportsInterface",
      "outputs": [
        {
          "internalType": "bool",
          "name": "",
          "type": "bool"
        }
      ],
      "stateMutability": "view",
      "type": "function",
      "constant": true
    },
    {
      "inputs": [],
      "name": "symbol",
      "outputs": [
        {
          "internalType": "string",
          "name": "",
          "type": "string"
        }
      ],
      "stateMutability": "view",
      "type": "function",
      "constant": true
    },
    {
      "inputs": [
        {
          "internalType": "uint256",
          "name": "index",
          "type": "uint256"
        }
      ],
      "name": "tokenByIndex",
      "outputs": [
        {
          "internalType": "uint256",
          "name": "",
          "type": "uint256"
        }
      ],
      "stateMutability": "view",
      "type": "function",
      "constant": true
    },
    {
      "inputs": [
        {
          "internalType": "address",
          "name": "owner",
          "type": "address"
        },
        {
          "internalType": "uint256",
          "name": "index",
          "type": "uint256"
        }
      ],
      "name": "tokenOfOwnerByIndex",
      "outputs": [
        {
          "internalType": "uint256",
          "name": "",
          "type": "uint256"
        }
      ],
      "stateMutability": "view",
      "type": "function",
      "constant": true
    },
    {
      "inputs": [
        {
          "internalType": "uint256",
          "name": "tokenId",
          "type": "uint256"
        }
      ],
      "name": "tokenURI",
      "outputs": [
        {
          "internalType": "string",
          "name": "",
          "type": "string"
        }
      ],
      "stateMutability": "view",
      "type": "function",
      "constant": true
    },
    {
      "inputs": [
        {
          "internalType": "string",
          "name": "",
          "type": "string"
        }
      ],
      "name": "tokenURIExists",
      "outputs": [
        {
          "internalType": "bool",
          "name": "",
          "type": "bool"
        }
      ],
      "stateMutability": "view",
      "type": "function",
      "constant": true
    },
    {
      "inputs": [],
      "name": "totalSupply",
      "outputs": [
        {
          "internalType": "uint256",
          "name": "",
          "type": "uint256"
        }
      ],
      "stateMutability": "view",
      "type": "function",
      "constant": true
    },
    {
      "inputs": [
        {
          "internalType": "address",
          "name": "from",
          "type": "address"
        },
        {
          "internalType": "address",
          "name": "to",
          "type": "address"
        },
        {
          "internalType": "uint256",
          "name": "tokenId",
          "type": "uint256"
        }
      ],
      "name": "transferFrom",
      "outputs": [],
      "stateMutability": "nonpayable",
      "type": "function"
    },
    {
      "inputs": [
        {
          "internalType": "string",
          "name": "_name",
          "type": "string"
        },
        {
          "internalType": "string",
          "name": "_creationStr",
          "type": "string"
        },
        {
          "internalType": "uint256",
          "name": "_price",
          "type": "uint256"
        },
        {
          "internalType": "string",
          "name": "_tokenURI",
          "type": "string"
        }
      ],
      "name": "mintPaw",
      "outputs": [],
      "stateMutability": "payable",
      "type": "function",
      "payable": true
    },
    {
      "inputs": [
        {
          "internalType": "uint256",
          "name": "_tokenId",
          "type": "uint256"
        }
      ],
      "name": "getTokenOwner",
      "outputs": [
        {
          "internalType": "address",
          "name": "",
          "type": "address"
        }
      ],
      "stateMutability": "view",
      "type": "function",
      "constant": true
    },
    {
      "inputs": [
        {
          "internalType": "uint256",
          "name": "_tokenId",
          "type": "uint256"
        }
      ],
      "name": "getTokenImg",
      "outputs": [
        {
          "internalType": "string",
          "name": "",
          "type": "string"
        }
      ],
      "stateMutability": "view",
      "type": "function",
      "constant": true
    },
    {
      "inputs": [],
      "name": "getTotalNumberMinted",
      "outputs": [
        {
          "internalType": "uint256",
          "name": "",
          "type": "uint256"
        }
      ],
      "stateMutability": "view",
      "type": "function",
      "constant": true
    },
    {
      "inputs": [
        {
          "internalType": "address",
          "name": "_owner",
          "type": "address"
        }
      ],
      "name": "getTotalNumberOwnedByAddress",
      "outputs": [
        {
          "internalType": "uint256",
          "name": "",
          "type": "uint256"
        }
      ],
      "stateMutability": "view",
      "type": "function",
      "constant": true
    },
    {
      "inputs": [
        {
          "internalType": "uint256",
          "name": "_tokenId",
          "type": "uint256"
        }
      ],
      "name": "getTokenExists",
      "outputs": [
        {
          "internalType": "bool",
          "name": "",
          "type": "bool"
        }
      ],
      "stateMutability": "view",
      "type": "function",
      "constant": true
    },
    {
      "inputs": [
        {
          "internalType": "uint256",
          "name": "_tokenId",
          "type": "uint256"
        }
      ],
      "name": "buyToken",
      "outputs": [],
      "stateMutability": "payable",
      "type": "function",
      "payable": true
    },
    {
      "inputs": [
        {
          "internalType": "uint256",
          "name": "_tokenId",
          "type": "uint256"
        },
        {
          "internalType": "uint256",
          "name": "_newPrice",
          "type": "uint256"
        }
      ],
      "name": "changeTokenPrice",
      "outputs": [],
      "stateMutability": "nonpayable",
      "type": "function"
    },
    {
      "inputs": [
        {
          "internalType": "uint256",
          "name": "_tokenId",
          "type": "uint256"
        }
      ],
      "name": "toggleForSale",
      "outputs": [],
      "stateMutability": "nonpayable",
      "type": "function"
    }
  ],
  "bytecode": "0x6080604052660e35fa931a0000600d553480156200001c57600080fd5b506040518060400160405280601e81526020017f4f726967696e616c2043727970746f5061777320436f6c6c656374696f6e00008152506040518060400160405280600381526020017f5041570000000000000000000000000000000000000000000000000000000000815250620000a16301ffc9a760e01b6200017360201b60201c565b8160069080519060200190620000b99291906200037f565b508060079080519060200190620000d29291906200037f565b50620000eb6380ac58cd60e01b6200017360201b60201c565b62000103635b5e139f60e01b6200017360201b60201c565b6200011b63780e9d6360e01b6200017360201b60201c565b50506200012d6200024b60201b60201c565b600a9080519060200190620001449291906200037f565b5062000155620002e560201b60201c565b600b90805190602001906200016c9291906200037f565b5062000517565b63ffffffff60e01b817bffffffffffffffffffffffffffffffffffffffffffffffffffffffff19161415620001df576040517f08c379a0000000000000000000000000000000000000000000000000000000008152600401620001d69062000490565b60405180910390fd5b6001600080837bffffffffffffffffffffffffffffffffffffffffffffffffffffffff19167bffffffffffffffffffffffffffffffffffffffffffffffffffffffff1916815260200190815260200160002060006101000a81548160ff02191690831515021790555050565b6060600680546200025c90620004e1565b80601f01602080910402602001604051908101604052809291908181526020018280546200028a90620004e1565b8015620002db5780601f10620002af57610100808354040283529160200191620002db565b820191906000526020600020905b815481529060010190602001808311620002bd57829003601f168201915b5050505050905090565b606060078054620002f690620004e1565b80601f01602080910402602001604051908101604052809291908181526020018280546200032490620004e1565b8015620003755780601f10620003495761010080835404028352916020019162000375565b820191906000526020600020905b8154815290600101906020018083116200035757829003601f168201915b5050505050905090565b8280546200038d90620004e1565b90600052602060002090601f016020900481019282620003b15760008555620003fd565b82601f10620003cc57805160ff1916838001178555620003fd565b82800160010185558215620003fd579182015b82811115620003fc578251825591602001919060010190620003df565b5b5090506200040c919062000410565b5090565b5b808211156200042b57600081600090555060010162000411565b5090565b600082825260208201905092915050565b7f4552433136353a20696e76616c696420696e7465726661636520696400000000600082015250565b600062000478601c836200042f565b9150620004858262000440565b602082019050919050565b60006020820190508181036000830152620004ab8162000469565b9050919050565b7f4e487b7100000000000000000000000000000000000000000000000000000000600052602260045260246000fd5b60006002820490506001821680620004fa57607f821691505b60208210811415620005115762000510620004b2565b5b50919050565b614e4480620005276000396000f3fe6080604052600436106101f95760003560e01c80636f9507f91161010d578063a5cd761f116100a0578063cc637afe1161006f578063cc637afe146107a3578063def720c2146107e0578063e5326ab11461081d578063e676407a14610848578063e985e9c514610873576101f9565b8063a5cd761f146106d5578063b88d4fde14610712578063bc9cd5df1461073b578063c87b56dd14610766576101f9565b806392cf37c1116100dc57806392cf37c11461061b57806395d89b4114610658578063a22cb46514610683578063a32018b9146106ac576101f9565b80636f9507f91461053157806370a082311461055c578063727278761461059957806378ef836f146105de576101f9565b80632f745c59116101905780634f6ccce71161015f5780634f6ccce71461043857806362e8e8ac146104755780636352211e1461049e5780636817c76c146104db5780636c0360eb14610506576101f9565b80632f745c591461037957806342842e0e146103b657806343d32ae7146103df5780634459040a1461041c576101f9565b8063142687f3116101cc578063142687f3146102cc57806318160ddd1461030957806323b872dd146103345780632d296bf11461035d576101f9565b806301ffc9a7146101fe57806306fdde031461023b578063081812fc14610266578063095ea7b3146102a3575b600080fd5b34801561020a57600080fd5b506102256004803603810190610220919061325d565b6108b0565b60405161023291906132a5565b60405180910390f35b34801561024757600080fd5b50610250610917565b60405161025d9190613359565b60405180910390f35b34801561027257600080fd5b5061028d600480360381019061028891906133b1565b6109a9565b60405161029a919061341f565b60405180910390f35b3480156102af57600080fd5b506102ca60048036038101906102c59190613466565b610a2e565b005b3480156102d857600080fd5b506102f360048036038101906102ee91906133b1565b610b46565b60405161030091906132a5565b60405180910390f35b34801561031557600080fd5b5061031e610b5d565b60405161032b91906134b5565b60405180910390f35b34801561034057600080fd5b5061035b600480360381019061035691906134d0565b610b6e565b005b610377600480360381019061037291906133b1565b610bce565b005b34801561038557600080fd5b506103a0600480360381019061039b9190613466565b610f05565b6040516103ad91906134b5565b60405180910390f35b3480156103c257600080fd5b506103dd60048036038101906103d891906134d0565b610f60565b005b3480156103eb57600080fd5b5061040660048036038101906104019190613658565b610f80565b60405161041391906132a5565b60405180910390f35b610436600480360381019061043191906136a1565b610fb6565b005b34801561044457600080fd5b5061045f600480360381019061045a91906133b1565b6113af565b60405161046c91906134b5565b60405180910390f35b34801561048157600080fd5b5061049c6004803603810190610497919061375c565b6113d2565b005b3480156104aa57600080fd5b506104c560048036038101906104c091906133b1565b611525565b6040516104d2919061341f565b60405180910390f35b3480156104e757600080fd5b506104f061155c565b6040516104fd91906134b5565b60405180910390f35b34801561051257600080fd5b5061051b611562565b6040516105289190613359565b60405180910390f35b34801561053d57600080fd5b506105466115f4565b6040516105539190613359565b60405180910390f35b34801561056857600080fd5b50610583600480360381019061057e919061379c565b611682565b60405161059091906134b5565b60405180910390f35b3480156105a557600080fd5b506105c060048036038101906105bb91906133b1565b611741565b6040516105d5999897969594939291906137ea565b60405180910390f35b3480156105ea57600080fd5b506106056004803603810190610600919061379c565b611974565b60405161061291906134b5565b60405180910390f35b34801561062757600080fd5b50610642600480360381019061063d9190613658565b61198b565b60405161064f91906132a5565b60405180910390f35b34801561066457600080fd5b5061066d6119c1565b60405161067a9190613359565b60405180910390f35b34801561068f57600080fd5b506106aa60048036038101906106a591906138b8565b611a53565b005b3480156106b857600080fd5b506106d360048036038101906106ce91906133b1565b611bd4565b005b3480156106e157600080fd5b506106fc60048036038101906106f791906133b1565b611d98565b604051610709919061341f565b60405180910390f35b34801561071e57600080fd5b5061073960048036038101906107349190613999565b611daf565b005b34801561074757600080fd5b50610750611e11565b60405161075d91906134b5565b60405180910390f35b34801561077257600080fd5b5061078d600480360381019061078891906133b1565b611e25565b60405161079a9190613359565b60405180910390f35b3480156107af57600080fd5b506107ca60048036038101906107c59190613658565b611f98565b6040516107d791906132a5565b60405180910390f35b3480156107ec57600080fd5b50610807600480360381019061080291906133b1565b611fce565b6040516108149190613359565b60405180910390f35b34801561082957600080fd5b50610832611fe6565b60405161083f9190613359565b60405180910390f35b34801561085457600080fd5b5061085d612074565b60405161086a91906134b5565b60405180910390f35b34801561087f57600080fd5b5061089a60048036038101906108959190613a1c565b61207a565b6040516108a791906132a5565b60405180910390f35b6000806000837bffffffffffffffffffffffffffffffffffffffffffffffffffffffff19167bffffffffffffffffffffffffffffffffffffffffffffffffffffffff1916815260200190815260200160002060009054906101000a900460ff169050919050565b60606006805461092690613a8b565b80601f016020809104026020016040519081016040528092919081815260200182805461095290613a8b565b801561099f5780601f106109745761010080835404028352916020019161099f565b820191906000526020600020905b81548152906001019060200180831161098257829003601f168201915b5050505050905090565b60006109b48261210e565b6109f3576040517f08c379a00000000000000000000000000000000000000000000000000000000081526004016109ea90613b2f565b60405180910390fd5b6004600083815260200190815260200160002060009054906101000a900473ffffffffffffffffffffffffffffffffffffffff169050919050565b6000610a3982611525565b90508073ffffffffffffffffffffffffffffffffffffffff168373ffffffffffffffffffffffffffffffffffffffff161415610aaa576040517f08c379a0000000000000000000000000000000000000000000000000000000008152600401610aa190613bc1565b60405180910390fd5b8073ffffffffffffffffffffffffffffffffffffffff16610ac961212b565b73ffffffffffffffffffffffffffffffffffffffff161480610af85750610af781610af261212b565b61207a565b5b610b37576040517f08c379a0000000000000000000000000000000000000000000000000000000008152600401610b2e90613c53565b60405180910390fd5b610b418383612133565b505050565b600080610b528361210e565b905080915050919050565b6000610b6960026121ec565b905090565b610b7f610b7961212b565b82612201565b610bbe576040517f08c379a0000000000000000000000000000000000000000000000000000000008152600401610bb590613ce5565b60405180910390fd5b610bc98383836122df565b505050565b600073ffffffffffffffffffffffffffffffffffffffff163373ffffffffffffffffffffffffffffffffffffffff161415610c3e576040517f08c379a0000000000000000000000000000000000000000000000000000000008152600401610c3590613d51565b60405180910390fd5b610c478161210e565b610c86576040517f08c379a0000000000000000000000000000000000000000000000000000000008152600401610c7d90613dbd565b60405180910390fd5b6000610c9182611525565b9050600073ffffffffffffffffffffffffffffffffffffffff168173ffffffffffffffffffffffffffffffffffffffff161415610d03576040517f08c379a0000000000000000000000000000000000000000000000000000000008152600401610cfa90613d51565b60405180910390fd5b3373ffffffffffffffffffffffffffffffffffffffff168173ffffffffffffffffffffffffffffffffffffffff161415610d72576040517f08c379a0000000000000000000000000000000000000000000000000000000008152600401610d6990613e29565b60405180910390fd5b600e600083815260200190815260200160002060060154341015610dcb576040517f08c379a0000000000000000000000000000000000000000000000000000000008152600401610dc290613ebb565b60405180910390fd5b600e600083815260200190815260200160002060080160009054906101000a900460ff16610e2e576040517f08c379a0000000000000000000000000000000000000000000000000000000008152600401610e2590613f27565b60405180910390fd5b610e398133846122df565b8073ffffffffffffffffffffffffffffffffffffffff166108fc349081150290604051600060405180830381858888f19350505050158015610e7f573d6000803e3d6000fd5b5033600e600084815260200190815260200160002060050160006101000a81548173ffffffffffffffffffffffffffffffffffffffff021916908373ffffffffffffffffffffffffffffffffffffffff160217905550600e60008381526020019081526020016000206007016000815480929190610efc90613f76565b91905055505050565b6000610f5882600160008673ffffffffffffffffffffffffffffffffffffffff1673ffffffffffffffffffffffffffffffffffffffff1681526020019081526020016000206124f690919063ffffffff16565b905092915050565b610f7b83838360405180602001604052806000815250611daf565b505050565b6011818051602081018201805184825260208301602085012081835280955050505050506000915054906101000a900460ff1681565b600073ffffffffffffffffffffffffffffffffffffffff163373ffffffffffffffffffffffffffffffffffffffff161415611026576040517f08c379a000000000000000000000000000000000000000000000000000000000815260040161101d9061400b565b60405180910390fd5b600d5434101561106b576040517f08c379a00000000000000000000000000000000000000000000000000000000081526004016110629061409d565b60405180910390fd5b600c600081548092919061107e90613f76565b919050555061108e600c5461210e565b156110ce576040517f08c379a00000000000000000000000000000000000000000000000000000000081526004016110c590614109565b60405180910390fd5b6010836040516110de9190614165565b908152602001604051809103902060009054906101000a900460ff161561113a576040517f08c379a0000000000000000000000000000000000000000000000000000000008152600401611131906141c8565b60405180910390fd5b60118160405161114a9190614165565b908152602001604051809103902060009054906101000a900460ff16156111a6576040517f08c379a000000000000000000000000000000000000000000000000000000000815260040161119d90614234565b60405180910390fd5b6111b233600c54612510565b6111be600c548261269e565b60016011826040516111d09190614165565b908152602001604051809103902060006101000a81548160ff0219169083151502179055506000604051806101200160405280600c5481526020018681526020018581526020018381526020013373ffffffffffffffffffffffffffffffffffffffff1681526020013373ffffffffffffffffffffffffffffffffffffffff1681526020018481526020016000815260200160001515815250905080600e6000600c5481526020019081526020016000206000820151816000015560208201518160010190805190602001906112a792919061314e565b5060408201518160020190805190602001906112c492919061314e565b5060608201518160030190805190602001906112e192919061314e565b5060808201518160040160006101000a81548173ffffffffffffffffffffffffffffffffffffffff021916908373ffffffffffffffffffffffffffffffffffffffff16021790555060a08201518160050160006101000a81548173ffffffffffffffffffffffffffffffffffffffff021916908373ffffffffffffffffffffffffffffffffffffffff16021790555060c0820151816006015560e082015181600701556101008201518160080160006101000a81548160ff0219169083151502179055509050505050505050565b6000806113c683600261271290919063ffffffff16565b50905080915050919050565b600073ffffffffffffffffffffffffffffffffffffffff163373ffffffffffffffffffffffffffffffffffffffff161415611442576040517f08c379a000000000000000000000000000000000000000000000000000000000815260040161143990613d51565b60405180910390fd5b61144b8261210e565b61148a576040517f08c379a0000000000000000000000000000000000000000000000000000000008152600401611481906142a0565b60405180910390fd5b600061149583611525565b90503373ffffffffffffffffffffffffffffffffffffffff168173ffffffffffffffffffffffffffffffffffffffff1614611505576040517f08c379a00000000000000000000000000000000000000000000000000000000081526004016114fc90614332565b60405180910390fd5b81600e600085815260200190815260200160002060060181905550505050565b600061155582604051806060016040528060298152602001614de660299139600261273e9092919063ffffffff16565b9050919050565b600d5481565b60606009805461157190613a8b565b80601f016020809104026020016040519081016040528092919081815260200182805461159d90613a8b565b80156115ea5780601f106115bf576101008083540402835291602001916115ea565b820191906000526020600020905b8154815290600101906020018083116115cd57829003601f168201915b5050505050905090565b600b805461160190613a8b565b80601f016020809104026020016040519081016040528092919081815260200182805461162d90613a8b565b801561167a5780601f1061164f5761010080835404028352916020019161167a565b820191906000526020600020905b81548152906001019060200180831161165d57829003601f168201915b505050505081565b60008073ffffffffffffffffffffffffffffffffffffffff168273ffffffffffffffffffffffffffffffffffffffff1614156116f3576040517f08c379a00000000000000000000000000000000000000000000000000000000081526004016116ea906143c4565b60405180910390fd5b61173a600160008473ffffffffffffffffffffffffffffffffffffffff1673ffffffffffffffffffffffffffffffffffffffff16815260200190815260200160002061275d565b9050919050565b600e60205280600052604060002060009150905080600001549080600101805461176a90613a8b565b80601f016020809104026020016040519081016040528092919081815260200182805461179690613a8b565b80156117e35780601f106117b8576101008083540402835291602001916117e3565b820191906000526020600020905b8154815290600101906020018083116117c657829003601f168201915b5050505050908060020180546117f890613a8b565b80601f016020809104026020016040519081016040528092919081815260200182805461182490613a8b565b80156118715780601f1061184657610100808354040283529160200191611871565b820191906000526020600020905b81548152906001019060200180831161185457829003601f168201915b50505050509080600301805461188690613a8b565b80601f01602080910402602001604051908101604052809291908181526020018280546118b290613a8b565b80156118ff5780601f106118d4576101008083540402835291602001916118ff565b820191906000526020600020905b8154815290600101906020018083116118e257829003601f168201915b5050505050908060040160009054906101000a900473ffffffffffffffffffffffffffffffffffffffff16908060050160009054906101000a900473ffffffffffffffffffffffffffffffffffffffff16908060060154908060070154908060080160009054906101000a900460ff16905089565b60008061198083611682565b905080915050919050565b6010818051602081018201805184825260208301602085012081835280955050505050506000915054906101000a900460ff1681565b6060600780546119d090613a8b565b80601f01602080910402602001604051908101604052809291908181526020018280546119fc90613a8b565b8015611a495780601f10611a1e57610100808354040283529160200191611a49565b820191906000526020600020905b815481529060010190602001808311611a2c57829003601f168201915b5050505050905090565b611a5b61212b565b73ffffffffffffffffffffffffffffffffffffffff168273ffffffffffffffffffffffffffffffffffffffff161415611ac9576040517f08c379a0000000000000000000000000000000000000000000000000000000008152600401611ac090614430565b60405180910390fd5b8060056000611ad661212b565b73ffffffffffffffffffffffffffffffffffffffff1673ffffffffffffffffffffffffffffffffffffffff16815260200190815260200160002060008473ffffffffffffffffffffffffffffffffffffffff1673ffffffffffffffffffffffffffffffffffffffff16815260200190815260200160002060006101000a81548160ff0219169083151502179055508173ffffffffffffffffffffffffffffffffffffffff16611b8361212b565b73ffffffffffffffffffffffffffffffffffffffff167f17307eab39ab6107e8899845ad3d59bd9653f200f220920489ca2b5937696c3183604051611bc891906132a5565b60405180910390a35050565b600073ffffffffffffffffffffffffffffffffffffffff163373ffffffffffffffffffffffffffffffffffffffff161415611c44576040517f08c379a0000000000000000000000000000000000000000000000000000000008152600401611c3b90613d51565b60405180910390fd5b611c4d8161210e565b611c8c576040517f08c379a0000000000000000000000000000000000000000000000000000000008152600401611c83906142a0565b60405180910390fd5b6000611c9782611525565b90503373ffffffffffffffffffffffffffffffffffffffff168173ffffffffffffffffffffffffffffffffffffffff1614611d07576040517f08c379a0000000000000000000000000000000000000000000000000000000008152600401611cfe90614332565b60405180910390fd5b600e600083815260200190815260200160002060080160009054906101000a900460ff1615611d64576000600e600084815260200190815260200160002060080160006101000a81548160ff021916908315150217905550611d94565b6001600e600084815260200190815260200160002060080160006101000a81548160ff0219169083151502179055505b5050565b600080611da483611525565b905080915050919050565b611dc0611dba61212b565b83612201565b611dff576040517f08c379a0000000000000000000000000000000000000000000000000000000008152600401611df690613ce5565b60405180910390fd5b611e0b84848484612772565b50505050565b600080611e1c610b5d565b90508091505090565b6060611e308261210e565b611e6f576040517f08c379a0000000000000000000000000000000000000000000000000000000008152600401611e66906144c2565b60405180910390fd5b6000600860008481526020019081526020016000208054611e8f90613a8b565b80601f0160208091040260200160405190810160405280929190818152602001828054611ebb90613a8b565b8015611f085780601f10611edd57610100808354040283529160200191611f08565b820191906000526020600020905b815481529060010190602001808311611eeb57829003601f168201915b505050505090506000611f19611562565b9050600081511415611f2f578192505050611f93565b600082511115611f64578082604051602001611f4c9291906144e2565b60405160208183030381529060405292505050611f93565b80611f6e856127ce565b604051602001611f7f9291906144e2565b604051602081830303815290604052925050505b919050565b600f818051602081018201805184825260208301602085012081835280955050505050506000915054906101000a900460ff1681565b60606000611fdb83611e25565b905080915050919050565b600a8054611ff390613a8b565b80601f016020809104026020016040519081016040528092919081815260200182805461201f90613a8b565b801561206c5780601f106120415761010080835404028352916020019161206c565b820191906000526020600020905b81548152906001019060200180831161204f57829003601f168201915b505050505081565b600c5481565b6000600560008473ffffffffffffffffffffffffffffffffffffffff1673ffffffffffffffffffffffffffffffffffffffff16815260200190815260200160002060008373ffffffffffffffffffffffffffffffffffffffff1673ffffffffffffffffffffffffffffffffffffffff16815260200190815260200160002060009054906101000a900460ff16905092915050565b600061212482600261294190919063ffffffff16565b9050919050565b600033905090565b816004600083815260200190815260200160002060006101000a81548173ffffffffffffffffffffffffffffffffffffffff021916908373ffffffffffffffffffffffffffffffffffffffff160217905550808273ffffffffffffffffffffffffffffffffffffffff166121a683611525565b73ffffffffffffffffffffffffffffffffffffffff167f8c5be1e5ebec7d5bd14f71427d1e84f3dd0314c0f7b2291e5b200ac8c7c3b92560405160405180910390a45050565b60006121fa8260000161295b565b9050919050565b600061220c8261210e565b61224b576040517f08c379a000000000000000000000000000000000000000000000000000000000815260040161224290614578565b60405180910390fd5b600061225683611525565b90508073ffffffffffffffffffffffffffffffffffffffff168473ffffffffffffffffffffffffffffffffffffffff1614806122c557508373ffffffffffffffffffffffffffffffffffffffff166122ad846109a9565b73ffffffffffffffffffffffffffffffffffffffff16145b806122d657506122d5818561207a565b5b91505092915050565b8273ffffffffffffffffffffffffffffffffffffffff166122ff82611525565b73ffffffffffffffffffffffffffffffffffffffff1614612355576040517f08c379a000000000000000000000000000000000000000000000000000000000815260040161234c9061460a565b60405180910390fd5b600073ffffffffffffffffffffffffffffffffffffffff168273ffffffffffffffffffffffffffffffffffffffff1614156123c5576040517f08c379a00000000000000000000000000000000000000000000000000000000081526004016123bc9061469c565b60405180910390fd5b6123d083838361296c565b6123db600082612133565b61242c81600160008673ffffffffffffffffffffffffffffffffffffffff1673ffffffffffffffffffffffffffffffffffffffff16815260200190815260200160002061297190919063ffffffff16565b5061247e81600160008573ffffffffffffffffffffffffffffffffffffffff1673ffffffffffffffffffffffffffffffffffffffff16815260200190815260200160002061298b90919063ffffffff16565b50612495818360026129a59092919063ffffffff16565b50808273ffffffffffffffffffffffffffffffffffffffff168473ffffffffffffffffffffffffffffffffffffffff167fddf252ad1be2c89b69c2b068fc378daa952ba7f163c4a11628f55a4df523b3ef60405160405180910390a4505050565b600061250583600001836129da565b60001c905092915050565b600073ffffffffffffffffffffffffffffffffffffffff168273ffffffffffffffffffffffffffffffffffffffff161415612580576040517f08c379a000000000000000000000000000000000000000000000000000000000815260040161257790614708565b60405180910390fd5b6125898161210e565b156125c9576040517f08c379a00000000000000000000000000000000000000000000000000000000081526004016125c090614774565b60405180910390fd5b6125d56000838361296c565b61262681600160008573ffffffffffffffffffffffffffffffffffffffff1673ffffffffffffffffffffffffffffffffffffffff16815260200190815260200160002061298b90919063ffffffff16565b5061263d818360026129a59092919063ffffffff16565b50808273ffffffffffffffffffffffffffffffffffffffff16600073ffffffffffffffffffffffffffffffffffffffff167fddf252ad1be2c89b69c2b068fc378daa952ba7f163c4a11628f55a4df523b3ef60405160405180910390a45050565b6126a78261210e565b6126e6576040517f08c379a00000000000000000000000000000000000000000000000000000000081526004016126dd90614806565b60405180910390fd5b8060086000848152602001908152602001600020908051906020019061270d92919061314e565b505050565b6000806000806127258660000186612a4e565b915091508160001c8160001c9350935050509250929050565b6000612751846000018460001b84612ad8565b60001c90509392505050565b600061276b82600001612b79565b9050919050565b61277d8484846122df565b61278984848484612b8a565b6127c8576040517f08c379a00000000000000000000000000000000000000000000000000000000081526004016127bf90614898565b60405180910390fd5b50505050565b60606000821415612816576040518060400160405280600181526020017f3000000000000000000000000000000000000000000000000000000000000000815250905061293c565b600082905060005b6000821461284857808061283190613f76565b915050600a8261284191906148e7565b915061281e565b60008167ffffffffffffffff8111156128645761286361352d565b5b6040519080825280601f01601f1916602001820160405280156128965781602001600182028036833780820191505090505b50905060006001836128a89190614918565b90508593505b6000841461293457600a846128c3919061494c565b60306128cf919061497d565b60f81b8282806128de906149d3565b9350815181106128f1576128f06149fd565b5b60200101907effffffffffffffffffffffffffffffffffffffffffffffffffffffffffffff1916908160001a905350600a8461292d91906148e7565b93506128ae565b819450505050505b919050565b6000612953836000018360001b612cee565b905092915050565b600081600001805490509050919050565b505050565b6000612983836000018360001b612d11565b905092915050565b600061299d836000018360001b612e29565b905092915050565b60006129d1846000018460001b8473ffffffffffffffffffffffffffffffffffffffff1660001b612e99565b90509392505050565b600081836000018054905011612a25576040517f08c379a0000000000000000000000000000000000000000000000000000000008152600401612a1c90614a9e565b60405180910390fd5b826000018281548110612a3b57612a3a6149fd565b5b9060005260206000200154905092915050565b60008082846000018054905011612a9a576040517f08c379a0000000000000000000000000000000000000000000000000000000008152600401612a9190614b30565b60405180910390fd5b6000846000018481548110612ab257612ab16149fd565b5b906000526020600020906002020190508060000154816001015492509250509250929050565b60008084600101600085815260200190815260200160002054905060008114158390612b3a576040517f08c379a0000000000000000000000000000000000000000000000000000000008152600401612b319190613359565b60405180910390fd5b5084600001600182612b4c9190614918565b81548110612b5d57612b5c6149fd565b5b9060005260206000209060020201600101549150509392505050565b600081600001805490509050919050565b6000612bab8473ffffffffffffffffffffffffffffffffffffffff16612f85565b612bb85760019050612ce6565b6000612c7f63150b7a0260e01b612bcd61212b565b888787604051602401612be39493929190614ba5565b604051602081830303815290604052907bffffffffffffffffffffffffffffffffffffffffffffffffffffffff19166020820180517bffffffffffffffffffffffffffffffffffffffffffffffffffffffff8381831617835250505050604051806060016040528060328152602001614db4603291398773ffffffffffffffffffffffffffffffffffffffff16612f989092919063ffffffff16565b9050600081806020019051810190612c979190614c06565b905063150b7a0260e01b7bffffffffffffffffffffffffffffffffffffffffffffffffffffffff1916817bffffffffffffffffffffffffffffffffffffffffffffffffffffffff191614925050505b949350505050565b600080836001016000848152602001908152602001600020541415905092915050565b60008083600101600084815260200190815260200160002054905060008114612e1d576000600182612d439190614918565b9050600060018660000180549050612d5b9190614918565b90506000866000018281548110612d7557612d746149fd565b5b9060005260206000200154905080876000018481548110612d9957612d986149fd565b5b9060005260206000200181905550600183612db4919061497d565b8760010160008381526020019081526020016000208190555086600001805480612de157612de0614c33565b5b60019003818190600052602060002001600090559055866001016000878152602001908152602001600020600090556001945050505050612e23565b60009150505b92915050565b6000612e358383612fb0565b612e8e578260000182908060018154018082558091505060019003906000526020600020016000909190919091505582600001805490508360010160008481526020019081526020016000208190555060019050612e93565b600090505b92915050565b6000808460010160008581526020019081526020016000205490506000811415612f4057846000016040518060400160405280868152602001858152509080600181540180825580915050600190039060005260206000209060020201600090919091909150600082015181600001556020820151816001015550508460000180549050856001016000868152602001908152602001600020819055506001915050612f7e565b8285600001600183612f529190614918565b81548110612f6357612f626149fd565b5b90600052602060002090600202016001018190555060009150505b9392505050565b600080823b905060008111915050919050565b6060612fa78484600085612fd3565b90509392505050565b600080836001016000848152602001908152602001600020541415905092915050565b606082471015613018576040517f08c379a000000000000000000000000000000000000000000000000000000000815260040161300f90614cd4565b60405180910390fd5b61302185612f85565b613060576040517f08c379a000000000000000000000000000000000000000000000000000000000815260040161305790614d40565b60405180910390fd5b6000808673ffffffffffffffffffffffffffffffffffffffff1685876040516130899190614d9c565b60006040518083038185875af1925050503d80600081146130c6576040519150601f19603f3d011682016040523d82523d6000602084013e6130cb565b606091505b50915091506130db8282866130e7565b92505050949350505050565b606083156130f757829050613147565b60008351111561310a5782518084602001fd5b816040517f08c379a000000000000000000000000000000000000000000000000000000000815260040161313e9190613359565b60405180910390fd5b9392505050565b82805461315a90613a8b565b90600052602060002090601f01602090048101928261317c57600085556131c3565b82601f1061319557805160ff19168380011785556131c3565b828001600101855582156131c3579182015b828111156131c25782518255916020019190600101906131a7565b5b5090506131d091906131d4565b5090565b5b808211156131ed5760008160009055506001016131d5565b5090565b6000604051905090565b600080fd5b600080fd5b60007fffffffff0000000000000000000000000000000000000000000000000000000082169050919050565b61323a81613205565b811461324557600080fd5b50565b60008135905061325781613231565b92915050565b600060208284031215613273576132726131fb565b5b600061328184828501613248565b91505092915050565b60008115159050919050565b61329f8161328a565b82525050565b60006020820190506132ba6000830184613296565b92915050565b600081519050919050565b600082825260208201905092915050565b60005b838110156132fa5780820151818401526020810190506132df565b83811115613309576000848401525b50505050565b6000601f19601f8301169050919050565b600061332b826132c0565b61333581856132cb565b93506133458185602086016132dc565b61334e8161330f565b840191505092915050565b600060208201905081810360008301526133738184613320565b905092915050565b6000819050919050565b61338e8161337b565b811461339957600080fd5b50565b6000813590506133ab81613385565b92915050565b6000602082840312156133c7576133c66131fb565b5b60006133d58482850161339c565b91505092915050565b600073ffffffffffffffffffffffffffffffffffffffff82169050919050565b6000613409826133de565b9050919050565b613419816133fe565b82525050565b60006020820190506134346000830184613410565b92915050565b613443816133fe565b811461344e57600080fd5b50565b6000813590506134608161343a565b92915050565b6000806040838503121561347d5761347c6131fb565b5b600061348b85828601613451565b925050602061349c8582860161339c565b9150509250929050565b6134af8161337b565b82525050565b60006020820190506134ca60008301846134a6565b92915050565b6000806000606084860312156134e9576134e86131fb565b5b60006134f786828701613451565b935050602061350886828701613451565b92505060406135198682870161339c565b9150509250925092565b600080fd5b600080fd5b7f4e487b7100000000000000000000000000000000000000000000000000000000600052604160045260246000fd5b6135658261330f565b810181811067ffffffffffffffff821117156135845761358361352d565b5b80604052505050565b60006135976131f1565b90506135a3828261355c565b919050565b600067ffffffffffffffff8211156135c3576135c261352d565b5b6135cc8261330f565b9050602081019050919050565b82818337600083830152505050565b60006135fb6135f6846135a8565b61358d565b90508281526020810184848401111561361757613616613528565b5b6136228482856135d9565b509392505050565b600082601f83011261363f5761363e613523565b5b813561364f8482602086016135e8565b91505092915050565b60006020828403121561366e5761366d6131fb565b5b600082013567ffffffffffffffff81111561368c5761368b613200565b5b6136988482850161362a565b91505092915050565b600080600080608085870312156136bb576136ba6131fb565b5b600085013567ffffffffffffffff8111156136d9576136d8613200565b5b6136e58782880161362a565b945050602085013567ffffffffffffffff81111561370657613705613200565b5b6137128782880161362a565b93505060406137238782880161339c565b925050606085013567ffffffffffffffff81111561374457613743613200565b5b6137508782880161362a565b91505092959194509250565b60008060408385031215613773576137726131fb565b5b60006137818582860161339c565b92505060206137928582860161339c565b9150509250929050565b6000602082840312156137b2576137b16131fb565b5b60006137c084828501613451565b91505092915050565b60006137d4826133de565b9050919050565b6137e4816137c9565b82525050565b600061012082019050613800600083018c6134a6565b8181036020830152613812818b613320565b90508181036040830152613826818a613320565b9050818103606083015261383a8189613320565b905061384960808301886137db565b61385660a08301876137db565b61386360c08301866134a6565b61387060e08301856134a6565b61387e610100830184613296565b9a9950505050505050505050565b6138958161328a565b81146138a057600080fd5b50565b6000813590506138b28161388c565b92915050565b600080604083850312156138cf576138ce6131fb565b5b60006138dd85828601613451565b92505060206138ee858286016138a3565b9150509250929050565b600067ffffffffffffffff8211156139135761391261352d565b5b61391c8261330f565b9050602081019050919050565b600061393c613937846138f8565b61358d565b90508281526020810184848401111561395857613957613528565b5b6139638482856135d9565b509392505050565b600082601f8301126139805761397f613523565b5b8135613990848260208601613929565b91505092915050565b600080600080608085870312156139b3576139b26131fb565b5b60006139c187828801613451565b94505060206139d287828801613451565b93505060406139e38782880161339c565b925050606085013567ffffffffffffffff811115613a0457613a03613200565b5b613a108782880161396b565b91505092959194509250565b60008060408385031215613a3357613a326131fb565b5b6000613a4185828601613451565b9250506020613a5285828601613451565b9150509250929050565b7f4e487b7100000000000000000000000000000000000000000000000000000000600052602260045260246000fd5b60006002820490506001821680613aa357607f821691505b60208210811415613ab757613ab6613a5c565b5b50919050565b7f4552433732313a20617070726f76656420717565727920666f72206e6f6e657860008201527f697374656e7420746f6b656e0000000000000000000000000000000000000000602082015250565b6000613b19602c836132cb565b9150613b2482613abd565b604082019050919050565b60006020820190508181036000830152613b4881613b0c565b9050919050565b7f4552433732313a20617070726f76616c20746f2063757272656e74206f776e6560008201527f7200000000000000000000000000000000000000000000000000000000000000602082015250565b6000613bab6021836132cb565b9150613bb682613b4f565b604082019050919050565b60006020820190508181036000830152613bda81613b9e565b9050919050565b7f4552433732313a20617070726f76652063616c6c6572206973206e6f74206f7760008201527f6e6572206e6f7220617070726f76656420666f7220616c6c0000000000000000602082015250565b6000613c3d6038836132cb565b9150613c4882613be1565b604082019050919050565b60006020820190508181036000830152613c6c81613c30565b9050919050565b7f4552433732313a207472616e736665722063616c6c6572206973206e6f74206f60008201527f776e6572206e6f7220617070726f766564000000000000000000000000000000602082015250565b6000613ccf6031836132cb565b9150613cda82613c73565b604082019050919050565b60006020820190508181036000830152613cfe81613cc2565b9050919050565b7f6e6f6e2d7a65726f20616464726573736573206f6e6c79000000000000000000600082015250565b6000613d3b6017836132cb565b9150613d4682613d05565b602082019050919050565b60006020820190508181036000830152613d6a81613d2e565b9050919050565b7f746869732070617720646f6573206e6f74206578697374000000000000000000600082015250565b6000613da76017836132cb565b9150613db282613d71565b602082019050919050565b60006020820190508181036000830152613dd681613d9a565b9050919050565b7f796f752063616e27742062757920796f7572206f776e20746f6b656e00000000600082015250565b6000613e13601c836132cb565b9150613e1e82613ddd565b602082019050919050565b60006020820190508181036000830152613e4281613e06565b9050919050565b7f706c656173652073656e642074686520636f727265637420616d6f756e74206f60008201527f6620657468000000000000000000000000000000000000000000000000000000602082015250565b6000613ea56025836132cb565b9150613eb082613e49565b604082019050919050565b60006020820190508181036000830152613ed481613e98565b9050919050565b7f7468697320706177206973206e6f7420666f722073616c650000000000000000600082015250565b6000613f116018836132cb565b9150613f1c82613edb565b602082019050919050565b60006020820190508181036000830152613f4081613f04565b9050919050565b7f4e487b7100000000000000000000000000000000000000000000000000000000600052601160045260246000fd5b6000613f818261337b565b91507fffffffffffffffffffffffffffffffffffffffffffffffffffffffffffffffff821415613fb457613fb3613f47565b5b600182019050919050565b7f4e6f6e2d7a65726f20616464726573736573206f6e6c79000000000000000000600082015250565b6000613ff56017836132cb565b915061400082613fbf565b602082019050919050565b6000602082019050818103600083015261402481613fe8565b9050919050565b7f596f75206d75737420706179207468652061637475616c206d696e742070726960008201527f6365000000000000000000000000000000000000000000000000000000000000602082015250565b60006140876022836132cb565b91506140928261402b565b604082019050919050565b600060208201905081810360008301526140b68161407a565b9050919050565b7f636f6c6c656374696f6e20636f756e746572206e6f7420666f756e6400000000600082015250565b60006140f3601c836132cb565b91506140fe826140bd565b602082019050919050565b60006020820190508181036000830152614122816140e6565b9050919050565b600081905092915050565b600061413f826132c0565b6141498185614129565b93506141598185602086016132dc565b80840191505092915050565b60006141718284614134565b915081905092915050565b7f7468697320706177207072696e7420616c726561647920657869737473000000600082015250565b60006141b2601d836132cb565b91506141bd8261417c565b602082019050919050565b600060208201905081810360008301526141e1816141a5565b9050919050565b7f7468652055524920616c72656164792065786973747300000000000000000000600082015250565b600061421e6016836132cb565b9150614229826141e8565b602082019050919050565b6000602082019050818103600083015261424d81614211565b9050919050565b7f746f6b656e20646f6573206e6f74206578697374000000000000000000000000600082015250565b600061428a6014836132cb565b915061429582614254565b602082019050919050565b600060208201905081810360008301526142b98161427d565b9050919050565b7f796f752063616e6e6f742065646974206120746f6b656e20746861742069732060008201527f6e6f7420796f7572730000000000000000000000000000000000000000000000602082015250565b600061431c6029836132cb565b9150614327826142c0565b604082019050919050565b6000602082019050818103600083015261434b8161430f565b9050919050565b7f4552433732313a2062616c616e636520717565727920666f7220746865207a6560008201527f726f206164647265737300000000000000000000000000000000000000000000602082015250565b60006143ae602a836132cb565b91506143b982614352565b604082019050919050565b600060208201905081810360008301526143dd816143a1565b9050919050565b7f4552433732313a20617070726f766520746f2063616c6c657200000000000000600082015250565b600061441a6019836132cb565b9150614425826143e4565b602082019050919050565b600060208201905081810360008301526144498161440d565b9050919050565b7f4552433732314d657461646174613a2055524920717565727920666f72206e6f60008201527f6e6578697374656e7420746f6b656e0000000000000000000000000000000000602082015250565b60006144ac602f836132cb565b91506144b782614450565b604082019050919050565b600060208201905081810360008301526144db8161449f565b9050919050565b60006144ee8285614134565b91506144fa8284614134565b91508190509392505050565b7f4552433732313a206f70657261746f7220717565727920666f72206e6f6e657860008201527f697374656e7420746f6b656e0000000000000000000000000000000000000000602082015250565b6000614562602c836132cb565b915061456d82614506565b604082019050919050565b6000602082019050818103600083015261459181614555565b9050919050565b7f4552433732313a207472616e73666572206f6620746f6b656e2074686174206960008201527f73206e6f74206f776e0000000000000000000000000000000000000000000000602082015250565b60006145f46029836132cb565b91506145ff82614598565b604082019050919050565b60006020820190508181036000830152614623816145e7565b9050919050565b7f4552433732313a207472616e7366657220746f20746865207a65726f2061646460008201527f7265737300000000000000000000000000000000000000000000000000000000602082015250565b60006146866024836132cb565b91506146918261462a565b604082019050919050565b600060208201905081810360008301526146b581614679565b9050919050565b7f4552433732313a206d696e7420746f20746865207a65726f2061646472657373600082015250565b60006146f26020836132cb565b91506146fd826146bc565b602082019050919050565b60006020820190508181036000830152614721816146e5565b9050919050565b7f4552433732313a20746f6b656e20616c7265616479206d696e74656400000000600082015250565b600061475e601c836132cb565b915061476982614728565b602082019050919050565b6000602082019050818103600083015261478d81614751565b9050919050565b7f4552433732314d657461646174613a2055524920736574206f66206e6f6e657860008201527f697374656e7420746f6b656e0000000000000000000000000000000000000000602082015250565b60006147f0602c836132cb565b91506147fb82614794565b604082019050919050565b6000602082019050818103600083015261481f816147e3565b9050919050565b7f4552433732313a207472616e7366657220746f206e6f6e20455243373231526560008201527f63656976657220696d706c656d656e7465720000000000000000000000000000602082015250565b60006148826032836132cb565b915061488d82614826565b604082019050919050565b600060208201905081810360008301526148b181614875565b9050919050565b7f4e487b7100000000000000000000000000000000000000000000000000000000600052601260045260246000fd5b60006148f28261337b565b91506148fd8361337b565b92508261490d5761490c6148b8565b5b828204905092915050565b60006149238261337b565b915061492e8361337b565b92508282101561494157614940613f47565b5b828203905092915050565b60006149578261337b565b91506149628361337b565b925082614972576149716148b8565b5b828206905092915050565b60006149888261337b565b91506149938361337b565b9250827fffffffffffffffffffffffffffffffffffffffffffffffffffffffffffffffff038211156149c8576149c7613f47565b5b828201905092915050565b60006149de8261337b565b915060008214156149f2576149f1613f47565b5b600182039050919050565b7f4e487b7100000000000000000000000000000000000000000000000000000000600052603260045260246000fd5b7f456e756d657261626c655365743a20696e646578206f7574206f6620626f756e60008201527f6473000000000000000000000000000000000000000000000000000000000000602082015250565b6000614a886022836132cb565b9150614a9382614a2c565b604082019050919050565b60006020820190508181036000830152614ab781614a7b565b9050919050565b7f456e756d657261626c654d61703a20696e646578206f7574206f6620626f756e60008201527f6473000000000000000000000000000000000000000000000000000000000000602082015250565b6000614b1a6022836132cb565b9150614b2582614abe565b604082019050919050565b60006020820190508181036000830152614b4981614b0d565b9050919050565b600081519050919050565b600082825260208201905092915050565b6000614b7782614b50565b614b818185614b5b565b9350614b918185602086016132dc565b614b9a8161330f565b840191505092915050565b6000608082019050614bba60008301876137db565b614bc76020830186613410565b614bd460408301856134a6565b8181036060830152614be68184614b6c565b905095945050505050565b600081519050614c0081613231565b92915050565b600060208284031215614c1c57614c1b6131fb565b5b6000614c2a84828501614bf1565b91505092915050565b7f4e487b7100000000000000000000000000000000000000000000000000000000600052603160045260246000fd5b7f416464726573733a20696e73756666696369656e742062616c616e636520666f60008201527f722063616c6c0000000000000000000000000000000000000000000000000000602082015250565b6000614cbe6026836132cb565b9150614cc982614c62565b604082019050919050565b60006020820190508181036000830152614ced81614cb1565b9050919050565b7f416464726573733a2063616c6c20746f206e6f6e2d636f6e7472616374000000600082015250565b6000614d2a601d836132cb565b9150614d3582614cf4565b602082019050919050565b60006020820190508181036000830152614d5981614d1d565b9050919050565b600081905092915050565b6000614d7682614b50565b614d808185614d60565b9350614d908185602086016132dc565b80840191505092915050565b6000614da88284614d6b565b91508190509291505056fe4552433732313a207472616e7366657220746f206e6f6e20455243373231526563656976657220696d706c656d656e7465724552433732313a206f776e657220717565727920666f72206e6f6e6578697374656e7420746f6b656ea2646970667358221220764f4eb1f418862e0287b29b3e0035d79a0be456ce35ab6ee283730fd60eee3c64736f6c634300080a0033",
  "immutableReferences": {},
  "source": "//SPDX-License-Identifier: MIT\npragma solidity  >=0.8.0;\npragma abicoder v2;\n\nimport \"./ERC721.sol\";\n\ncontract CryptoPaws is ERC721 {\n\n    // name of paw collection for contract\n    string public collectionName;\n    // symbol for paw tokens\n    string public collectionNameSymbol;\n    // total number of paws\n    uint256 public pawCounter;\n\n    //set a default mint price\n    uint256 public mintPrice = 4000000000000000 wei;\n\n    // define paw struct\n    struct CryptoPaw {\n        //unique tokenid\n        uint256 tokenId;\n\n        string tokenName;\n        //string that specifies unique color combination\n        string creationStr;\n        //string that holds URI that points to image file on ipfs\n        string tokenURI;\n        //address of the account that minted the token\n        address payable mintedBy;\n        //address of current token owner\n        address payable currentOwner;\n        //set price of token\n        uint256 price;\n        //tracks number of times token changed ownership\n        uint256 timesTransferred;\n        bool forSale;\n    }\n\n    // map tokenId to a Paw\n    mapping(uint256 => CryptoPaw) public allPaws;\n\n    mapping(string => bool) public nameExists;\n    // check if a selector number already exists\n    mapping(string => bool) public creationStrs;\n    // check if a URI exists\n    mapping(string => bool) public tokenURIExists;\n\n    // constructor that creates the ERC721\n    constructor() ERC721(\"Original CryptoPaws Collection\",\"PAW\") {\n        collectionName = name();\n        collectionNameSymbol = symbol();\n    }\n\n    // minting function for new PAW\n    function mintPaw(string memory _name, string memory _creationStr, uint _price, string memory _tokenURI) external payable{\n        //make sure address exists and isnt a 0 address\n        require(msg.sender != address(0), \"Non-zero addresses only\");\n        //make sure the mint price is paid\n        require(msg.value >= mintPrice, \"You must pay the actual mint price\");\n        //increment the collection counter\n        pawCounter++;\n        //pawCounter is the tokenid in this case\n        require(!_exists(pawCounter), \"collection counter not found\");\n        //checks that color combo does not already exist\n        require(!creationStrs[_creationStr], \"this paw print already exists\");\n        //checks that uri is new\n        require(!tokenURIExists[_tokenURI], \"the URI already exists\");\n\n        //mint time baby\n        _mint(msg.sender, pawCounter);\n        //set the URI for the token\n        _setTokenURI(pawCounter, _tokenURI);\n        \n        //add URI to URI list\n        tokenURIExists[_tokenURI] = true;\n        \n        \n        CryptoPaw memory newCryptoPaw = CryptoPaw(\n            pawCounter,\n            _name,\n            _creationStr,\n            _tokenURI,\n            payable(msg.sender),\n            payable(msg.sender),\n            _price,\n            0,\n            false);\n\n            allPaws[pawCounter] = newCryptoPaw;\n    }\n\n    //get the owner of a token\n    function getTokenOwner(uint256 _tokenId) public view returns(address) {\n        address tokenOwner = ownerOf(_tokenId);\n        return tokenOwner;\n    }\n\n    //get token image\n    function getTokenImg(uint256 _tokenId) public view returns(string memory) {\n        string memory tokenImg = tokenURI(_tokenId);\n        return tokenImg;\n    }\n\n    //get total number of tokens\n    function getTotalNumberMinted() public view returns(uint256) {\n        uint256 totalNumberOfTokensMinted = totalSupply();\n        return totalNumberOfTokensMinted;\n    }\n\n    //get number of tokens owned by an address\n    function getTotalNumberOwnedByAddress(address _owner) public view returns(uint256) {\n        uint totalNumberOfTokensOwned = balanceOf(_owner);\n        return totalNumberOfTokensOwned;\n    }\n\n    //check if token exists\n    function getTokenExists(uint256 _tokenId) public view returns(bool) {\n        bool tokenExists = _exists(_tokenId);\n        return tokenExists;\n    }\n\n    function buyToken(uint256 _tokenId) public payable {\n        //check for nonzero account\n        require(msg.sender != address(0), \"non-zero addresses only\");\n        // check if tokenId exists\n        require(_exists(_tokenId), \"this paw does not exist\");\n\n        //get token owner's address\n        address payable tokenOwner = payable(ownerOf(_tokenId));\n\n        //check if token owner is nonzero\n        require(tokenOwner != address(0), \"non-zero addresses only\");\n        //check that buyer is not token owner\n        require(tokenOwner != msg.sender, \"you can't buy your own token\");\n\n\n        //verify price sent is equal to or more than asking price\n        require(msg.value >= allPaws[_tokenId].price, \"please send the correct amount of eth\");\n        //verify paw is for sale\n        require(allPaws[_tokenId].forSale, \"this paw is not for sale\");\n\n        //transfer token ownership\n        _transfer(tokenOwner, msg.sender, _tokenId);\n\n        //send previous owner the payment\n        tokenOwner.transfer(msg.value);\n\n        //set new owner\n        allPaws[_tokenId].currentOwner = payable(msg.sender);\n        //increase transfer counter\n        allPaws[_tokenId].timesTransferred++;\n    }\n\n    function changeTokenPrice(uint256 _tokenId, uint256 _newPrice) public {\n        //require caller is not zero address\n        require(msg.sender != address(0), \"non-zero addresses only\");\n        //require token exists\n        require(_exists(_tokenId), \"token does not exist\");\n        \n        //get token owner\n        address tokenOwner = ownerOf(_tokenId);\n        //check sender is owner\n        require(tokenOwner == msg.sender, \"you cannot edit a token that is not yours\");\n\n        //update price\n        allPaws[_tokenId].price = _newPrice;\n    }\n\n    function toggleForSale(uint256 _tokenId) public {\n        //address 0 safeguard\n        require(msg.sender != address(0), \"non-zero addresses only\");\n        //require token exists\n        require(_exists(_tokenId), \"token does not exist\");\n\n        //get token owner\n        address tokenOwner = ownerOf(_tokenId);\n        //check that owner is sender\n        require(tokenOwner == msg.sender, \"you cannot edit a token that is not yours\");\n        \n        //toggle the sale state\n        if(allPaws[_tokenId].forSale) {\n            allPaws[_tokenId].forSale = false;\n        } else {\n            allPaws[_tokenId].forSale = true;\n        }\n    }\n}",
  "sourcePath": "/home/csc333/Documents/GitHub/cryptoboys-nft-marketplace/src/contracts/CryptoPaws.sol",
  "compiler": {
    "name": "solc",
    "version": "0.8.10+commit.fc410830.Emscripten.clang"
  },
  "schemaVersion": "3.4.3",
  "updatedAt": "2021-11-22T21:22:18.160Z",
  "networkType": "ethereum",
  "devdoc": {
    "kind": "dev",
    "methods": {
      "approve(address,uint256)": {
        "details": "See {IERC721-approve}."
      },
      "balanceOf(address)": {
        "details": "See {IERC721-balanceOf}."
      },
      "baseURI()": {
        "details": "Returns the base URI set via {_setBaseURI}. This will be automatically added as a prefix in {tokenURI} to each token's URI, or to the token ID if no specific URI is set for that token ID."
      },
      "getApproved(uint256)": {
        "details": "See {IERC721-getApproved}."
      },
      "isApprovedForAll(address,address)": {
        "details": "See {IERC721-isApprovedForAll}."
      },
      "name()": {
        "details": "See {IERC721Metadata-name}."
      },
      "ownerOf(uint256)": {
        "details": "See {IERC721-ownerOf}."
      },
      "safeTransferFrom(address,address,uint256)": {
        "details": "See {IERC721-safeTransferFrom}."
      },
      "safeTransferFrom(address,address,uint256,bytes)": {
        "details": "See {IERC721-safeTransferFrom}."
      },
      "setApprovalForAll(address,bool)": {
        "details": "See {IERC721-setApprovalForAll}."
      },
      "supportsInterface(bytes4)": {
        "details": "See {IERC165-supportsInterface}. Time complexity O(1), guaranteed to always use less than 30 000 gas."
      },
      "symbol()": {
        "details": "See {IERC721Metadata-symbol}."
      },
      "tokenByIndex(uint256)": {
        "details": "See {IERC721Enumerable-tokenByIndex}."
      },
      "tokenOfOwnerByIndex(address,uint256)": {
        "details": "See {IERC721Enumerable-tokenOfOwnerByIndex}."
      },
      "tokenURI(uint256)": {
        "details": "See {IERC721Metadata-tokenURI}."
      },
      "totalSupply()": {
        "details": "See {IERC721Enumerable-totalSupply}."
      },
      "transferFrom(address,address,uint256)": {
        "details": "See {IERC721-transferFrom}."
      }
    },
    "version": 1
  },
  "userdoc": {
    "kind": "user",
    "methods": {},
    "version": 1
  }
}