{
  "contractName": "CryptoPaws",
  "abi": [
    {
      "inputs": [],
      "stateMutability": "nonpayable",
      "type": "constructor"
    },
    {
      "anonymous": false,
      "inputs": [
        {
          "indexed": true,
          "internalType": "address",
          "name": "owner",
          "type": "address"
        },
        {
          "indexed": true,
          "internalType": "address",
          "name": "approved",
          "type": "address"
        },
        {
          "indexed": true,
          "internalType": "uint256",
          "name": "tokenId",
          "type": "uint256"
        }
      ],
      "name": "Approval",
      "type": "event"
    },
    {
      "anonymous": false,
      "inputs": [
        {
          "indexed": true,
          "internalType": "address",
          "name": "owner",
          "type": "address"
        },
        {
          "indexed": true,
          "internalType": "address",
          "name": "operator",
          "type": "address"
        },
        {
          "indexed": false,
          "internalType": "bool",
          "name": "approved",
          "type": "bool"
        }
      ],
      "name": "ApprovalForAll",
      "type": "event"
    },
    {
      "anonymous": false,
      "inputs": [
        {
          "indexed": true,
          "internalType": "address",
          "name": "from",
          "type": "address"
        },
        {
          "indexed": true,
          "internalType": "address",
          "name": "to",
          "type": "address"
        },
        {
          "indexed": true,
          "internalType": "uint256",
          "name": "tokenId",
          "type": "uint256"
        }
      ],
      "name": "Transfer",
      "type": "event"
    },
    {
      "inputs": [
        {
          "internalType": "uint256",
          "name": "",
          "type": "uint256"
        }
      ],
      "name": "allPaws",
      "outputs": [
        {
          "internalType": "uint256",
          "name": "tokenId",
          "type": "uint256"
        },
        {
          "internalType": "string",
          "name": "creationStr",
          "type": "string"
        },
        {
          "internalType": "string",
          "name": "tokenURI",
          "type": "string"
        },
        {
          "internalType": "address payable",
          "name": "mintedBy",
          "type": "address"
        },
        {
          "internalType": "address payable",
          "name": "currentOwner",
          "type": "address"
        },
        {
          "internalType": "uint256",
          "name": "price",
          "type": "uint256"
        },
        {
          "internalType": "uint256",
          "name": "timesTransferred",
          "type": "uint256"
        },
        {
          "internalType": "bool",
          "name": "forSale",
          "type": "bool"
        }
      ],
      "stateMutability": "view",
      "type": "function"
    },
    {
      "inputs": [
        {
          "internalType": "address",
          "name": "to",
          "type": "address"
        },
        {
          "internalType": "uint256",
          "name": "tokenId",
          "type": "uint256"
        }
      ],
      "name": "approve",
      "outputs": [],
      "stateMutability": "nonpayable",
      "type": "function"
    },
    {
      "inputs": [
        {
          "internalType": "address",
          "name": "owner",
          "type": "address"
        }
      ],
      "name": "balanceOf",
      "outputs": [
        {
          "internalType": "uint256",
          "name": "",
          "type": "uint256"
        }
      ],
      "stateMutability": "view",
      "type": "function"
    },
    {
      "inputs": [],
      "name": "baseURI",
      "outputs": [
        {
          "internalType": "string",
          "name": "",
          "type": "string"
        }
      ],
      "stateMutability": "view",
      "type": "function"
    },
    {
      "inputs": [],
      "name": "collectionName",
      "outputs": [
        {
          "internalType": "string",
          "name": "",
          "type": "string"
        }
      ],
      "stateMutability": "view",
      "type": "function"
    },
    {
      "inputs": [],
      "name": "collectionNameSymbol",
      "outputs": [
        {
          "internalType": "string",
          "name": "",
          "type": "string"
        }
      ],
      "stateMutability": "view",
      "type": "function"
    },
    {
      "inputs": [
        {
          "internalType": "string",
          "name": "",
          "type": "string"
        }
      ],
      "name": "creationStrs",
      "outputs": [
        {
          "internalType": "bool",
          "name": "",
          "type": "bool"
        }
      ],
      "stateMutability": "view",
      "type": "function"
    },
    {
      "inputs": [],
      "name": "defaultPrice",
      "outputs": [
        {
          "internalType": "uint256",
          "name": "",
          "type": "uint256"
        }
      ],
      "stateMutability": "view",
      "type": "function"
    },
    {
      "inputs": [
        {
          "internalType": "uint256",
          "name": "tokenId",
          "type": "uint256"
        }
      ],
      "name": "getApproved",
      "outputs": [
        {
          "internalType": "address",
          "name": "",
          "type": "address"
        }
      ],
      "stateMutability": "view",
      "type": "function"
    },
    {
      "inputs": [
        {
          "internalType": "address",
          "name": "owner",
          "type": "address"
        },
        {
          "internalType": "address",
          "name": "operator",
          "type": "address"
        }
      ],
      "name": "isApprovedForAll",
      "outputs": [
        {
          "internalType": "bool",
          "name": "",
          "type": "bool"
        }
      ],
      "stateMutability": "view",
      "type": "function"
    },
    {
      "inputs": [],
      "name": "mintPrice",
      "outputs": [
        {
          "internalType": "uint256",
          "name": "",
          "type": "uint256"
        }
      ],
      "stateMutability": "view",
      "type": "function"
    },
    {
      "inputs": [],
      "name": "name",
      "outputs": [
        {
          "internalType": "string",
          "name": "",
          "type": "string"
        }
      ],
      "stateMutability": "view",
      "type": "function"
    },
    {
      "inputs": [
        {
          "internalType": "uint256",
          "name": "tokenId",
          "type": "uint256"
        }
      ],
      "name": "ownerOf",
      "outputs": [
        {
          "internalType": "address",
          "name": "",
          "type": "address"
        }
      ],
      "stateMutability": "view",
      "type": "function"
    },
    {
      "inputs": [],
      "name": "pawCounter",
      "outputs": [
        {
          "internalType": "uint256",
          "name": "",
          "type": "uint256"
        }
      ],
      "stateMutability": "view",
      "type": "function"
    },
    {
      "inputs": [
        {
          "internalType": "address",
          "name": "from",
          "type": "address"
        },
        {
          "internalType": "address",
          "name": "to",
          "type": "address"
        },
        {
          "internalType": "uint256",
          "name": "tokenId",
          "type": "uint256"
        }
      ],
      "name": "safeTransferFrom",
      "outputs": [],
      "stateMutability": "nonpayable",
      "type": "function"
    },
    {
      "inputs": [
        {
          "internalType": "address",
          "name": "from",
          "type": "address"
        },
        {
          "internalType": "address",
          "name": "to",
          "type": "address"
        },
        {
          "internalType": "uint256",
          "name": "tokenId",
          "type": "uint256"
        },
        {
          "internalType": "bytes",
          "name": "_data",
          "type": "bytes"
        }
      ],
      "name": "safeTransferFrom",
      "outputs": [],
      "stateMutability": "nonpayable",
      "type": "function"
    },
    {
      "inputs": [
        {
          "internalType": "address",
          "name": "operator",
          "type": "address"
        },
        {
          "internalType": "bool",
          "name": "approved",
          "type": "bool"
        }
      ],
      "name": "setApprovalForAll",
      "outputs": [],
      "stateMutability": "nonpayable",
      "type": "function"
    },
    {
      "inputs": [
        {
          "internalType": "bytes4",
          "name": "interfaceId",
          "type": "bytes4"
        }
      ],
      "name": "supportsInterface",
      "outputs": [
        {
          "internalType": "bool",
          "name": "",
          "type": "bool"
        }
      ],
      "stateMutability": "view",
      "type": "function"
    },
    {
      "inputs": [],
      "name": "symbol",
      "outputs": [
        {
          "internalType": "string",
          "name": "",
          "type": "string"
        }
      ],
      "stateMutability": "view",
      "type": "function"
    },
    {
      "inputs": [
        {
          "internalType": "uint256",
          "name": "index",
          "type": "uint256"
        }
      ],
      "name": "tokenByIndex",
      "outputs": [
        {
          "internalType": "uint256",
          "name": "",
          "type": "uint256"
        }
      ],
      "stateMutability": "view",
      "type": "function"
    },
    {
      "inputs": [
        {
          "internalType": "address",
          "name": "owner",
          "type": "address"
        },
        {
          "internalType": "uint256",
          "name": "index",
          "type": "uint256"
        }
      ],
      "name": "tokenOfOwnerByIndex",
      "outputs": [
        {
          "internalType": "uint256",
          "name": "",
          "type": "uint256"
        }
      ],
      "stateMutability": "view",
      "type": "function"
    },
    {
      "inputs": [
        {
          "internalType": "uint256",
          "name": "tokenId",
          "type": "uint256"
        }
      ],
      "name": "tokenURI",
      "outputs": [
        {
          "internalType": "string",
          "name": "",
          "type": "string"
        }
      ],
      "stateMutability": "view",
      "type": "function"
    },
    {
      "inputs": [
        {
          "internalType": "string",
          "name": "",
          "type": "string"
        }
      ],
      "name": "tokenURIExists",
      "outputs": [
        {
          "internalType": "bool",
          "name": "",
          "type": "bool"
        }
      ],
      "stateMutability": "view",
      "type": "function"
    },
    {
      "inputs": [],
      "name": "totalSupply",
      "outputs": [
        {
          "internalType": "uint256",
          "name": "",
          "type": "uint256"
        }
      ],
      "stateMutability": "view",
      "type": "function"
    },
    {
      "inputs": [
        {
          "internalType": "address",
          "name": "from",
          "type": "address"
        },
        {
          "internalType": "address",
          "name": "to",
          "type": "address"
        },
        {
          "internalType": "uint256",
          "name": "tokenId",
          "type": "uint256"
        }
      ],
      "name": "transferFrom",
      "outputs": [],
      "stateMutability": "nonpayable",
      "type": "function"
    },
    {
      "inputs": [
        {
          "internalType": "string",
          "name": "_creationStr",
          "type": "string"
        },
        {
          "internalType": "string",
          "name": "_tokenURI",
          "type": "string"
        }
      ],
      "name": "mintPaw",
      "outputs": [],
      "stateMutability": "payable",
      "type": "function"
    },
    {
      "inputs": [
        {
          "internalType": "uint256",
          "name": "_tokenId",
          "type": "uint256"
        }
      ],
      "name": "getTokenOwner",
      "outputs": [
        {
          "internalType": "address",
          "name": "",
          "type": "address"
        }
      ],
      "stateMutability": "view",
      "type": "function"
    },
    {
      "inputs": [
        {
          "internalType": "uint256",
          "name": "_tokenId",
          "type": "uint256"
        }
      ],
      "name": "getTokenImg",
      "outputs": [
        {
          "internalType": "string",
          "name": "",
          "type": "string"
        }
      ],
      "stateMutability": "view",
      "type": "function"
    },
    {
      "inputs": [],
      "name": "getTotalNumberMinted",
      "outputs": [
        {
          "internalType": "uint256",
          "name": "",
          "type": "uint256"
        }
      ],
      "stateMutability": "view",
      "type": "function"
    },
    {
      "inputs": [
        {
          "internalType": "address",
          "name": "_owner",
          "type": "address"
        }
      ],
      "name": "getTotalNumberOwnedByAddress",
      "outputs": [
        {
          "internalType": "uint256",
          "name": "",
          "type": "uint256"
        }
      ],
      "stateMutability": "view",
      "type": "function"
    },
    {
      "inputs": [
        {
          "internalType": "uint256",
          "name": "_tokenId",
          "type": "uint256"
        }
      ],
      "name": "getTokenExists",
      "outputs": [
        {
          "internalType": "bool",
          "name": "",
          "type": "bool"
        }
      ],
      "stateMutability": "view",
      "type": "function"
    },
    {
      "inputs": [
        {
          "internalType": "uint256",
          "name": "_tokenId",
          "type": "uint256"
        }
      ],
      "name": "buyToken",
      "outputs": [],
      "stateMutability": "payable",
      "type": "function"
    },
    {
      "inputs": [
        {
          "internalType": "uint256",
          "name": "_tokenId",
          "type": "uint256"
        },
        {
          "internalType": "uint256",
          "name": "_newPrice",
          "type": "uint256"
        }
      ],
      "name": "changeTokenPrice",
      "outputs": [],
      "stateMutability": "nonpayable",
      "type": "function"
    },
    {
      "inputs": [
        {
          "internalType": "uint256",
          "name": "_tokenId",
          "type": "uint256"
        }
      ],
      "name": "toggleForSale",
      "outputs": [],
      "stateMutability": "nonpayable",
      "type": "function"
    }
  ],
  "bytecode": "0x608060405266470de4df820000600d5566470de4df820000600e553480156200002757600080fd5b506040518060400160405280601e81526020017f4f726967696e616c2043727970746f5061777320436f6c6c656374696f6e00008152506040518060400160405280600381526020017f5041570000000000000000000000000000000000000000000000000000000000815250620000ac6301ffc9a760e01b6200017e60201b60201c565b8160069080519060200190620000c49291906200038a565b508060079080519060200190620000dd9291906200038a565b50620000f66380ac58cd60e01b6200017e60201b60201c565b6200010e635b5e139f60e01b6200017e60201b60201c565b6200012663780e9d6360e01b6200017e60201b60201c565b5050620001386200025660201b60201c565b600a90805190602001906200014f9291906200038a565b5062000160620002f060201b60201c565b600b9080519060200190620001779291906200038a565b5062000522565b63ffffffff60e01b817bffffffffffffffffffffffffffffffffffffffffffffffffffffffff19161415620001ea576040517f08c379a0000000000000000000000000000000000000000000000000000000008152600401620001e1906200049b565b60405180910390fd5b6001600080837bffffffffffffffffffffffffffffffffffffffffffffffffffffffff19167bffffffffffffffffffffffffffffffffffffffffffffffffffffffff1916815260200190815260200160002060006101000a81548160ff02191690831515021790555050565b6060600680546200026790620004ec565b80601f01602080910402602001604051908101604052809291908181526020018280546200029590620004ec565b8015620002e65780601f10620002ba57610100808354040283529160200191620002e6565b820191906000526020600020905b815481529060010190602001808311620002c857829003601f168201915b5050505050905090565b6060600780546200030190620004ec565b80601f01602080910402602001604051908101604052809291908181526020018280546200032f90620004ec565b8015620003805780601f10620003545761010080835404028352916020019162000380565b820191906000526020600020905b8154815290600101906020018083116200036257829003601f168201915b5050505050905090565b8280546200039890620004ec565b90600052602060002090601f016020900481019282620003bc576000855562000408565b82601f10620003d757805160ff191683800117855562000408565b8280016001018555821562000408579182015b8281111562000407578251825591602001919060010190620003ea565b5b5090506200041791906200041b565b5090565b5b80821115620004365760008160009055506001016200041c565b5090565b600082825260208201905092915050565b7f4552433136353a20696e76616c696420696e7465726661636520696400000000600082015250565b600062000483601c836200043a565b915062000490826200044b565b602082019050919050565b60006020820190508181036000830152620004b68162000474565b9050919050565b7f4e487b7100000000000000000000000000000000000000000000000000000000600052602260045260246000fd5b600060028204905060018216806200050557607f821691505b602082108114156200051c576200051b620004bd565b5b50919050565b614cf680620005326000396000f3fe6080604052600436106101f95760003560e01c806370a082311161010d578063b88d4fde116100a0578063e5326ab11161006f578063e5326ab1146107c3578063e676407a146107ee578063e69e04b314610819578063e985e9c514610844578063f45a39e914610881576101f9565b8063b88d4fde146106f5578063bc9cd5df1461071e578063c87b56dd14610749578063def720c214610786576101f9565b806395d89b41116100dc57806395d89b411461063b578063a22cb46514610666578063a32018b91461068f578063a5cd761f146106b8576101f9565b806370a0823114610540578063727278761461057d57806378ef836f146105c157806392cf37c1146105fe576101f9565b80632f745c591161019057806362e8e8ac1161015f57806362e8e8ac146104595780636352211e146104825780636817c76c146104bf5780636c0360eb146104ea5780636f9507f914610515576101f9565b80632f745c591461037957806342842e0e146103b657806343d32ae7146103df5780634f6ccce71461041c576101f9565b8063142687f3116101cc578063142687f3146102cc57806318160ddd1461030957806323b872dd146103345780632d296bf11461035d576101f9565b806301ffc9a7146101fe57806306fdde031461023b578063081812fc14610266578063095ea7b3146102a3575b600080fd5b34801561020a57600080fd5b5061022560048036038101906102209190613168565b61089d565b60405161023291906131b0565b60405180910390f35b34801561024757600080fd5b50610250610904565b60405161025d9190613264565b60405180910390f35b34801561027257600080fd5b5061028d600480360381019061028891906132bc565b610996565b60405161029a919061332a565b60405180910390f35b3480156102af57600080fd5b506102ca60048036038101906102c59190613371565b610a1b565b005b3480156102d857600080fd5b506102f360048036038101906102ee91906132bc565b610b33565b60405161030091906131b0565b60405180910390f35b34801561031557600080fd5b5061031e610b4a565b60405161032b91906133c0565b60405180910390f35b34801561034057600080fd5b5061035b600480360381019061035691906133db565b610b5b565b005b610377600480360381019061037291906132bc565b610bbb565b005b34801561038557600080fd5b506103a0600480360381019061039b9190613371565b610ef2565b6040516103ad91906133c0565b60405180910390f35b3480156103c257600080fd5b506103dd60048036038101906103d891906133db565b610f4d565b005b3480156103eb57600080fd5b5061040660048036038101906104019190613563565b610f6d565b60405161041391906131b0565b60405180910390f35b34801561042857600080fd5b50610443600480360381019061043e91906132bc565b610fa3565b60405161045091906133c0565b60405180910390f35b34801561046557600080fd5b50610480600480360381019061047b91906135ac565b610fc6565b005b34801561048e57600080fd5b506104a960048036038101906104a491906132bc565b611119565b6040516104b6919061332a565b60405180910390f35b3480156104cb57600080fd5b506104d4611150565b6040516104e191906133c0565b60405180910390f35b3480156104f657600080fd5b506104ff611156565b60405161050c9190613264565b60405180910390f35b34801561052157600080fd5b5061052a6111e8565b6040516105379190613264565b60405180910390f35b34801561054c57600080fd5b50610567600480360381019061056291906135ec565b611276565b60405161057491906133c0565b60405180910390f35b34801561058957600080fd5b506105a4600480360381019061059f91906132bc565b611335565b6040516105b898979695949392919061363a565b60405180910390f35b3480156105cd57600080fd5b506105e860048036038101906105e391906135ec565b6114da565b6040516105f591906133c0565b60405180910390f35b34801561060a57600080fd5b5061062560048036038101906106209190613563565b6114f1565b60405161063291906131b0565b60405180910390f35b34801561064757600080fd5b50610650611527565b60405161065d9190613264565b60405180910390f35b34801561067257600080fd5b5061068d600480360381019061068891906136f2565b6115b9565b005b34801561069b57600080fd5b506106b660048036038101906106b191906132bc565b61173a565b005b3480156106c457600080fd5b506106df60048036038101906106da91906132bc565b6118fe565b6040516106ec919061332a565b60405180910390f35b34801561070157600080fd5b5061071c600480360381019061071791906137d3565b611915565b005b34801561072a57600080fd5b50610733611977565b60405161074091906133c0565b60405180910390f35b34801561075557600080fd5b50610770600480360381019061076b91906132bc565b61198b565b60405161077d9190613264565b60405180910390f35b34801561079257600080fd5b506107ad60048036038101906107a891906132bc565b611afe565b6040516107ba9190613264565b60405180910390f35b3480156107cf57600080fd5b506107d8611b16565b6040516107e59190613264565b60405180910390f35b3480156107fa57600080fd5b50610803611ba4565b60405161081091906133c0565b60405180910390f35b34801561082557600080fd5b5061082e611baa565b60405161083b91906133c0565b60405180910390f35b34801561085057600080fd5b5061086b60048036038101906108669190613856565b611bb0565b60405161087891906131b0565b60405180910390f35b61089b60048036038101906108969190613896565b611c44565b005b6000806000837bffffffffffffffffffffffffffffffffffffffffffffffffffffffff19167bffffffffffffffffffffffffffffffffffffffffffffffffffffffff1916815260200190815260200160002060009054906101000a900460ff169050919050565b6060600680546109139061393d565b80601f016020809104026020016040519081016040528092919081815260200182805461093f9061393d565b801561098c5780601f106109615761010080835404028352916020019161098c565b820191906000526020600020905b81548152906001019060200180831161096f57829003601f168201915b5050505050905090565b60006109a182612019565b6109e0576040517f08c379a00000000000000000000000000000000000000000000000000000000081526004016109d7906139e1565b60405180910390fd5b6004600083815260200190815260200160002060009054906101000a900473ffffffffffffffffffffffffffffffffffffffff169050919050565b6000610a2682611119565b90508073ffffffffffffffffffffffffffffffffffffffff168373ffffffffffffffffffffffffffffffffffffffff161415610a97576040517f08c379a0000000000000000000000000000000000000000000000000000000008152600401610a8e90613a73565b60405180910390fd5b8073ffffffffffffffffffffffffffffffffffffffff16610ab6612036565b73ffffffffffffffffffffffffffffffffffffffff161480610ae55750610ae481610adf612036565b611bb0565b5b610b24576040517f08c379a0000000000000000000000000000000000000000000000000000000008152600401610b1b90613b05565b60405180910390fd5b610b2e838361203e565b505050565b600080610b3f83612019565b905080915050919050565b6000610b5660026120f7565b905090565b610b6c610b66612036565b8261210c565b610bab576040517f08c379a0000000000000000000000000000000000000000000000000000000008152600401610ba290613b97565b60405180910390fd5b610bb68383836121ea565b505050565b600073ffffffffffffffffffffffffffffffffffffffff163373ffffffffffffffffffffffffffffffffffffffff161415610c2b576040517f08c379a0000000000000000000000000000000000000000000000000000000008152600401610c2290613c03565b60405180910390fd5b610c3481612019565b610c73576040517f08c379a0000000000000000000000000000000000000000000000000000000008152600401610c6a90613c6f565b60405180910390fd5b6000610c7e82611119565b9050600073ffffffffffffffffffffffffffffffffffffffff168173ffffffffffffffffffffffffffffffffffffffff161415610cf0576040517f08c379a0000000000000000000000000000000000000000000000000000000008152600401610ce790613c03565b60405180910390fd5b3373ffffffffffffffffffffffffffffffffffffffff168173ffffffffffffffffffffffffffffffffffffffff161415610d5f576040517f08c379a0000000000000000000000000000000000000000000000000000000008152600401610d5690613cdb565b60405180910390fd5b600f600083815260200190815260200160002060050154341015610db8576040517f08c379a0000000000000000000000000000000000000000000000000000000008152600401610daf90613d6d565b60405180910390fd5b600f600083815260200190815260200160002060070160009054906101000a900460ff16610e1b576040517f08c379a0000000000000000000000000000000000000000000000000000000008152600401610e1290613dd9565b60405180910390fd5b610e268133846121ea565b8073ffffffffffffffffffffffffffffffffffffffff166108fc349081150290604051600060405180830381858888f19350505050158015610e6c573d6000803e3d6000fd5b5033600f600084815260200190815260200160002060040160006101000a81548173ffffffffffffffffffffffffffffffffffffffff021916908373ffffffffffffffffffffffffffffffffffffffff160217905550600f60008381526020019081526020016000206006016000815480929190610ee990613e28565b91905055505050565b6000610f4582600160008673ffffffffffffffffffffffffffffffffffffffff1673ffffffffffffffffffffffffffffffffffffffff16815260200190815260200160002061240190919063ffffffff16565b905092915050565b610f6883838360405180602001604052806000815250611915565b505050565b6011818051602081018201805184825260208301602085012081835280955050505050506000915054906101000a900460ff1681565b600080610fba83600261241b90919063ffffffff16565b50905080915050919050565b600073ffffffffffffffffffffffffffffffffffffffff163373ffffffffffffffffffffffffffffffffffffffff161415611036576040517f08c379a000000000000000000000000000000000000000000000000000000000815260040161102d90613c03565b60405180910390fd5b61103f82612019565b61107e576040517f08c379a000000000000000000000000000000000000000000000000000000000815260040161107590613ebd565b60405180910390fd5b600061108983611119565b90503373ffffffffffffffffffffffffffffffffffffffff168173ffffffffffffffffffffffffffffffffffffffff16146110f9576040517f08c379a00000000000000000000000000000000000000000000000000000000081526004016110f090613f4f565b60405180910390fd5b81600f600085815260200190815260200160002060050181905550505050565b600061114982604051806060016040528060298152602001614c986029913960026124479092919063ffffffff16565b9050919050565b600e5481565b6060600980546111659061393d565b80601f01602080910402602001604051908101604052809291908181526020018280546111919061393d565b80156111de5780601f106111b3576101008083540402835291602001916111de565b820191906000526020600020905b8154815290600101906020018083116111c157829003601f168201915b5050505050905090565b600b80546111f59061393d565b80601f01602080910402602001604051908101604052809291908181526020018280546112219061393d565b801561126e5780601f106112435761010080835404028352916020019161126e565b820191906000526020600020905b81548152906001019060200180831161125157829003601f168201915b505050505081565b60008073ffffffffffffffffffffffffffffffffffffffff168273ffffffffffffffffffffffffffffffffffffffff1614156112e7576040517f08c379a00000000000000000000000000000000000000000000000000000000081526004016112de90613fe1565b60405180910390fd5b61132e600160008473ffffffffffffffffffffffffffffffffffffffff1673ffffffffffffffffffffffffffffffffffffffff168152602001908152602001600020612466565b9050919050565b600f60205280600052604060002060009150905080600001549080600101805461135e9061393d565b80601f016020809104026020016040519081016040528092919081815260200182805461138a9061393d565b80156113d75780601f106113ac576101008083540402835291602001916113d7565b820191906000526020600020905b8154815290600101906020018083116113ba57829003601f168201915b5050505050908060020180546113ec9061393d565b80601f01602080910402602001604051908101604052809291908181526020018280546114189061393d565b80156114655780601f1061143a57610100808354040283529160200191611465565b820191906000526020600020905b81548152906001019060200180831161144857829003601f168201915b5050505050908060030160009054906101000a900473ffffffffffffffffffffffffffffffffffffffff16908060040160009054906101000a900473ffffffffffffffffffffffffffffffffffffffff16908060050154908060060154908060070160009054906101000a900460ff16905088565b6000806114e683611276565b905080915050919050565b6010818051602081018201805184825260208301602085012081835280955050505050506000915054906101000a900460ff1681565b6060600780546115369061393d565b80601f01602080910402602001604051908101604052809291908181526020018280546115629061393d565b80156115af5780601f10611584576101008083540402835291602001916115af565b820191906000526020600020905b81548152906001019060200180831161159257829003601f168201915b5050505050905090565b6115c1612036565b73ffffffffffffffffffffffffffffffffffffffff168273ffffffffffffffffffffffffffffffffffffffff16141561162f576040517f08c379a00000000000000000000000000000000000000000000000000000000081526004016116269061404d565b60405180910390fd5b806005600061163c612036565b73ffffffffffffffffffffffffffffffffffffffff1673ffffffffffffffffffffffffffffffffffffffff16815260200190815260200160002060008473ffffffffffffffffffffffffffffffffffffffff1673ffffffffffffffffffffffffffffffffffffffff16815260200190815260200160002060006101000a81548160ff0219169083151502179055508173ffffffffffffffffffffffffffffffffffffffff166116e9612036565b73ffffffffffffffffffffffffffffffffffffffff167f17307eab39ab6107e8899845ad3d59bd9653f200f220920489ca2b5937696c318360405161172e91906131b0565b60405180910390a35050565b600073ffffffffffffffffffffffffffffffffffffffff163373ffffffffffffffffffffffffffffffffffffffff1614156117aa576040517f08c379a00000000000000000000000000000000000000000000000000000000081526004016117a190613c03565b60405180910390fd5b6117b381612019565b6117f2576040517f08c379a00000000000000000000000000000000000000000000000000000000081526004016117e990613ebd565b60405180910390fd5b60006117fd82611119565b90503373ffffffffffffffffffffffffffffffffffffffff168173ffffffffffffffffffffffffffffffffffffffff161461186d576040517f08c379a000000000000000000000000000000000000000000000000000000000815260040161186490613f4f565b60405180910390fd5b600f600083815260200190815260200160002060070160009054906101000a900460ff16156118ca576000600f600084815260200190815260200160002060070160006101000a81548160ff0219169083151502179055506118fa565b6001600f600084815260200190815260200160002060070160006101000a81548160ff0219169083151502179055505b5050565b60008061190a83611119565b905080915050919050565b611926611920612036565b8361210c565b611965576040517f08c379a000000000000000000000000000000000000000000000000000000000815260040161195c90613b97565b60405180910390fd5b6119718484848461247b565b50505050565b600080611982610b4a565b90508091505090565b606061199682612019565b6119d5576040517f08c379a00000000000000000000000000000000000000000000000000000000081526004016119cc906140df565b60405180910390fd5b60006008600084815260200190815260200160002080546119f59061393d565b80601f0160208091040260200160405190810160405280929190818152602001828054611a219061393d565b8015611a6e5780601f10611a4357610100808354040283529160200191611a6e565b820191906000526020600020905b815481529060010190602001808311611a5157829003601f168201915b505050505090506000611a7f611156565b9050600081511415611a95578192505050611af9565b600082511115611aca578082604051602001611ab292919061413b565b60405160208183030381529060405292505050611af9565b80611ad4856124d7565b604051602001611ae592919061413b565b604051602081830303815290604052925050505b919050565b60606000611b0b8361198b565b905080915050919050565b600a8054611b239061393d565b80601f0160208091040260200160405190810160405280929190818152602001828054611b4f9061393d565b8015611b9c5780601f10611b7157610100808354040283529160200191611b9c565b820191906000526020600020905b815481529060010190602001808311611b7f57829003601f168201915b505050505081565b600c5481565b600d5481565b6000600560008473ffffffffffffffffffffffffffffffffffffffff1673ffffffffffffffffffffffffffffffffffffffff16815260200190815260200160002060008373ffffffffffffffffffffffffffffffffffffffff1673ffffffffffffffffffffffffffffffffffffffff16815260200190815260200160002060009054906101000a900460ff16905092915050565b600073ffffffffffffffffffffffffffffffffffffffff163373ffffffffffffffffffffffffffffffffffffffff161415611cb4576040517f08c379a0000000000000000000000000000000000000000000000000000000008152600401611cab906141ab565b60405180910390fd5b600e54341015611cf9576040517f08c379a0000000000000000000000000000000000000000000000000000000008152600401611cf09061423d565b60405180910390fd5b600c6000815480929190611d0c90613e28565b9190505550611d1c600c54612019565b15611d5c576040517f08c379a0000000000000000000000000000000000000000000000000000000008152600401611d53906142a9565b60405180910390fd5b601082604051611d6c91906142c9565b908152602001604051809103902060009054906101000a900460ff1615611dc8576040517f08c379a0000000000000000000000000000000000000000000000000000000008152600401611dbf9061432c565b60405180910390fd5b601181604051611dd891906142c9565b908152602001604051809103902060009054906101000a900460ff1615611e34576040517f08c379a0000000000000000000000000000000000000000000000000000000008152600401611e2b90614398565b60405180910390fd5b611e4033600c5461264a565b611e4c600c54826127d8565b6001601182604051611e5e91906142c9565b908152602001604051809103902060006101000a81548160ff0219169083151502179055506000604051806101000160405280600c5481526020018481526020018381526020013373ffffffffffffffffffffffffffffffffffffffff1681526020013373ffffffffffffffffffffffffffffffffffffffff168152602001600d5481526020016000815260200160001515815250905080600f6000600c548152602001908152602001600020600082015181600001556020820151816001019080519060200190611f31929190613059565b506040820151816002019080519060200190611f4e929190613059565b5060608201518160030160006101000a81548173ffffffffffffffffffffffffffffffffffffffff021916908373ffffffffffffffffffffffffffffffffffffffff16021790555060808201518160040160006101000a81548173ffffffffffffffffffffffffffffffffffffffff021916908373ffffffffffffffffffffffffffffffffffffffff16021790555060a0820151816005015560c0820151816006015560e08201518160070160006101000a81548160ff021916908315150217905550905050505050565b600061202f82600261284c90919063ffffffff16565b9050919050565b600033905090565b816004600083815260200190815260200160002060006101000a81548173ffffffffffffffffffffffffffffffffffffffff021916908373ffffffffffffffffffffffffffffffffffffffff160217905550808273ffffffffffffffffffffffffffffffffffffffff166120b183611119565b73ffffffffffffffffffffffffffffffffffffffff167f8c5be1e5ebec7d5bd14f71427d1e84f3dd0314c0f7b2291e5b200ac8c7c3b92560405160405180910390a45050565b600061210582600001612866565b9050919050565b600061211782612019565b612156576040517f08c379a000000000000000000000000000000000000000000000000000000000815260040161214d9061442a565b60405180910390fd5b600061216183611119565b90508073ffffffffffffffffffffffffffffffffffffffff168473ffffffffffffffffffffffffffffffffffffffff1614806121d057508373ffffffffffffffffffffffffffffffffffffffff166121b884610996565b73ffffffffffffffffffffffffffffffffffffffff16145b806121e157506121e08185611bb0565b5b91505092915050565b8273ffffffffffffffffffffffffffffffffffffffff1661220a82611119565b73ffffffffffffffffffffffffffffffffffffffff1614612260576040517f08c379a0000000000000000000000000000000000000000000000000000000008152600401612257906144bc565b60405180910390fd5b600073ffffffffffffffffffffffffffffffffffffffff168273ffffffffffffffffffffffffffffffffffffffff1614156122d0576040517f08c379a00000000000000000000000000000000000000000000000000000000081526004016122c79061454e565b60405180910390fd5b6122db838383612877565b6122e660008261203e565b61233781600160008673ffffffffffffffffffffffffffffffffffffffff1673ffffffffffffffffffffffffffffffffffffffff16815260200190815260200160002061287c90919063ffffffff16565b5061238981600160008573ffffffffffffffffffffffffffffffffffffffff1673ffffffffffffffffffffffffffffffffffffffff16815260200190815260200160002061289690919063ffffffff16565b506123a0818360026128b09092919063ffffffff16565b50808273ffffffffffffffffffffffffffffffffffffffff168473ffffffffffffffffffffffffffffffffffffffff167fddf252ad1be2c89b69c2b068fc378daa952ba7f163c4a11628f55a4df523b3ef60405160405180910390a4505050565b600061241083600001836128e5565b60001c905092915050565b60008060008061242e8660000186612959565b915091508160001c8160001c9350935050509250929050565b600061245a846000018460001b846129e3565b60001c90509392505050565b600061247482600001612a84565b9050919050565b6124868484846121ea565b61249284848484612a95565b6124d1576040517f08c379a00000000000000000000000000000000000000000000000000000000081526004016124c8906145e0565b60405180910390fd5b50505050565b6060600082141561251f576040518060400160405280600181526020017f30000000000000000000000000000000000000000000000000000000000000008152509050612645565b600082905060005b6000821461255157808061253a90613e28565b915050600a8261254a919061462f565b9150612527565b60008167ffffffffffffffff81111561256d5761256c613438565b5b6040519080825280601f01601f19166020018201604052801561259f5781602001600182028036833780820191505090505b50905060006001836125b19190614660565b90508593505b6000841461263d57600a846125cc9190614694565b60306125d891906146c5565b60f81b8282806125e79061471b565b9350815181106125fa576125f9614745565b5b60200101907effffffffffffffffffffffffffffffffffffffffffffffffffffffffffffff1916908160001a905350600a84612636919061462f565b93506125b7565b819450505050505b919050565b600073ffffffffffffffffffffffffffffffffffffffff168273ffffffffffffffffffffffffffffffffffffffff1614156126ba576040517f08c379a00000000000000000000000000000000000000000000000000000000081526004016126b1906147c0565b60405180910390fd5b6126c381612019565b15612703576040517f08c379a00000000000000000000000000000000000000000000000000000000081526004016126fa9061482c565b60405180910390fd5b61270f60008383612877565b61276081600160008573ffffffffffffffffffffffffffffffffffffffff1673ffffffffffffffffffffffffffffffffffffffff16815260200190815260200160002061289690919063ffffffff16565b50612777818360026128b09092919063ffffffff16565b50808273ffffffffffffffffffffffffffffffffffffffff16600073ffffffffffffffffffffffffffffffffffffffff167fddf252ad1be2c89b69c2b068fc378daa952ba7f163c4a11628f55a4df523b3ef60405160405180910390a45050565b6127e182612019565b612820576040517f08c379a0000000000000000000000000000000000000000000000000000000008152600401612817906148be565b60405180910390fd5b80600860008481526020019081526020016000209080519060200190612847929190613059565b505050565b600061285e836000018360001b612bf9565b905092915050565b600081600001805490509050919050565b505050565b600061288e836000018360001b612c1c565b905092915050565b60006128a8836000018360001b612d34565b905092915050565b60006128dc846000018460001b8473ffffffffffffffffffffffffffffffffffffffff1660001b612da4565b90509392505050565b600081836000018054905011612930576040517f08c379a000000000000000000000000000000000000000000000000000000000815260040161292790614950565b60405180910390fd5b82600001828154811061294657612945614745565b5b9060005260206000200154905092915050565b600080828460000180549050116129a5576040517f08c379a000000000000000000000000000000000000000000000000000000000815260040161299c906149e2565b60405180910390fd5b60008460000184815481106129bd576129bc614745565b5b906000526020600020906002020190508060000154816001015492509250509250929050565b60008084600101600085815260200190815260200160002054905060008114158390612a45576040517f08c379a0000000000000000000000000000000000000000000000000000000008152600401612a3c9190613264565b60405180910390fd5b5084600001600182612a579190614660565b81548110612a6857612a67614745565b5b9060005260206000209060020201600101549150509392505050565b600081600001805490509050919050565b6000612ab68473ffffffffffffffffffffffffffffffffffffffff16612e90565b612ac35760019050612bf1565b6000612b8a63150b7a0260e01b612ad8612036565b888787604051602401612aee9493929190614a57565b604051602081830303815290604052907bffffffffffffffffffffffffffffffffffffffffffffffffffffffff19166020820180517bffffffffffffffffffffffffffffffffffffffffffffffffffffffff8381831617835250505050604051806060016040528060328152602001614c66603291398773ffffffffffffffffffffffffffffffffffffffff16612ea39092919063ffffffff16565b9050600081806020019051810190612ba29190614ab8565b905063150b7a0260e01b7bffffffffffffffffffffffffffffffffffffffffffffffffffffffff1916817bffffffffffffffffffffffffffffffffffffffffffffffffffffffff191614925050505b949350505050565b600080836001016000848152602001908152602001600020541415905092915050565b60008083600101600084815260200190815260200160002054905060008114612d28576000600182612c4e9190614660565b9050600060018660000180549050612c669190614660565b90506000866000018281548110612c8057612c7f614745565b5b9060005260206000200154905080876000018481548110612ca457612ca3614745565b5b9060005260206000200181905550600183612cbf91906146c5565b8760010160008381526020019081526020016000208190555086600001805480612cec57612ceb614ae5565b5b60019003818190600052602060002001600090559055866001016000878152602001908152602001600020600090556001945050505050612d2e565b60009150505b92915050565b6000612d408383612ebb565b612d99578260000182908060018154018082558091505060019003906000526020600020016000909190919091505582600001805490508360010160008481526020019081526020016000208190555060019050612d9e565b600090505b92915050565b6000808460010160008581526020019081526020016000205490506000811415612e4b57846000016040518060400160405280868152602001858152509080600181540180825580915050600190039060005260206000209060020201600090919091909150600082015181600001556020820151816001015550508460000180549050856001016000868152602001908152602001600020819055506001915050612e89565b8285600001600183612e5d9190614660565b81548110612e6e57612e6d614745565b5b90600052602060002090600202016001018190555060009150505b9392505050565b600080823b905060008111915050919050565b6060612eb28484600085612ede565b90509392505050565b600080836001016000848152602001908152602001600020541415905092915050565b606082471015612f23576040517f08c379a0000000000000000000000000000000000000000000000000000000008152600401612f1a90614b86565b60405180910390fd5b612f2c85612e90565b612f6b576040517f08c379a0000000000000000000000000000000000000000000000000000000008152600401612f6290614bf2565b60405180910390fd5b6000808673ffffffffffffffffffffffffffffffffffffffff168587604051612f949190614c4e565b60006040518083038185875af1925050503d8060008114612fd1576040519150601f19603f3d011682016040523d82523d6000602084013e612fd6565b606091505b5091509150612fe6828286612ff2565b92505050949350505050565b6060831561300257829050613052565b6000835111156130155782518084602001fd5b816040517f08c379a00000000000000000000000000000000000000000000000000000000081526004016130499190613264565b60405180910390fd5b9392505050565b8280546130659061393d565b90600052602060002090601f01602090048101928261308757600085556130ce565b82601f106130a057805160ff19168380011785556130ce565b828001600101855582156130ce579182015b828111156130cd5782518255916020019190600101906130b2565b5b5090506130db91906130df565b5090565b5b808211156130f85760008160009055506001016130e0565b5090565b6000604051905090565b600080fd5b600080fd5b60007fffffffff0000000000000000000000000000000000000000000000000000000082169050919050565b61314581613110565b811461315057600080fd5b50565b6000813590506131628161313c565b92915050565b60006020828403121561317e5761317d613106565b5b600061318c84828501613153565b91505092915050565b60008115159050919050565b6131aa81613195565b82525050565b60006020820190506131c560008301846131a1565b92915050565b600081519050919050565b600082825260208201905092915050565b60005b838110156132055780820151818401526020810190506131ea565b83811115613214576000848401525b50505050565b6000601f19601f8301169050919050565b6000613236826131cb565b61324081856131d6565b93506132508185602086016131e7565b6132598161321a565b840191505092915050565b6000602082019050818103600083015261327e818461322b565b905092915050565b6000819050919050565b61329981613286565b81146132a457600080fd5b50565b6000813590506132b681613290565b92915050565b6000602082840312156132d2576132d1613106565b5b60006132e0848285016132a7565b91505092915050565b600073ffffffffffffffffffffffffffffffffffffffff82169050919050565b6000613314826132e9565b9050919050565b61332481613309565b82525050565b600060208201905061333f600083018461331b565b92915050565b61334e81613309565b811461335957600080fd5b50565b60008135905061336b81613345565b92915050565b6000806040838503121561338857613387613106565b5b60006133968582860161335c565b92505060206133a7858286016132a7565b9150509250929050565b6133ba81613286565b82525050565b60006020820190506133d560008301846133b1565b92915050565b6000806000606084860312156133f4576133f3613106565b5b60006134028682870161335c565b93505060206134138682870161335c565b9250506040613424868287016132a7565b9150509250925092565b600080fd5b600080fd5b7f4e487b7100000000000000000000000000000000000000000000000000000000600052604160045260246000fd5b6134708261321a565b810181811067ffffffffffffffff8211171561348f5761348e613438565b5b80604052505050565b60006134a26130fc565b90506134ae8282613467565b919050565b600067ffffffffffffffff8211156134ce576134cd613438565b5b6134d78261321a565b9050602081019050919050565b82818337600083830152505050565b6000613506613501846134b3565b613498565b90508281526020810184848401111561352257613521613433565b5b61352d8482856134e4565b509392505050565b600082601f83011261354a5761354961342e565b5b813561355a8482602086016134f3565b91505092915050565b60006020828403121561357957613578613106565b5b600082013567ffffffffffffffff8111156135975761359661310b565b5b6135a384828501613535565b91505092915050565b600080604083850312156135c3576135c2613106565b5b60006135d1858286016132a7565b92505060206135e2858286016132a7565b9150509250929050565b60006020828403121561360257613601613106565b5b60006136108482850161335c565b91505092915050565b6000613624826132e9565b9050919050565b61363481613619565b82525050565b600061010082019050613650600083018b6133b1565b8181036020830152613662818a61322b565b90508181036040830152613676818961322b565b9050613685606083018861362b565b613692608083018761362b565b61369f60a08301866133b1565b6136ac60c08301856133b1565b6136b960e08301846131a1565b9998505050505050505050565b6136cf81613195565b81146136da57600080fd5b50565b6000813590506136ec816136c6565b92915050565b6000806040838503121561370957613708613106565b5b60006137178582860161335c565b9250506020613728858286016136dd565b9150509250929050565b600067ffffffffffffffff82111561374d5761374c613438565b5b6137568261321a565b9050602081019050919050565b600061377661377184613732565b613498565b90508281526020810184848401111561379257613791613433565b5b61379d8482856134e4565b509392505050565b600082601f8301126137ba576137b961342e565b5b81356137ca848260208601613763565b91505092915050565b600080600080608085870312156137ed576137ec613106565b5b60006137fb8782880161335c565b945050602061380c8782880161335c565b935050604061381d878288016132a7565b925050606085013567ffffffffffffffff81111561383e5761383d61310b565b5b61384a878288016137a5565b91505092959194509250565b6000806040838503121561386d5761386c613106565b5b600061387b8582860161335c565b925050602061388c8582860161335c565b9150509250929050565b600080604083850312156138ad576138ac613106565b5b600083013567ffffffffffffffff8111156138cb576138ca61310b565b5b6138d785828601613535565b925050602083013567ffffffffffffffff8111156138f8576138f761310b565b5b61390485828601613535565b9150509250929050565b7f4e487b7100000000000000000000000000000000000000000000000000000000600052602260045260246000fd5b6000600282049050600182168061395557607f821691505b602082108114156139695761396861390e565b5b50919050565b7f4552433732313a20617070726f76656420717565727920666f72206e6f6e657860008201527f697374656e7420746f6b656e0000000000000000000000000000000000000000602082015250565b60006139cb602c836131d6565b91506139d68261396f565b604082019050919050565b600060208201905081810360008301526139fa816139be565b9050919050565b7f4552433732313a20617070726f76616c20746f2063757272656e74206f776e6560008201527f7200000000000000000000000000000000000000000000000000000000000000602082015250565b6000613a5d6021836131d6565b9150613a6882613a01565b604082019050919050565b60006020820190508181036000830152613a8c81613a50565b9050919050565b7f4552433732313a20617070726f76652063616c6c6572206973206e6f74206f7760008201527f6e6572206e6f7220617070726f76656420666f7220616c6c0000000000000000602082015250565b6000613aef6038836131d6565b9150613afa82613a93565b604082019050919050565b60006020820190508181036000830152613b1e81613ae2565b9050919050565b7f4552433732313a207472616e736665722063616c6c6572206973206e6f74206f60008201527f776e6572206e6f7220617070726f766564000000000000000000000000000000602082015250565b6000613b816031836131d6565b9150613b8c82613b25565b604082019050919050565b60006020820190508181036000830152613bb081613b74565b9050919050565b7f6e6f6e2d7a65726f20616464726573736573206f6e6c79000000000000000000600082015250565b6000613bed6017836131d6565b9150613bf882613bb7565b602082019050919050565b60006020820190508181036000830152613c1c81613be0565b9050919050565b7f746869732070617720646f6573206e6f74206578697374000000000000000000600082015250565b6000613c596017836131d6565b9150613c6482613c23565b602082019050919050565b60006020820190508181036000830152613c8881613c4c565b9050919050565b7f796f752063616e27742062757920796f7572206f776e20746f6b656e00000000600082015250565b6000613cc5601c836131d6565b9150613cd082613c8f565b602082019050919050565b60006020820190508181036000830152613cf481613cb8565b9050919050565b7f706c656173652073656e642074686520636f727265637420616d6f756e74206f60008201527f6620657468000000000000000000000000000000000000000000000000000000602082015250565b6000613d576025836131d6565b9150613d6282613cfb565b604082019050919050565b60006020820190508181036000830152613d8681613d4a565b9050919050565b7f7468697320706177206973206e6f7420666f722073616c650000000000000000600082015250565b6000613dc36018836131d6565b9150613dce82613d8d565b602082019050919050565b60006020820190508181036000830152613df281613db6565b9050919050565b7f4e487b7100000000000000000000000000000000000000000000000000000000600052601160045260246000fd5b6000613e3382613286565b91507fffffffffffffffffffffffffffffffffffffffffffffffffffffffffffffffff821415613e6657613e65613df9565b5b600182019050919050565b7f746f6b656e20646f6573206e6f74206578697374000000000000000000000000600082015250565b6000613ea76014836131d6565b9150613eb282613e71565b602082019050919050565b60006020820190508181036000830152613ed681613e9a565b9050919050565b7f796f752063616e6e6f742065646974206120746f6b656e20746861742069732060008201527f6e6f7420796f7572730000000000000000000000000000000000000000000000602082015250565b6000613f396029836131d6565b9150613f4482613edd565b604082019050919050565b60006020820190508181036000830152613f6881613f2c565b9050919050565b7f4552433732313a2062616c616e636520717565727920666f7220746865207a6560008201527f726f206164647265737300000000000000000000000000000000000000000000602082015250565b6000613fcb602a836131d6565b9150613fd682613f6f565b604082019050919050565b60006020820190508181036000830152613ffa81613fbe565b9050919050565b7f4552433732313a20617070726f766520746f2063616c6c657200000000000000600082015250565b60006140376019836131d6565b915061404282614001565b602082019050919050565b600060208201905081810360008301526140668161402a565b9050919050565b7f4552433732314d657461646174613a2055524920717565727920666f72206e6f60008201527f6e6578697374656e7420746f6b656e0000000000000000000000000000000000602082015250565b60006140c9602f836131d6565b91506140d48261406d565b604082019050919050565b600060208201905081810360008301526140f8816140bc565b9050919050565b600081905092915050565b6000614115826131cb565b61411f81856140ff565b935061412f8185602086016131e7565b80840191505092915050565b6000614147828561410a565b9150614153828461410a565b91508190509392505050565b7f4e6f6e2d7a65726f20616464726573736573206f6e6c79000000000000000000600082015250565b60006141956017836131d6565b91506141a08261415f565b602082019050919050565b600060208201905081810360008301526141c481614188565b9050919050565b7f596f75206d75737420706179207468652061637475616c206d696e742070726960008201527f6365000000000000000000000000000000000000000000000000000000000000602082015250565b60006142276022836131d6565b9150614232826141cb565b604082019050919050565b600060208201905081810360008301526142568161421a565b9050919050565b7f636f6c6c656374696f6e20636f756e746572206e6f7420666f756e6400000000600082015250565b6000614293601c836131d6565b915061429e8261425d565b602082019050919050565b600060208201905081810360008301526142c281614286565b9050919050565b60006142d5828461410a565b915081905092915050565b7f7468697320706177207072696e7420616c726561647920657869737473000000600082015250565b6000614316601d836131d6565b9150614321826142e0565b602082019050919050565b6000602082019050818103600083015261434581614309565b9050919050565b7f7468652055524920616c72656164792065786973747300000000000000000000600082015250565b60006143826016836131d6565b915061438d8261434c565b602082019050919050565b600060208201905081810360008301526143b181614375565b9050919050565b7f4552433732313a206f70657261746f7220717565727920666f72206e6f6e657860008201527f697374656e7420746f6b656e0000000000000000000000000000000000000000602082015250565b6000614414602c836131d6565b915061441f826143b8565b604082019050919050565b6000602082019050818103600083015261444381614407565b9050919050565b7f4552433732313a207472616e73666572206f6620746f6b656e2074686174206960008201527f73206e6f74206f776e0000000000000000000000000000000000000000000000602082015250565b60006144a66029836131d6565b91506144b18261444a565b604082019050919050565b600060208201905081810360008301526144d581614499565b9050919050565b7f4552433732313a207472616e7366657220746f20746865207a65726f2061646460008201527f7265737300000000000000000000000000000000000000000000000000000000602082015250565b60006145386024836131d6565b9150614543826144dc565b604082019050919050565b600060208201905081810360008301526145678161452b565b9050919050565b7f4552433732313a207472616e7366657220746f206e6f6e20455243373231526560008201527f63656976657220696d706c656d656e7465720000000000000000000000000000602082015250565b60006145ca6032836131d6565b91506145d58261456e565b604082019050919050565b600060208201905081810360008301526145f9816145bd565b9050919050565b7f4e487b7100000000000000000000000000000000000000000000000000000000600052601260045260246000fd5b600061463a82613286565b915061464583613286565b92508261465557614654614600565b5b828204905092915050565b600061466b82613286565b915061467683613286565b92508282101561468957614688613df9565b5b828203905092915050565b600061469f82613286565b91506146aa83613286565b9250826146ba576146b9614600565b5b828206905092915050565b60006146d082613286565b91506146db83613286565b9250827fffffffffffffffffffffffffffffffffffffffffffffffffffffffffffffffff038211156147105761470f613df9565b5b828201905092915050565b600061472682613286565b9150600082141561473a57614739613df9565b5b600182039050919050565b7f4e487b7100000000000000000000000000000000000000000000000000000000600052603260045260246000fd5b7f4552433732313a206d696e7420746f20746865207a65726f2061646472657373600082015250565b60006147aa6020836131d6565b91506147b582614774565b602082019050919050565b600060208201905081810360008301526147d98161479d565b9050919050565b7f4552433732313a20746f6b656e20616c7265616479206d696e74656400000000600082015250565b6000614816601c836131d6565b9150614821826147e0565b602082019050919050565b6000602082019050818103600083015261484581614809565b9050919050565b7f4552433732314d657461646174613a2055524920736574206f66206e6f6e657860008201527f697374656e7420746f6b656e0000000000000000000000000000000000000000602082015250565b60006148a8602c836131d6565b91506148b38261484c565b604082019050919050565b600060208201905081810360008301526148d78161489b565b9050919050565b7f456e756d657261626c655365743a20696e646578206f7574206f6620626f756e60008201527f6473000000000000000000000000000000000000000000000000000000000000602082015250565b600061493a6022836131d6565b9150614945826148de565b604082019050919050565b600060208201905081810360008301526149698161492d565b9050919050565b7f456e756d657261626c654d61703a20696e646578206f7574206f6620626f756e60008201527f6473000000000000000000000000000000000000000000000000000000000000602082015250565b60006149cc6022836131d6565b91506149d782614970565b604082019050919050565b600060208201905081810360008301526149fb816149bf565b9050919050565b600081519050919050565b600082825260208201905092915050565b6000614a2982614a02565b614a338185614a0d565b9350614a438185602086016131e7565b614a4c8161321a565b840191505092915050565b6000608082019050614a6c600083018761362b565b614a79602083018661331b565b614a8660408301856133b1565b8181036060830152614a988184614a1e565b905095945050505050565b600081519050614ab28161313c565b92915050565b600060208284031215614ace57614acd613106565b5b6000614adc84828501614aa3565b91505092915050565b7f4e487b7100000000000000000000000000000000000000000000000000000000600052603160045260246000fd5b7f416464726573733a20696e73756666696369656e742062616c616e636520666f60008201527f722063616c6c0000000000000000000000000000000000000000000000000000602082015250565b6000614b706026836131d6565b9150614b7b82614b14565b604082019050919050565b60006020820190508181036000830152614b9f81614b63565b9050919050565b7f416464726573733a2063616c6c20746f206e6f6e2d636f6e7472616374000000600082015250565b6000614bdc601d836131d6565b9150614be782614ba6565b602082019050919050565b60006020820190508181036000830152614c0b81614bcf565b9050919050565b600081905092915050565b6000614c2882614a02565b614c328185614c12565b9350614c428185602086016131e7565b80840191505092915050565b6000614c5a8284614c1d565b91508190509291505056fe4552433732313a207472616e7366657220746f206e6f6e20455243373231526563656976657220696d706c656d656e7465724552433732313a206f776e657220717565727920666f72206e6f6e6578697374656e7420746f6b656ea26469706673582212202d3425a05a141f3af841329cfd8d463e068f6b19118e0c3e77ab27bbdf1e7a4a64736f6c63430008090033",
  "immutableReferences": {},
  "source": "//SPDX-License-Identifier: MIT\npragma solidity  >=0.8.0;\npragma abicoder v2;\n\nimport \"./ERC721.sol\";\n\ncontract CryptoPaws is ERC721 {\n\n    // name of paw collection for contract\n    string public collectionName;\n    // symbol for paw tokens\n    string public collectionNameSymbol;\n    // total number of paws\n    uint256 public pawCounter;\n\n    //set a default price for freshly minted paws\n    uint256 public defaultPrice = 20000000 gwei;\n    //set a default mint price\n    uint256 public mintPrice = 20000000 gwei;\n\n    // define paw struct\n    struct CryptoPaw {\n        //unique tokenid\n        uint256 tokenId;\n        //string that specifies unique color combination\n        string creationStr;\n        //string that holds URI that points to image file on ipfs\n        string tokenURI;\n        //address of the account that minted the token\n        address payable mintedBy;\n        //address of current token owner\n        address payable currentOwner;\n        //set price of token\n        uint256 price;\n        //tracks number of times token changed ownership\n        uint256 timesTransferred;\n        bool forSale;\n    }\n\n    // map tokenId to a Paw\n    mapping(uint256 => CryptoPaw) public allPaws;\n    // check if a selector number already exists\n    mapping(string => bool) public creationStrs;\n    // check if a URI exists\n    mapping(string => bool) public tokenURIExists;\n\n    // constructor that creates the ERC721\n    constructor() ERC721(\"Original CryptoPaws Collection\",\"PAW\") {\n        collectionName = name();\n        collectionNameSymbol = symbol();\n    }\n\n    // minting function for new PAW\n    function mintPaw(string memory _creationStr, string memory _tokenURI) external payable{\n        //make sure address exists and isnt a 0 address\n        require(msg.sender != address(0), \"Non-zero addresses only\");\n        //make sure the mint price is paid\n        require(msg.value >= mintPrice, \"You must pay the actual mint price\");\n        //increment the collection counter\n        pawCounter++;\n        //pawCounter is the tokenid in this case\n        require(!_exists(pawCounter), \"collection counter not found\");\n        //checks that color combo does not already exist\n        require(!creationStrs[_creationStr], \"this paw print already exists\");\n        //checks that uri is new\n        require(!tokenURIExists[_tokenURI], \"the URI already exists\");\n\n        //mint time baby\n        _mint(msg.sender, pawCounter);\n        //set the URI for the token\n        _setTokenURI(pawCounter, _tokenURI);\n        \n        //add URI to URI list\n        tokenURIExists[_tokenURI] = true;\n        \n        \n        CryptoPaw memory newCryptoPaw = CryptoPaw(\n            pawCounter,\n            _creationStr,\n            _tokenURI,\n            payable(msg.sender),\n            payable(msg.sender),\n            defaultPrice,\n            0,\n            false);\n\n            allPaws[pawCounter] = newCryptoPaw;\n    }\n\n    //get the owner of a token\n    function getTokenOwner(uint256 _tokenId) public view returns(address) {\n        address tokenOwner = ownerOf(_tokenId);\n        return tokenOwner;\n    }\n\n    //get token image\n    function getTokenImg(uint256 _tokenId) public view returns(string memory) {\n        string memory tokenImg = tokenURI(_tokenId);\n        return tokenImg;\n    }\n\n    //get total number of tokens\n    function getTotalNumberMinted() public view returns(uint256) {\n        uint256 totalNumberOfTokensMinted = totalSupply();\n        return totalNumberOfTokensMinted;\n    }\n\n    //get number of tokens owned by an address\n    function getTotalNumberOwnedByAddress(address _owner) public view returns(uint256) {\n        uint totalNumberOfTokensOwned = balanceOf(_owner);\n        return totalNumberOfTokensOwned;\n    }\n\n    //check if token exists\n    function getTokenExists(uint256 _tokenId) public view returns(bool) {\n        bool tokenExists = _exists(_tokenId);\n        return tokenExists;\n    }\n\n    function buyToken(uint256 _tokenId) public payable {\n        //check for nonzero account\n        require(msg.sender != address(0), \"non-zero addresses only\");\n        // check if tokenId exists\n        require(_exists(_tokenId), \"this paw does not exist\");\n\n        //get token owner's address\n        address payable tokenOwner = payable(ownerOf(_tokenId));\n\n        //check if token owner is nonzero\n        require(tokenOwner != address(0), \"non-zero addresses only\");\n        //check that buyer is not token owner\n        require(tokenOwner != msg.sender, \"you can't buy your own token\");\n\n\n        //verify price sent is equal to or more than asking price\n        require(msg.value >= allPaws[_tokenId].price, \"please send the correct amount of eth\");\n        //verify paw is for sale\n        require(allPaws[_tokenId].forSale, \"this paw is not for sale\");\n\n        //transfer token ownership\n        _transfer(tokenOwner, msg.sender, _tokenId);\n\n        //send previous owner the payment\n        tokenOwner.transfer(msg.value);\n\n        //set new owner\n        allPaws[_tokenId].currentOwner = payable(msg.sender);\n        //increase transfer counter\n        allPaws[_tokenId].timesTransferred++;\n    }\n\n    function changeTokenPrice(uint256 _tokenId, uint256 _newPrice) public {\n        //require caller is not zero address\n        require(msg.sender != address(0), \"non-zero addresses only\");\n        //require token exists\n        require(_exists(_tokenId), \"token does not exist\");\n        \n        //get token owner\n        address tokenOwner = ownerOf(_tokenId);\n        //check sender is owner\n        require(tokenOwner == msg.sender, \"you cannot edit a token that is not yours\");\n\n        //update price\n        allPaws[_tokenId].price = _newPrice;\n    }\n\n    function toggleForSale(uint256 _tokenId) public {\n        //address 0 safeguard\n        require(msg.sender != address(0), \"non-zero addresses only\");\n        //require token exists\n        require(_exists(_tokenId), \"token does not exist\");\n\n        //get token owner\n        address tokenOwner = ownerOf(_tokenId);\n        //check that owner is sender\n        require(tokenOwner == msg.sender, \"you cannot edit a token that is not yours\");\n        \n        //toggle the sale state\n        if(allPaws[_tokenId].forSale) {\n            allPaws[_tokenId].forSale = false;\n        } else {\n            allPaws[_tokenId].forSale = true;\n        }\n    }\n}",
  "sourcePath": "/home/csc333/Documents/GitHub/cryptoboys-nft-marketplace/src/contracts/CryptoPaws.sol",
  "compiler": {
    "name": "solc",
    "version": "0.8.9+commit.e5eed63a.Emscripten.clang"
  },
  "schemaVersion": "3.4.3",
  "updatedAt": "2021-10-22T17:48:58.997Z",
  "devdoc": {
    "kind": "dev",
    "methods": {
      "approve(address,uint256)": {
        "details": "See {IERC721-approve}."
      },
      "balanceOf(address)": {
        "details": "See {IERC721-balanceOf}."
      },
      "baseURI()": {
        "details": "Returns the base URI set via {_setBaseURI}. This will be automatically added as a prefix in {tokenURI} to each token's URI, or to the token ID if no specific URI is set for that token ID."
      },
      "getApproved(uint256)": {
        "details": "See {IERC721-getApproved}."
      },
      "isApprovedForAll(address,address)": {
        "details": "See {IERC721-isApprovedForAll}."
      },
      "name()": {
        "details": "See {IERC721Metadata-name}."
      },
      "ownerOf(uint256)": {
        "details": "See {IERC721-ownerOf}."
      },
      "safeTransferFrom(address,address,uint256)": {
        "details": "See {IERC721-safeTransferFrom}."
      },
      "safeTransferFrom(address,address,uint256,bytes)": {
        "details": "See {IERC721-safeTransferFrom}."
      },
      "setApprovalForAll(address,bool)": {
        "details": "See {IERC721-setApprovalForAll}."
      },
      "supportsInterface(bytes4)": {
        "details": "See {IERC165-supportsInterface}. Time complexity O(1), guaranteed to always use less than 30 000 gas."
      },
      "symbol()": {
        "details": "See {IERC721Metadata-symbol}."
      },
      "tokenByIndex(uint256)": {
        "details": "See {IERC721Enumerable-tokenByIndex}."
      },
      "tokenOfOwnerByIndex(address,uint256)": {
        "details": "See {IERC721Enumerable-tokenOfOwnerByIndex}."
      },
      "tokenURI(uint256)": {
        "details": "See {IERC721Metadata-tokenURI}."
      },
      "totalSupply()": {
        "details": "See {IERC721Enumerable-totalSupply}."
      },
      "transferFrom(address,address,uint256)": {
        "details": "See {IERC721-transferFrom}."
      }
    },
    "version": 1
  },
  "userdoc": {
    "kind": "user",
    "methods": {},
    "version": 1
  }
}