{
  "contractName": "CryptoBoys",
  "abi": [
    {
      "inputs": [],
      "stateMutability": "nonpayable",
      "type": "constructor"
    },
    {
      "anonymous": false,
      "inputs": [
        {
          "indexed": true,
          "internalType": "address",
          "name": "owner",
          "type": "address"
        },
        {
          "indexed": true,
          "internalType": "address",
          "name": "approved",
          "type": "address"
        },
        {
          "indexed": true,
          "internalType": "uint256",
          "name": "tokenId",
          "type": "uint256"
        }
      ],
      "name": "Approval",
      "type": "event"
    },
    {
      "anonymous": false,
      "inputs": [
        {
          "indexed": true,
          "internalType": "address",
          "name": "owner",
          "type": "address"
        },
        {
          "indexed": true,
          "internalType": "address",
          "name": "operator",
          "type": "address"
        },
        {
          "indexed": false,
          "internalType": "bool",
          "name": "approved",
          "type": "bool"
        }
      ],
      "name": "ApprovalForAll",
      "type": "event"
    },
    {
      "anonymous": false,
      "inputs": [
        {
          "indexed": true,
          "internalType": "address",
          "name": "from",
          "type": "address"
        },
        {
          "indexed": true,
          "internalType": "address",
          "name": "to",
          "type": "address"
        },
        {
          "indexed": true,
          "internalType": "uint256",
          "name": "tokenId",
          "type": "uint256"
        }
      ],
      "name": "Transfer",
      "type": "event"
    },
    {
      "inputs": [
        {
          "internalType": "uint256",
          "name": "",
          "type": "uint256"
        }
      ],
      "name": "allCryptoBoys",
      "outputs": [
        {
          "internalType": "uint256",
          "name": "tokenId",
          "type": "uint256"
        },
        {
          "internalType": "string",
          "name": "tokenName",
          "type": "string"
        },
        {
          "internalType": "string",
          "name": "tokenURI",
          "type": "string"
        },
        {
          "internalType": "address payable",
          "name": "mintedBy",
          "type": "address"
        },
        {
          "internalType": "address payable",
          "name": "currentOwner",
          "type": "address"
        },
        {
          "internalType": "address payable",
          "name": "previousOwner",
          "type": "address"
        },
        {
          "internalType": "uint256",
          "name": "price",
          "type": "uint256"
        },
        {
          "internalType": "uint256",
          "name": "numberOfTransfers",
          "type": "uint256"
        },
        {
          "internalType": "bool",
          "name": "forSale",
          "type": "bool"
        }
      ],
      "stateMutability": "view",
      "type": "function",
      "constant": true
    },
    {
      "inputs": [
        {
          "internalType": "address",
          "name": "to",
          "type": "address"
        },
        {
          "internalType": "uint256",
          "name": "tokenId",
          "type": "uint256"
        }
      ],
      "name": "approve",
      "outputs": [],
      "stateMutability": "nonpayable",
      "type": "function"
    },
    {
      "inputs": [
        {
          "internalType": "address",
          "name": "owner",
          "type": "address"
        }
      ],
      "name": "balanceOf",
      "outputs": [
        {
          "internalType": "uint256",
          "name": "",
          "type": "uint256"
        }
      ],
      "stateMutability": "view",
      "type": "function",
      "constant": true
    },
    {
      "inputs": [],
      "name": "baseURI",
      "outputs": [
        {
          "internalType": "string",
          "name": "",
          "type": "string"
        }
      ],
      "stateMutability": "view",
      "type": "function",
      "constant": true
    },
    {
      "inputs": [],
      "name": "collectionName",
      "outputs": [
        {
          "internalType": "string",
          "name": "",
          "type": "string"
        }
      ],
      "stateMutability": "view",
      "type": "function",
      "constant": true
    },
    {
      "inputs": [],
      "name": "collectionNameSymbol",
      "outputs": [
        {
          "internalType": "string",
          "name": "",
          "type": "string"
        }
      ],
      "stateMutability": "view",
      "type": "function",
      "constant": true
    },
    {
      "inputs": [
        {
          "internalType": "string",
          "name": "",
          "type": "string"
        }
      ],
      "name": "colorExists",
      "outputs": [
        {
          "internalType": "bool",
          "name": "",
          "type": "bool"
        }
      ],
      "stateMutability": "view",
      "type": "function",
      "constant": true
    },
    {
      "inputs": [],
      "name": "cryptoBoyCounter",
      "outputs": [
        {
          "internalType": "uint256",
          "name": "",
          "type": "uint256"
        }
      ],
      "stateMutability": "view",
      "type": "function",
      "constant": true
    },
    {
      "inputs": [
        {
          "internalType": "uint256",
          "name": "tokenId",
          "type": "uint256"
        }
      ],
      "name": "getApproved",
      "outputs": [
        {
          "internalType": "address",
          "name": "",
          "type": "address"
        }
      ],
      "stateMutability": "view",
      "type": "function",
      "constant": true
    },
    {
      "inputs": [
        {
          "internalType": "address",
          "name": "owner",
          "type": "address"
        },
        {
          "internalType": "address",
          "name": "operator",
          "type": "address"
        }
      ],
      "name": "isApprovedForAll",
      "outputs": [
        {
          "internalType": "bool",
          "name": "",
          "type": "bool"
        }
      ],
      "stateMutability": "view",
      "type": "function",
      "constant": true
    },
    {
      "inputs": [],
      "name": "mintPrice",
      "outputs": [
        {
          "internalType": "uint256",
          "name": "",
          "type": "uint256"
        }
      ],
      "stateMutability": "view",
      "type": "function",
      "constant": true
    },
    {
      "inputs": [],
      "name": "name",
      "outputs": [
        {
          "internalType": "string",
          "name": "",
          "type": "string"
        }
      ],
      "stateMutability": "view",
      "type": "function",
      "constant": true
    },
    {
      "inputs": [
        {
          "internalType": "uint256",
          "name": "tokenId",
          "type": "uint256"
        }
      ],
      "name": "ownerOf",
      "outputs": [
        {
          "internalType": "address",
          "name": "",
          "type": "address"
        }
      ],
      "stateMutability": "view",
      "type": "function",
      "constant": true
    },
    {
      "inputs": [
        {
          "internalType": "address",
          "name": "from",
          "type": "address"
        },
        {
          "internalType": "address",
          "name": "to",
          "type": "address"
        },
        {
          "internalType": "uint256",
          "name": "tokenId",
          "type": "uint256"
        }
      ],
      "name": "safeTransferFrom",
      "outputs": [],
      "stateMutability": "nonpayable",
      "type": "function"
    },
    {
      "inputs": [
        {
          "internalType": "address",
          "name": "from",
          "type": "address"
        },
        {
          "internalType": "address",
          "name": "to",
          "type": "address"
        },
        {
          "internalType": "uint256",
          "name": "tokenId",
          "type": "uint256"
        },
        {
          "internalType": "bytes",
          "name": "_data",
          "type": "bytes"
        }
      ],
      "name": "safeTransferFrom",
      "outputs": [],
      "stateMutability": "nonpayable",
      "type": "function"
    },
    {
      "inputs": [
        {
          "internalType": "address",
          "name": "operator",
          "type": "address"
        },
        {
          "internalType": "bool",
          "name": "approved",
          "type": "bool"
        }
      ],
      "name": "setApprovalForAll",
      "outputs": [],
      "stateMutability": "nonpayable",
      "type": "function"
    },
    {
      "inputs": [
        {
          "internalType": "bytes4",
          "name": "interfaceId",
          "type": "bytes4"
        }
      ],
      "name": "supportsInterface",
      "outputs": [
        {
          "internalType": "bool",
          "name": "",
          "type": "bool"
        }
      ],
      "stateMutability": "view",
      "type": "function",
      "constant": true
    },
    {
      "inputs": [],
      "name": "symbol",
      "outputs": [
        {
          "internalType": "string",
          "name": "",
          "type": "string"
        }
      ],
      "stateMutability": "view",
      "type": "function",
      "constant": true
    },
    {
      "inputs": [
        {
          "internalType": "uint256",
          "name": "index",
          "type": "uint256"
        }
      ],
      "name": "tokenByIndex",
      "outputs": [
        {
          "internalType": "uint256",
          "name": "",
          "type": "uint256"
        }
      ],
      "stateMutability": "view",
      "type": "function",
      "constant": true
    },
    {
      "inputs": [
        {
          "internalType": "string",
          "name": "",
          "type": "string"
        }
      ],
      "name": "tokenNameExists",
      "outputs": [
        {
          "internalType": "bool",
          "name": "",
          "type": "bool"
        }
      ],
      "stateMutability": "view",
      "type": "function",
      "constant": true
    },
    {
      "inputs": [
        {
          "internalType": "address",
          "name": "owner",
          "type": "address"
        },
        {
          "internalType": "uint256",
          "name": "index",
          "type": "uint256"
        }
      ],
      "name": "tokenOfOwnerByIndex",
      "outputs": [
        {
          "internalType": "uint256",
          "name": "",
          "type": "uint256"
        }
      ],
      "stateMutability": "view",
      "type": "function",
      "constant": true
    },
    {
      "inputs": [
        {
          "internalType": "uint256",
          "name": "tokenId",
          "type": "uint256"
        }
      ],
      "name": "tokenURI",
      "outputs": [
        {
          "internalType": "string",
          "name": "",
          "type": "string"
        }
      ],
      "stateMutability": "view",
      "type": "function",
      "constant": true
    },
    {
      "inputs": [
        {
          "internalType": "string",
          "name": "",
          "type": "string"
        }
      ],
      "name": "tokenURIExists",
      "outputs": [
        {
          "internalType": "bool",
          "name": "",
          "type": "bool"
        }
      ],
      "stateMutability": "view",
      "type": "function",
      "constant": true
    },
    {
      "inputs": [],
      "name": "totalSupply",
      "outputs": [
        {
          "internalType": "uint256",
          "name": "",
          "type": "uint256"
        }
      ],
      "stateMutability": "view",
      "type": "function",
      "constant": true
    },
    {
      "inputs": [
        {
          "internalType": "address",
          "name": "from",
          "type": "address"
        },
        {
          "internalType": "address",
          "name": "to",
          "type": "address"
        },
        {
          "internalType": "uint256",
          "name": "tokenId",
          "type": "uint256"
        }
      ],
      "name": "transferFrom",
      "outputs": [],
      "stateMutability": "nonpayable",
      "type": "function"
    },
    {
      "inputs": [
        {
          "internalType": "string",
          "name": "_name",
          "type": "string"
        },
        {
          "internalType": "string",
          "name": "_tokenURI",
          "type": "string"
        },
        {
          "internalType": "uint256",
          "name": "_price",
          "type": "uint256"
        },
        {
          "internalType": "string[]",
          "name": "_colors",
          "type": "string[]"
        }
      ],
      "name": "mintCryptoBoy",
      "outputs": [],
      "stateMutability": "payable",
      "type": "function",
      "payable": true
    },
    {
      "inputs": [
        {
          "internalType": "uint256",
          "name": "_tokenId",
          "type": "uint256"
        }
      ],
      "name": "getTokenOwner",
      "outputs": [
        {
          "internalType": "address",
          "name": "",
          "type": "address"
        }
      ],
      "stateMutability": "view",
      "type": "function",
      "constant": true
    },
    {
      "inputs": [
        {
          "internalType": "uint256",
          "name": "_tokenId",
          "type": "uint256"
        }
      ],
      "name": "getTokenMetaData",
      "outputs": [
        {
          "internalType": "string",
          "name": "",
          "type": "string"
        }
      ],
      "stateMutability": "view",
      "type": "function",
      "constant": true
    },
    {
      "inputs": [],
      "name": "getNumberOfTokensMinted",
      "outputs": [
        {
          "internalType": "uint256",
          "name": "",
          "type": "uint256"
        }
      ],
      "stateMutability": "view",
      "type": "function",
      "constant": true
    },
    {
      "inputs": [
        {
          "internalType": "address",
          "name": "_owner",
          "type": "address"
        }
      ],
      "name": "getTotalNumberOfTokensOwnedByAnAddress",
      "outputs": [
        {
          "internalType": "uint256",
          "name": "",
          "type": "uint256"
        }
      ],
      "stateMutability": "view",
      "type": "function",
      "constant": true
    },
    {
      "inputs": [
        {
          "internalType": "uint256",
          "name": "_tokenId",
          "type": "uint256"
        }
      ],
      "name": "getTokenExists",
      "outputs": [
        {
          "internalType": "bool",
          "name": "",
          "type": "bool"
        }
      ],
      "stateMutability": "view",
      "type": "function",
      "constant": true
    },
    {
      "inputs": [
        {
          "internalType": "uint256",
          "name": "_tokenId",
          "type": "uint256"
        }
      ],
      "name": "buyToken",
      "outputs": [],
      "stateMutability": "payable",
      "type": "function",
      "payable": true
    },
    {
      "inputs": [
        {
          "internalType": "uint256",
          "name": "_tokenId",
          "type": "uint256"
        },
        {
          "internalType": "uint256",
          "name": "_newPrice",
          "type": "uint256"
        }
      ],
      "name": "changeTokenPrice",
      "outputs": [],
      "stateMutability": "nonpayable",
      "type": "function"
    },
    {
      "inputs": [
        {
          "internalType": "uint256",
          "name": "_tokenId",
          "type": "uint256"
        }
      ],
      "name": "toggleForSale",
      "outputs": [],
      "stateMutability": "nonpayable",
      "type": "function"
    }
  ],
  "bytecode": "0x608060405266470de4df820000600d553480156200001c57600080fd5b506040518060400160405280601681526020017f43727970746f20426f797320436f6c6c656374696f6e000000000000000000008152506040518060400160405280600281526020017f4342000000000000000000000000000000000000000000000000000000000000815250620000a16301ffc9a760e01b6200017360201b60201c565b8160069080519060200190620000b99291906200037f565b508060079080519060200190620000d29291906200037f565b50620000eb6380ac58cd60e01b6200017360201b60201c565b62000103635b5e139f60e01b6200017360201b60201c565b6200011b63780e9d6360e01b6200017360201b60201c565b50506200012d6200024b60201b60201c565b600a9080519060200190620001449291906200037f565b5062000155620002e560201b60201c565b600b90805190602001906200016c9291906200037f565b5062000517565b63ffffffff60e01b817bffffffffffffffffffffffffffffffffffffffffffffffffffffffff19161415620001df576040517f08c379a0000000000000000000000000000000000000000000000000000000008152600401620001d69062000490565b60405180910390fd5b6001600080837bffffffffffffffffffffffffffffffffffffffffffffffffffffffff19167bffffffffffffffffffffffffffffffffffffffffffffffffffffffff1916815260200190815260200160002060006101000a81548160ff02191690831515021790555050565b6060600680546200025c90620004e1565b80601f01602080910402602001604051908101604052809291908181526020018280546200028a90620004e1565b8015620002db5780601f10620002af57610100808354040283529160200191620002db565b820191906000526020600020905b815481529060010190602001808311620002bd57829003601f168201915b5050505050905090565b606060078054620002f690620004e1565b80601f01602080910402602001604051908101604052809291908181526020018280546200032490620004e1565b8015620003755780601f10620003495761010080835404028352916020019162000375565b820191906000526020600020905b8154815290600101906020018083116200035757829003601f168201915b5050505050905090565b8280546200038d90620004e1565b90600052602060002090601f016020900481019282620003b15760008555620003fd565b82601f10620003cc57805160ff1916838001178555620003fd565b82800160010185558215620003fd579182015b82811115620003fc578251825591602001919060010190620003df565b5b5090506200040c919062000410565b5090565b5b808211156200042b57600081600090555060010162000411565b5090565b600082825260208201905092915050565b7f4552433136353a20696e76616c696420696e7465726661636520696400000000600082015250565b600062000478601c836200042f565b9150620004858262000440565b602082019050919050565b60006020820190508181036000830152620004ab8162000469565b9050919050565b7f4e487b7100000000000000000000000000000000000000000000000000000000600052602260045260246000fd5b60006002820490506001821680620004fa57607f821691505b60208210811415620005115762000510620004b2565b5b50919050565b61565b80620005276000396000f3fe6080604052600436106101f95760003560e01c80636817c76c1161010d578063a32018b9116100a0578063bffec2021161006f578063bffec202146107b5578063c87b56dd146107e0578063cc151f3a1461081d578063e5326ab114610848578063e985e9c514610873576101f9565b8063a32018b9146106e9578063a46b1fac14610712578063a5cd761f1461074f578063b88d4fde1461078c576101f9565b80638d44807c116100dc5780638d44807c1461063c57806395d89b41146106795780639bfc5a59146106a4578063a22cb465146106c0576101f9565b80636817c76c1461057e5780636c0360eb146105a95780636f9507f9146105d457806370a08231146105ff576101f9565b80632f745c591161019057806344c0d7eb1161015f57806344c0d7eb146104595780634f6ccce71461049e57806362e8e8ac146104db5780636352211e1461050457806367c623cf14610541576101f9565b80632f745c591461037957806342842e0e146103b657806343902850146103df57806343d32ae71461041c576101f9565b8063142687f3116101cc578063142687f3146102cc57806318160ddd1461030957806323b872dd146103345780632d296bf11461035d576101f9565b806301ffc9a7146101fe57806306fdde031461023b578063081812fc14610266578063095ea7b3146102a3575b600080fd5b34801561020a57600080fd5b5061022560048036038101906102209190613c2d565b6108b0565b6040516102329190613c75565b60405180910390f35b34801561024757600080fd5b50610250610917565b60405161025d9190613d29565b60405180910390f35b34801561027257600080fd5b5061028d60048036038101906102889190613d81565b6109a9565b60405161029a9190613def565b60405180910390f35b3480156102af57600080fd5b506102ca60048036038101906102c59190613e36565b610a2e565b005b3480156102d857600080fd5b506102f360048036038101906102ee9190613d81565b610b46565b6040516103009190613c75565b60405180910390f35b34801561031557600080fd5b5061031e610b5d565b60405161032b9190613e85565b60405180910390f35b34801561034057600080fd5b5061035b60048036038101906103569190613ea0565b610b6e565b005b61037760048036038101906103729190613d81565b610bce565b005b34801561038557600080fd5b506103a0600480360381019061039b9190613e36565b611190565b6040516103ad9190613e85565b60405180910390f35b3480156103c257600080fd5b506103dd60048036038101906103d89190613ea0565b6111eb565b005b3480156103eb57600080fd5b5061040660048036038101906104019190613ef3565b61120b565b6040516104139190613e85565b60405180910390f35b34801561042857600080fd5b50610443600480360381019061043e9190614055565b611222565b6040516104509190613c75565b60405180910390f35b34801561046557600080fd5b50610480600480360381019061047b9190613d81565b611258565b604051610495999897969594939291906140bf565b60405180910390f35b3480156104aa57600080fd5b506104c560048036038101906104c09190613d81565b611423565b6040516104d29190613e85565b60405180910390f35b3480156104e757600080fd5b5061050260048036038101906104fd919061415a565b611446565b005b34801561051057600080fd5b5061052b60048036038101906105269190613d81565b6118ce565b6040516105389190613def565b60405180910390f35b34801561054d57600080fd5b5061056860048036038101906105639190613d81565b611905565b6040516105759190613d29565b60405180910390f35b34801561058a57600080fd5b5061059361191d565b6040516105a09190613e85565b60405180910390f35b3480156105b557600080fd5b506105be611923565b6040516105cb9190613d29565b60405180910390f35b3480156105e057600080fd5b506105e96119b5565b6040516105f69190613d29565b60405180910390f35b34801561060b57600080fd5b5061062660048036038101906106219190613ef3565b611a43565b6040516106339190613e85565b60405180910390f35b34801561064857600080fd5b50610663600480360381019061065e9190614055565b611b02565b6040516106709190613c75565b60405180910390f35b34801561068557600080fd5b5061068e611b38565b60405161069b9190613d29565b60405180910390f35b6106be60048036038101906106b991906141fa565b611bca565b005b3480156106cc57600080fd5b506106e760048036038101906106e291906142e6565b61214d565b005b3480156106f557600080fd5b50610710600480360381019061070b9190613d81565b6122ce565b005b34801561071e57600080fd5b5061073960048036038101906107349190614055565b612780565b6040516107469190613c75565b60405180910390f35b34801561075b57600080fd5b5061077660048036038101906107719190613d81565b6127b6565b6040516107839190613def565b60405180910390f35b34801561079857600080fd5b506107b360048036038101906107ae91906143c7565b6127cd565b005b3480156107c157600080fd5b506107ca61282f565b6040516107d79190613e85565b60405180910390f35b3480156107ec57600080fd5b5061080760048036038101906108029190613d81565b612835565b6040516108149190613d29565b60405180910390f35b34801561082957600080fd5b506108326129a8565b60405161083f9190613e85565b60405180910390f35b34801561085457600080fd5b5061085d6129bc565b60405161086a9190613d29565b60405180910390f35b34801561087f57600080fd5b5061089a6004803603810190610895919061444a565b612a4a565b6040516108a79190613c75565b60405180910390f35b6000806000837bffffffffffffffffffffffffffffffffffffffffffffffffffffffff19167bffffffffffffffffffffffffffffffffffffffffffffffffffffffff1916815260200190815260200160002060009054906101000a900460ff169050919050565b606060068054610926906144b9565b80601f0160208091040260200160405190810160405280929190818152602001828054610952906144b9565b801561099f5780601f106109745761010080835404028352916020019161099f565b820191906000526020600020905b81548152906001019060200180831161098257829003601f168201915b5050505050905090565b60006109b482612ade565b6109f3576040517f08c379a00000000000000000000000000000000000000000000000000000000081526004016109ea9061455d565b60405180910390fd5b6004600083815260200190815260200160002060009054906101000a900473ffffffffffffffffffffffffffffffffffffffff169050919050565b6000610a39826118ce565b90508073ffffffffffffffffffffffffffffffffffffffff168373ffffffffffffffffffffffffffffffffffffffff161415610aaa576040517f08c379a0000000000000000000000000000000000000000000000000000000008152600401610aa1906145ef565b60405180910390fd5b8073ffffffffffffffffffffffffffffffffffffffff16610ac9612afb565b73ffffffffffffffffffffffffffffffffffffffff161480610af85750610af781610af2612afb565b612a4a565b5b610b37576040517f08c379a0000000000000000000000000000000000000000000000000000000008152600401610b2e90614681565b60405180910390fd5b610b418383612b03565b505050565b600080610b5283612ade565b905080915050919050565b6000610b696002612bbc565b905090565b610b7f610b79612afb565b82612bd1565b610bbe576040517f08c379a0000000000000000000000000000000000000000000000000000000008152600401610bb590614713565b60405180910390fd5b610bc9838383612caf565b505050565b600073ffffffffffffffffffffffffffffffffffffffff163373ffffffffffffffffffffffffffffffffffffffff161415610c0857600080fd5b610c1181612ade565b610c1a57600080fd5b6000610c25826118ce565b9050600073ffffffffffffffffffffffffffffffffffffffff168173ffffffffffffffffffffffffffffffffffffffff161415610c6157600080fd5b3373ffffffffffffffffffffffffffffffffffffffff168173ffffffffffffffffffffffffffffffffffffffff161415610c9a57600080fd5b6000600e60008481526020019081526020016000206040518061012001604052908160008201548152602001600182018054610cd5906144b9565b80601f0160208091040260200160405190810160405280929190818152602001828054610d01906144b9565b8015610d4e5780601f10610d2357610100808354040283529160200191610d4e565b820191906000526020600020905b815481529060010190602001808311610d3157829003601f168201915b50505050508152602001600282018054610d67906144b9565b80601f0160208091040260200160405190810160405280929190818152602001828054610d93906144b9565b8015610de05780601f10610db557610100808354040283529160200191610de0565b820191906000526020600020905b815481529060010190602001808311610dc357829003601f168201915b505050505081526020016003820160009054906101000a900473ffffffffffffffffffffffffffffffffffffffff1673ffffffffffffffffffffffffffffffffffffffff1673ffffffffffffffffffffffffffffffffffffffff1681526020016004820160009054906101000a900473ffffffffffffffffffffffffffffffffffffffff1673ffffffffffffffffffffffffffffffffffffffff1673ffffffffffffffffffffffffffffffffffffffff1681526020016005820160009054906101000a900473ffffffffffffffffffffffffffffffffffffffff1673ffffffffffffffffffffffffffffffffffffffff1673ffffffffffffffffffffffffffffffffffffffff16815260200160068201548152602001600782015481526020016008820160009054906101000a900460ff16151515158152505090508060c00151341015610f2d57600080fd5b806101000151610f3c57600080fd5b610f47823385612caf565b6000816080015190508073ffffffffffffffffffffffffffffffffffffffff166108fc349081150290604051600060405180830381858888f19350505050158015610f96573d6000803e3d6000fd5b5081608001518260a0019073ffffffffffffffffffffffffffffffffffffffff16908173ffffffffffffffffffffffffffffffffffffffff168152505033826080019073ffffffffffffffffffffffffffffffffffffffff16908173ffffffffffffffffffffffffffffffffffffffff168152505060018260e00181815161101e9190614762565b9150818152505081600e600086815260200190815260200160002060008201518160000155602082015181600101908051906020019061105f929190613b1e565b50604082015181600201908051906020019061107c929190613b1e565b5060608201518160030160006101000a81548173ffffffffffffffffffffffffffffffffffffffff021916908373ffffffffffffffffffffffffffffffffffffffff16021790555060808201518160040160006101000a81548173ffffffffffffffffffffffffffffffffffffffff021916908373ffffffffffffffffffffffffffffffffffffffff16021790555060a08201518160050160006101000a81548173ffffffffffffffffffffffffffffffffffffffff021916908373ffffffffffffffffffffffffffffffffffffffff16021790555060c0820151816006015560e082015181600701556101008201518160080160006101000a81548160ff02191690831515021790555090505050505050565b60006111e382600160008673ffffffffffffffffffffffffffffffffffffffff1673ffffffffffffffffffffffffffffffffffffffff168152602001908152602001600020612ec690919063ffffffff16565b905092915050565b611206838383604051806020016040528060008152506127cd565b505050565b60008061121783611a43565b905080915050919050565b6011818051602081018201805184825260208301602085012081835280955050505050506000915054906101000a900460ff1681565b600e602052806000526040600020600091509050806000015490806001018054611281906144b9565b80601f01602080910402602001604051908101604052809291908181526020018280546112ad906144b9565b80156112fa5780601f106112cf576101008083540402835291602001916112fa565b820191906000526020600020905b8154815290600101906020018083116112dd57829003601f168201915b50505050509080600201805461130f906144b9565b80601f016020809104026020016040519081016040528092919081815260200182805461133b906144b9565b80156113885780601f1061135d57610100808354040283529160200191611388565b820191906000526020600020905b81548152906001019060200180831161136b57829003601f168201915b5050505050908060030160009054906101000a900473ffffffffffffffffffffffffffffffffffffffff16908060040160009054906101000a900473ffffffffffffffffffffffffffffffffffffffff16908060050160009054906101000a900473ffffffffffffffffffffffffffffffffffffffff16908060060154908060070154908060080160009054906101000a900460ff16905089565b60008061143a836002612ee090919063ffffffff16565b50905080915050919050565b600073ffffffffffffffffffffffffffffffffffffffff163373ffffffffffffffffffffffffffffffffffffffff16141561148057600080fd5b61148982612ade565b61149257600080fd5b600061149d836118ce565b90503373ffffffffffffffffffffffffffffffffffffffff168173ffffffffffffffffffffffffffffffffffffffff16146114d757600080fd5b6000600e60008581526020019081526020016000206040518061012001604052908160008201548152602001600182018054611512906144b9565b80601f016020809104026020016040519081016040528092919081815260200182805461153e906144b9565b801561158b5780601f106115605761010080835404028352916020019161158b565b820191906000526020600020905b81548152906001019060200180831161156e57829003601f168201915b505050505081526020016002820180546115a4906144b9565b80601f01602080910402602001604051908101604052809291908181526020018280546115d0906144b9565b801561161d5780601f106115f25761010080835404028352916020019161161d565b820191906000526020600020905b81548152906001019060200180831161160057829003601f168201915b505050505081526020016003820160009054906101000a900473ffffffffffffffffffffffffffffffffffffffff1673ffffffffffffffffffffffffffffffffffffffff1673ffffffffffffffffffffffffffffffffffffffff1681526020016004820160009054906101000a900473ffffffffffffffffffffffffffffffffffffffff1673ffffffffffffffffffffffffffffffffffffffff1673ffffffffffffffffffffffffffffffffffffffff1681526020016005820160009054906101000a900473ffffffffffffffffffffffffffffffffffffffff1673ffffffffffffffffffffffffffffffffffffffff1673ffffffffffffffffffffffffffffffffffffffff16815260200160068201548152602001600782015481526020016008820160009054906101000a900460ff1615151515815250509050828160c001818152505080600e600086815260200190815260200160002060008201518160000155602082015181600101908051906020019061179d929190613b1e565b5060408201518160020190805190602001906117ba929190613b1e565b5060608201518160030160006101000a81548173ffffffffffffffffffffffffffffffffffffffff021916908373ffffffffffffffffffffffffffffffffffffffff16021790555060808201518160040160006101000a81548173ffffffffffffffffffffffffffffffffffffffff021916908373ffffffffffffffffffffffffffffffffffffffff16021790555060a08201518160050160006101000a81548173ffffffffffffffffffffffffffffffffffffffff021916908373ffffffffffffffffffffffffffffffffffffffff16021790555060c0820151816006015560e082015181600701556101008201518160080160006101000a81548160ff02191690831515021790555090505050505050565b60006118fe826040518060600160405280602981526020016155fd602991396002612f0c9092919063ffffffff16565b9050919050565b6060600061191283612835565b905080915050919050565b600d5481565b606060098054611932906144b9565b80601f016020809104026020016040519081016040528092919081815260200182805461195e906144b9565b80156119ab5780601f10611980576101008083540402835291602001916119ab565b820191906000526020600020905b81548152906001019060200180831161198e57829003601f168201915b5050505050905090565b600b80546119c2906144b9565b80601f01602080910402602001604051908101604052809291908181526020018280546119ee906144b9565b8015611a3b5780601f10611a1057610100808354040283529160200191611a3b565b820191906000526020600020905b815481529060010190602001808311611a1e57829003601f168201915b505050505081565b60008073ffffffffffffffffffffffffffffffffffffffff168273ffffffffffffffffffffffffffffffffffffffff161415611ab4576040517f08c379a0000000000000000000000000000000000000000000000000000000008152600401611aab9061482a565b60405180910390fd5b611afb600160008473ffffffffffffffffffffffffffffffffffffffff1673ffffffffffffffffffffffffffffffffffffffff168152602001908152602001600020612f2b565b9050919050565b6010818051602081018201805184825260208301602085012081835280955050505050506000915054906101000a900460ff1681565b606060078054611b47906144b9565b80601f0160208091040260200160405190810160405280929190818152602001828054611b73906144b9565b8015611bc05780601f10611b9557610100808354040283529160200191611bc0565b820191906000526020600020905b815481529060010190602001808311611ba357829003601f168201915b5050505050905090565b600073ffffffffffffffffffffffffffffffffffffffff163373ffffffffffffffffffffffffffffffffffffffff161415611c3a576040517f08c379a0000000000000000000000000000000000000000000000000000000008152600401611c3190614896565b60405180910390fd5b600d54341015611c7f576040517f08c379a0000000000000000000000000000000000000000000000000000000008152600401611c7690614928565b60405180910390fd5b600c6000815480929190611c9290614948565b9190505550611ca2600c54612ade565b15611ce2576040517f08c379a0000000000000000000000000000000000000000000000000000000008152600401611cd9906149dd565b60405180910390fd5b606060005b83839050811015611d4e5781848483818110611d0657611d056149fd565b5b9050602002810190611d189190614a3b565b604051602001611d2a93929190614aff565b60405160208183030381529060405291508080611d4690614948565b915050611ce7565b50601081604051611d5f9190614b25565b908152602001604051809103902060009054906101000a900460ff1615611dbb576040517f08c379a0000000000000000000000000000000000000000000000000000000008152600401611db290614b88565b60405180910390fd5b601185604051611dcb9190614b25565b908152602001604051809103902060009054906101000a900460ff1615611e27576040517f08c379a0000000000000000000000000000000000000000000000000000000008152600401611e1e90614bf4565b60405180910390fd5b600f86604051611e379190614b25565b908152602001604051809103902060009054906101000a900460ff1615611e93576040517f08c379a0000000000000000000000000000000000000000000000000000000008152600401611e8a90614c60565b60405180910390fd5b611e9f33600c54612f40565b611eab600c54866130ce565b6001601082604051611ebd9190614b25565b908152602001604051809103902060006101000a81548160ff0219169083151502179055506001601186604051611ef49190614b25565b908152602001604051809103902060006101000a81548160ff0219169083151502179055506001600f87604051611f2b9190614b25565b908152602001604051809103902060006101000a81548160ff0219169083151502179055506000604051806101200160405280600c5481526020018881526020018781526020013373ffffffffffffffffffffffffffffffffffffffff1681526020013373ffffffffffffffffffffffffffffffffffffffff168152602001600073ffffffffffffffffffffffffffffffffffffffff1681526020018681526020016000815260200160011515815250905080600e6000600c548152602001908152602001600020600082015181600001556020820151816001019080519060200190612019929190613b1e565b506040820151816002019080519060200190612036929190613b1e565b5060608201518160030160006101000a81548173ffffffffffffffffffffffffffffffffffffffff021916908373ffffffffffffffffffffffffffffffffffffffff16021790555060808201518160040160006101000a81548173ffffffffffffffffffffffffffffffffffffffff021916908373ffffffffffffffffffffffffffffffffffffffff16021790555060a08201518160050160006101000a81548173ffffffffffffffffffffffffffffffffffffffff021916908373ffffffffffffffffffffffffffffffffffffffff16021790555060c0820151816006015560e082015181600701556101008201518160080160006101000a81548160ff02191690831515021790555090505050505050505050565b612155612afb565b73ffffffffffffffffffffffffffffffffffffffff168273ffffffffffffffffffffffffffffffffffffffff1614156121c3576040517f08c379a00000000000000000000000000000000000000000000000000000000081526004016121ba90614ccc565b60405180910390fd5b80600560006121d0612afb565b73ffffffffffffffffffffffffffffffffffffffff1673ffffffffffffffffffffffffffffffffffffffff16815260200190815260200160002060008473ffffffffffffffffffffffffffffffffffffffff1673ffffffffffffffffffffffffffffffffffffffff16815260200190815260200160002060006101000a81548160ff0219169083151502179055508173ffffffffffffffffffffffffffffffffffffffff1661227d612afb565b73ffffffffffffffffffffffffffffffffffffffff167f17307eab39ab6107e8899845ad3d59bd9653f200f220920489ca2b5937696c31836040516122c29190613c75565b60405180910390a35050565b600073ffffffffffffffffffffffffffffffffffffffff163373ffffffffffffffffffffffffffffffffffffffff16141561230857600080fd5b61231181612ade565b61231a57600080fd5b6000612325826118ce565b90503373ffffffffffffffffffffffffffffffffffffffff168173ffffffffffffffffffffffffffffffffffffffff161461235f57600080fd5b6000600e6000848152602001908152602001600020604051806101200160405290816000820154815260200160018201805461239a906144b9565b80601f01602080910402602001604051908101604052809291908181526020018280546123c6906144b9565b80156124135780601f106123e857610100808354040283529160200191612413565b820191906000526020600020905b8154815290600101906020018083116123f657829003601f168201915b5050505050815260200160028201805461242c906144b9565b80601f0160208091040260200160405190810160405280929190818152602001828054612458906144b9565b80156124a55780601f1061247a576101008083540402835291602001916124a5565b820191906000526020600020905b81548152906001019060200180831161248857829003601f168201915b505050505081526020016003820160009054906101000a900473ffffffffffffffffffffffffffffffffffffffff1673ffffffffffffffffffffffffffffffffffffffff1673ffffffffffffffffffffffffffffffffffffffff1681526020016004820160009054906101000a900473ffffffffffffffffffffffffffffffffffffffff1673ffffffffffffffffffffffffffffffffffffffff1673ffffffffffffffffffffffffffffffffffffffff1681526020016005820160009054906101000a900473ffffffffffffffffffffffffffffffffffffffff1673ffffffffffffffffffffffffffffffffffffffff1673ffffffffffffffffffffffffffffffffffffffff16815260200160068201548152602001600782015481526020016008820160009054906101000a900460ff16151515158152505090508061010001511561260357600081610100019015159081151581525050612616565b6001816101000190151590811515815250505b80600e6000858152602001908152602001600020600082015181600001556020820151816001019080519060200190612650929190613b1e565b50604082015181600201908051906020019061266d929190613b1e565b5060608201518160030160006101000a81548173ffffffffffffffffffffffffffffffffffffffff021916908373ffffffffffffffffffffffffffffffffffffffff16021790555060808201518160040160006101000a81548173ffffffffffffffffffffffffffffffffffffffff021916908373ffffffffffffffffffffffffffffffffffffffff16021790555060a08201518160050160006101000a81548173ffffffffffffffffffffffffffffffffffffffff021916908373ffffffffffffffffffffffffffffffffffffffff16021790555060c0820151816006015560e082015181600701556101008201518160080160006101000a81548160ff021916908315150217905550905050505050565b600f818051602081018201805184825260208301602085012081835280955050505050506000915054906101000a900460ff1681565b6000806127c2836118ce565b905080915050919050565b6127de6127d8612afb565b83612bd1565b61281d576040517f08c379a000000000000000000000000000000000000000000000000000000000815260040161281490614713565b60405180910390fd5b61282984848484613142565b50505050565b600c5481565b606061284082612ade565b61287f576040517f08c379a000000000000000000000000000000000000000000000000000000000815260040161287690614d5e565b60405180910390fd5b600060086000848152602001908152602001600020805461289f906144b9565b80601f01602080910402602001604051908101604052809291908181526020018280546128cb906144b9565b80156129185780601f106128ed57610100808354040283529160200191612918565b820191906000526020600020905b8154815290600101906020018083116128fb57829003601f168201915b505050505090506000612929611923565b905060008151141561293f5781925050506129a3565b60008251111561297457808260405160200161295c929190614d7e565b604051602081830303815290604052925050506129a3565b8061297e8561319e565b60405160200161298f929190614d7e565b604051602081830303815290604052925050505b919050565b6000806129b3610b5d565b90508091505090565b600a80546129c9906144b9565b80601f01602080910402602001604051908101604052809291908181526020018280546129f5906144b9565b8015612a425780601f10612a1757610100808354040283529160200191612a42565b820191906000526020600020905b815481529060010190602001808311612a2557829003601f168201915b505050505081565b6000600560008473ffffffffffffffffffffffffffffffffffffffff1673ffffffffffffffffffffffffffffffffffffffff16815260200190815260200160002060008373ffffffffffffffffffffffffffffffffffffffff1673ffffffffffffffffffffffffffffffffffffffff16815260200190815260200160002060009054906101000a900460ff16905092915050565b6000612af482600261331190919063ffffffff16565b9050919050565b600033905090565b816004600083815260200190815260200160002060006101000a81548173ffffffffffffffffffffffffffffffffffffffff021916908373ffffffffffffffffffffffffffffffffffffffff160217905550808273ffffffffffffffffffffffffffffffffffffffff16612b76836118ce565b73ffffffffffffffffffffffffffffffffffffffff167f8c5be1e5ebec7d5bd14f71427d1e84f3dd0314c0f7b2291e5b200ac8c7c3b92560405160405180910390a45050565b6000612bca8260000161332b565b9050919050565b6000612bdc82612ade565b612c1b576040517f08c379a0000000000000000000000000000000000000000000000000000000008152600401612c1290614e14565b60405180910390fd5b6000612c26836118ce565b90508073ffffffffffffffffffffffffffffffffffffffff168473ffffffffffffffffffffffffffffffffffffffff161480612c9557508373ffffffffffffffffffffffffffffffffffffffff16612c7d846109a9565b73ffffffffffffffffffffffffffffffffffffffff16145b80612ca65750612ca58185612a4a565b5b91505092915050565b8273ffffffffffffffffffffffffffffffffffffffff16612ccf826118ce565b73ffffffffffffffffffffffffffffffffffffffff1614612d25576040517f08c379a0000000000000000000000000000000000000000000000000000000008152600401612d1c90614ea6565b60405180910390fd5b600073ffffffffffffffffffffffffffffffffffffffff168273ffffffffffffffffffffffffffffffffffffffff161415612d95576040517f08c379a0000000000000000000000000000000000000000000000000000000008152600401612d8c90614f38565b60405180910390fd5b612da083838361333c565b612dab600082612b03565b612dfc81600160008673ffffffffffffffffffffffffffffffffffffffff1673ffffffffffffffffffffffffffffffffffffffff16815260200190815260200160002061334190919063ffffffff16565b50612e4e81600160008573ffffffffffffffffffffffffffffffffffffffff1673ffffffffffffffffffffffffffffffffffffffff16815260200190815260200160002061335b90919063ffffffff16565b50612e65818360026133759092919063ffffffff16565b50808273ffffffffffffffffffffffffffffffffffffffff168473ffffffffffffffffffffffffffffffffffffffff167fddf252ad1be2c89b69c2b068fc378daa952ba7f163c4a11628f55a4df523b3ef60405160405180910390a4505050565b6000612ed583600001836133aa565b60001c905092915050565b600080600080612ef3866000018661341e565b915091508160001c8160001c9350935050509250929050565b6000612f1f846000018460001b846134a8565b60001c90509392505050565b6000612f3982600001613549565b9050919050565b600073ffffffffffffffffffffffffffffffffffffffff168273ffffffffffffffffffffffffffffffffffffffff161415612fb0576040517f08c379a0000000000000000000000000000000000000000000000000000000008152600401612fa790614fa4565b60405180910390fd5b612fb981612ade565b15612ff9576040517f08c379a0000000000000000000000000000000000000000000000000000000008152600401612ff090615010565b60405180910390fd5b6130056000838361333c565b61305681600160008573ffffffffffffffffffffffffffffffffffffffff1673ffffffffffffffffffffffffffffffffffffffff16815260200190815260200160002061335b90919063ffffffff16565b5061306d818360026133759092919063ffffffff16565b50808273ffffffffffffffffffffffffffffffffffffffff16600073ffffffffffffffffffffffffffffffffffffffff167fddf252ad1be2c89b69c2b068fc378daa952ba7f163c4a11628f55a4df523b3ef60405160405180910390a45050565b6130d782612ade565b613116576040517f08c379a000000000000000000000000000000000000000000000000000000000815260040161310d906150a2565b60405180910390fd5b8060086000848152602001908152602001600020908051906020019061313d929190613b1e565b505050565b61314d848484612caf565b6131598484848461355a565b613198576040517f08c379a000000000000000000000000000000000000000000000000000000000815260040161318f90615134565b60405180910390fd5b50505050565b606060008214156131e6576040518060400160405280600181526020017f3000000000000000000000000000000000000000000000000000000000000000815250905061330c565b600082905060005b6000821461321857808061320190614948565b915050600a826132119190615183565b91506131ee565b60008167ffffffffffffffff81111561323457613233613f2a565b5b6040519080825280601f01601f1916602001820160405280156132665781602001600182028036833780820191505090505b509050600060018361327891906151b4565b90508593505b6000841461330457600a8461329391906151e8565b603061329f9190614762565b60f81b8282806132ae90615219565b9350815181106132c1576132c06149fd565b5b60200101907effffffffffffffffffffffffffffffffffffffffffffffffffffffffffffff1916908160001a905350600a846132fd9190615183565b935061327e565b819450505050505b919050565b6000613323836000018360001b6136be565b905092915050565b600081600001805490509050919050565b505050565b6000613353836000018360001b6136e1565b905092915050565b600061336d836000018360001b6137f9565b905092915050565b60006133a1846000018460001b8473ffffffffffffffffffffffffffffffffffffffff1660001b613869565b90509392505050565b6000818360000180549050116133f5576040517f08c379a00000000000000000000000000000000000000000000000000000000081526004016133ec906152b5565b60405180910390fd5b82600001828154811061340b5761340a6149fd565b5b9060005260206000200154905092915050565b6000808284600001805490501161346a576040517f08c379a000000000000000000000000000000000000000000000000000000000815260040161346190615347565b60405180910390fd5b6000846000018481548110613482576134816149fd565b5b906000526020600020906002020190508060000154816001015492509250509250929050565b6000808460010160008581526020019081526020016000205490506000811415839061350a576040517f08c379a00000000000000000000000000000000000000000000000000000000081526004016135019190613d29565b60405180910390fd5b508460000160018261351c91906151b4565b8154811061352d5761352c6149fd565b5b9060005260206000209060020201600101549150509392505050565b600081600001805490509050919050565b600061357b8473ffffffffffffffffffffffffffffffffffffffff16613955565b61358857600190506136b6565b600061364f63150b7a0260e01b61359d612afb565b8887876040516024016135b394939291906153bc565b604051602081830303815290604052907bffffffffffffffffffffffffffffffffffffffffffffffffffffffff19166020820180517bffffffffffffffffffffffffffffffffffffffffffffffffffffffff83818316178352505050506040518060600160405280603281526020016155cb603291398773ffffffffffffffffffffffffffffffffffffffff166139689092919063ffffffff16565b9050600081806020019051810190613667919061541d565b905063150b7a0260e01b7bffffffffffffffffffffffffffffffffffffffffffffffffffffffff1916817bffffffffffffffffffffffffffffffffffffffffffffffffffffffff191614925050505b949350505050565b600080836001016000848152602001908152602001600020541415905092915050565b600080836001016000848152602001908152602001600020549050600081146137ed57600060018261371391906151b4565b905060006001866000018054905061372b91906151b4565b90506000866000018281548110613745576137446149fd565b5b9060005260206000200154905080876000018481548110613769576137686149fd565b5b90600052602060002001819055506001836137849190614762565b87600101600083815260200190815260200160002081905550866000018054806137b1576137b061544a565b5b600190038181906000526020600020016000905590558660010160008781526020019081526020016000206000905560019450505050506137f3565b60009150505b92915050565b60006138058383613980565b61385e578260000182908060018154018082558091505060019003906000526020600020016000909190919091505582600001805490508360010160008481526020019081526020016000208190555060019050613863565b600090505b92915050565b60008084600101600085815260200190815260200160002054905060008114156139105784600001604051806040016040528086815260200185815250908060018154018082558091505060019003906000526020600020906002020160009091909190915060008201518160000155602082015181600101555050846000018054905085600101600086815260200190815260200160002081905550600191505061394e565b828560000160018361392291906151b4565b81548110613933576139326149fd565b5b90600052602060002090600202016001018190555060009150505b9392505050565b600080823b905060008111915050919050565b606061397784846000856139a3565b90509392505050565b600080836001016000848152602001908152602001600020541415905092915050565b6060824710156139e8576040517f08c379a00000000000000000000000000000000000000000000000000000000081526004016139df906154eb565b60405180910390fd5b6139f185613955565b613a30576040517f08c379a0000000000000000000000000000000000000000000000000000000008152600401613a2790615557565b60405180910390fd5b6000808673ffffffffffffffffffffffffffffffffffffffff168587604051613a5991906155b3565b60006040518083038185875af1925050503d8060008114613a96576040519150601f19603f3d011682016040523d82523d6000602084013e613a9b565b606091505b5091509150613aab828286613ab7565b92505050949350505050565b60608315613ac757829050613b17565b600083511115613ada5782518084602001fd5b816040517f08c379a0000000000000000000000000000000000000000000000000000000008152600401613b0e9190613d29565b60405180910390fd5b9392505050565b828054613b2a906144b9565b90600052602060002090601f016020900481019282613b4c5760008555613b93565b82601f10613b6557805160ff1916838001178555613b93565b82800160010185558215613b93579182015b82811115613b92578251825591602001919060010190613b77565b5b509050613ba09190613ba4565b5090565b5b80821115613bbd576000816000905550600101613ba5565b5090565b6000604051905090565b600080fd5b600080fd5b60007fffffffff0000000000000000000000000000000000000000000000000000000082169050919050565b613c0a81613bd5565b8114613c1557600080fd5b50565b600081359050613c2781613c01565b92915050565b600060208284031215613c4357613c42613bcb565b5b6000613c5184828501613c18565b91505092915050565b60008115159050919050565b613c6f81613c5a565b82525050565b6000602082019050613c8a6000830184613c66565b92915050565b600081519050919050565b600082825260208201905092915050565b60005b83811015613cca578082015181840152602081019050613caf565b83811115613cd9576000848401525b50505050565b6000601f19601f8301169050919050565b6000613cfb82613c90565b613d058185613c9b565b9350613d15818560208601613cac565b613d1e81613cdf565b840191505092915050565b60006020820190508181036000830152613d438184613cf0565b905092915050565b6000819050919050565b613d5e81613d4b565b8114613d6957600080fd5b50565b600081359050613d7b81613d55565b92915050565b600060208284031215613d9757613d96613bcb565b5b6000613da584828501613d6c565b91505092915050565b600073ffffffffffffffffffffffffffffffffffffffff82169050919050565b6000613dd982613dae565b9050919050565b613de981613dce565b82525050565b6000602082019050613e046000830184613de0565b92915050565b613e1381613dce565b8114613e1e57600080fd5b50565b600081359050613e3081613e0a565b92915050565b60008060408385031215613e4d57613e4c613bcb565b5b6000613e5b85828601613e21565b9250506020613e6c85828601613d6c565b9150509250929050565b613e7f81613d4b565b82525050565b6000602082019050613e9a6000830184613e76565b92915050565b600080600060608486031215613eb957613eb8613bcb565b5b6000613ec786828701613e21565b9350506020613ed886828701613e21565b9250506040613ee986828701613d6c565b9150509250925092565b600060208284031215613f0957613f08613bcb565b5b6000613f1784828501613e21565b91505092915050565b600080fd5b600080fd5b7f4e487b7100000000000000000000000000000000000000000000000000000000600052604160045260246000fd5b613f6282613cdf565b810181811067ffffffffffffffff82111715613f8157613f80613f2a565b5b80604052505050565b6000613f94613bc1565b9050613fa08282613f59565b919050565b600067ffffffffffffffff821115613fc057613fbf613f2a565b5b613fc982613cdf565b9050602081019050919050565b82818337600083830152505050565b6000613ff8613ff384613fa5565b613f8a565b90508281526020810184848401111561401457614013613f25565b5b61401f848285613fd6565b509392505050565b600082601f83011261403c5761403b613f20565b5b813561404c848260208601613fe5565b91505092915050565b60006020828403121561406b5761406a613bcb565b5b600082013567ffffffffffffffff81111561408957614088613bd0565b5b61409584828501614027565b91505092915050565b60006140a982613dae565b9050919050565b6140b98161409e565b82525050565b6000610120820190506140d5600083018c613e76565b81810360208301526140e7818b613cf0565b905081810360408301526140fb818a613cf0565b905061410a60608301896140b0565b61411760808301886140b0565b61412460a08301876140b0565b61413160c0830186613e76565b61413e60e0830185613e76565b61414c610100830184613c66565b9a9950505050505050505050565b6000806040838503121561417157614170613bcb565b5b600061417f85828601613d6c565b925050602061419085828601613d6c565b9150509250929050565b600080fd5b600080fd5b60008083601f8401126141ba576141b9613f20565b5b8235905067ffffffffffffffff8111156141d7576141d661419a565b5b6020830191508360208202830111156141f3576141f261419f565b5b9250929050565b60008060008060006080868803121561421657614215613bcb565b5b600086013567ffffffffffffffff81111561423457614233613bd0565b5b61424088828901614027565b955050602086013567ffffffffffffffff81111561426157614260613bd0565b5b61426d88828901614027565b945050604061427e88828901613d6c565b935050606086013567ffffffffffffffff81111561429f5761429e613bd0565b5b6142ab888289016141a4565b92509250509295509295909350565b6142c381613c5a565b81146142ce57600080fd5b50565b6000813590506142e0816142ba565b92915050565b600080604083850312156142fd576142fc613bcb565b5b600061430b85828601613e21565b925050602061431c858286016142d1565b9150509250929050565b600067ffffffffffffffff82111561434157614340613f2a565b5b61434a82613cdf565b9050602081019050919050565b600061436a61436584614326565b613f8a565b90508281526020810184848401111561438657614385613f25565b5b614391848285613fd6565b509392505050565b600082601f8301126143ae576143ad613f20565b5b81356143be848260208601614357565b91505092915050565b600080600080608085870312156143e1576143e0613bcb565b5b60006143ef87828801613e21565b945050602061440087828801613e21565b935050604061441187828801613d6c565b925050606085013567ffffffffffffffff81111561443257614431613bd0565b5b61443e87828801614399565b91505092959194509250565b6000806040838503121561446157614460613bcb565b5b600061446f85828601613e21565b925050602061448085828601613e21565b9150509250929050565b7f4e487b7100000000000000000000000000000000000000000000000000000000600052602260045260246000fd5b600060028204905060018216806144d157607f821691505b602082108114156144e5576144e461448a565b5b50919050565b7f4552433732313a20617070726f76656420717565727920666f72206e6f6e657860008201527f697374656e7420746f6b656e0000000000000000000000000000000000000000602082015250565b6000614547602c83613c9b565b9150614552826144eb565b604082019050919050565b600060208201905081810360008301526145768161453a565b9050919050565b7f4552433732313a20617070726f76616c20746f2063757272656e74206f776e6560008201527f7200000000000000000000000000000000000000000000000000000000000000602082015250565b60006145d9602183613c9b565b91506145e48261457d565b604082019050919050565b60006020820190508181036000830152614608816145cc565b9050919050565b7f4552433732313a20617070726f76652063616c6c6572206973206e6f74206f7760008201527f6e6572206e6f7220617070726f76656420666f7220616c6c0000000000000000602082015250565b600061466b603883613c9b565b91506146768261460f565b604082019050919050565b6000602082019050818103600083015261469a8161465e565b9050919050565b7f4552433732313a207472616e736665722063616c6c6572206973206e6f74206f60008201527f776e6572206e6f7220617070726f766564000000000000000000000000000000602082015250565b60006146fd603183613c9b565b9150614708826146a1565b604082019050919050565b6000602082019050818103600083015261472c816146f0565b9050919050565b7f4e487b7100000000000000000000000000000000000000000000000000000000600052601160045260246000fd5b600061476d82613d4b565b915061477883613d4b565b9250827fffffffffffffffffffffffffffffffffffffffffffffffffffffffffffffffff038211156147ad576147ac614733565b5b828201905092915050565b7f4552433732313a2062616c616e636520717565727920666f7220746865207a6560008201527f726f206164647265737300000000000000000000000000000000000000000000602082015250565b6000614814602a83613c9b565b915061481f826147b8565b604082019050919050565b6000602082019050818103600083015261484381614807565b9050919050565b7f6e6f6e7a65726f20616464726573730000000000000000000000000000000000600082015250565b6000614880600f83613c9b565b915061488b8261484a565b602082019050919050565b600060208201905081810360008301526148af81614873565b9050919050565b7f596f75206d75737420706179207468652061637574616c206d696e742070726960008201527f6365000000000000000000000000000000000000000000000000000000000000602082015250565b6000614912602283613c9b565b915061491d826148b6565b604082019050919050565b6000602082019050818103600083015261494181614905565b9050919050565b600061495382613d4b565b91507fffffffffffffffffffffffffffffffffffffffffffffffffffffffffffffffff82141561498657614985614733565b5b600182019050919050565b7f636f756e746572206e6f74206578697374000000000000000000000000000000600082015250565b60006149c7601183613c9b565b91506149d282614991565b602082019050919050565b600060208201905081810360008301526149f6816149ba565b9050919050565b7f4e487b7100000000000000000000000000000000000000000000000000000000600052603260045260246000fd5b600080fd5b600080fd5b600080fd5b60008083356001602003843603038112614a5857614a57614a2c565b5b80840192508235915067ffffffffffffffff821115614a7a57614a79614a31565b5b602083019250600182023603831315614a9657614a95614a36565b5b509250929050565b600081905092915050565b6000614ab482613c90565b614abe8185614a9e565b9350614ace818560208601613cac565b80840191505092915050565b6000614ae68385614a9e565b9350614af3838584613fd6565b82840190509392505050565b6000614b0b8286614aa9565b9150614b18828486614ada565b9150819050949350505050565b6000614b318284614aa9565b915081905092915050565b7f62616420636f6c6f727300000000000000000000000000000000000000000000600082015250565b6000614b72600a83613c9b565b9150614b7d82614b3c565b602082019050919050565b60006020820190508181036000830152614ba181614b65565b9050919050565b7f5552492070726f626c656d730000000000000000000000000000000000000000600082015250565b6000614bde600c83613c9b565b9150614be982614ba8565b602082019050919050565b60006020820190508181036000830152614c0d81614bd1565b9050919050565b7f6e616d652070726f626c656d7300000000000000000000000000000000000000600082015250565b6000614c4a600d83613c9b565b9150614c5582614c14565b602082019050919050565b60006020820190508181036000830152614c7981614c3d565b9050919050565b7f4552433732313a20617070726f766520746f2063616c6c657200000000000000600082015250565b6000614cb6601983613c9b565b9150614cc182614c80565b602082019050919050565b60006020820190508181036000830152614ce581614ca9565b9050919050565b7f4552433732314d657461646174613a2055524920717565727920666f72206e6f60008201527f6e6578697374656e7420746f6b656e0000000000000000000000000000000000602082015250565b6000614d48602f83613c9b565b9150614d5382614cec565b604082019050919050565b60006020820190508181036000830152614d7781614d3b565b9050919050565b6000614d8a8285614aa9565b9150614d968284614aa9565b91508190509392505050565b7f4552433732313a206f70657261746f7220717565727920666f72206e6f6e657860008201527f697374656e7420746f6b656e0000000000000000000000000000000000000000602082015250565b6000614dfe602c83613c9b565b9150614e0982614da2565b604082019050919050565b60006020820190508181036000830152614e2d81614df1565b9050919050565b7f4552433732313a207472616e73666572206f6620746f6b656e2074686174206960008201527f73206e6f74206f776e0000000000000000000000000000000000000000000000602082015250565b6000614e90602983613c9b565b9150614e9b82614e34565b604082019050919050565b60006020820190508181036000830152614ebf81614e83565b9050919050565b7f4552433732313a207472616e7366657220746f20746865207a65726f2061646460008201527f7265737300000000000000000000000000000000000000000000000000000000602082015250565b6000614f22602483613c9b565b9150614f2d82614ec6565b604082019050919050565b60006020820190508181036000830152614f5181614f15565b9050919050565b7f4552433732313a206d696e7420746f20746865207a65726f2061646472657373600082015250565b6000614f8e602083613c9b565b9150614f9982614f58565b602082019050919050565b60006020820190508181036000830152614fbd81614f81565b9050919050565b7f4552433732313a20746f6b656e20616c7265616479206d696e74656400000000600082015250565b6000614ffa601c83613c9b565b915061500582614fc4565b602082019050919050565b6000602082019050818103600083015261502981614fed565b9050919050565b7f4552433732314d657461646174613a2055524920736574206f66206e6f6e657860008201527f697374656e7420746f6b656e0000000000000000000000000000000000000000602082015250565b600061508c602c83613c9b565b915061509782615030565b604082019050919050565b600060208201905081810360008301526150bb8161507f565b9050919050565b7f4552433732313a207472616e7366657220746f206e6f6e20455243373231526560008201527f63656976657220696d706c656d656e7465720000000000000000000000000000602082015250565b600061511e603283613c9b565b9150615129826150c2565b604082019050919050565b6000602082019050818103600083015261514d81615111565b9050919050565b7f4e487b7100000000000000000000000000000000000000000000000000000000600052601260045260246000fd5b600061518e82613d4b565b915061519983613d4b565b9250826151a9576151a8615154565b5b828204905092915050565b60006151bf82613d4b565b91506151ca83613d4b565b9250828210156151dd576151dc614733565b5b828203905092915050565b60006151f382613d4b565b91506151fe83613d4b565b92508261520e5761520d615154565b5b828206905092915050565b600061522482613d4b565b9150600082141561523857615237614733565b5b600182039050919050565b7f456e756d657261626c655365743a20696e646578206f7574206f6620626f756e60008201527f6473000000000000000000000000000000000000000000000000000000000000602082015250565b600061529f602283613c9b565b91506152aa82615243565b604082019050919050565b600060208201905081810360008301526152ce81615292565b9050919050565b7f456e756d657261626c654d61703a20696e646578206f7574206f6620626f756e60008201527f6473000000000000000000000000000000000000000000000000000000000000602082015250565b6000615331602283613c9b565b915061533c826152d5565b604082019050919050565b6000602082019050818103600083015261536081615324565b9050919050565b600081519050919050565b600082825260208201905092915050565b600061538e82615367565b6153988185615372565b93506153a8818560208601613cac565b6153b181613cdf565b840191505092915050565b60006080820190506153d160008301876140b0565b6153de6020830186613de0565b6153eb6040830185613e76565b81810360608301526153fd8184615383565b905095945050505050565b60008151905061541781613c01565b92915050565b60006020828403121561543357615432613bcb565b5b600061544184828501615408565b91505092915050565b7f4e487b7100000000000000000000000000000000000000000000000000000000600052603160045260246000fd5b7f416464726573733a20696e73756666696369656e742062616c616e636520666f60008201527f722063616c6c0000000000000000000000000000000000000000000000000000602082015250565b60006154d5602683613c9b565b91506154e082615479565b604082019050919050565b60006020820190508181036000830152615504816154c8565b9050919050565b7f416464726573733a2063616c6c20746f206e6f6e2d636f6e7472616374000000600082015250565b6000615541601d83613c9b565b915061554c8261550b565b602082019050919050565b6000602082019050818103600083015261557081615534565b9050919050565b600081905092915050565b600061558d82615367565b6155978185615577565b93506155a7818560208601613cac565b80840191505092915050565b60006155bf8284615582565b91508190509291505056fe4552433732313a207472616e7366657220746f206e6f6e20455243373231526563656976657220696d706c656d656e7465724552433732313a206f776e657220717565727920666f72206e6f6e6578697374656e7420746f6b656ea26469706673582212203e0c83baac6703d90e0b44e9b9a4611c97a0dd1aef92b81accb5c1d05627458c64736f6c63430008090033",
  "immutableReferences": {},
  "source": "// SPDX-License-Identifier: MIT\npragma solidity >=0.8.0;\npragma abicoder v2;\n\n// import ERC721 iterface\nimport \"./ERC721.sol\";\n\n// CryptoBoys smart contract inherits ERC721 interface\ncontract CryptoBoys is ERC721 {\n\n  // this contract's token collection name\n  string public collectionName;\n  // this contract's token symbol\n  string public collectionNameSymbol;\n  // total number of crypto boys minted\n  uint256 public cryptoBoyCounter;\n\n  uint256 public mintPrice = 20000000 gwei;\n\n  // define crypto boy struct\n   struct CryptoBoy {\n    uint256 tokenId;\n    string tokenName;\n    string tokenURI;\n    address payable mintedBy;\n    address payable currentOwner;\n    address payable previousOwner;\n    uint256 price;\n    uint256 numberOfTransfers;\n    bool forSale;\n  }\n\n  // map cryptoboy's token id to crypto boy\n  mapping(uint256 => CryptoBoy) public allCryptoBoys;\n  // check if token name exists\n  mapping(string => bool) public tokenNameExists;\n  // check if color exists\n  mapping(string => bool) public colorExists;\n  // check if token URI exists\n  mapping(string => bool) public tokenURIExists;\n\n  // initialize contract while deployment with contract's collection name and token\n  constructor() ERC721(\"Crypto Boys Collection\", \"CB\") {\n    collectionName = name();\n    collectionNameSymbol = symbol();\n  }\n\n  // mint a new crypto boy\n  function mintCryptoBoy(string memory _name, string memory _tokenURI, uint256 _price, string[] calldata _colors) external payable{\n    // check if thic fucntion caller is not an zero address account\n    require(msg.sender != address(0), \"nonzero address\");\n\n    require(msg.value >= mintPrice, \"You must pay the acutal mint price\");\n    // increment counter\n    cryptoBoyCounter ++;\n    // check if a token exists with the above token id => incremented counter\n    require(!_exists(cryptoBoyCounter), \"counter not exist\");\n\n    string memory colorstring;\n\n    for(uint i = 0; i < _colors.length; i++){\n      colorstring = string(abi.encodePacked(colorstring, _colors[i]));\n    }\n    // loop through the colors passed and check if each colors already exists or not\n    require(!colorExists[colorstring], \"bad colors\");\n    // check if the token URI already exists or not\n    require(!tokenURIExists[_tokenURI], \"URI problems\");\n    // check if the token name already exists or not\n    require(!tokenNameExists[_name], \"name problems\");\n\n    // mint the token\n    _mint(msg.sender, cryptoBoyCounter);\n    // set token URI (bind token id with the passed in token URI)\n    _setTokenURI(cryptoBoyCounter, _tokenURI);\n\n    // loop through the colors passed and make each of the colors as exists since the token is already minted\n    colorExists[colorstring] = true;\n    // make passed token URI as exists\n    tokenURIExists[_tokenURI] = true;\n    // make token name passed as exists\n    tokenNameExists[_name] = true;\n\n    // creat a new crypto boy (struct) and pass in new values\n    CryptoBoy memory newCryptoBoy = CryptoBoy(\n    cryptoBoyCounter,\n    _name,\n    _tokenURI,\n    payable(msg.sender),\n    payable(msg.sender),\n    payable(address(0)),\n    _price,\n    0,\n    true);\n    // add the token id and it's crypto boy to all crypto boys mapping\n    allCryptoBoys[cryptoBoyCounter] = newCryptoBoy;\n  }\n\n  // get owner of the token\n  function getTokenOwner(uint256 _tokenId) public view returns(address) {\n    address _tokenOwner = ownerOf(_tokenId);\n    return _tokenOwner;\n  }\n\n  // get metadata of the token\n  function getTokenMetaData(uint _tokenId) public view returns(string memory) {\n    string memory tokenMetaData = tokenURI(_tokenId);\n    return tokenMetaData;\n  }\n\n  // get total number of tokens minted so far\n  function getNumberOfTokensMinted() public view returns(uint256) {\n    uint256 totalNumberOfTokensMinted = totalSupply();\n    return totalNumberOfTokensMinted;\n  }\n\n  // get total number of tokens owned by an address\n  function getTotalNumberOfTokensOwnedByAnAddress(address _owner) public view returns(uint256) {\n    uint256 totalNumberOfTokensOwned = balanceOf(_owner);\n    return totalNumberOfTokensOwned;\n  }\n\n  // check if the token already exists\n  function getTokenExists(uint256 _tokenId) public view returns(bool) {\n    bool tokenExists = _exists(_tokenId);\n    return tokenExists;\n  }\n\n  // by a token by passing in the token's id\n  function buyToken(uint256 _tokenId) public payable {\n    // check if the function caller is not an zero account address\n    require(msg.sender != address(0));\n    // check if the token id of the token being bought exists or not\n    require(_exists(_tokenId));\n    // get the token's owner\n    address tokenOwner = ownerOf(_tokenId);\n    // token's owner should not be an zero address account\n    require(tokenOwner != address(0));\n    // the one who wants to buy the token should not be the token's owner\n    require(tokenOwner != msg.sender);\n    // get that token from all crypto boys mapping and create a memory of it defined as (struct => CryptoBoy)\n    CryptoBoy memory cryptoboy = allCryptoBoys[_tokenId];\n    // price sent in to buy should be equal to or more than the token's price\n    require(msg.value >= cryptoboy.price);\n    // token should be for sale\n    require(cryptoboy.forSale);\n    // transfer the token from owner to the caller of the function (buyer)\n    _transfer(tokenOwner, msg.sender, _tokenId);\n    // get owner of the token\n    address payable sendTo = cryptoboy.currentOwner;\n    // send token's worth of ethers to the owner\n    sendTo.transfer(msg.value);\n    // update the token's previous owner\n    cryptoboy.previousOwner = cryptoboy.currentOwner;\n    // update the token's current owner\n    cryptoboy.currentOwner = payable(msg.sender);\n    // update the how many times this token was transfered\n    cryptoboy.numberOfTransfers += 1;\n    // set and update that token in the mapping\n    allCryptoBoys[_tokenId] = cryptoboy;\n  }\n\n  function changeTokenPrice(uint256 _tokenId, uint256 _newPrice) public {\n    // require caller of the function is not an empty address\n    require(msg.sender != address(0));\n    // require that token should exist\n    require(_exists(_tokenId));\n    // get the token's owner\n    address tokenOwner = ownerOf(_tokenId);\n    // check that token's owner should be equal to the caller of the function\n    require(tokenOwner == msg.sender);\n    // get that token from all crypto boys mapping and create a memory of it defined as (struct => CryptoBoy)\n    CryptoBoy memory cryptoboy = allCryptoBoys[_tokenId];\n    // update token's price with new price\n    cryptoboy.price = _newPrice;\n    // set and update that token in the mapping\n    allCryptoBoys[_tokenId] = cryptoboy;\n  }\n\n  // switch between set for sale and set not for sale\n  function toggleForSale(uint256 _tokenId) public {\n    // require caller of the function is not an empty address\n    require(msg.sender != address(0));\n    // require that token should exist\n    require(_exists(_tokenId));\n    // get the token's owner\n    address tokenOwner = ownerOf(_tokenId);\n    // check that token's owner should be equal to the caller of the function\n    require(tokenOwner == msg.sender);\n    // get that token from all crypto boys mapping and create a memory of it defined as (struct => CryptoBoy)\n    CryptoBoy memory cryptoboy = allCryptoBoys[_tokenId];\n    // if token's forSale is false make it true and vice versa\n    if(cryptoboy.forSale) {\n      cryptoboy.forSale = false;\n    } else {\n      cryptoboy.forSale = true;\n    }\n    // set and update that token in the mapping\n    allCryptoBoys[_tokenId] = cryptoboy;\n  }\n}",
  "sourcePath": "/home/csc333/Documents/GitHub/cryptoboys-nft-marketplace/src/contracts/CryptoBoys.sol",
  "compiler": {
    "name": "solc",
    "version": "0.8.9+commit.e5eed63a.Emscripten.clang"
  },
  "schemaVersion": "3.4.3",
  "updatedAt": "2021-10-22T19:33:17.273Z",
  "networkType": "ethereum",
  "devdoc": {
    "kind": "dev",
    "methods": {
      "approve(address,uint256)": {
        "details": "See {IERC721-approve}."
      },
      "balanceOf(address)": {
        "details": "See {IERC721-balanceOf}."
      },
      "baseURI()": {
        "details": "Returns the base URI set via {_setBaseURI}. This will be automatically added as a prefix in {tokenURI} to each token's URI, or to the token ID if no specific URI is set for that token ID."
      },
      "getApproved(uint256)": {
        "details": "See {IERC721-getApproved}."
      },
      "isApprovedForAll(address,address)": {
        "details": "See {IERC721-isApprovedForAll}."
      },
      "name()": {
        "details": "See {IERC721Metadata-name}."
      },
      "ownerOf(uint256)": {
        "details": "See {IERC721-ownerOf}."
      },
      "safeTransferFrom(address,address,uint256)": {
        "details": "See {IERC721-safeTransferFrom}."
      },
      "safeTransferFrom(address,address,uint256,bytes)": {
        "details": "See {IERC721-safeTransferFrom}."
      },
      "setApprovalForAll(address,bool)": {
        "details": "See {IERC721-setApprovalForAll}."
      },
      "supportsInterface(bytes4)": {
        "details": "See {IERC165-supportsInterface}. Time complexity O(1), guaranteed to always use less than 30 000 gas."
      },
      "symbol()": {
        "details": "See {IERC721Metadata-symbol}."
      },
      "tokenByIndex(uint256)": {
        "details": "See {IERC721Enumerable-tokenByIndex}."
      },
      "tokenOfOwnerByIndex(address,uint256)": {
        "details": "See {IERC721Enumerable-tokenOfOwnerByIndex}."
      },
      "tokenURI(uint256)": {
        "details": "See {IERC721Metadata-tokenURI}."
      },
      "totalSupply()": {
        "details": "See {IERC721Enumerable-totalSupply}."
      },
      "transferFrom(address,address,uint256)": {
        "details": "See {IERC721-transferFrom}."
      }
    },
    "version": 1
  },
  "userdoc": {
    "kind": "user",
    "methods": {},
    "version": 1
  }
}