{
  "contractName": "CryptoPaws",
  "abi": [
    {
      "inputs": [],
      "stateMutability": "nonpayable",
      "type": "constructor"
    },
    {
      "anonymous": false,
      "inputs": [
        {
          "indexed": true,
          "internalType": "address",
          "name": "owner",
          "type": "address"
        },
        {
          "indexed": true,
          "internalType": "address",
          "name": "approved",
          "type": "address"
        },
        {
          "indexed": true,
          "internalType": "uint256",
          "name": "tokenId",
          "type": "uint256"
        }
      ],
      "name": "Approval",
      "type": "event"
    },
    {
      "anonymous": false,
      "inputs": [
        {
          "indexed": true,
          "internalType": "address",
          "name": "owner",
          "type": "address"
        },
        {
          "indexed": true,
          "internalType": "address",
          "name": "operator",
          "type": "address"
        },
        {
          "indexed": false,
          "internalType": "bool",
          "name": "approved",
          "type": "bool"
        }
      ],
      "name": "ApprovalForAll",
      "type": "event"
    },
    {
      "anonymous": false,
      "inputs": [
        {
          "indexed": true,
          "internalType": "address",
          "name": "from",
          "type": "address"
        },
        {
          "indexed": true,
          "internalType": "address",
          "name": "to",
          "type": "address"
        },
        {
          "indexed": true,
          "internalType": "uint256",
          "name": "tokenId",
          "type": "uint256"
        }
      ],
      "name": "Transfer",
      "type": "event"
    },
    {
      "inputs": [
        {
          "internalType": "uint256",
          "name": "",
          "type": "uint256"
        }
      ],
      "name": "allPaws",
      "outputs": [
        {
          "internalType": "uint256",
          "name": "tokenId",
          "type": "uint256"
        },
        {
          "internalType": "string",
          "name": "tokenName",
          "type": "string"
        },
        {
          "internalType": "string",
          "name": "creationStr",
          "type": "string"
        },
        {
          "internalType": "string",
          "name": "tokenURI",
          "type": "string"
        },
        {
          "internalType": "address payable",
          "name": "mintedBy",
          "type": "address"
        },
        {
          "internalType": "address payable",
          "name": "currentOwner",
          "type": "address"
        },
        {
          "internalType": "uint256",
          "name": "price",
          "type": "uint256"
        },
        {
          "internalType": "uint256",
          "name": "timesTransferred",
          "type": "uint256"
        },
        {
          "internalType": "bool",
          "name": "forSale",
          "type": "bool"
        }
      ],
      "stateMutability": "view",
      "type": "function",
      "constant": true
    },
    {
      "inputs": [
        {
          "internalType": "address",
          "name": "to",
          "type": "address"
        },
        {
          "internalType": "uint256",
          "name": "tokenId",
          "type": "uint256"
        }
      ],
      "name": "approve",
      "outputs": [],
      "stateMutability": "nonpayable",
      "type": "function"
    },
    {
      "inputs": [
        {
          "internalType": "address",
          "name": "owner",
          "type": "address"
        }
      ],
      "name": "balanceOf",
      "outputs": [
        {
          "internalType": "uint256",
          "name": "",
          "type": "uint256"
        }
      ],
      "stateMutability": "view",
      "type": "function",
      "constant": true
    },
    {
      "inputs": [],
      "name": "baseURI",
      "outputs": [
        {
          "internalType": "string",
          "name": "",
          "type": "string"
        }
      ],
      "stateMutability": "view",
      "type": "function",
      "constant": true
    },
    {
      "inputs": [],
      "name": "collectionName",
      "outputs": [
        {
          "internalType": "string",
          "name": "",
          "type": "string"
        }
      ],
      "stateMutability": "view",
      "type": "function",
      "constant": true
    },
    {
      "inputs": [],
      "name": "collectionNameSymbol",
      "outputs": [
        {
          "internalType": "string",
          "name": "",
          "type": "string"
        }
      ],
      "stateMutability": "view",
      "type": "function",
      "constant": true
    },
    {
      "inputs": [
        {
          "internalType": "string",
          "name": "",
          "type": "string"
        }
      ],
      "name": "creationStrs",
      "outputs": [
        {
          "internalType": "bool",
          "name": "",
          "type": "bool"
        }
      ],
      "stateMutability": "view",
      "type": "function",
      "constant": true
    },
    {
      "inputs": [
        {
          "internalType": "uint256",
          "name": "tokenId",
          "type": "uint256"
        }
      ],
      "name": "getApproved",
      "outputs": [
        {
          "internalType": "address",
          "name": "",
          "type": "address"
        }
      ],
      "stateMutability": "view",
      "type": "function",
      "constant": true
    },
    {
      "inputs": [
        {
          "internalType": "address",
          "name": "owner",
          "type": "address"
        },
        {
          "internalType": "address",
          "name": "operator",
          "type": "address"
        }
      ],
      "name": "isApprovedForAll",
      "outputs": [
        {
          "internalType": "bool",
          "name": "",
          "type": "bool"
        }
      ],
      "stateMutability": "view",
      "type": "function",
      "constant": true
    },
    {
      "inputs": [],
      "name": "mintPrice",
      "outputs": [
        {
          "internalType": "uint256",
          "name": "",
          "type": "uint256"
        }
      ],
      "stateMutability": "view",
      "type": "function",
      "constant": true
    },
    {
      "inputs": [],
      "name": "name",
      "outputs": [
        {
          "internalType": "string",
          "name": "",
          "type": "string"
        }
      ],
      "stateMutability": "view",
      "type": "function",
      "constant": true
    },
    {
      "inputs": [
        {
          "internalType": "string",
          "name": "",
          "type": "string"
        }
      ],
      "name": "nameExists",
      "outputs": [
        {
          "internalType": "bool",
          "name": "",
          "type": "bool"
        }
      ],
      "stateMutability": "view",
      "type": "function",
      "constant": true
    },
    {
      "inputs": [
        {
          "internalType": "uint256",
          "name": "tokenId",
          "type": "uint256"
        }
      ],
      "name": "ownerOf",
      "outputs": [
        {
          "internalType": "address",
          "name": "",
          "type": "address"
        }
      ],
      "stateMutability": "view",
      "type": "function",
      "constant": true
    },
    {
      "inputs": [],
      "name": "pawCounter",
      "outputs": [
        {
          "internalType": "uint256",
          "name": "",
          "type": "uint256"
        }
      ],
      "stateMutability": "view",
      "type": "function",
      "constant": true
    },
    {
      "inputs": [
        {
          "internalType": "address",
          "name": "from",
          "type": "address"
        },
        {
          "internalType": "address",
          "name": "to",
          "type": "address"
        },
        {
          "internalType": "uint256",
          "name": "tokenId",
          "type": "uint256"
        }
      ],
      "name": "safeTransferFrom",
      "outputs": [],
      "stateMutability": "nonpayable",
      "type": "function"
    },
    {
      "inputs": [
        {
          "internalType": "address",
          "name": "from",
          "type": "address"
        },
        {
          "internalType": "address",
          "name": "to",
          "type": "address"
        },
        {
          "internalType": "uint256",
          "name": "tokenId",
          "type": "uint256"
        },
        {
          "internalType": "bytes",
          "name": "_data",
          "type": "bytes"
        }
      ],
      "name": "safeTransferFrom",
      "outputs": [],
      "stateMutability": "nonpayable",
      "type": "function"
    },
    {
      "inputs": [
        {
          "internalType": "address",
          "name": "operator",
          "type": "address"
        },
        {
          "internalType": "bool",
          "name": "approved",
          "type": "bool"
        }
      ],
      "name": "setApprovalForAll",
      "outputs": [],
      "stateMutability": "nonpayable",
      "type": "function"
    },
    {
      "inputs": [],
      "name": "startTime",
      "outputs": [
        {
          "internalType": "uint256",
          "name": "",
          "type": "uint256"
        }
      ],
      "stateMutability": "view",
      "type": "function",
      "constant": true
    },
    {
      "inputs": [
        {
          "internalType": "bytes4",
          "name": "interfaceId",
          "type": "bytes4"
        }
      ],
      "name": "supportsInterface",
      "outputs": [
        {
          "internalType": "bool",
          "name": "",
          "type": "bool"
        }
      ],
      "stateMutability": "view",
      "type": "function",
      "constant": true
    },
    {
      "inputs": [],
      "name": "symbol",
      "outputs": [
        {
          "internalType": "string",
          "name": "",
          "type": "string"
        }
      ],
      "stateMutability": "view",
      "type": "function",
      "constant": true
    },
    {
      "inputs": [
        {
          "internalType": "uint256",
          "name": "index",
          "type": "uint256"
        }
      ],
      "name": "tokenByIndex",
      "outputs": [
        {
          "internalType": "uint256",
          "name": "",
          "type": "uint256"
        }
      ],
      "stateMutability": "view",
      "type": "function",
      "constant": true
    },
    {
      "inputs": [
        {
          "internalType": "address",
          "name": "owner",
          "type": "address"
        },
        {
          "internalType": "uint256",
          "name": "index",
          "type": "uint256"
        }
      ],
      "name": "tokenOfOwnerByIndex",
      "outputs": [
        {
          "internalType": "uint256",
          "name": "",
          "type": "uint256"
        }
      ],
      "stateMutability": "view",
      "type": "function",
      "constant": true
    },
    {
      "inputs": [
        {
          "internalType": "uint256",
          "name": "tokenId",
          "type": "uint256"
        }
      ],
      "name": "tokenURI",
      "outputs": [
        {
          "internalType": "string",
          "name": "",
          "type": "string"
        }
      ],
      "stateMutability": "view",
      "type": "function",
      "constant": true
    },
    {
      "inputs": [
        {
          "internalType": "string",
          "name": "",
          "type": "string"
        }
      ],
      "name": "tokenURIExists",
      "outputs": [
        {
          "internalType": "bool",
          "name": "",
          "type": "bool"
        }
      ],
      "stateMutability": "view",
      "type": "function",
      "constant": true
    },
    {
      "inputs": [],
      "name": "totalSupply",
      "outputs": [
        {
          "internalType": "uint256",
          "name": "",
          "type": "uint256"
        }
      ],
      "stateMutability": "view",
      "type": "function",
      "constant": true
    },
    {
      "inputs": [
        {
          "internalType": "address",
          "name": "from",
          "type": "address"
        },
        {
          "internalType": "address",
          "name": "to",
          "type": "address"
        },
        {
          "internalType": "uint256",
          "name": "tokenId",
          "type": "uint256"
        }
      ],
      "name": "transferFrom",
      "outputs": [],
      "stateMutability": "nonpayable",
      "type": "function"
    },
    {
      "inputs": [
        {
          "internalType": "string",
          "name": "_name",
          "type": "string"
        },
        {
          "internalType": "string",
          "name": "_creationStr",
          "type": "string"
        },
        {
          "internalType": "uint256",
          "name": "_price",
          "type": "uint256"
        },
        {
          "internalType": "string",
          "name": "_tokenURI",
          "type": "string"
        }
      ],
      "name": "mintPaw",
      "outputs": [],
      "stateMutability": "payable",
      "type": "function",
      "payable": true
    },
    {
      "inputs": [
        {
          "internalType": "uint256",
          "name": "_tokenId",
          "type": "uint256"
        }
      ],
      "name": "getTokenOwner",
      "outputs": [
        {
          "internalType": "address",
          "name": "",
          "type": "address"
        }
      ],
      "stateMutability": "view",
      "type": "function",
      "constant": true
    },
    {
      "inputs": [
        {
          "internalType": "uint256",
          "name": "_tokenId",
          "type": "uint256"
        }
      ],
      "name": "getTokenImg",
      "outputs": [
        {
          "internalType": "string",
          "name": "",
          "type": "string"
        }
      ],
      "stateMutability": "view",
      "type": "function",
      "constant": true
    },
    {
      "inputs": [],
      "name": "getTotalNumberMinted",
      "outputs": [
        {
          "internalType": "uint256",
          "name": "",
          "type": "uint256"
        }
      ],
      "stateMutability": "view",
      "type": "function",
      "constant": true
    },
    {
      "inputs": [],
      "name": "getStartTime",
      "outputs": [
        {
          "internalType": "uint256",
          "name": "",
          "type": "uint256"
        }
      ],
      "stateMutability": "view",
      "type": "function",
      "constant": true
    },
    {
      "inputs": [
        {
          "internalType": "address",
          "name": "_owner",
          "type": "address"
        }
      ],
      "name": "getTotalNumberOwnedByAddress",
      "outputs": [
        {
          "internalType": "uint256",
          "name": "",
          "type": "uint256"
        }
      ],
      "stateMutability": "view",
      "type": "function",
      "constant": true
    },
    {
      "inputs": [
        {
          "internalType": "uint256",
          "name": "_tokenId",
          "type": "uint256"
        }
      ],
      "name": "getTokenExists",
      "outputs": [
        {
          "internalType": "bool",
          "name": "",
          "type": "bool"
        }
      ],
      "stateMutability": "view",
      "type": "function",
      "constant": true
    },
    {
      "inputs": [
        {
          "internalType": "uint256",
          "name": "_tokenId",
          "type": "uint256"
        }
      ],
      "name": "buyToken",
      "outputs": [],
      "stateMutability": "payable",
      "type": "function",
      "payable": true
    },
    {
      "inputs": [
        {
          "internalType": "uint256",
          "name": "_tokenId",
          "type": "uint256"
        },
        {
          "internalType": "uint256",
          "name": "_newPrice",
          "type": "uint256"
        }
      ],
      "name": "changeTokenPrice",
      "outputs": [],
      "stateMutability": "nonpayable",
      "type": "function"
    },
    {
      "inputs": [
        {
          "internalType": "uint256",
          "name": "_tokenId",
          "type": "uint256"
        }
      ],
      "name": "toggleForSale",
      "outputs": [],
      "stateMutability": "nonpayable",
      "type": "function"
    },
    {
      "inputs": [
        {
          "internalType": "string",
          "name": "_name",
          "type": "string"
        },
        {
          "internalType": "string",
          "name": "_creationStr",
          "type": "string"
        },
        {
          "internalType": "uint256",
          "name": "_price",
          "type": "uint256"
        },
        {
          "internalType": "string",
          "name": "_tokenURI",
          "type": "string"
        }
      ],
      "name": "presalePaw",
      "outputs": [],
      "stateMutability": "payable",
      "type": "function",
      "payable": true
    }
  ],
  "bytecode": "0x6080604052660e35fa931a0000600f553480156200001c57600080fd5b506040518060400160405280601e81526020017f4f726967696e616c2043727970746f5061777320436f6c6c656374696f6e00008152506040518060400160405280600381526020017f5041570000000000000000000000000000000000000000000000000000000000815250620000a16301ffc9a760e01b620001bb60201b60201c565b8160069080519060200190620000b9929190620003c7565b508060079080519060200190620000d2929190620003c7565b50620000eb6380ac58cd60e01b620001bb60201b60201c565b62000103635b5e139f60e01b620001bb60201b60201c565b6200011b63780e9d6360e01b620001bb60201b60201c565b50506200012d6200029360201b60201c565b600c908051906020019062000144929190620003c7565b50620001556200032d60201b60201c565b600d90805190602001906200016c929190620003c7565b5033600a60006101000a81548173ffffffffffffffffffffffffffffffffffffffff021916908373ffffffffffffffffffffffffffffffffffffffff16021790555042600b819055506200055f565b63ffffffff60e01b817bffffffffffffffffffffffffffffffffffffffffffffffffffffffff1916141562000227576040517f08c379a00000000000000000000000000000000000000000000000000000000081526004016200021e90620004d8565b60405180910390fd5b6001600080837bffffffffffffffffffffffffffffffffffffffffffffffffffffffff19167bffffffffffffffffffffffffffffffffffffffffffffffffffffffff1916815260200190815260200160002060006101000a81548160ff02191690831515021790555050565b606060068054620002a49062000529565b80601f0160208091040260200160405190810160405280929190818152602001828054620002d29062000529565b8015620003235780601f10620002f75761010080835404028352916020019162000323565b820191906000526020600020905b8154815290600101906020018083116200030557829003601f168201915b5050505050905090565b6060600780546200033e9062000529565b80601f01602080910402602001604051908101604052809291908181526020018280546200036c9062000529565b8015620003bd5780601f106200039157610100808354040283529160200191620003bd565b820191906000526020600020905b8154815290600101906020018083116200039f57829003601f168201915b5050505050905090565b828054620003d59062000529565b90600052602060002090601f016020900481019282620003f9576000855562000445565b82601f106200041457805160ff191683800117855562000445565b8280016001018555821562000445579182015b828111156200044457825182559160200191906001019062000427565b5b50905062000454919062000458565b5090565b5b808211156200047357600081600090555060010162000459565b5090565b600082825260208201905092915050565b7f4552433136353a20696e76616c696420696e7465726661636520696400000000600082015250565b6000620004c0601c8362000477565b9150620004cd8262000488565b602082019050919050565b60006020820190508181036000830152620004f381620004b1565b9050919050565b7f4e487b7100000000000000000000000000000000000000000000000000000000600052602260045260246000fd5b600060028204905060018216806200054257607f821691505b60208210811415620005595762000558620004fa565b5b50919050565b615359806200056f6000396000f3fe60806040526004361061021a5760003560e01c806370a0823111610123578063a5cd761f116100ab578063cc637afe1161006f578063cc637afe14610836578063def720c214610873578063e5326ab1146108b0578063e676407a146108db578063e985e9c5146109065761021a565b8063a5cd761f1461073d578063b88d4fde1461077a578063bc9cd5df146107a3578063c828371e146107ce578063c87b56dd146107f95761021a565b806392cf37c1116100f257806392cf37c11461066757806395d89b41146106a45780639db9ccd0146106cf578063a22cb465146106eb578063a32018b9146107145761021a565b806370a082311461057d57806372727876146105ba57806378e97925146105ff57806378ef836f1461062a5761021a565b806342842e0e116101a657806362e8e8ac1161017557806362e8e8ac146104965780636352211e146104bf5780636817c76c146104fc5780636c0360eb146105275780636f9507f9146105525761021a565b806342842e0e146103d757806343d32ae7146104005780634459040a1461043d5780634f6ccce7146104595761021a565b8063142687f3116101ed578063142687f3146102ed57806318160ddd1461032a57806323b872dd146103555780632d296bf11461037e5780632f745c591461039a5761021a565b806301ffc9a71461021f57806306fdde031461025c578063081812fc14610287578063095ea7b3146102c4575b600080fd5b34801561022b57600080fd5b5061024660048036038101906102419190613706565b610943565b604051610253919061374e565b60405180910390f35b34801561026857600080fd5b506102716109aa565b60405161027e9190613802565b60405180910390f35b34801561029357600080fd5b506102ae60048036038101906102a9919061385a565b610a3c565b6040516102bb91906138c8565b60405180910390f35b3480156102d057600080fd5b506102eb60048036038101906102e6919061390f565b610ac1565b005b3480156102f957600080fd5b50610314600480360381019061030f919061385a565b610bd9565b604051610321919061374e565b60405180910390f35b34801561033657600080fd5b5061033f610bf0565b60405161034c919061395e565b60405180910390f35b34801561036157600080fd5b5061037c60048036038101906103779190613979565b610c01565b005b6103986004803603810190610393919061385a565b610c61565b005b3480156103a657600080fd5b506103c160048036038101906103bc919061390f565b610f98565b6040516103ce919061395e565b60405180910390f35b3480156103e357600080fd5b506103fe60048036038101906103f99190613979565b610ff3565b005b34801561040c57600080fd5b5061042760048036038101906104229190613b01565b611013565b604051610434919061374e565b60405180910390f35b61045760048036038101906104529190613b4a565b611049565b005b34801561046557600080fd5b50610480600480360381019061047b919061385a565b611442565b60405161048d919061395e565b60405180910390f35b3480156104a257600080fd5b506104bd60048036038101906104b89190613c05565b611465565b005b3480156104cb57600080fd5b506104e660048036038101906104e1919061385a565b6115b8565b6040516104f391906138c8565b60405180910390f35b34801561050857600080fd5b506105116115ef565b60405161051e919061395e565b60405180910390f35b34801561053357600080fd5b5061053c6115f5565b6040516105499190613802565b60405180910390f35b34801561055e57600080fd5b50610567611687565b6040516105749190613802565b60405180910390f35b34801561058957600080fd5b506105a4600480360381019061059f9190613c45565b611715565b6040516105b1919061395e565b60405180910390f35b3480156105c657600080fd5b506105e160048036038101906105dc919061385a565b6117d4565b6040516105f699989796959493929190613c93565b60405180910390f35b34801561060b57600080fd5b50610614611a07565b604051610621919061395e565b60405180910390f35b34801561063657600080fd5b50610651600480360381019061064c9190613c45565b611a0d565b60405161065e919061395e565b60405180910390f35b34801561067357600080fd5b5061068e60048036038101906106899190613b01565b611a24565b60405161069b919061374e565b60405180910390f35b3480156106b057600080fd5b506106b9611a5a565b6040516106c69190613802565b60405180910390f35b6106e960048036038101906106e49190613b4a565b611aec565b005b3480156106f757600080fd5b50610712600480360381019061070d9190613d61565b611ef2565b005b34801561072057600080fd5b5061073b6004803603810190610736919061385a565b612073565b005b34801561074957600080fd5b50610764600480360381019061075f919061385a565b612237565b60405161077191906138c8565b60405180910390f35b34801561078657600080fd5b506107a1600480360381019061079c9190613e42565b61224e565b005b3480156107af57600080fd5b506107b86122b0565b6040516107c5919061395e565b60405180910390f35b3480156107da57600080fd5b506107e36122c4565b6040516107f0919061395e565b60405180910390f35b34801561080557600080fd5b50610820600480360381019061081b919061385a565b6122ce565b60405161082d9190613802565b60405180910390f35b34801561084257600080fd5b5061085d60048036038101906108589190613b01565b612441565b60405161086a919061374e565b60405180910390f35b34801561087f57600080fd5b5061089a6004803603810190610895919061385a565b612477565b6040516108a79190613802565b60405180910390f35b3480156108bc57600080fd5b506108c561248f565b6040516108d29190613802565b60405180910390f35b3480156108e757600080fd5b506108f061251d565b6040516108fd919061395e565b60405180910390f35b34801561091257600080fd5b5061092d60048036038101906109289190613ec5565b612523565b60405161093a919061374e565b60405180910390f35b6000806000837bffffffffffffffffffffffffffffffffffffffffffffffffffffffff19167bffffffffffffffffffffffffffffffffffffffffffffffffffffffff1916815260200190815260200160002060009054906101000a900460ff169050919050565b6060600680546109b990613f34565b80601f01602080910402602001604051908101604052809291908181526020018280546109e590613f34565b8015610a325780601f10610a0757610100808354040283529160200191610a32565b820191906000526020600020905b815481529060010190602001808311610a1557829003601f168201915b5050505050905090565b6000610a47826125b7565b610a86576040517f08c379a0000000000000000000000000000000000000000000000000000000008152600401610a7d90613fd8565b60405180910390fd5b6004600083815260200190815260200160002060009054906101000a900473ffffffffffffffffffffffffffffffffffffffff169050919050565b6000610acc826115b8565b90508073ffffffffffffffffffffffffffffffffffffffff168373ffffffffffffffffffffffffffffffffffffffff161415610b3d576040517f08c379a0000000000000000000000000000000000000000000000000000000008152600401610b349061406a565b60405180910390fd5b8073ffffffffffffffffffffffffffffffffffffffff16610b5c6125d4565b73ffffffffffffffffffffffffffffffffffffffff161480610b8b5750610b8a81610b856125d4565b612523565b5b610bca576040517f08c379a0000000000000000000000000000000000000000000000000000000008152600401610bc1906140fc565b60405180910390fd5b610bd483836125dc565b505050565b600080610be5836125b7565b905080915050919050565b6000610bfc6002612695565b905090565b610c12610c0c6125d4565b826126aa565b610c51576040517f08c379a0000000000000000000000000000000000000000000000000000000008152600401610c489061418e565b60405180910390fd5b610c5c838383612788565b505050565b600073ffffffffffffffffffffffffffffffffffffffff163373ffffffffffffffffffffffffffffffffffffffff161415610cd1576040517f08c379a0000000000000000000000000000000000000000000000000000000008152600401610cc8906141fa565b60405180910390fd5b610cda816125b7565b610d19576040517f08c379a0000000000000000000000000000000000000000000000000000000008152600401610d1090614266565b60405180910390fd5b6000610d24826115b8565b9050600073ffffffffffffffffffffffffffffffffffffffff168173ffffffffffffffffffffffffffffffffffffffff161415610d96576040517f08c379a0000000000000000000000000000000000000000000000000000000008152600401610d8d906141fa565b60405180910390fd5b3373ffffffffffffffffffffffffffffffffffffffff168173ffffffffffffffffffffffffffffffffffffffff161415610e05576040517f08c379a0000000000000000000000000000000000000000000000000000000008152600401610dfc906142d2565b60405180910390fd5b6010600083815260200190815260200160002060060154341015610e5e576040517f08c379a0000000000000000000000000000000000000000000000000000000008152600401610e5590614364565b60405180910390fd5b6010600083815260200190815260200160002060080160009054906101000a900460ff16610ec1576040517f08c379a0000000000000000000000000000000000000000000000000000000008152600401610eb8906143d0565b60405180910390fd5b610ecc813384612788565b8073ffffffffffffffffffffffffffffffffffffffff166108fc349081150290604051600060405180830381858888f19350505050158015610f12573d6000803e3d6000fd5b50336010600084815260200190815260200160002060050160006101000a81548173ffffffffffffffffffffffffffffffffffffffff021916908373ffffffffffffffffffffffffffffffffffffffff160217905550601060008381526020019081526020016000206007016000815480929190610f8f9061441f565b91905055505050565b6000610feb82600160008673ffffffffffffffffffffffffffffffffffffffff1673ffffffffffffffffffffffffffffffffffffffff16815260200190815260200160002061299f90919063ffffffff16565b905092915050565b61100e8383836040518060200160405280600081525061224e565b505050565b6013818051602081018201805184825260208301602085012081835280955050505050506000915054906101000a900460ff1681565b600073ffffffffffffffffffffffffffffffffffffffff163373ffffffffffffffffffffffffffffffffffffffff1614156110b9576040517f08c379a00000000000000000000000000000000000000000000000000000000081526004016110b0906144b4565b60405180910390fd5b600f543410156110fe576040517f08c379a00000000000000000000000000000000000000000000000000000000081526004016110f590614546565b60405180910390fd5b600e60008154809291906111119061441f565b9190505550611121600e546125b7565b15611161576040517f08c379a0000000000000000000000000000000000000000000000000000000008152600401611158906145b2565b60405180910390fd5b601283604051611171919061460e565b908152602001604051809103902060009054906101000a900460ff16156111cd576040517f08c379a00000000000000000000000000000000000000000000000000000000081526004016111c490614671565b60405180910390fd5b6013816040516111dd919061460e565b908152602001604051809103902060009054906101000a900460ff1615611239576040517f08c379a0000000000000000000000000000000000000000000000000000000008152600401611230906146dd565b60405180910390fd5b61124533600e546129b9565b611251600e5482612b47565b6001601382604051611263919061460e565b908152602001604051809103902060006101000a81548160ff0219169083151502179055506000604051806101200160405280600e5481526020018681526020018581526020018381526020013373ffffffffffffffffffffffffffffffffffffffff1681526020013373ffffffffffffffffffffffffffffffffffffffff168152602001848152602001600081526020016000151581525090508060106000600e54815260200190815260200160002060008201518160000155602082015181600101908051906020019061133a9291906135f7565b5060408201518160020190805190602001906113579291906135f7565b5060608201518160030190805190602001906113749291906135f7565b5060808201518160040160006101000a81548173ffffffffffffffffffffffffffffffffffffffff021916908373ffffffffffffffffffffffffffffffffffffffff16021790555060a08201518160050160006101000a81548173ffffffffffffffffffffffffffffffffffffffff021916908373ffffffffffffffffffffffffffffffffffffffff16021790555060c0820151816006015560e082015181600701556101008201518160080160006101000a81548160ff0219169083151502179055509050505050505050565b600080611459836002612bbb90919063ffffffff16565b50905080915050919050565b600073ffffffffffffffffffffffffffffffffffffffff163373ffffffffffffffffffffffffffffffffffffffff1614156114d5576040517f08c379a00000000000000000000000000000000000000000000000000000000081526004016114cc906141fa565b60405180910390fd5b6114de826125b7565b61151d576040517f08c379a000000000000000000000000000000000000000000000000000000000815260040161151490614749565b60405180910390fd5b6000611528836115b8565b90503373ffffffffffffffffffffffffffffffffffffffff168173ffffffffffffffffffffffffffffffffffffffff1614611598576040517f08c379a000000000000000000000000000000000000000000000000000000000815260040161158f906147db565b60405180910390fd5b816010600085815260200190815260200160002060060181905550505050565b60006115e8826040518060600160405280602981526020016152fb602991396002612be79092919063ffffffff16565b9050919050565b600f5481565b60606009805461160490613f34565b80601f016020809104026020016040519081016040528092919081815260200182805461163090613f34565b801561167d5780601f106116525761010080835404028352916020019161167d565b820191906000526020600020905b81548152906001019060200180831161166057829003601f168201915b5050505050905090565b600d805461169490613f34565b80601f01602080910402602001604051908101604052809291908181526020018280546116c090613f34565b801561170d5780601f106116e25761010080835404028352916020019161170d565b820191906000526020600020905b8154815290600101906020018083116116f057829003601f168201915b505050505081565b60008073ffffffffffffffffffffffffffffffffffffffff168273ffffffffffffffffffffffffffffffffffffffff161415611786576040517f08c379a000000000000000000000000000000000000000000000000000000000815260040161177d9061486d565b60405180910390fd5b6117cd600160008473ffffffffffffffffffffffffffffffffffffffff1673ffffffffffffffffffffffffffffffffffffffff168152602001908152602001600020612c06565b9050919050565b60106020528060005260406000206000915090508060000154908060010180546117fd90613f34565b80601f016020809104026020016040519081016040528092919081815260200182805461182990613f34565b80156118765780601f1061184b57610100808354040283529160200191611876565b820191906000526020600020905b81548152906001019060200180831161185957829003601f168201915b50505050509080600201805461188b90613f34565b80601f01602080910402602001604051908101604052809291908181526020018280546118b790613f34565b80156119045780601f106118d957610100808354040283529160200191611904565b820191906000526020600020905b8154815290600101906020018083116118e757829003601f168201915b50505050509080600301805461191990613f34565b80601f016020809104026020016040519081016040528092919081815260200182805461194590613f34565b80156119925780601f1061196757610100808354040283529160200191611992565b820191906000526020600020905b81548152906001019060200180831161197557829003601f168201915b5050505050908060040160009054906101000a900473ffffffffffffffffffffffffffffffffffffffff16908060050160009054906101000a900473ffffffffffffffffffffffffffffffffffffffff16908060060154908060070154908060080160009054906101000a900460ff16905089565b600b5481565b600080611a1983611715565b905080915050919050565b6012818051602081018201805184825260208301602085012081835280955050505050506000915054906101000a900460ff1681565b606060078054611a6990613f34565b80601f0160208091040260200160405190810160405280929190818152602001828054611a9590613f34565b8015611ae25780601f10611ab757610100808354040283529160200191611ae2565b820191906000526020600020905b815481529060010190602001808311611ac557829003601f168201915b5050505050905090565b600073ffffffffffffffffffffffffffffffffffffffff163373ffffffffffffffffffffffffffffffffffffffff161415611b5c576040517f08c379a0000000000000000000000000000000000000000000000000000000008152600401611b53906144b4565b60405180910390fd5b61012c600b54611b6c919061488d565b421115611bae576040517f08c379a0000000000000000000000000000000000000000000000000000000008152600401611ba59061492f565b60405180910390fd5b600e6000815480929190611bc19061441f565b9190505550611bd1600e546125b7565b15611c11576040517f08c379a0000000000000000000000000000000000000000000000000000000008152600401611c08906145b2565b60405180910390fd5b601283604051611c21919061460e565b908152602001604051809103902060009054906101000a900460ff1615611c7d576040517f08c379a0000000000000000000000000000000000000000000000000000000008152600401611c7490614671565b60405180910390fd5b601381604051611c8d919061460e565b908152602001604051809103902060009054906101000a900460ff1615611ce9576040517f08c379a0000000000000000000000000000000000000000000000000000000008152600401611ce0906146dd565b60405180910390fd5b611cf533600e546129b9565b611d01600e5482612b47565b6001601382604051611d13919061460e565b908152602001604051809103902060006101000a81548160ff0219169083151502179055506000604051806101200160405280600e5481526020018681526020018581526020018381526020013373ffffffffffffffffffffffffffffffffffffffff1681526020013373ffffffffffffffffffffffffffffffffffffffff168152602001848152602001600081526020016000151581525090508060106000600e548152602001908152602001600020600082015181600001556020820151816001019080519060200190611dea9291906135f7565b506040820151816002019080519060200190611e079291906135f7565b506060820151816003019080519060200190611e249291906135f7565b5060808201518160040160006101000a81548173ffffffffffffffffffffffffffffffffffffffff021916908373ffffffffffffffffffffffffffffffffffffffff16021790555060a08201518160050160006101000a81548173ffffffffffffffffffffffffffffffffffffffff021916908373ffffffffffffffffffffffffffffffffffffffff16021790555060c0820151816006015560e082015181600701556101008201518160080160006101000a81548160ff0219169083151502179055509050505050505050565b611efa6125d4565b73ffffffffffffffffffffffffffffffffffffffff168273ffffffffffffffffffffffffffffffffffffffff161415611f68576040517f08c379a0000000000000000000000000000000000000000000000000000000008152600401611f5f9061499b565b60405180910390fd5b8060056000611f756125d4565b73ffffffffffffffffffffffffffffffffffffffff1673ffffffffffffffffffffffffffffffffffffffff16815260200190815260200160002060008473ffffffffffffffffffffffffffffffffffffffff1673ffffffffffffffffffffffffffffffffffffffff16815260200190815260200160002060006101000a81548160ff0219169083151502179055508173ffffffffffffffffffffffffffffffffffffffff166120226125d4565b73ffffffffffffffffffffffffffffffffffffffff167f17307eab39ab6107e8899845ad3d59bd9653f200f220920489ca2b5937696c3183604051612067919061374e565b60405180910390a35050565b600073ffffffffffffffffffffffffffffffffffffffff163373ffffffffffffffffffffffffffffffffffffffff1614156120e3576040517f08c379a00000000000000000000000000000000000000000000000000000000081526004016120da906141fa565b60405180910390fd5b6120ec816125b7565b61212b576040517f08c379a000000000000000000000000000000000000000000000000000000000815260040161212290614749565b60405180910390fd5b6000612136826115b8565b90503373ffffffffffffffffffffffffffffffffffffffff168173ffffffffffffffffffffffffffffffffffffffff16146121a6576040517f08c379a000000000000000000000000000000000000000000000000000000000815260040161219d906147db565b60405180910390fd5b6010600083815260200190815260200160002060080160009054906101000a900460ff16156122035760006010600084815260200190815260200160002060080160006101000a81548160ff021916908315150217905550612233565b60016010600084815260200190815260200160002060080160006101000a81548160ff0219169083151502179055505b5050565b600080612243836115b8565b905080915050919050565b61225f6122596125d4565b836126aa565b61229e576040517f08c379a00000000000000000000000000000000000000000000000000000000081526004016122959061418e565b60405180910390fd5b6122aa84848484612c1b565b50505050565b6000806122bb610bf0565b90508091505090565b6000600b54905090565b60606122d9826125b7565b612318576040517f08c379a000000000000000000000000000000000000000000000000000000000815260040161230f90614a2d565b60405180910390fd5b600060086000848152602001908152602001600020805461233890613f34565b80601f016020809104026020016040519081016040528092919081815260200182805461236490613f34565b80156123b15780601f10612386576101008083540402835291602001916123b1565b820191906000526020600020905b81548152906001019060200180831161239457829003601f168201915b5050505050905060006123c26115f5565b90506000815114156123d857819250505061243c565b60008251111561240d5780826040516020016123f5929190614a4d565b6040516020818303038152906040529250505061243c565b8061241785612c77565b604051602001612428929190614a4d565b604051602081830303815290604052925050505b919050565b6011818051602081018201805184825260208301602085012081835280955050505050506000915054906101000a900460ff1681565b60606000612484836122ce565b905080915050919050565b600c805461249c90613f34565b80601f01602080910402602001604051908101604052809291908181526020018280546124c890613f34565b80156125155780601f106124ea57610100808354040283529160200191612515565b820191906000526020600020905b8154815290600101906020018083116124f857829003601f168201915b505050505081565b600e5481565b6000600560008473ffffffffffffffffffffffffffffffffffffffff1673ffffffffffffffffffffffffffffffffffffffff16815260200190815260200160002060008373ffffffffffffffffffffffffffffffffffffffff1673ffffffffffffffffffffffffffffffffffffffff16815260200190815260200160002060009054906101000a900460ff16905092915050565b60006125cd826002612dea90919063ffffffff16565b9050919050565b600033905090565b816004600083815260200190815260200160002060006101000a81548173ffffffffffffffffffffffffffffffffffffffff021916908373ffffffffffffffffffffffffffffffffffffffff160217905550808273ffffffffffffffffffffffffffffffffffffffff1661264f836115b8565b73ffffffffffffffffffffffffffffffffffffffff167f8c5be1e5ebec7d5bd14f71427d1e84f3dd0314c0f7b2291e5b200ac8c7c3b92560405160405180910390a45050565b60006126a382600001612e04565b9050919050565b60006126b5826125b7565b6126f4576040517f08c379a00000000000000000000000000000000000000000000000000000000081526004016126eb90614ae3565b60405180910390fd5b60006126ff836115b8565b90508073ffffffffffffffffffffffffffffffffffffffff168473ffffffffffffffffffffffffffffffffffffffff16148061276e57508373ffffffffffffffffffffffffffffffffffffffff1661275684610a3c565b73ffffffffffffffffffffffffffffffffffffffff16145b8061277f575061277e8185612523565b5b91505092915050565b8273ffffffffffffffffffffffffffffffffffffffff166127a8826115b8565b73ffffffffffffffffffffffffffffffffffffffff16146127fe576040517f08c379a00000000000000000000000000000000000000000000000000000000081526004016127f590614b75565b60405180910390fd5b600073ffffffffffffffffffffffffffffffffffffffff168273ffffffffffffffffffffffffffffffffffffffff16141561286e576040517f08c379a000000000000000000000000000000000000000000000000000000000815260040161286590614c07565b60405180910390fd5b612879838383612e15565b6128846000826125dc565b6128d581600160008673ffffffffffffffffffffffffffffffffffffffff1673ffffffffffffffffffffffffffffffffffffffff168152602001908152602001600020612e1a90919063ffffffff16565b5061292781600160008573ffffffffffffffffffffffffffffffffffffffff1673ffffffffffffffffffffffffffffffffffffffff168152602001908152602001600020612e3490919063ffffffff16565b5061293e81836002612e4e9092919063ffffffff16565b50808273ffffffffffffffffffffffffffffffffffffffff168473ffffffffffffffffffffffffffffffffffffffff167fddf252ad1be2c89b69c2b068fc378daa952ba7f163c4a11628f55a4df523b3ef60405160405180910390a4505050565b60006129ae8360000183612e83565b60001c905092915050565b600073ffffffffffffffffffffffffffffffffffffffff168273ffffffffffffffffffffffffffffffffffffffff161415612a29576040517f08c379a0000000000000000000000000000000000000000000000000000000008152600401612a2090614c73565b60405180910390fd5b612a32816125b7565b15612a72576040517f08c379a0000000000000000000000000000000000000000000000000000000008152600401612a6990614cdf565b60405180910390fd5b612a7e60008383612e15565b612acf81600160008573ffffffffffffffffffffffffffffffffffffffff1673ffffffffffffffffffffffffffffffffffffffff168152602001908152602001600020612e3490919063ffffffff16565b50612ae681836002612e4e9092919063ffffffff16565b50808273ffffffffffffffffffffffffffffffffffffffff16600073ffffffffffffffffffffffffffffffffffffffff167fddf252ad1be2c89b69c2b068fc378daa952ba7f163c4a11628f55a4df523b3ef60405160405180910390a45050565b612b50826125b7565b612b8f576040517f08c379a0000000000000000000000000000000000000000000000000000000008152600401612b8690614d71565b60405180910390fd5b80600860008481526020019081526020016000209080519060200190612bb69291906135f7565b505050565b600080600080612bce8660000186612ef7565b915091508160001c8160001c9350935050509250929050565b6000612bfa846000018460001b84612f81565b60001c90509392505050565b6000612c1482600001613022565b9050919050565b612c26848484612788565b612c3284848484613033565b612c71576040517f08c379a0000000000000000000000000000000000000000000000000000000008152600401612c6890614e03565b60405180910390fd5b50505050565b60606000821415612cbf576040518060400160405280600181526020017f30000000000000000000000000000000000000000000000000000000000000008152509050612de5565b600082905060005b60008214612cf1578080612cda9061441f565b915050600a82612cea9190614e52565b9150612cc7565b60008167ffffffffffffffff811115612d0d57612d0c6139d6565b5b6040519080825280601f01601f191660200182016040528015612d3f5781602001600182028036833780820191505090505b5090506000600183612d519190614e83565b90508593505b60008414612ddd57600a84612d6c9190614eb7565b6030612d78919061488d565b60f81b828280612d8790614ee8565b935081518110612d9a57612d99614f12565b5b60200101907effffffffffffffffffffffffffffffffffffffffffffffffffffffffffffff1916908160001a905350600a84612dd69190614e52565b9350612d57565b819450505050505b919050565b6000612dfc836000018360001b613197565b905092915050565b600081600001805490509050919050565b505050565b6000612e2c836000018360001b6131ba565b905092915050565b6000612e46836000018360001b6132d2565b905092915050565b6000612e7a846000018460001b8473ffffffffffffffffffffffffffffffffffffffff1660001b613342565b90509392505050565b600081836000018054905011612ece576040517f08c379a0000000000000000000000000000000000000000000000000000000008152600401612ec590614fb3565b60405180910390fd5b826000018281548110612ee457612ee3614f12565b5b9060005260206000200154905092915050565b60008082846000018054905011612f43576040517f08c379a0000000000000000000000000000000000000000000000000000000008152600401612f3a90615045565b60405180910390fd5b6000846000018481548110612f5b57612f5a614f12565b5b906000526020600020906002020190508060000154816001015492509250509250929050565b60008084600101600085815260200190815260200160002054905060008114158390612fe3576040517f08c379a0000000000000000000000000000000000000000000000000000000008152600401612fda9190613802565b60405180910390fd5b5084600001600182612ff59190614e83565b8154811061300657613005614f12565b5b9060005260206000209060020201600101549150509392505050565b600081600001805490509050919050565b60006130548473ffffffffffffffffffffffffffffffffffffffff1661342e565b613061576001905061318f565b600061312863150b7a0260e01b6130766125d4565b88878760405160240161308c94939291906150ba565b604051602081830303815290604052907bffffffffffffffffffffffffffffffffffffffffffffffffffffffff19166020820180517bffffffffffffffffffffffffffffffffffffffffffffffffffffffff83818316178352505050506040518060600160405280603281526020016152c9603291398773ffffffffffffffffffffffffffffffffffffffff166134419092919063ffffffff16565b9050600081806020019051810190613140919061511b565b905063150b7a0260e01b7bffffffffffffffffffffffffffffffffffffffffffffffffffffffff1916817bffffffffffffffffffffffffffffffffffffffffffffffffffffffff191614925050505b949350505050565b600080836001016000848152602001908152602001600020541415905092915050565b600080836001016000848152602001908152602001600020549050600081146132c65760006001826131ec9190614e83565b90506000600186600001805490506132049190614e83565b9050600086600001828154811061321e5761321d614f12565b5b906000526020600020015490508087600001848154811061324257613241614f12565b5b906000526020600020018190555060018361325d919061488d565b876001016000838152602001908152602001600020819055508660000180548061328a57613289615148565b5b600190038181906000526020600020016000905590558660010160008781526020019081526020016000206000905560019450505050506132cc565b60009150505b92915050565b60006132de8383613459565b61333757826000018290806001815401808255809150506001900390600052602060002001600090919091909150558260000180549050836001016000848152602001908152602001600020819055506001905061333c565b600090505b92915050565b60008084600101600085815260200190815260200160002054905060008114156133e957846000016040518060400160405280868152602001858152509080600181540180825580915050600190039060005260206000209060020201600090919091909150600082015181600001556020820151816001015550508460000180549050856001016000868152602001908152602001600020819055506001915050613427565b82856000016001836133fb9190614e83565b8154811061340c5761340b614f12565b5b90600052602060002090600202016001018190555060009150505b9392505050565b600080823b905060008111915050919050565b6060613450848460008561347c565b90509392505050565b600080836001016000848152602001908152602001600020541415905092915050565b6060824710156134c1576040517f08c379a00000000000000000000000000000000000000000000000000000000081526004016134b8906151e9565b60405180910390fd5b6134ca8561342e565b613509576040517f08c379a000000000000000000000000000000000000000000000000000000000815260040161350090615255565b60405180910390fd5b6000808673ffffffffffffffffffffffffffffffffffffffff16858760405161353291906152b1565b60006040518083038185875af1925050503d806000811461356f576040519150601f19603f3d011682016040523d82523d6000602084013e613574565b606091505b5091509150613584828286613590565b92505050949350505050565b606083156135a0578290506135f0565b6000835111156135b35782518084602001fd5b816040517f08c379a00000000000000000000000000000000000000000000000000000000081526004016135e79190613802565b60405180910390fd5b9392505050565b82805461360390613f34565b90600052602060002090601f016020900481019282613625576000855561366c565b82601f1061363e57805160ff191683800117855561366c565b8280016001018555821561366c579182015b8281111561366b578251825591602001919060010190613650565b5b509050613679919061367d565b5090565b5b8082111561369657600081600090555060010161367e565b5090565b6000604051905090565b600080fd5b600080fd5b60007fffffffff0000000000000000000000000000000000000000000000000000000082169050919050565b6136e3816136ae565b81146136ee57600080fd5b50565b600081359050613700816136da565b92915050565b60006020828403121561371c5761371b6136a4565b5b600061372a848285016136f1565b91505092915050565b60008115159050919050565b61374881613733565b82525050565b6000602082019050613763600083018461373f565b92915050565b600081519050919050565b600082825260208201905092915050565b60005b838110156137a3578082015181840152602081019050613788565b838111156137b2576000848401525b50505050565b6000601f19601f8301169050919050565b60006137d482613769565b6137de8185613774565b93506137ee818560208601613785565b6137f7816137b8565b840191505092915050565b6000602082019050818103600083015261381c81846137c9565b905092915050565b6000819050919050565b61383781613824565b811461384257600080fd5b50565b6000813590506138548161382e565b92915050565b6000602082840312156138705761386f6136a4565b5b600061387e84828501613845565b91505092915050565b600073ffffffffffffffffffffffffffffffffffffffff82169050919050565b60006138b282613887565b9050919050565b6138c2816138a7565b82525050565b60006020820190506138dd60008301846138b9565b92915050565b6138ec816138a7565b81146138f757600080fd5b50565b600081359050613909816138e3565b92915050565b60008060408385031215613926576139256136a4565b5b6000613934858286016138fa565b925050602061394585828601613845565b9150509250929050565b61395881613824565b82525050565b6000602082019050613973600083018461394f565b92915050565b600080600060608486031215613992576139916136a4565b5b60006139a0868287016138fa565b93505060206139b1868287016138fa565b92505060406139c286828701613845565b9150509250925092565b600080fd5b600080fd5b7f4e487b7100000000000000000000000000000000000000000000000000000000600052604160045260246000fd5b613a0e826137b8565b810181811067ffffffffffffffff82111715613a2d57613a2c6139d6565b5b80604052505050565b6000613a4061369a565b9050613a4c8282613a05565b919050565b600067ffffffffffffffff821115613a6c57613a6b6139d6565b5b613a75826137b8565b9050602081019050919050565b82818337600083830152505050565b6000613aa4613a9f84613a51565b613a36565b905082815260208101848484011115613ac057613abf6139d1565b5b613acb848285613a82565b509392505050565b600082601f830112613ae857613ae76139cc565b5b8135613af8848260208601613a91565b91505092915050565b600060208284031215613b1757613b166136a4565b5b600082013567ffffffffffffffff811115613b3557613b346136a9565b5b613b4184828501613ad3565b91505092915050565b60008060008060808587031215613b6457613b636136a4565b5b600085013567ffffffffffffffff811115613b8257613b816136a9565b5b613b8e87828801613ad3565b945050602085013567ffffffffffffffff811115613baf57613bae6136a9565b5b613bbb87828801613ad3565b9350506040613bcc87828801613845565b925050606085013567ffffffffffffffff811115613bed57613bec6136a9565b5b613bf987828801613ad3565b91505092959194509250565b60008060408385031215613c1c57613c1b6136a4565b5b6000613c2a85828601613845565b9250506020613c3b85828601613845565b9150509250929050565b600060208284031215613c5b57613c5a6136a4565b5b6000613c69848285016138fa565b91505092915050565b6000613c7d82613887565b9050919050565b613c8d81613c72565b82525050565b600061012082019050613ca9600083018c61394f565b8181036020830152613cbb818b6137c9565b90508181036040830152613ccf818a6137c9565b90508181036060830152613ce381896137c9565b9050613cf26080830188613c84565b613cff60a0830187613c84565b613d0c60c083018661394f565b613d1960e083018561394f565b613d2761010083018461373f565b9a9950505050505050505050565b613d3e81613733565b8114613d4957600080fd5b50565b600081359050613d5b81613d35565b92915050565b60008060408385031215613d7857613d776136a4565b5b6000613d86858286016138fa565b9250506020613d9785828601613d4c565b9150509250929050565b600067ffffffffffffffff821115613dbc57613dbb6139d6565b5b613dc5826137b8565b9050602081019050919050565b6000613de5613de084613da1565b613a36565b905082815260208101848484011115613e0157613e006139d1565b5b613e0c848285613a82565b509392505050565b600082601f830112613e2957613e286139cc565b5b8135613e39848260208601613dd2565b91505092915050565b60008060008060808587031215613e5c57613e5b6136a4565b5b6000613e6a878288016138fa565b9450506020613e7b878288016138fa565b9350506040613e8c87828801613845565b925050606085013567ffffffffffffffff811115613ead57613eac6136a9565b5b613eb987828801613e14565b91505092959194509250565b60008060408385031215613edc57613edb6136a4565b5b6000613eea858286016138fa565b9250506020613efb858286016138fa565b9150509250929050565b7f4e487b7100000000000000000000000000000000000000000000000000000000600052602260045260246000fd5b60006002820490506001821680613f4c57607f821691505b60208210811415613f6057613f5f613f05565b5b50919050565b7f4552433732313a20617070726f76656420717565727920666f72206e6f6e657860008201527f697374656e7420746f6b656e0000000000000000000000000000000000000000602082015250565b6000613fc2602c83613774565b9150613fcd82613f66565b604082019050919050565b60006020820190508181036000830152613ff181613fb5565b9050919050565b7f4552433732313a20617070726f76616c20746f2063757272656e74206f776e6560008201527f7200000000000000000000000000000000000000000000000000000000000000602082015250565b6000614054602183613774565b915061405f82613ff8565b604082019050919050565b6000602082019050818103600083015261408381614047565b9050919050565b7f4552433732313a20617070726f76652063616c6c6572206973206e6f74206f7760008201527f6e6572206e6f7220617070726f76656420666f7220616c6c0000000000000000602082015250565b60006140e6603883613774565b91506140f18261408a565b604082019050919050565b60006020820190508181036000830152614115816140d9565b9050919050565b7f4552433732313a207472616e736665722063616c6c6572206973206e6f74206f60008201527f776e6572206e6f7220617070726f766564000000000000000000000000000000602082015250565b6000614178603183613774565b91506141838261411c565b604082019050919050565b600060208201905081810360008301526141a78161416b565b9050919050565b7f6e6f6e2d7a65726f20616464726573736573206f6e6c79000000000000000000600082015250565b60006141e4601783613774565b91506141ef826141ae565b602082019050919050565b60006020820190508181036000830152614213816141d7565b9050919050565b7f746869732070617720646f6573206e6f74206578697374000000000000000000600082015250565b6000614250601783613774565b915061425b8261421a565b602082019050919050565b6000602082019050818103600083015261427f81614243565b9050919050565b7f796f752063616e27742062757920796f7572206f776e20746f6b656e00000000600082015250565b60006142bc601c83613774565b91506142c782614286565b602082019050919050565b600060208201905081810360008301526142eb816142af565b9050919050565b7f706c656173652073656e642074686520636f727265637420616d6f756e74206f60008201527f6620657468000000000000000000000000000000000000000000000000000000602082015250565b600061434e602583613774565b9150614359826142f2565b604082019050919050565b6000602082019050818103600083015261437d81614341565b9050919050565b7f7468697320706177206973206e6f7420666f722073616c650000000000000000600082015250565b60006143ba601883613774565b91506143c582614384565b602082019050919050565b600060208201905081810360008301526143e9816143ad565b9050919050565b7f4e487b7100000000000000000000000000000000000000000000000000000000600052601160045260246000fd5b600061442a82613824565b91507fffffffffffffffffffffffffffffffffffffffffffffffffffffffffffffffff82141561445d5761445c6143f0565b5b600182019050919050565b7f4e6f6e2d7a65726f20616464726573736573206f6e6c79000000000000000000600082015250565b600061449e601783613774565b91506144a982614468565b602082019050919050565b600060208201905081810360008301526144cd81614491565b9050919050565b7f596f75206d75737420706179207468652061637475616c206d696e742070726960008201527f6365000000000000000000000000000000000000000000000000000000000000602082015250565b6000614530602283613774565b915061453b826144d4565b604082019050919050565b6000602082019050818103600083015261455f81614523565b9050919050565b7f636f6c6c656374696f6e20636f756e746572206e6f7420666f756e6400000000600082015250565b600061459c601c83613774565b91506145a782614566565b602082019050919050565b600060208201905081810360008301526145cb8161458f565b9050919050565b600081905092915050565b60006145e882613769565b6145f281856145d2565b9350614602818560208601613785565b80840191505092915050565b600061461a82846145dd565b915081905092915050565b7f7468697320706177207072696e7420616c726561647920657869737473000000600082015250565b600061465b601d83613774565b915061466682614625565b602082019050919050565b6000602082019050818103600083015261468a8161464e565b9050919050565b7f7468652055524920616c72656164792065786973747300000000000000000000600082015250565b60006146c7601683613774565b91506146d282614691565b602082019050919050565b600060208201905081810360008301526146f6816146ba565b9050919050565b7f746f6b656e20646f6573206e6f74206578697374000000000000000000000000600082015250565b6000614733601483613774565b915061473e826146fd565b602082019050919050565b6000602082019050818103600083015261476281614726565b9050919050565b7f796f752063616e6e6f742065646974206120746f6b656e20746861742069732060008201527f6e6f7420796f7572730000000000000000000000000000000000000000000000602082015250565b60006147c5602983613774565b91506147d082614769565b604082019050919050565b600060208201905081810360008301526147f4816147b8565b9050919050565b7f4552433732313a2062616c616e636520717565727920666f7220746865207a6560008201527f726f206164647265737300000000000000000000000000000000000000000000602082015250565b6000614857602a83613774565b9150614862826147fb565b604082019050919050565b600060208201905081810360008301526148868161484a565b9050919050565b600061489882613824565b91506148a383613824565b9250827fffffffffffffffffffffffffffffffffffffffffffffffffffffffffffffffff038211156148d8576148d76143f0565b5b828201905092915050565b7f5468652050726573616c65206973206f76657200000000000000000000000000600082015250565b6000614919601383613774565b9150614924826148e3565b602082019050919050565b600060208201905081810360008301526149488161490c565b9050919050565b7f4552433732313a20617070726f766520746f2063616c6c657200000000000000600082015250565b6000614985601983613774565b91506149908261494f565b602082019050919050565b600060208201905081810360008301526149b481614978565b9050919050565b7f4552433732314d657461646174613a2055524920717565727920666f72206e6f60008201527f6e6578697374656e7420746f6b656e0000000000000000000000000000000000602082015250565b6000614a17602f83613774565b9150614a22826149bb565b604082019050919050565b60006020820190508181036000830152614a4681614a0a565b9050919050565b6000614a5982856145dd565b9150614a6582846145dd565b91508190509392505050565b7f4552433732313a206f70657261746f7220717565727920666f72206e6f6e657860008201527f697374656e7420746f6b656e0000000000000000000000000000000000000000602082015250565b6000614acd602c83613774565b9150614ad882614a71565b604082019050919050565b60006020820190508181036000830152614afc81614ac0565b9050919050565b7f4552433732313a207472616e73666572206f6620746f6b656e2074686174206960008201527f73206e6f74206f776e0000000000000000000000000000000000000000000000602082015250565b6000614b5f602983613774565b9150614b6a82614b03565b604082019050919050565b60006020820190508181036000830152614b8e81614b52565b9050919050565b7f4552433732313a207472616e7366657220746f20746865207a65726f2061646460008201527f7265737300000000000000000000000000000000000000000000000000000000602082015250565b6000614bf1602483613774565b9150614bfc82614b95565b604082019050919050565b60006020820190508181036000830152614c2081614be4565b9050919050565b7f4552433732313a206d696e7420746f20746865207a65726f2061646472657373600082015250565b6000614c5d602083613774565b9150614c6882614c27565b602082019050919050565b60006020820190508181036000830152614c8c81614c50565b9050919050565b7f4552433732313a20746f6b656e20616c7265616479206d696e74656400000000600082015250565b6000614cc9601c83613774565b9150614cd482614c93565b602082019050919050565b60006020820190508181036000830152614cf881614cbc565b9050919050565b7f4552433732314d657461646174613a2055524920736574206f66206e6f6e657860008201527f697374656e7420746f6b656e0000000000000000000000000000000000000000602082015250565b6000614d5b602c83613774565b9150614d6682614cff565b604082019050919050565b60006020820190508181036000830152614d8a81614d4e565b9050919050565b7f4552433732313a207472616e7366657220746f206e6f6e20455243373231526560008201527f63656976657220696d706c656d656e7465720000000000000000000000000000602082015250565b6000614ded603283613774565b9150614df882614d91565b604082019050919050565b60006020820190508181036000830152614e1c81614de0565b9050919050565b7f4e487b7100000000000000000000000000000000000000000000000000000000600052601260045260246000fd5b6000614e5d82613824565b9150614e6883613824565b925082614e7857614e77614e23565b5b828204905092915050565b6000614e8e82613824565b9150614e9983613824565b925082821015614eac57614eab6143f0565b5b828203905092915050565b6000614ec282613824565b9150614ecd83613824565b925082614edd57614edc614e23565b5b828206905092915050565b6000614ef382613824565b91506000821415614f0757614f066143f0565b5b600182039050919050565b7f4e487b7100000000000000000000000000000000000000000000000000000000600052603260045260246000fd5b7f456e756d657261626c655365743a20696e646578206f7574206f6620626f756e60008201527f6473000000000000000000000000000000000000000000000000000000000000602082015250565b6000614f9d602283613774565b9150614fa882614f41565b604082019050919050565b60006020820190508181036000830152614fcc81614f90565b9050919050565b7f456e756d657261626c654d61703a20696e646578206f7574206f6620626f756e60008201527f6473000000000000000000000000000000000000000000000000000000000000602082015250565b600061502f602283613774565b915061503a82614fd3565b604082019050919050565b6000602082019050818103600083015261505e81615022565b9050919050565b600081519050919050565b600082825260208201905092915050565b600061508c82615065565b6150968185615070565b93506150a6818560208601613785565b6150af816137b8565b840191505092915050565b60006080820190506150cf6000830187613c84565b6150dc60208301866138b9565b6150e9604083018561394f565b81810360608301526150fb8184615081565b905095945050505050565b600081519050615115816136da565b92915050565b600060208284031215615131576151306136a4565b5b600061513f84828501615106565b91505092915050565b7f4e487b7100000000000000000000000000000000000000000000000000000000600052603160045260246000fd5b7f416464726573733a20696e73756666696369656e742062616c616e636520666f60008201527f722063616c6c0000000000000000000000000000000000000000000000000000602082015250565b60006151d3602683613774565b91506151de82615177565b604082019050919050565b60006020820190508181036000830152615202816151c6565b9050919050565b7f416464726573733a2063616c6c20746f206e6f6e2d636f6e7472616374000000600082015250565b600061523f601d83613774565b915061524a82615209565b602082019050919050565b6000602082019050818103600083015261526e81615232565b9050919050565b600081905092915050565b600061528b82615065565b6152958185615275565b93506152a5818560208601613785565b80840191505092915050565b60006152bd8284615280565b91508190509291505056fe4552433732313a207472616e7366657220746f206e6f6e20455243373231526563656976657220696d706c656d656e7465724552433732313a206f776e657220717565727920666f72206e6f6e6578697374656e7420746f6b656ea26469706673582212208622379796a9bdf71834d687ae01d063b2e42e96fb37c1323614a944e28c13d564736f6c634300080a0033",
  "immutableReferences": {},
  "source": "//SPDX-License-Identifier: MIT\r\npragma solidity  >=0.8.0;\r\npragma abicoder v2;\r\n\r\nimport \"./ERC721.sol\";\r\n\r\ncontract CryptoPaws is ERC721 {\r\n\taddress private owner;\r\n\tuint public startTime;\r\n\t\r\n    // name of paw collection for contract\r\n    string public collectionName;\r\n    // symbol for paw tokens\r\n    string public collectionNameSymbol;\r\n    // total number of paws\r\n    uint256 public pawCounter;\r\n\r\n    //set a default mint price\r\n    uint256 public mintPrice = 4000000000000000 wei;\r\n\r\n    // define paw struct\r\n    struct CryptoPaw {\r\n        //unique tokenid\r\n        uint256 tokenId;\r\n\r\n        string tokenName;\r\n        //string that specifies unique color combination\r\n        string creationStr;\r\n        //string that holds URI that points to image file on ipfs\r\n        string tokenURI;\r\n        //address of the account that minted the token\r\n        address payable mintedBy;\r\n        //address of current token owner\r\n        address payable currentOwner;\r\n        //set price of token\r\n        uint256 price;\r\n        //tracks number of times token changed ownership\r\n        uint256 timesTransferred;\r\n        bool forSale;\r\n    }\r\n    \r\n\t// map tokenId to a Paw\r\n    mapping(uint256 => CryptoPaw) public allPaws;\r\n\r\n    mapping(string => bool) public nameExists;\r\n    // check if a selector number already exists\r\n    mapping(string => bool) public creationStrs;\r\n    // check if a URI exists\r\n    mapping(string => bool) public tokenURIExists;\r\n\r\n    // constructor that creates the ERC721\r\n    constructor() ERC721(\"Original CryptoPaws Collection\",\"PAW\") {\r\n        collectionName = name();\r\n        collectionNameSymbol = symbol();\r\n\t\towner = msg.sender;\r\n\t\tstartTime = block.timestamp;\r\n    }\r\n\r\n\tmodifier onlyOwner() {\r\n        require(msg.sender == owner, \"Not owner\");\r\n        _;\r\n    }\r\n\r\n    // minting function for new PAW\r\n    function mintPaw(string memory _name, string memory _creationStr, uint _price, string memory _tokenURI) external payable{\r\n        //make sure address exists and isnt a 0 address\r\n        require(msg.sender != address(0), \"Non-zero addresses only\");\r\n        //make sure the mint price is paid\r\n        require(msg.value >= mintPrice, \"You must pay the actual mint price\");\r\n        //increment the collection counter\r\n        pawCounter++;\r\n        //pawCounter is the tokenid in this case\r\n        require(!_exists(pawCounter), \"collection counter not found\");\r\n        //checks that color combo does not already exist\r\n        require(!creationStrs[_creationStr], \"this paw print already exists\");\r\n        //checks that uri is new\r\n        require(!tokenURIExists[_tokenURI], \"the URI already exists\");\r\n\r\n        //mint time baby\r\n        _mint(msg.sender, pawCounter);\r\n        //set the URI for the token\r\n        _setTokenURI(pawCounter, _tokenURI);\r\n        \r\n        //add URI to URI list\r\n        tokenURIExists[_tokenURI] = true;\r\n        \r\n        \r\n        CryptoPaw memory newCryptoPaw = CryptoPaw(\r\n            pawCounter,\r\n            _name,\r\n            _creationStr,\r\n            _tokenURI,\r\n            payable(msg.sender),\r\n            payable(msg.sender),\r\n            _price,\r\n            0,\r\n            false);\r\n\r\n            allPaws[pawCounter] = newCryptoPaw;\r\n    }\r\n\r\n    //get the owner of a token\r\n    function getTokenOwner(uint256 _tokenId) public view returns(address) {\r\n        address tokenOwner = ownerOf(_tokenId);\r\n        return tokenOwner;\r\n    }\r\n\r\n    //get token image\r\n    function getTokenImg(uint256 _tokenId) public view returns(string memory) {\r\n        string memory tokenImg = tokenURI(_tokenId);\r\n        return tokenImg;\r\n    }\r\n\r\n    //get total number of tokens\r\n    function getTotalNumberMinted() public view returns(uint256) {\r\n        uint256 totalNumberOfTokensMinted = totalSupply();\r\n        return totalNumberOfTokensMinted;\r\n    }\r\n\t\r\n\tfunction getStartTime() public view returns(uint256) {\r\n\t\treturn startTime;\r\n\t}\r\n\t\t\r\n    //get number of tokens owned by an address\r\n    function getTotalNumberOwnedByAddress(address _owner) public view returns(uint256) {\r\n        uint totalNumberOfTokensOwned = balanceOf(_owner);\r\n        return totalNumberOfTokensOwned;\r\n    }\r\n\r\n    //check if token exists\r\n    function getTokenExists(uint256 _tokenId) public view returns(bool) {\r\n        bool tokenExists = _exists(_tokenId);\r\n        return tokenExists;\r\n    }\r\n\r\n    function buyToken(uint256 _tokenId) public payable {\r\n        //check for nonzero account\r\n        require(msg.sender != address(0), \"non-zero addresses only\");\r\n        // check if tokenId exists\r\n        require(_exists(_tokenId), \"this paw does not exist\");\r\n\r\n        //get token owner's address\r\n        address payable tokenOwner = payable(ownerOf(_tokenId));\r\n\r\n        //check if token owner is nonzero\r\n        require(tokenOwner != address(0), \"non-zero addresses only\");\r\n        //check that buyer is not token owner\r\n        require(tokenOwner != msg.sender, \"you can't buy your own token\");\r\n\r\n\r\n        //verify price sent is equal to or more than asking price\r\n        require(msg.value >= allPaws[_tokenId].price, \"please send the correct amount of eth\");\r\n        //verify paw is for sale\r\n        require(allPaws[_tokenId].forSale, \"this paw is not for sale\");\r\n\r\n        //transfer token ownership\r\n        _transfer(tokenOwner, msg.sender, _tokenId);\r\n\r\n        //send previous owner the payment\r\n        tokenOwner.transfer(msg.value);\r\n\r\n        //set new owner\r\n        allPaws[_tokenId].currentOwner = payable(msg.sender);\r\n        //increase transfer counter\r\n        allPaws[_tokenId].timesTransferred++;\r\n    }\r\n\r\n    function changeTokenPrice(uint256 _tokenId, uint256 _newPrice) public {\r\n        //require caller is not zero address\r\n        require(msg.sender != address(0), \"non-zero addresses only\");\r\n        //require token exists\r\n        require(_exists(_tokenId), \"token does not exist\");\r\n        \r\n        //get token owner\r\n        address tokenOwner = ownerOf(_tokenId);\r\n        //check sender is owner\r\n        require(tokenOwner == msg.sender, \"you cannot edit a token that is not yours\");\r\n\r\n        //update price\r\n        allPaws[_tokenId].price = _newPrice;\r\n    }\r\n\r\n    function toggleForSale(uint256 _tokenId) public {\r\n        //address 0 safeguard\r\n        require(msg.sender != address(0), \"non-zero addresses only\");\r\n        //require token exists\r\n        require(_exists(_tokenId), \"token does not exist\");\r\n\r\n        //get token owner\r\n        address tokenOwner = ownerOf(_tokenId);\r\n        //check that owner is sender\r\n        require(tokenOwner == msg.sender, \"you cannot edit a token that is not yours\");\r\n        \r\n        //toggle the sale state\r\n        if(allPaws[_tokenId].forSale) {\r\n            allPaws[_tokenId].forSale = false;\r\n        } else {\r\n            allPaws[_tokenId].forSale = true;\r\n        }\r\n    }\r\n\t\r\n\t// Same as mintPaw() but with zero cost, lasts 5 minutes; Make sure it aligns with App.js\r\n\t// So that people don't attempt to call a method that will fail.\r\n\tfunction presalePaw(string memory _name, string memory _creationStr, uint _price, string memory _tokenURI) external payable{\r\n        //make sure address exists and isnt a 0 address\r\n        require(msg.sender != address(0), \"Non-zero addresses only\");\r\n        //make sure the premint time is not over\r\n        require(block.timestamp <= startTime + 5 minutes, \"The Presale is over\"); // MAKE THE TIME IS CONNECT TO App.js --> checkIfPresaleActive()\r\n        //increment the collection counter\r\n        pawCounter++;\r\n        //pawCounter is the tokenid in this case\r\n        require(!_exists(pawCounter), \"collection counter not found\");\r\n        //checks that color combo does not already exist\r\n        require(!creationStrs[_creationStr], \"this paw print already exists\");\r\n        //checks that uri is new\r\n        require(!tokenURIExists[_tokenURI], \"the URI already exists\");\r\n\r\n        //mint time baby\r\n        _mint(msg.sender, pawCounter);\r\n        //set the URI for the token\r\n        _setTokenURI(pawCounter, _tokenURI);\r\n        \r\n        //add URI to URI list\r\n        tokenURIExists[_tokenURI] = true;\r\n        \r\n        \r\n        CryptoPaw memory newCryptoPaw = CryptoPaw(\r\n            pawCounter,\r\n            _name,\r\n            _creationStr,\r\n            _tokenURI,\r\n            payable(msg.sender),\r\n            payable(msg.sender),\r\n            _price,\r\n            0,\r\n            false);\r\n\r\n            allPaws[pawCounter] = newCryptoPaw;\r\n    }\r\n}",
  "sourcePath": "C:\\Users\\Admin\\Documents\\GitHub\\cryptoboys-nft-marketplace\\src\\contracts\\CryptoPaws.sol",
  "compiler": {
    "name": "solc",
    "version": "0.8.10+commit.fc410830.Emscripten.clang"
  },
  "schemaVersion": "3.4.3",
  "updatedAt": "2021-11-29T03:30:58.519Z",
  "networkType": "ethereum",
  "devdoc": {
    "kind": "dev",
    "methods": {
      "approve(address,uint256)": {
        "details": "See {IERC721-approve}."
      },
      "balanceOf(address)": {
        "details": "See {IERC721-balanceOf}."
      },
      "baseURI()": {
        "details": "Returns the base URI set via {_setBaseURI}. This will be automatically added as a prefix in {tokenURI} to each token's URI, or to the token ID if no specific URI is set for that token ID."
      },
      "getApproved(uint256)": {
        "details": "See {IERC721-getApproved}."
      },
      "isApprovedForAll(address,address)": {
        "details": "See {IERC721-isApprovedForAll}."
      },
      "name()": {
        "details": "See {IERC721Metadata-name}."
      },
      "ownerOf(uint256)": {
        "details": "See {IERC721-ownerOf}."
      },
      "safeTransferFrom(address,address,uint256)": {
        "details": "See {IERC721-safeTransferFrom}."
      },
      "safeTransferFrom(address,address,uint256,bytes)": {
        "details": "See {IERC721-safeTransferFrom}."
      },
      "setApprovalForAll(address,bool)": {
        "details": "See {IERC721-setApprovalForAll}."
      },
      "supportsInterface(bytes4)": {
        "details": "See {IERC165-supportsInterface}. Time complexity O(1), guaranteed to always use less than 30 000 gas."
      },
      "symbol()": {
        "details": "See {IERC721Metadata-symbol}."
      },
      "tokenByIndex(uint256)": {
        "details": "See {IERC721Enumerable-tokenByIndex}."
      },
      "tokenOfOwnerByIndex(address,uint256)": {
        "details": "See {IERC721Enumerable-tokenOfOwnerByIndex}."
      },
      "tokenURI(uint256)": {
        "details": "See {IERC721Metadata-tokenURI}."
      },
      "totalSupply()": {
        "details": "See {IERC721Enumerable-totalSupply}."
      },
      "transferFrom(address,address,uint256)": {
        "details": "See {IERC721-transferFrom}."
      }
    },
    "version": 1
  },
  "userdoc": {
    "kind": "user",
    "methods": {},
    "version": 1
  }
}