{
  "contractName": "CryptoPaws",
  "abi": [
    {
      "inputs": [],
      "stateMutability": "nonpayable",
      "type": "constructor"
    },
    {
      "anonymous": false,
      "inputs": [
        {
          "indexed": true,
          "internalType": "address",
          "name": "owner",
          "type": "address"
        },
        {
          "indexed": true,
          "internalType": "address",
          "name": "approved",
          "type": "address"
        },
        {
          "indexed": true,
          "internalType": "uint256",
          "name": "tokenId",
          "type": "uint256"
        }
      ],
      "name": "Approval",
      "type": "event"
    },
    {
      "anonymous": false,
      "inputs": [
        {
          "indexed": true,
          "internalType": "address",
          "name": "owner",
          "type": "address"
        },
        {
          "indexed": true,
          "internalType": "address",
          "name": "operator",
          "type": "address"
        },
        {
          "indexed": false,
          "internalType": "bool",
          "name": "approved",
          "type": "bool"
        }
      ],
      "name": "ApprovalForAll",
      "type": "event"
    },
    {
      "anonymous": false,
      "inputs": [
        {
          "indexed": true,
          "internalType": "address",
          "name": "from",
          "type": "address"
        },
        {
          "indexed": true,
          "internalType": "address",
          "name": "to",
          "type": "address"
        },
        {
          "indexed": true,
          "internalType": "uint256",
          "name": "tokenId",
          "type": "uint256"
        }
      ],
      "name": "Transfer",
      "type": "event"
    },
    {
      "inputs": [
        {
          "internalType": "uint256",
          "name": "",
          "type": "uint256"
        }
      ],
      "name": "allPaws",
      "outputs": [
        {
          "internalType": "uint256",
          "name": "tokenId",
          "type": "uint256"
        },
        {
          "internalType": "string",
          "name": "tokenName",
          "type": "string"
        },
        {
          "internalType": "string",
          "name": "creationStr",
          "type": "string"
        },
        {
          "internalType": "string",
          "name": "tokenURI",
          "type": "string"
        },
        {
          "internalType": "address payable",
          "name": "mintedBy",
          "type": "address"
        },
        {
          "internalType": "address payable",
          "name": "currentOwner",
          "type": "address"
        },
        {
          "internalType": "uint256",
          "name": "price",
          "type": "uint256"
        },
        {
          "internalType": "uint256",
          "name": "timesTransferred",
          "type": "uint256"
        },
        {
          "internalType": "bool",
          "name": "forSale",
          "type": "bool"
        }
      ],
      "stateMutability": "view",
      "type": "function"
    },
    {
      "inputs": [
        {
          "internalType": "address",
          "name": "to",
          "type": "address"
        },
        {
          "internalType": "uint256",
          "name": "tokenId",
          "type": "uint256"
        }
      ],
      "name": "approve",
      "outputs": [],
      "stateMutability": "nonpayable",
      "type": "function"
    },
    {
      "inputs": [
        {
          "internalType": "address",
          "name": "owner",
          "type": "address"
        }
      ],
      "name": "balanceOf",
      "outputs": [
        {
          "internalType": "uint256",
          "name": "",
          "type": "uint256"
        }
      ],
      "stateMutability": "view",
      "type": "function"
    },
    {
      "inputs": [],
      "name": "baseURI",
      "outputs": [
        {
          "internalType": "string",
          "name": "",
          "type": "string"
        }
      ],
      "stateMutability": "view",
      "type": "function"
    },
    {
      "inputs": [],
      "name": "collectionName",
      "outputs": [
        {
          "internalType": "string",
          "name": "",
          "type": "string"
        }
      ],
      "stateMutability": "view",
      "type": "function"
    },
    {
      "inputs": [],
      "name": "collectionNameSymbol",
      "outputs": [
        {
          "internalType": "string",
          "name": "",
          "type": "string"
        }
      ],
      "stateMutability": "view",
      "type": "function"
    },
    {
      "inputs": [
        {
          "internalType": "string",
          "name": "",
          "type": "string"
        }
      ],
      "name": "creationStrs",
      "outputs": [
        {
          "internalType": "bool",
          "name": "",
          "type": "bool"
        }
      ],
      "stateMutability": "view",
      "type": "function"
    },
    {
      "inputs": [
        {
          "internalType": "uint256",
          "name": "tokenId",
          "type": "uint256"
        }
      ],
      "name": "getApproved",
      "outputs": [
        {
          "internalType": "address",
          "name": "",
          "type": "address"
        }
      ],
      "stateMutability": "view",
      "type": "function"
    },
    {
      "inputs": [
        {
          "internalType": "address",
          "name": "owner",
          "type": "address"
        },
        {
          "internalType": "address",
          "name": "operator",
          "type": "address"
        }
      ],
      "name": "isApprovedForAll",
      "outputs": [
        {
          "internalType": "bool",
          "name": "",
          "type": "bool"
        }
      ],
      "stateMutability": "view",
      "type": "function"
    },
    {
      "inputs": [],
      "name": "mintPrice",
      "outputs": [
        {
          "internalType": "uint256",
          "name": "",
          "type": "uint256"
        }
      ],
      "stateMutability": "view",
      "type": "function"
    },
    {
      "inputs": [],
      "name": "name",
      "outputs": [
        {
          "internalType": "string",
          "name": "",
          "type": "string"
        }
      ],
      "stateMutability": "view",
      "type": "function"
    },
    {
      "inputs": [
        {
          "internalType": "string",
          "name": "",
          "type": "string"
        }
      ],
      "name": "nameExists",
      "outputs": [
        {
          "internalType": "bool",
          "name": "",
          "type": "bool"
        }
      ],
      "stateMutability": "view",
      "type": "function"
    },
    {
      "inputs": [
        {
          "internalType": "uint256",
          "name": "tokenId",
          "type": "uint256"
        }
      ],
      "name": "ownerOf",
      "outputs": [
        {
          "internalType": "address",
          "name": "",
          "type": "address"
        }
      ],
      "stateMutability": "view",
      "type": "function"
    },
    {
      "inputs": [],
      "name": "pawCounter",
      "outputs": [
        {
          "internalType": "uint256",
          "name": "",
          "type": "uint256"
        }
      ],
      "stateMutability": "view",
      "type": "function"
    },
    {
      "inputs": [
        {
          "internalType": "address",
          "name": "from",
          "type": "address"
        },
        {
          "internalType": "address",
          "name": "to",
          "type": "address"
        },
        {
          "internalType": "uint256",
          "name": "tokenId",
          "type": "uint256"
        }
      ],
      "name": "safeTransferFrom",
      "outputs": [],
      "stateMutability": "nonpayable",
      "type": "function"
    },
    {
      "inputs": [
        {
          "internalType": "address",
          "name": "from",
          "type": "address"
        },
        {
          "internalType": "address",
          "name": "to",
          "type": "address"
        },
        {
          "internalType": "uint256",
          "name": "tokenId",
          "type": "uint256"
        },
        {
          "internalType": "bytes",
          "name": "_data",
          "type": "bytes"
        }
      ],
      "name": "safeTransferFrom",
      "outputs": [],
      "stateMutability": "nonpayable",
      "type": "function"
    },
    {
      "inputs": [
        {
          "internalType": "address",
          "name": "operator",
          "type": "address"
        },
        {
          "internalType": "bool",
          "name": "approved",
          "type": "bool"
        }
      ],
      "name": "setApprovalForAll",
      "outputs": [],
      "stateMutability": "nonpayable",
      "type": "function"
    },
    {
      "inputs": [],
      "name": "startTime",
      "outputs": [
        {
          "internalType": "uint256",
          "name": "",
          "type": "uint256"
        }
      ],
      "stateMutability": "view",
      "type": "function"
    },
    {
      "inputs": [
        {
          "internalType": "bytes4",
          "name": "interfaceId",
          "type": "bytes4"
        }
      ],
      "name": "supportsInterface",
      "outputs": [
        {
          "internalType": "bool",
          "name": "",
          "type": "bool"
        }
      ],
      "stateMutability": "view",
      "type": "function"
    },
    {
      "inputs": [],
      "name": "symbol",
      "outputs": [
        {
          "internalType": "string",
          "name": "",
          "type": "string"
        }
      ],
      "stateMutability": "view",
      "type": "function"
    },
    {
      "inputs": [
        {
          "internalType": "uint256",
          "name": "index",
          "type": "uint256"
        }
      ],
      "name": "tokenByIndex",
      "outputs": [
        {
          "internalType": "uint256",
          "name": "",
          "type": "uint256"
        }
      ],
      "stateMutability": "view",
      "type": "function"
    },
    {
      "inputs": [
        {
          "internalType": "address",
          "name": "owner",
          "type": "address"
        },
        {
          "internalType": "uint256",
          "name": "index",
          "type": "uint256"
        }
      ],
      "name": "tokenOfOwnerByIndex",
      "outputs": [
        {
          "internalType": "uint256",
          "name": "",
          "type": "uint256"
        }
      ],
      "stateMutability": "view",
      "type": "function"
    },
    {
      "inputs": [
        {
          "internalType": "uint256",
          "name": "tokenId",
          "type": "uint256"
        }
      ],
      "name": "tokenURI",
      "outputs": [
        {
          "internalType": "string",
          "name": "",
          "type": "string"
        }
      ],
      "stateMutability": "view",
      "type": "function"
    },
    {
      "inputs": [
        {
          "internalType": "string",
          "name": "",
          "type": "string"
        }
      ],
      "name": "tokenURIExists",
      "outputs": [
        {
          "internalType": "bool",
          "name": "",
          "type": "bool"
        }
      ],
      "stateMutability": "view",
      "type": "function"
    },
    {
      "inputs": [],
      "name": "totalSupply",
      "outputs": [
        {
          "internalType": "uint256",
          "name": "",
          "type": "uint256"
        }
      ],
      "stateMutability": "view",
      "type": "function"
    },
    {
      "inputs": [
        {
          "internalType": "address",
          "name": "from",
          "type": "address"
        },
        {
          "internalType": "address",
          "name": "to",
          "type": "address"
        },
        {
          "internalType": "uint256",
          "name": "tokenId",
          "type": "uint256"
        }
      ],
      "name": "transferFrom",
      "outputs": [],
      "stateMutability": "nonpayable",
      "type": "function"
    },
    {
      "inputs": [
        {
          "internalType": "address",
          "name": "_lottofactoryaddress",
          "type": "address"
        }
      ],
      "name": "setFactoryAddress",
      "outputs": [],
      "stateMutability": "nonpayable",
      "type": "function"
    },
    {
      "inputs": [
        {
          "internalType": "uint256",
          "name": "_tokenId",
          "type": "uint256"
        },
        {
          "internalType": "address",
          "name": "_lotto",
          "type": "address"
        }
      ],
      "name": "lottoTransferTo",
      "outputs": [],
      "stateMutability": "nonpayable",
      "type": "function"
    },
    {
      "inputs": [
        {
          "internalType": "uint256",
          "name": "_tokenId",
          "type": "uint256"
        },
        {
          "internalType": "address",
          "name": "_lotto",
          "type": "address"
        },
        {
          "internalType": "address",
          "name": "_winner",
          "type": "address"
        }
      ],
      "name": "lottoTransferFrom",
      "outputs": [],
      "stateMutability": "nonpayable",
      "type": "function"
    },
    {
      "inputs": [
        {
          "internalType": "string",
          "name": "_name",
          "type": "string"
        },
        {
          "internalType": "string",
          "name": "_creationStr",
          "type": "string"
        },
        {
          "internalType": "uint256",
          "name": "_price",
          "type": "uint256"
        },
        {
          "internalType": "string",
          "name": "_tokenURI",
          "type": "string"
        }
      ],
      "name": "mintPaw",
      "outputs": [],
      "stateMutability": "payable",
      "type": "function"
    },
    {
      "inputs": [
        {
          "internalType": "uint256",
          "name": "_tokenId",
          "type": "uint256"
        }
      ],
      "name": "getTokenOwner",
      "outputs": [
        {
          "internalType": "address",
          "name": "",
          "type": "address"
        }
      ],
      "stateMutability": "view",
      "type": "function"
    },
    {
      "inputs": [
        {
          "internalType": "uint256",
          "name": "_tokenId",
          "type": "uint256"
        }
      ],
      "name": "getTokenImg",
      "outputs": [
        {
          "internalType": "string",
          "name": "",
          "type": "string"
        }
      ],
      "stateMutability": "view",
      "type": "function"
    },
    {
      "inputs": [],
      "name": "getTotalNumberMinted",
      "outputs": [
        {
          "internalType": "uint256",
          "name": "",
          "type": "uint256"
        }
      ],
      "stateMutability": "view",
      "type": "function"
    },
    {
      "inputs": [],
      "name": "getStartTime",
      "outputs": [
        {
          "internalType": "uint256",
          "name": "",
          "type": "uint256"
        }
      ],
      "stateMutability": "view",
      "type": "function"
    },
    {
      "inputs": [
        {
          "internalType": "address",
          "name": "_owner",
          "type": "address"
        }
      ],
      "name": "getTotalNumberOwnedByAddress",
      "outputs": [
        {
          "internalType": "uint256",
          "name": "",
          "type": "uint256"
        }
      ],
      "stateMutability": "view",
      "type": "function"
    },
    {
      "inputs": [
        {
          "internalType": "uint256",
          "name": "_tokenId",
          "type": "uint256"
        }
      ],
      "name": "getTokenExists",
      "outputs": [
        {
          "internalType": "bool",
          "name": "",
          "type": "bool"
        }
      ],
      "stateMutability": "view",
      "type": "function"
    },
    {
      "inputs": [
        {
          "internalType": "uint256",
          "name": "_tokenId",
          "type": "uint256"
        }
      ],
      "name": "buyToken",
      "outputs": [],
      "stateMutability": "payable",
      "type": "function"
    },
    {
      "inputs": [
        {
          "internalType": "uint256",
          "name": "_tokenId",
          "type": "uint256"
        },
        {
          "internalType": "uint256",
          "name": "_newPrice",
          "type": "uint256"
        }
      ],
      "name": "changeTokenPrice",
      "outputs": [],
      "stateMutability": "nonpayable",
      "type": "function"
    },
    {
      "inputs": [
        {
          "internalType": "uint256",
          "name": "_tokenId",
          "type": "uint256"
        }
      ],
      "name": "toggleForSale",
      "outputs": [],
      "stateMutability": "nonpayable",
      "type": "function"
    },
    {
      "inputs": [
        {
          "internalType": "string",
          "name": "_name",
          "type": "string"
        },
        {
          "internalType": "string",
          "name": "_creationStr",
          "type": "string"
        },
        {
          "internalType": "uint256",
          "name": "_price",
          "type": "uint256"
        },
        {
          "internalType": "string",
          "name": "_tokenURI",
          "type": "string"
        }
      ],
      "name": "presalePaw",
      "outputs": [],
      "stateMutability": "payable",
      "type": "function"
    }
  ],
  "bytecode": "0x6080604052660e35fa931a00006010553480156200001c57600080fd5b506040518060400160405280601e81526020017f4f726967696e616c2043727970746f5061777320436f6c6c656374696f6e00008152506040518060400160405280600381526020017f5041570000000000000000000000000000000000000000000000000000000000815250620000a16301ffc9a760e01b620001bb60201b60201c565b8160069080519060200190620000b9929190620003c7565b508060079080519060200190620000d2929190620003c7565b50620000eb6380ac58cd60e01b620001bb60201b60201c565b62000103635b5e139f60e01b620001bb60201b60201c565b6200011b63780e9d6360e01b620001bb60201b60201c565b50506200012d6200029360201b60201c565b600d908051906020019062000144929190620003c7565b50620001556200032d60201b60201c565b600e90805190602001906200016c929190620003c7565b5033600a60006101000a81548173ffffffffffffffffffffffffffffffffffffffff021916908373ffffffffffffffffffffffffffffffffffffffff16021790555042600c819055506200055f565b63ffffffff60e01b817bffffffffffffffffffffffffffffffffffffffffffffffffffffffff1916141562000227576040517f08c379a00000000000000000000000000000000000000000000000000000000081526004016200021e90620004d8565b60405180910390fd5b6001600080837bffffffffffffffffffffffffffffffffffffffffffffffffffffffff19167bffffffffffffffffffffffffffffffffffffffffffffffffffffffff1916815260200190815260200160002060006101000a81548160ff02191690831515021790555050565b606060068054620002a49062000529565b80601f0160208091040260200160405190810160405280929190818152602001828054620002d29062000529565b8015620003235780601f10620002f75761010080835404028352916020019162000323565b820191906000526020600020905b8154815290600101906020018083116200030557829003601f168201915b5050505050905090565b6060600780546200033e9062000529565b80601f01602080910402602001604051908101604052809291908181526020018280546200036c9062000529565b8015620003bd5780601f106200039157610100808354040283529160200191620003bd565b820191906000526020600020905b8154815290600101906020018083116200039f57829003601f168201915b5050505050905090565b828054620003d59062000529565b90600052602060002090601f016020900481019282620003f9576000855562000445565b82601f106200041457805160ff191683800117855562000445565b8280016001018555821562000445579182015b828111156200044457825182559160200191906001019062000427565b5b50905062000454919062000458565b5090565b5b808211156200047357600081600090555060010162000459565b5090565b600082825260208201905092915050565b7f4552433136353a20696e76616c696420696e7465726661636520696400000000600082015250565b6000620004c0601c8362000477565b9150620004cd8262000488565b602082019050919050565b60006020820190508181036000830152620004f381620004b1565b9050919050565b7f4e487b7100000000000000000000000000000000000000000000000000000000600052602260045260246000fd5b600060028204905060018216806200054257607f821691505b60208210811415620005595762000558620004fa565b5b50919050565b6158f1806200056f6000396000f3fe60806040526004361061023b5760003560e01c8063727278761161012e578063a5cd761f116100ab578063cc637afe1161006f578063cc637afe146108d2578063def720c21461090f578063e5326ab11461094c578063e676407a14610977578063e985e9c5146109a25761023b565b8063a5cd761f146107d9578063b88d4fde14610816578063bc9cd5df1461083f578063c828371e1461086a578063c87b56dd146108955761023b565b806392cf37c1116100f257806392cf37c11461070357806395d89b41146107405780639db9ccd01461076b578063a22cb46514610787578063a32018b9146107b05761023b565b8063727278761461060457806378e979251461064957806378ef836f146106745780637b3ba309146106b157806383c17c55146106da5761023b565b806342842e0e116101bc5780636352211e116101805780636352211e146105095780636817c76c146105465780636c0360eb146105715780636f9507f91461059c57806370a08231146105c75761023b565b806342842e0e1461042157806343d32ae71461044a5780634459040a146104875780634f6ccce7146104a357806362e8e8ac146104e05761023b565b806318160ddd1161020357806318160ddd1461034b57806323b872dd146103765780632d296bf11461039f5780632f745c59146103bb5780633c9eff9c146103f85761023b565b806301ffc9a71461024057806306fdde031461027d578063081812fc146102a8578063095ea7b3146102e5578063142687f31461030e575b600080fd5b34801561024c57600080fd5b5061026760048036038101906102629190613a5b565b6109df565b6040516102749190613aa3565b60405180910390f35b34801561028957600080fd5b50610292610a46565b60405161029f9190613b57565b60405180910390f35b3480156102b457600080fd5b506102cf60048036038101906102ca9190613baf565b610ad8565b6040516102dc9190613c1d565b60405180910390f35b3480156102f157600080fd5b5061030c60048036038101906103079190613c64565b610b5d565b005b34801561031a57600080fd5b5061033560048036038101906103309190613baf565b610c75565b6040516103429190613aa3565b60405180910390f35b34801561035757600080fd5b50610360610c8c565b60405161036d9190613cb3565b60405180910390f35b34801561038257600080fd5b5061039d60048036038101906103989190613cce565b610c9d565b005b6103b960048036038101906103b49190613baf565b610cfd565b005b3480156103c757600080fd5b506103e260048036038101906103dd9190613c64565b611034565b6040516103ef9190613cb3565b60405180910390f35b34801561040457600080fd5b5061041f600480360381019061041a9190613d21565b61108f565b005b34801561042d57600080fd5b5061044860048036038101906104439190613cce565b611184565b005b34801561045657600080fd5b50610471600480360381019061046c9190613e96565b6111a4565b60405161047e9190613aa3565b60405180910390f35b6104a1600480360381019061049c9190613edf565b6111da565b005b3480156104af57600080fd5b506104ca60048036038101906104c59190613baf565b6115d3565b6040516104d79190613cb3565b60405180910390f35b3480156104ec57600080fd5b5061050760048036038101906105029190613f9a565b6115f6565b005b34801561051557600080fd5b50610530600480360381019061052b9190613baf565b611749565b60405161053d9190613c1d565b60405180910390f35b34801561055257600080fd5b5061055b611780565b6040516105689190613cb3565b60405180910390f35b34801561057d57600080fd5b50610586611786565b6040516105939190613b57565b60405180910390f35b3480156105a857600080fd5b506105b1611818565b6040516105be9190613b57565b60405180910390f35b3480156105d357600080fd5b506105ee60048036038101906105e99190613fda565b6118a6565b6040516105fb9190613cb3565b60405180910390f35b34801561061057600080fd5b5061062b60048036038101906106269190613baf565b611965565b60405161064099989796959493929190614028565b60405180910390f35b34801561065557600080fd5b5061065e611b98565b60405161066b9190613cb3565b60405180910390f35b34801561068057600080fd5b5061069b60048036038101906106969190613fda565b611b9e565b6040516106a89190613cb3565b60405180910390f35b3480156106bd57600080fd5b506106d860048036038101906106d391906140ca565b611bb5565b005b3480156106e657600080fd5b5061070160048036038101906106fc9190613fda565b611ca5565b005b34801561070f57600080fd5b5061072a60048036038101906107259190613e96565b611d79565b6040516107379190613aa3565b60405180910390f35b34801561074c57600080fd5b50610755611daf565b6040516107629190613b57565b60405180910390f35b61078560048036038101906107809190613edf565b611e41565b005b34801561079357600080fd5b506107ae60048036038101906107a99190614149565b612247565b005b3480156107bc57600080fd5b506107d760048036038101906107d29190613baf565b6123c8565b005b3480156107e557600080fd5b5061080060048036038101906107fb9190613baf565b61258c565b60405161080d9190613c1d565b60405180910390f35b34801561082257600080fd5b5061083d6004803603810190610838919061422a565b6125a3565b005b34801561084b57600080fd5b50610854612605565b6040516108619190613cb3565b60405180910390f35b34801561087657600080fd5b5061087f612619565b60405161088c9190613cb3565b60405180910390f35b3480156108a157600080fd5b506108bc60048036038101906108b79190613baf565b612623565b6040516108c99190613b57565b60405180910390f35b3480156108de57600080fd5b506108f960048036038101906108f49190613e96565b612796565b6040516109069190613aa3565b60405180910390f35b34801561091b57600080fd5b5061093660048036038101906109319190613baf565b6127cc565b6040516109439190613b57565b60405180910390f35b34801561095857600080fd5b506109616127e4565b60405161096e9190613b57565b60405180910390f35b34801561098357600080fd5b5061098c612872565b6040516109999190613cb3565b60405180910390f35b3480156109ae57600080fd5b506109c960048036038101906109c491906142ad565b612878565b6040516109d69190613aa3565b60405180910390f35b6000806000837bffffffffffffffffffffffffffffffffffffffffffffffffffffffff19167bffffffffffffffffffffffffffffffffffffffffffffffffffffffff1916815260200190815260200160002060009054906101000a900460ff169050919050565b606060068054610a559061431c565b80601f0160208091040260200160405190810160405280929190818152602001828054610a819061431c565b8015610ace5780601f10610aa357610100808354040283529160200191610ace565b820191906000526020600020905b815481529060010190602001808311610ab157829003601f168201915b5050505050905090565b6000610ae38261290c565b610b22576040517f08c379a0000000000000000000000000000000000000000000000000000000008152600401610b19906143c0565b60405180910390fd5b6004600083815260200190815260200160002060009054906101000a900473ffffffffffffffffffffffffffffffffffffffff169050919050565b6000610b6882611749565b90508073ffffffffffffffffffffffffffffffffffffffff168373ffffffffffffffffffffffffffffffffffffffff161415610bd9576040517f08c379a0000000000000000000000000000000000000000000000000000000008152600401610bd090614452565b60405180910390fd5b8073ffffffffffffffffffffffffffffffffffffffff16610bf8612929565b73ffffffffffffffffffffffffffffffffffffffff161480610c275750610c2681610c21612929565b612878565b5b610c66576040517f08c379a0000000000000000000000000000000000000000000000000000000008152600401610c5d906144e4565b60405180910390fd5b610c708383612931565b505050565b600080610c818361290c565b905080915050919050565b6000610c9860026129ea565b905090565b610cae610ca8612929565b826129ff565b610ced576040517f08c379a0000000000000000000000000000000000000000000000000000000008152600401610ce490614576565b60405180910390fd5b610cf8838383612add565b505050565b600073ffffffffffffffffffffffffffffffffffffffff163373ffffffffffffffffffffffffffffffffffffffff161415610d6d576040517f08c379a0000000000000000000000000000000000000000000000000000000008152600401610d64906145e2565b60405180910390fd5b610d768161290c565b610db5576040517f08c379a0000000000000000000000000000000000000000000000000000000008152600401610dac9061464e565b60405180910390fd5b6000610dc082611749565b9050600073ffffffffffffffffffffffffffffffffffffffff168173ffffffffffffffffffffffffffffffffffffffff161415610e32576040517f08c379a0000000000000000000000000000000000000000000000000000000008152600401610e29906145e2565b60405180910390fd5b3373ffffffffffffffffffffffffffffffffffffffff168173ffffffffffffffffffffffffffffffffffffffff161415610ea1576040517f08c379a0000000000000000000000000000000000000000000000000000000008152600401610e98906146ba565b60405180910390fd5b6011600083815260200190815260200160002060060154341015610efa576040517f08c379a0000000000000000000000000000000000000000000000000000000008152600401610ef19061474c565b60405180910390fd5b6011600083815260200190815260200160002060080160009054906101000a900460ff16610f5d576040517f08c379a0000000000000000000000000000000000000000000000000000000008152600401610f54906147b8565b60405180910390fd5b610f68813384612add565b8073ffffffffffffffffffffffffffffffffffffffff166108fc349081150290604051600060405180830381858888f19350505050158015610fae573d6000803e3d6000fd5b50336011600084815260200190815260200160002060050160006101000a81548173ffffffffffffffffffffffffffffffffffffffff021916908373ffffffffffffffffffffffffffffffffffffffff16021790555060116000838152602001908152602001600020600701600081548092919061102b90614807565b91905055505050565b600061108782600160008673ffffffffffffffffffffffffffffffffffffffff1673ffffffffffffffffffffffffffffffffffffffff168152602001908152602001600020612cf490919063ffffffff16565b905092915050565b6110988261290c565b6110d7576040517f08c379a00000000000000000000000000000000000000000000000000000000081526004016110ce9061489c565b60405180910390fd5b600b60009054906101000a900473ffffffffffffffffffffffffffffffffffffffff1673ffffffffffffffffffffffffffffffffffffffff163373ffffffffffffffffffffffffffffffffffffffff1614611167576040517f08c379a000000000000000000000000000000000000000000000000000000000815260040161115e90614908565b60405180910390fd5b60006111728361258c565b905061117f818385612add565b505050565b61119f838383604051806020016040528060008152506125a3565b505050565b6014818051602081018201805184825260208301602085012081835280955050505050506000915054906101000a900460ff1681565b600073ffffffffffffffffffffffffffffffffffffffff163373ffffffffffffffffffffffffffffffffffffffff16141561124a576040517f08c379a000000000000000000000000000000000000000000000000000000000815260040161124190614974565b60405180910390fd5b60105434101561128f576040517f08c379a000000000000000000000000000000000000000000000000000000000815260040161128690614a06565b60405180910390fd5b600f60008154809291906112a290614807565b91905055506112b2600f5461290c565b156112f2576040517f08c379a00000000000000000000000000000000000000000000000000000000081526004016112e990614a72565b60405180910390fd5b6013836040516113029190614ace565b908152602001604051809103902060009054906101000a900460ff161561135e576040517f08c379a000000000000000000000000000000000000000000000000000000000815260040161135590614b31565b60405180910390fd5b60148160405161136e9190614ace565b908152602001604051809103902060009054906101000a900460ff16156113ca576040517f08c379a00000000000000000000000000000000000000000000000000000000081526004016113c190614b9d565b60405180910390fd5b6113d633600f54612d0e565b6113e2600f5482612e9c565b60016014826040516113f49190614ace565b908152602001604051809103902060006101000a81548160ff0219169083151502179055506000604051806101200160405280600f5481526020018681526020018581526020018381526020013373ffffffffffffffffffffffffffffffffffffffff1681526020013373ffffffffffffffffffffffffffffffffffffffff168152602001848152602001600081526020016000151581525090508060116000600f5481526020019081526020016000206000820151816000015560208201518160010190805190602001906114cb92919061394c565b5060408201518160020190805190602001906114e892919061394c565b50606082015181600301908051906020019061150592919061394c565b5060808201518160040160006101000a81548173ffffffffffffffffffffffffffffffffffffffff021916908373ffffffffffffffffffffffffffffffffffffffff16021790555060a08201518160050160006101000a81548173ffffffffffffffffffffffffffffffffffffffff021916908373ffffffffffffffffffffffffffffffffffffffff16021790555060c0820151816006015560e082015181600701556101008201518160080160006101000a81548160ff0219169083151502179055509050505050505050565b6000806115ea836002612f1090919063ffffffff16565b50905080915050919050565b600073ffffffffffffffffffffffffffffffffffffffff163373ffffffffffffffffffffffffffffffffffffffff161415611666576040517f08c379a000000000000000000000000000000000000000000000000000000000815260040161165d906145e2565b60405180910390fd5b61166f8261290c565b6116ae576040517f08c379a00000000000000000000000000000000000000000000000000000000081526004016116a590614c09565b60405180910390fd5b60006116b983611749565b90503373ffffffffffffffffffffffffffffffffffffffff168173ffffffffffffffffffffffffffffffffffffffff1614611729576040517f08c379a000000000000000000000000000000000000000000000000000000000815260040161172090614c9b565b60405180910390fd5b816011600085815260200190815260200160002060060181905550505050565b600061177982604051806060016040528060298152602001615893602991396002612f3c9092919063ffffffff16565b9050919050565b60105481565b6060600980546117959061431c565b80601f01602080910402602001604051908101604052809291908181526020018280546117c19061431c565b801561180e5780601f106117e35761010080835404028352916020019161180e565b820191906000526020600020905b8154815290600101906020018083116117f157829003601f168201915b5050505050905090565b600e80546118259061431c565b80601f01602080910402602001604051908101604052809291908181526020018280546118519061431c565b801561189e5780601f106118735761010080835404028352916020019161189e565b820191906000526020600020905b81548152906001019060200180831161188157829003601f168201915b505050505081565b60008073ffffffffffffffffffffffffffffffffffffffff168273ffffffffffffffffffffffffffffffffffffffff161415611917576040517f08c379a000000000000000000000000000000000000000000000000000000000815260040161190e90614d2d565b60405180910390fd5b61195e600160008473ffffffffffffffffffffffffffffffffffffffff1673ffffffffffffffffffffffffffffffffffffffff168152602001908152602001600020612f5b565b9050919050565b601160205280600052604060002060009150905080600001549080600101805461198e9061431c565b80601f01602080910402602001604051908101604052809291908181526020018280546119ba9061431c565b8015611a075780601f106119dc57610100808354040283529160200191611a07565b820191906000526020600020905b8154815290600101906020018083116119ea57829003601f168201915b505050505090806002018054611a1c9061431c565b80601f0160208091040260200160405190810160405280929190818152602001828054611a489061431c565b8015611a955780601f10611a6a57610100808354040283529160200191611a95565b820191906000526020600020905b815481529060010190602001808311611a7857829003601f168201915b505050505090806003018054611aaa9061431c565b80601f0160208091040260200160405190810160405280929190818152602001828054611ad69061431c565b8015611b235780601f10611af857610100808354040283529160200191611b23565b820191906000526020600020905b815481529060010190602001808311611b0657829003601f168201915b5050505050908060040160009054906101000a900473ffffffffffffffffffffffffffffffffffffffff16908060050160009054906101000a900473ffffffffffffffffffffffffffffffffffffffff16908060060154908060070154908060080160009054906101000a900460ff16905089565b600c5481565b600080611baa836118a6565b905080915050919050565b611bbe8361290c565b611bfd576040517f08c379a0000000000000000000000000000000000000000000000000000000008152600401611bf49061489c565b60405180910390fd5b600b60009054906101000a900473ffffffffffffffffffffffffffffffffffffffff1673ffffffffffffffffffffffffffffffffffffffff16611c3f8461258c565b73ffffffffffffffffffffffffffffffffffffffff1614611c95576040517f08c379a0000000000000000000000000000000000000000000000000000000008152600401611c8c90614d99565b60405180910390fd5b611ca0828285612add565b505050565b600a60009054906101000a900473ffffffffffffffffffffffffffffffffffffffff1673ffffffffffffffffffffffffffffffffffffffff163373ffffffffffffffffffffffffffffffffffffffff1614611d35576040517f08c379a0000000000000000000000000000000000000000000000000000000008152600401611d2c90614e05565b60405180910390fd5b80600b60006101000a81548173ffffffffffffffffffffffffffffffffffffffff021916908373ffffffffffffffffffffffffffffffffffffffff16021790555050565b6013818051602081018201805184825260208301602085012081835280955050505050506000915054906101000a900460ff1681565b606060078054611dbe9061431c565b80601f0160208091040260200160405190810160405280929190818152602001828054611dea9061431c565b8015611e375780601f10611e0c57610100808354040283529160200191611e37565b820191906000526020600020905b815481529060010190602001808311611e1a57829003601f168201915b5050505050905090565b600073ffffffffffffffffffffffffffffffffffffffff163373ffffffffffffffffffffffffffffffffffffffff161415611eb1576040517f08c379a0000000000000000000000000000000000000000000000000000000008152600401611ea890614974565b60405180910390fd5b61012c600c54611ec19190614e25565b421115611f03576040517f08c379a0000000000000000000000000000000000000000000000000000000008152600401611efa90614ec7565b60405180910390fd5b600f6000815480929190611f1690614807565b9190505550611f26600f5461290c565b15611f66576040517f08c379a0000000000000000000000000000000000000000000000000000000008152600401611f5d90614a72565b60405180910390fd5b601383604051611f769190614ace565b908152602001604051809103902060009054906101000a900460ff1615611fd2576040517f08c379a0000000000000000000000000000000000000000000000000000000008152600401611fc990614b31565b60405180910390fd5b601481604051611fe29190614ace565b908152602001604051809103902060009054906101000a900460ff161561203e576040517f08c379a000000000000000000000000000000000000000000000000000000000815260040161203590614b9d565b60405180910390fd5b61204a33600f54612d0e565b612056600f5482612e9c565b60016014826040516120689190614ace565b908152602001604051809103902060006101000a81548160ff0219169083151502179055506000604051806101200160405280600f5481526020018681526020018581526020018381526020013373ffffffffffffffffffffffffffffffffffffffff1681526020013373ffffffffffffffffffffffffffffffffffffffff168152602001848152602001600081526020016000151581525090508060116000600f54815260200190815260200160002060008201518160000155602082015181600101908051906020019061213f92919061394c565b50604082015181600201908051906020019061215c92919061394c565b50606082015181600301908051906020019061217992919061394c565b5060808201518160040160006101000a81548173ffffffffffffffffffffffffffffffffffffffff021916908373ffffffffffffffffffffffffffffffffffffffff16021790555060a08201518160050160006101000a81548173ffffffffffffffffffffffffffffffffffffffff021916908373ffffffffffffffffffffffffffffffffffffffff16021790555060c0820151816006015560e082015181600701556101008201518160080160006101000a81548160ff0219169083151502179055509050505050505050565b61224f612929565b73ffffffffffffffffffffffffffffffffffffffff168273ffffffffffffffffffffffffffffffffffffffff1614156122bd576040517f08c379a00000000000000000000000000000000000000000000000000000000081526004016122b490614f33565b60405180910390fd5b80600560006122ca612929565b73ffffffffffffffffffffffffffffffffffffffff1673ffffffffffffffffffffffffffffffffffffffff16815260200190815260200160002060008473ffffffffffffffffffffffffffffffffffffffff1673ffffffffffffffffffffffffffffffffffffffff16815260200190815260200160002060006101000a81548160ff0219169083151502179055508173ffffffffffffffffffffffffffffffffffffffff16612377612929565b73ffffffffffffffffffffffffffffffffffffffff167f17307eab39ab6107e8899845ad3d59bd9653f200f220920489ca2b5937696c31836040516123bc9190613aa3565b60405180910390a35050565b600073ffffffffffffffffffffffffffffffffffffffff163373ffffffffffffffffffffffffffffffffffffffff161415612438576040517f08c379a000000000000000000000000000000000000000000000000000000000815260040161242f906145e2565b60405180910390fd5b6124418161290c565b612480576040517f08c379a000000000000000000000000000000000000000000000000000000000815260040161247790614c09565b60405180910390fd5b600061248b82611749565b90503373ffffffffffffffffffffffffffffffffffffffff168173ffffffffffffffffffffffffffffffffffffffff16146124fb576040517f08c379a00000000000000000000000000000000000000000000000000000000081526004016124f290614c9b565b60405180910390fd5b6011600083815260200190815260200160002060080160009054906101000a900460ff16156125585760006011600084815260200190815260200160002060080160006101000a81548160ff021916908315150217905550612588565b60016011600084815260200190815260200160002060080160006101000a81548160ff0219169083151502179055505b5050565b60008061259883611749565b905080915050919050565b6125b46125ae612929565b836129ff565b6125f3576040517f08c379a00000000000000000000000000000000000000000000000000000000081526004016125ea90614576565b60405180910390fd5b6125ff84848484612f70565b50505050565b600080612610610c8c565b90508091505090565b6000600c54905090565b606061262e8261290c565b61266d576040517f08c379a000000000000000000000000000000000000000000000000000000000815260040161266490614fc5565b60405180910390fd5b600060086000848152602001908152602001600020805461268d9061431c565b80601f01602080910402602001604051908101604052809291908181526020018280546126b99061431c565b80156127065780601f106126db57610100808354040283529160200191612706565b820191906000526020600020905b8154815290600101906020018083116126e957829003601f168201915b505050505090506000612717611786565b905060008151141561272d578192505050612791565b60008251111561276257808260405160200161274a929190614fe5565b60405160208183030381529060405292505050612791565b8061276c85612fcc565b60405160200161277d929190614fe5565b604051602081830303815290604052925050505b919050565b6012818051602081018201805184825260208301602085012081835280955050505050506000915054906101000a900460ff1681565b606060006127d983612623565b905080915050919050565b600d80546127f19061431c565b80601f016020809104026020016040519081016040528092919081815260200182805461281d9061431c565b801561286a5780601f1061283f5761010080835404028352916020019161286a565b820191906000526020600020905b81548152906001019060200180831161284d57829003601f168201915b505050505081565b600f5481565b6000600560008473ffffffffffffffffffffffffffffffffffffffff1673ffffffffffffffffffffffffffffffffffffffff16815260200190815260200160002060008373ffffffffffffffffffffffffffffffffffffffff1673ffffffffffffffffffffffffffffffffffffffff16815260200190815260200160002060009054906101000a900460ff16905092915050565b600061292282600261313f90919063ffffffff16565b9050919050565b600033905090565b816004600083815260200190815260200160002060006101000a81548173ffffffffffffffffffffffffffffffffffffffff021916908373ffffffffffffffffffffffffffffffffffffffff160217905550808273ffffffffffffffffffffffffffffffffffffffff166129a483611749565b73ffffffffffffffffffffffffffffffffffffffff167f8c5be1e5ebec7d5bd14f71427d1e84f3dd0314c0f7b2291e5b200ac8c7c3b92560405160405180910390a45050565b60006129f882600001613159565b9050919050565b6000612a0a8261290c565b612a49576040517f08c379a0000000000000000000000000000000000000000000000000000000008152600401612a409061507b565b60405180910390fd5b6000612a5483611749565b90508073ffffffffffffffffffffffffffffffffffffffff168473ffffffffffffffffffffffffffffffffffffffff161480612ac357508373ffffffffffffffffffffffffffffffffffffffff16612aab84610ad8565b73ffffffffffffffffffffffffffffffffffffffff16145b80612ad45750612ad38185612878565b5b91505092915050565b8273ffffffffffffffffffffffffffffffffffffffff16612afd82611749565b73ffffffffffffffffffffffffffffffffffffffff1614612b53576040517f08c379a0000000000000000000000000000000000000000000000000000000008152600401612b4a9061510d565b60405180910390fd5b600073ffffffffffffffffffffffffffffffffffffffff168273ffffffffffffffffffffffffffffffffffffffff161415612bc3576040517f08c379a0000000000000000000000000000000000000000000000000000000008152600401612bba9061519f565b60405180910390fd5b612bce83838361316a565b612bd9600082612931565b612c2a81600160008673ffffffffffffffffffffffffffffffffffffffff1673ffffffffffffffffffffffffffffffffffffffff16815260200190815260200160002061316f90919063ffffffff16565b50612c7c81600160008573ffffffffffffffffffffffffffffffffffffffff1673ffffffffffffffffffffffffffffffffffffffff16815260200190815260200160002061318990919063ffffffff16565b50612c93818360026131a39092919063ffffffff16565b50808273ffffffffffffffffffffffffffffffffffffffff168473ffffffffffffffffffffffffffffffffffffffff167fddf252ad1be2c89b69c2b068fc378daa952ba7f163c4a11628f55a4df523b3ef60405160405180910390a4505050565b6000612d0383600001836131d8565b60001c905092915050565b600073ffffffffffffffffffffffffffffffffffffffff168273ffffffffffffffffffffffffffffffffffffffff161415612d7e576040517f08c379a0000000000000000000000000000000000000000000000000000000008152600401612d759061520b565b60405180910390fd5b612d878161290c565b15612dc7576040517f08c379a0000000000000000000000000000000000000000000000000000000008152600401612dbe90615277565b60405180910390fd5b612dd36000838361316a565b612e2481600160008573ffffffffffffffffffffffffffffffffffffffff1673ffffffffffffffffffffffffffffffffffffffff16815260200190815260200160002061318990919063ffffffff16565b50612e3b818360026131a39092919063ffffffff16565b50808273ffffffffffffffffffffffffffffffffffffffff16600073ffffffffffffffffffffffffffffffffffffffff167fddf252ad1be2c89b69c2b068fc378daa952ba7f163c4a11628f55a4df523b3ef60405160405180910390a45050565b612ea58261290c565b612ee4576040517f08c379a0000000000000000000000000000000000000000000000000000000008152600401612edb90615309565b60405180910390fd5b80600860008481526020019081526020016000209080519060200190612f0b92919061394c565b505050565b600080600080612f23866000018661324c565b915091508160001c8160001c9350935050509250929050565b6000612f4f846000018460001b846132d6565b60001c90509392505050565b6000612f6982600001613377565b9050919050565b612f7b848484612add565b612f8784848484613388565b612fc6576040517f08c379a0000000000000000000000000000000000000000000000000000000008152600401612fbd9061539b565b60405180910390fd5b50505050565b60606000821415613014576040518060400160405280600181526020017f3000000000000000000000000000000000000000000000000000000000000000815250905061313a565b600082905060005b6000821461304657808061302f90614807565b915050600a8261303f91906153ea565b915061301c565b60008167ffffffffffffffff81111561306257613061613d6b565b5b6040519080825280601f01601f1916602001820160405280156130945781602001600182028036833780820191505090505b50905060006001836130a6919061541b565b90508593505b6000841461313257600a846130c1919061544f565b60306130cd9190614e25565b60f81b8282806130dc90615480565b9350815181106130ef576130ee6154aa565b5b60200101907effffffffffffffffffffffffffffffffffffffffffffffffffffffffffffff1916908160001a905350600a8461312b91906153ea565b93506130ac565b819450505050505b919050565b6000613151836000018360001b6134ec565b905092915050565b600081600001805490509050919050565b505050565b6000613181836000018360001b61350f565b905092915050565b600061319b836000018360001b613627565b905092915050565b60006131cf846000018460001b8473ffffffffffffffffffffffffffffffffffffffff1660001b613697565b90509392505050565b600081836000018054905011613223576040517f08c379a000000000000000000000000000000000000000000000000000000000815260040161321a9061554b565b60405180910390fd5b826000018281548110613239576132386154aa565b5b9060005260206000200154905092915050565b60008082846000018054905011613298576040517f08c379a000000000000000000000000000000000000000000000000000000000815260040161328f906155dd565b60405180910390fd5b60008460000184815481106132b0576132af6154aa565b5b906000526020600020906002020190508060000154816001015492509250509250929050565b60008084600101600085815260200190815260200160002054905060008114158390613338576040517f08c379a000000000000000000000000000000000000000000000000000000000815260040161332f9190613b57565b60405180910390fd5b508460000160018261334a919061541b565b8154811061335b5761335a6154aa565b5b9060005260206000209060020201600101549150509392505050565b600081600001805490509050919050565b60006133a98473ffffffffffffffffffffffffffffffffffffffff16613783565b6133b657600190506134e4565b600061347d63150b7a0260e01b6133cb612929565b8887876040516024016133e19493929190615652565b604051602081830303815290604052907bffffffffffffffffffffffffffffffffffffffffffffffffffffffff19166020820180517bffffffffffffffffffffffffffffffffffffffffffffffffffffffff8381831617835250505050604051806060016040528060328152602001615861603291398773ffffffffffffffffffffffffffffffffffffffff166137969092919063ffffffff16565b905060008180602001905181019061349591906156b3565b905063150b7a0260e01b7bffffffffffffffffffffffffffffffffffffffffffffffffffffffff1916817bffffffffffffffffffffffffffffffffffffffffffffffffffffffff191614925050505b949350505050565b600080836001016000848152602001908152602001600020541415905092915050565b6000808360010160008481526020019081526020016000205490506000811461361b576000600182613541919061541b565b9050600060018660000180549050613559919061541b565b90506000866000018281548110613573576135726154aa565b5b9060005260206000200154905080876000018481548110613597576135966154aa565b5b90600052602060002001819055506001836135b29190614e25565b87600101600083815260200190815260200160002081905550866000018054806135df576135de6156e0565b5b60019003818190600052602060002001600090559055866001016000878152602001908152602001600020600090556001945050505050613621565b60009150505b92915050565b600061363383836137ae565b61368c578260000182908060018154018082558091505060019003906000526020600020016000909190919091505582600001805490508360010160008481526020019081526020016000208190555060019050613691565b600090505b92915050565b600080846001016000858152602001908152602001600020549050600081141561373e5784600001604051806040016040528086815260200185815250908060018154018082558091505060019003906000526020600020906002020160009091909190915060008201518160000155602082015181600101555050846000018054905085600101600086815260200190815260200160002081905550600191505061377c565b8285600001600183613750919061541b565b81548110613761576137606154aa565b5b90600052602060002090600202016001018190555060009150505b9392505050565b600080823b905060008111915050919050565b60606137a584846000856137d1565b90509392505050565b600080836001016000848152602001908152602001600020541415905092915050565b606082471015613816576040517f08c379a000000000000000000000000000000000000000000000000000000000815260040161380d90615781565b60405180910390fd5b61381f85613783565b61385e576040517f08c379a0000000000000000000000000000000000000000000000000000000008152600401613855906157ed565b60405180910390fd5b6000808673ffffffffffffffffffffffffffffffffffffffff1685876040516138879190615849565b60006040518083038185875af1925050503d80600081146138c4576040519150601f19603f3d011682016040523d82523d6000602084013e6138c9565b606091505b50915091506138d98282866138e5565b92505050949350505050565b606083156138f557829050613945565b6000835111156139085782518084602001fd5b816040517f08c379a000000000000000000000000000000000000000000000000000000000815260040161393c9190613b57565b60405180910390fd5b9392505050565b8280546139589061431c565b90600052602060002090601f01602090048101928261397a57600085556139c1565b82601f1061399357805160ff19168380011785556139c1565b828001600101855582156139c1579182015b828111156139c05782518255916020019190600101906139a5565b5b5090506139ce91906139d2565b5090565b5b808211156139eb5760008160009055506001016139d3565b5090565b6000604051905090565b600080fd5b600080fd5b60007fffffffff0000000000000000000000000000000000000000000000000000000082169050919050565b613a3881613a03565b8114613a4357600080fd5b50565b600081359050613a5581613a2f565b92915050565b600060208284031215613a7157613a706139f9565b5b6000613a7f84828501613a46565b91505092915050565b60008115159050919050565b613a9d81613a88565b82525050565b6000602082019050613ab86000830184613a94565b92915050565b600081519050919050565b600082825260208201905092915050565b60005b83811015613af8578082015181840152602081019050613add565b83811115613b07576000848401525b50505050565b6000601f19601f8301169050919050565b6000613b2982613abe565b613b338185613ac9565b9350613b43818560208601613ada565b613b4c81613b0d565b840191505092915050565b60006020820190508181036000830152613b718184613b1e565b905092915050565b6000819050919050565b613b8c81613b79565b8114613b9757600080fd5b50565b600081359050613ba981613b83565b92915050565b600060208284031215613bc557613bc46139f9565b5b6000613bd384828501613b9a565b91505092915050565b600073ffffffffffffffffffffffffffffffffffffffff82169050919050565b6000613c0782613bdc565b9050919050565b613c1781613bfc565b82525050565b6000602082019050613c326000830184613c0e565b92915050565b613c4181613bfc565b8114613c4c57600080fd5b50565b600081359050613c5e81613c38565b92915050565b60008060408385031215613c7b57613c7a6139f9565b5b6000613c8985828601613c4f565b9250506020613c9a85828601613b9a565b9150509250929050565b613cad81613b79565b82525050565b6000602082019050613cc86000830184613ca4565b92915050565b600080600060608486031215613ce757613ce66139f9565b5b6000613cf586828701613c4f565b9350506020613d0686828701613c4f565b9250506040613d1786828701613b9a565b9150509250925092565b60008060408385031215613d3857613d376139f9565b5b6000613d4685828601613b9a565b9250506020613d5785828601613c4f565b9150509250929050565b600080fd5b600080fd5b7f4e487b7100000000000000000000000000000000000000000000000000000000600052604160045260246000fd5b613da382613b0d565b810181811067ffffffffffffffff82111715613dc257613dc1613d6b565b5b80604052505050565b6000613dd56139ef565b9050613de18282613d9a565b919050565b600067ffffffffffffffff821115613e0157613e00613d6b565b5b613e0a82613b0d565b9050602081019050919050565b82818337600083830152505050565b6000613e39613e3484613de6565b613dcb565b905082815260208101848484011115613e5557613e54613d66565b5b613e60848285613e17565b509392505050565b600082601f830112613e7d57613e7c613d61565b5b8135613e8d848260208601613e26565b91505092915050565b600060208284031215613eac57613eab6139f9565b5b600082013567ffffffffffffffff811115613eca57613ec96139fe565b5b613ed684828501613e68565b91505092915050565b60008060008060808587031215613ef957613ef86139f9565b5b600085013567ffffffffffffffff811115613f1757613f166139fe565b5b613f2387828801613e68565b945050602085013567ffffffffffffffff811115613f4457613f436139fe565b5b613f5087828801613e68565b9350506040613f6187828801613b9a565b925050606085013567ffffffffffffffff811115613f8257613f816139fe565b5b613f8e87828801613e68565b91505092959194509250565b60008060408385031215613fb157613fb06139f9565b5b6000613fbf85828601613b9a565b9250506020613fd085828601613b9a565b9150509250929050565b600060208284031215613ff057613fef6139f9565b5b6000613ffe84828501613c4f565b91505092915050565b600061401282613bdc565b9050919050565b61402281614007565b82525050565b60006101208201905061403e600083018c613ca4565b8181036020830152614050818b613b1e565b90508181036040830152614064818a613b1e565b905081810360608301526140788189613b1e565b90506140876080830188614019565b61409460a0830187614019565b6140a160c0830186613ca4565b6140ae60e0830185613ca4565b6140bc610100830184613a94565b9a9950505050505050505050565b6000806000606084860312156140e3576140e26139f9565b5b60006140f186828701613b9a565b935050602061410286828701613c4f565b925050604061411386828701613c4f565b9150509250925092565b61412681613a88565b811461413157600080fd5b50565b6000813590506141438161411d565b92915050565b600080604083850312156141605761415f6139f9565b5b600061416e85828601613c4f565b925050602061417f85828601614134565b9150509250929050565b600067ffffffffffffffff8211156141a4576141a3613d6b565b5b6141ad82613b0d565b9050602081019050919050565b60006141cd6141c884614189565b613dcb565b9050828152602081018484840111156141e9576141e8613d66565b5b6141f4848285613e17565b509392505050565b600082601f83011261421157614210613d61565b5b81356142218482602086016141ba565b91505092915050565b60008060008060808587031215614244576142436139f9565b5b600061425287828801613c4f565b945050602061426387828801613c4f565b935050604061427487828801613b9a565b925050606085013567ffffffffffffffff811115614295576142946139fe565b5b6142a1878288016141fc565b91505092959194509250565b600080604083850312156142c4576142c36139f9565b5b60006142d285828601613c4f565b92505060206142e385828601613c4f565b9150509250929050565b7f4e487b7100000000000000000000000000000000000000000000000000000000600052602260045260246000fd5b6000600282049050600182168061433457607f821691505b60208210811415614348576143476142ed565b5b50919050565b7f4552433732313a20617070726f76656420717565727920666f72206e6f6e657860008201527f697374656e7420746f6b656e0000000000000000000000000000000000000000602082015250565b60006143aa602c83613ac9565b91506143b58261434e565b604082019050919050565b600060208201905081810360008301526143d98161439d565b9050919050565b7f4552433732313a20617070726f76616c20746f2063757272656e74206f776e6560008201527f7200000000000000000000000000000000000000000000000000000000000000602082015250565b600061443c602183613ac9565b9150614447826143e0565b604082019050919050565b6000602082019050818103600083015261446b8161442f565b9050919050565b7f4552433732313a20617070726f76652063616c6c6572206973206e6f74206f7760008201527f6e6572206e6f7220617070726f76656420666f7220616c6c0000000000000000602082015250565b60006144ce603883613ac9565b91506144d982614472565b604082019050919050565b600060208201905081810360008301526144fd816144c1565b9050919050565b7f4552433732313a207472616e736665722063616c6c6572206973206e6f74206f60008201527f776e6572206e6f7220617070726f766564000000000000000000000000000000602082015250565b6000614560603183613ac9565b915061456b82614504565b604082019050919050565b6000602082019050818103600083015261458f81614553565b9050919050565b7f6e6f6e2d7a65726f20616464726573736573206f6e6c79000000000000000000600082015250565b60006145cc601783613ac9565b91506145d782614596565b602082019050919050565b600060208201905081810360008301526145fb816145bf565b9050919050565b7f746869732070617720646f6573206e6f74206578697374000000000000000000600082015250565b6000614638601783613ac9565b915061464382614602565b602082019050919050565b600060208201905081810360008301526146678161462b565b9050919050565b7f796f752063616e27742062757920796f7572206f776e20746f6b656e00000000600082015250565b60006146a4601c83613ac9565b91506146af8261466e565b602082019050919050565b600060208201905081810360008301526146d381614697565b9050919050565b7f706c656173652073656e642074686520636f727265637420616d6f756e74206f60008201527f6620657468000000000000000000000000000000000000000000000000000000602082015250565b6000614736602583613ac9565b9150614741826146da565b604082019050919050565b6000602082019050818103600083015261476581614729565b9050919050565b7f7468697320706177206973206e6f7420666f722073616c650000000000000000600082015250565b60006147a2601883613ac9565b91506147ad8261476c565b602082019050919050565b600060208201905081810360008301526147d181614795565b9050919050565b7f4e487b7100000000000000000000000000000000000000000000000000000000600052601160045260246000fd5b600061481282613b79565b91507fffffffffffffffffffffffffffffffffffffffffffffffffffffffffffffffff821415614845576148446147d8565b5b600182019050919050565b7f546f6b656e20646f6573206e6f74206578697374000000000000000000000000600082015250565b6000614886601483613ac9565b915061489182614850565b602082019050919050565b600060208201905081810360008301526148b581614879565b9050919050565b7f596f752063616e277420646f2074686174000000000000000000000000000000600082015250565b60006148f2601183613ac9565b91506148fd826148bc565b602082019050919050565b60006020820190508181036000830152614921816148e5565b9050919050565b7f4e6f6e2d7a65726f20616464726573736573206f6e6c79000000000000000000600082015250565b600061495e601783613ac9565b915061496982614928565b602082019050919050565b6000602082019050818103600083015261498d81614951565b9050919050565b7f596f75206d75737420706179207468652061637475616c206d696e742070726960008201527f6365000000000000000000000000000000000000000000000000000000000000602082015250565b60006149f0602283613ac9565b91506149fb82614994565b604082019050919050565b60006020820190508181036000830152614a1f816149e3565b9050919050565b7f636f6c6c656374696f6e20636f756e746572206e6f7420666f756e6400000000600082015250565b6000614a5c601c83613ac9565b9150614a6782614a26565b602082019050919050565b60006020820190508181036000830152614a8b81614a4f565b9050919050565b600081905092915050565b6000614aa882613abe565b614ab28185614a92565b9350614ac2818560208601613ada565b80840191505092915050565b6000614ada8284614a9d565b915081905092915050565b7f7468697320706177207072696e7420616c726561647920657869737473000000600082015250565b6000614b1b601d83613ac9565b9150614b2682614ae5565b602082019050919050565b60006020820190508181036000830152614b4a81614b0e565b9050919050565b7f7468652055524920616c72656164792065786973747300000000000000000000600082015250565b6000614b87601683613ac9565b9150614b9282614b51565b602082019050919050565b60006020820190508181036000830152614bb681614b7a565b9050919050565b7f746f6b656e20646f6573206e6f74206578697374000000000000000000000000600082015250565b6000614bf3601483613ac9565b9150614bfe82614bbd565b602082019050919050565b60006020820190508181036000830152614c2281614be6565b9050919050565b7f796f752063616e6e6f742065646974206120746f6b656e20746861742069732060008201527f6e6f7420796f7572730000000000000000000000000000000000000000000000602082015250565b6000614c85602983613ac9565b9150614c9082614c29565b604082019050919050565b60006020820190508181036000830152614cb481614c78565b9050919050565b7f4552433732313a2062616c616e636520717565727920666f7220746865207a6560008201527f726f206164647265737300000000000000000000000000000000000000000000602082015250565b6000614d17602a83613ac9565b9150614d2282614cbb565b604082019050919050565b60006020820190508181036000830152614d4681614d0a565b9050919050565b7f546f6b656e206e6f742063757272656e746c7920666f72206c6f747465727900600082015250565b6000614d83601f83613ac9565b9150614d8e82614d4d565b602082019050919050565b60006020820190508181036000830152614db281614d76565b9050919050565b7f4e6f74206f776e65720000000000000000000000000000000000000000000000600082015250565b6000614def600983613ac9565b9150614dfa82614db9565b602082019050919050565b60006020820190508181036000830152614e1e81614de2565b9050919050565b6000614e3082613b79565b9150614e3b83613b79565b9250827fffffffffffffffffffffffffffffffffffffffffffffffffffffffffffffffff03821115614e7057614e6f6147d8565b5b828201905092915050565b7f5468652050726573616c65206973206f76657200000000000000000000000000600082015250565b6000614eb1601383613ac9565b9150614ebc82614e7b565b602082019050919050565b60006020820190508181036000830152614ee081614ea4565b9050919050565b7f4552433732313a20617070726f766520746f2063616c6c657200000000000000600082015250565b6000614f1d601983613ac9565b9150614f2882614ee7565b602082019050919050565b60006020820190508181036000830152614f4c81614f10565b9050919050565b7f4552433732314d657461646174613a2055524920717565727920666f72206e6f60008201527f6e6578697374656e7420746f6b656e0000000000000000000000000000000000602082015250565b6000614faf602f83613ac9565b9150614fba82614f53565b604082019050919050565b60006020820190508181036000830152614fde81614fa2565b9050919050565b6000614ff18285614a9d565b9150614ffd8284614a9d565b91508190509392505050565b7f4552433732313a206f70657261746f7220717565727920666f72206e6f6e657860008201527f697374656e7420746f6b656e0000000000000000000000000000000000000000602082015250565b6000615065602c83613ac9565b915061507082615009565b604082019050919050565b6000602082019050818103600083015261509481615058565b9050919050565b7f4552433732313a207472616e73666572206f6620746f6b656e2074686174206960008201527f73206e6f74206f776e0000000000000000000000000000000000000000000000602082015250565b60006150f7602983613ac9565b91506151028261509b565b604082019050919050565b60006020820190508181036000830152615126816150ea565b9050919050565b7f4552433732313a207472616e7366657220746f20746865207a65726f2061646460008201527f7265737300000000000000000000000000000000000000000000000000000000602082015250565b6000615189602483613ac9565b91506151948261512d565b604082019050919050565b600060208201905081810360008301526151b88161517c565b9050919050565b7f4552433732313a206d696e7420746f20746865207a65726f2061646472657373600082015250565b60006151f5602083613ac9565b9150615200826151bf565b602082019050919050565b60006020820190508181036000830152615224816151e8565b9050919050565b7f4552433732313a20746f6b656e20616c7265616479206d696e74656400000000600082015250565b6000615261601c83613ac9565b915061526c8261522b565b602082019050919050565b6000602082019050818103600083015261529081615254565b9050919050565b7f4552433732314d657461646174613a2055524920736574206f66206e6f6e657860008201527f697374656e7420746f6b656e0000000000000000000000000000000000000000602082015250565b60006152f3602c83613ac9565b91506152fe82615297565b604082019050919050565b60006020820190508181036000830152615322816152e6565b9050919050565b7f4552433732313a207472616e7366657220746f206e6f6e20455243373231526560008201527f63656976657220696d706c656d656e7465720000000000000000000000000000602082015250565b6000615385603283613ac9565b915061539082615329565b604082019050919050565b600060208201905081810360008301526153b481615378565b9050919050565b7f4e487b7100000000000000000000000000000000000000000000000000000000600052601260045260246000fd5b60006153f582613b79565b915061540083613b79565b9250826154105761540f6153bb565b5b828204905092915050565b600061542682613b79565b915061543183613b79565b925082821015615444576154436147d8565b5b828203905092915050565b600061545a82613b79565b915061546583613b79565b925082615475576154746153bb565b5b828206905092915050565b600061548b82613b79565b9150600082141561549f5761549e6147d8565b5b600182039050919050565b7f4e487b7100000000000000000000000000000000000000000000000000000000600052603260045260246000fd5b7f456e756d657261626c655365743a20696e646578206f7574206f6620626f756e60008201527f6473000000000000000000000000000000000000000000000000000000000000602082015250565b6000615535602283613ac9565b9150615540826154d9565b604082019050919050565b6000602082019050818103600083015261556481615528565b9050919050565b7f456e756d657261626c654d61703a20696e646578206f7574206f6620626f756e60008201527f6473000000000000000000000000000000000000000000000000000000000000602082015250565b60006155c7602283613ac9565b91506155d28261556b565b604082019050919050565b600060208201905081810360008301526155f6816155ba565b9050919050565b600081519050919050565b600082825260208201905092915050565b6000615624826155fd565b61562e8185615608565b935061563e818560208601613ada565b61564781613b0d565b840191505092915050565b60006080820190506156676000830187614019565b6156746020830186613c0e565b6156816040830185613ca4565b81810360608301526156938184615619565b905095945050505050565b6000815190506156ad81613a2f565b92915050565b6000602082840312156156c9576156c86139f9565b5b60006156d78482850161569e565b91505092915050565b7f4e487b7100000000000000000000000000000000000000000000000000000000600052603160045260246000fd5b7f416464726573733a20696e73756666696369656e742062616c616e636520666f60008201527f722063616c6c0000000000000000000000000000000000000000000000000000602082015250565b600061576b602683613ac9565b91506157768261570f565b604082019050919050565b6000602082019050818103600083015261579a8161575e565b9050919050565b7f416464726573733a2063616c6c20746f206e6f6e2d636f6e7472616374000000600082015250565b60006157d7601d83613ac9565b91506157e2826157a1565b602082019050919050565b60006020820190508181036000830152615806816157ca565b9050919050565b600081905092915050565b6000615823826155fd565b61582d818561580d565b935061583d818560208601613ada565b80840191505092915050565b60006158558284615818565b91508190509291505056fe4552433732313a207472616e7366657220746f206e6f6e20455243373231526563656976657220696d706c656d656e7465724552433732313a206f776e657220717565727920666f72206e6f6e6578697374656e7420746f6b656ea2646970667358221220ddd907a1894828d447856c192c39661c93f1ec4ab9bb9a92f3f1781d721f15e764736f6c634300080a0033",
  "immutableReferences": {},
  "source": "//SPDX-License-Identifier: MIT\r\npragma solidity  >=0.8.0;\r\npragma abicoder v2;\r\n\r\nimport \"./ERC721.sol\";\r\n\r\ncontract CryptoPaws is ERC721 {\r\n\taddress private owner;\r\n    address private lotteryfactory;\r\n\tuint public startTime;\r\n\t\r\n    // name of paw collection for contract\r\n    string public collectionName;\r\n    // symbol for paw tokens\r\n    string public collectionNameSymbol;\r\n    // total number of paws\r\n    uint256 public pawCounter;\r\n\r\n    //set a default mint price\r\n    uint256 public mintPrice = 4000000000000000 wei;\r\n\r\n    // define paw struct\r\n    struct CryptoPaw {\r\n        //unique tokenid\r\n        uint256 tokenId;\r\n\r\n        string tokenName;\r\n        //string that specifies unique color combination\r\n        string creationStr;\r\n        //string that holds URI that points to image file on ipfs\r\n        string tokenURI;\r\n        //address of the account that minted the token\r\n        address payable mintedBy;\r\n        //address of current token owner\r\n        address payable currentOwner;\r\n        //set price of token\r\n        uint256 price;\r\n        //tracks number of times token changed ownership\r\n        uint256 timesTransferred;\r\n        bool forSale;\r\n    }\r\n    \r\n\t// map tokenId to a Paw\r\n    mapping(uint256 => CryptoPaw) public allPaws;\r\n\r\n    mapping(string => bool) public nameExists;\r\n    // check if a selector number already exists\r\n    mapping(string => bool) public creationStrs;\r\n    // check if a URI exists\r\n    mapping(string => bool) public tokenURIExists;\r\n\r\n    // constructor that creates the ERC721\r\n    constructor() ERC721(\"Original CryptoPaws Collection\",\"PAW\") {\r\n        collectionName = name();\r\n        collectionNameSymbol = symbol();\r\n\t\towner = msg.sender;\r\n\t\tstartTime = block.timestamp;\r\n    }\r\n\r\n\tmodifier onlyOwner() {\r\n        require(msg.sender == owner, \"Not owner\");\r\n        _;\r\n    }\r\n\r\n    function setFactoryAddress(address _lottofactoryaddress) external onlyOwner{\r\n        lotteryfactory = _lottofactoryaddress;\r\n    }\r\n\r\n    function lottoTransferTo(uint256 _tokenId, address _lotto) external {\r\n        require(_exists(_tokenId), \"Token does not exist\");\r\n        require(msg.sender == lotteryfactory, \"You can't do that\");\r\n        address tOwner = getTokenOwner(_tokenId);\r\n        _transfer(tOwner, _lotto, _tokenId);\r\n    }\r\n\r\n    function lottoTransferFrom(uint256 _tokenId, address _lotto, address _winner) external {\r\n        require(_exists(_tokenId), \"Token does not exist\");\r\n        require(getTokenOwner(_tokenId) == lotteryfactory, \"Token not currently for lottery\");\r\n        _transfer(_lotto, _winner, _tokenId);\r\n    }\r\n\r\n    // minting function for new PAW\r\n    function mintPaw(string memory _name, string memory _creationStr, uint _price, string memory _tokenURI) external payable{\r\n        //make sure address exists and isnt a 0 address\r\n        require(msg.sender != address(0), \"Non-zero addresses only\");\r\n        //make sure the mint price is paid\r\n        require(msg.value >= mintPrice, \"You must pay the actual mint price\");\r\n        //increment the collection counter\r\n        pawCounter++;\r\n        //pawCounter is the tokenid in this case\r\n        require(!_exists(pawCounter), \"collection counter not found\");\r\n        //checks that color combo does not already exist\r\n        require(!creationStrs[_creationStr], \"this paw print already exists\");\r\n        //checks that uri is new\r\n        require(!tokenURIExists[_tokenURI], \"the URI already exists\");\r\n\r\n        //mint time baby\r\n        _mint(msg.sender, pawCounter);\r\n        //set the URI for the token\r\n        _setTokenURI(pawCounter, _tokenURI);\r\n        \r\n        //add URI to URI list\r\n        tokenURIExists[_tokenURI] = true;\r\n        \r\n        \r\n        CryptoPaw memory newCryptoPaw = CryptoPaw(\r\n            pawCounter,\r\n            _name,\r\n            _creationStr,\r\n            _tokenURI,\r\n            payable(msg.sender),\r\n            payable(msg.sender),\r\n            _price,\r\n            0,\r\n            false);\r\n\r\n            allPaws[pawCounter] = newCryptoPaw;\r\n    }\r\n\r\n    //get the owner of a token\r\n    function getTokenOwner(uint256 _tokenId) public view returns(address) {\r\n        address tokenOwner = ownerOf(_tokenId);\r\n        return tokenOwner;\r\n    }\r\n\r\n    //get token image\r\n    function getTokenImg(uint256 _tokenId) public view returns(string memory) {\r\n        string memory tokenImg = tokenURI(_tokenId);\r\n        return tokenImg;\r\n    }\r\n\r\n    //get total number of tokens\r\n    function getTotalNumberMinted() public view returns(uint256) {\r\n        uint256 totalNumberOfTokensMinted = totalSupply();\r\n        return totalNumberOfTokensMinted;\r\n    }\r\n\t\r\n\tfunction getStartTime() public view returns(uint256) {\r\n\t\treturn startTime;\r\n\t}\r\n\t\t\r\n    //get number of tokens owned by an address\r\n    function getTotalNumberOwnedByAddress(address _owner) public view returns(uint256) {\r\n        uint totalNumberOfTokensOwned = balanceOf(_owner);\r\n        return totalNumberOfTokensOwned;\r\n    }\r\n\r\n    //check if token exists\r\n    function getTokenExists(uint256 _tokenId) public view returns(bool) {\r\n        bool tokenExists = _exists(_tokenId);\r\n        return tokenExists;\r\n    }\r\n\r\n    function buyToken(uint256 _tokenId) public payable {\r\n        //check for nonzero account\r\n        require(msg.sender != address(0), \"non-zero addresses only\");\r\n        // check if tokenId exists\r\n        require(_exists(_tokenId), \"this paw does not exist\");\r\n\r\n        //get token owner's address\r\n        address payable tokenOwner = payable(ownerOf(_tokenId));\r\n\r\n        //check if token owner is nonzero\r\n        require(tokenOwner != address(0), \"non-zero addresses only\");\r\n        //check that buyer is not token owner\r\n        require(tokenOwner != msg.sender, \"you can't buy your own token\");\r\n\r\n\r\n        //verify price sent is equal to or more than asking price\r\n        require(msg.value >= allPaws[_tokenId].price, \"please send the correct amount of eth\");\r\n        //verify paw is for sale\r\n        require(allPaws[_tokenId].forSale, \"this paw is not for sale\");\r\n\r\n        //transfer token ownership\r\n        _transfer(tokenOwner, msg.sender, _tokenId);\r\n\r\n        //send previous owner the payment\r\n        tokenOwner.transfer(msg.value);\r\n\r\n        //set new owner\r\n        allPaws[_tokenId].currentOwner = payable(msg.sender);\r\n        //increase transfer counter\r\n        allPaws[_tokenId].timesTransferred++;\r\n    }\r\n\r\n    function changeTokenPrice(uint256 _tokenId, uint256 _newPrice) public {\r\n        //require caller is not zero address\r\n        require(msg.sender != address(0), \"non-zero addresses only\");\r\n        //require token exists\r\n        require(_exists(_tokenId), \"token does not exist\");\r\n        \r\n        //get token owner\r\n        address tokenOwner = ownerOf(_tokenId);\r\n        //check sender is owner\r\n        require(tokenOwner == msg.sender, \"you cannot edit a token that is not yours\");\r\n\r\n        //update price\r\n        allPaws[_tokenId].price = _newPrice;\r\n    }\r\n\r\n    function toggleForSale(uint256 _tokenId) public {\r\n        //address 0 safeguard\r\n        require(msg.sender != address(0), \"non-zero addresses only\");\r\n        //require token exists\r\n        require(_exists(_tokenId), \"token does not exist\");\r\n\r\n        //get token owner\r\n        address tokenOwner = ownerOf(_tokenId);\r\n        //check that owner is sender\r\n        require(tokenOwner == msg.sender, \"you cannot edit a token that is not yours\");\r\n        \r\n        //toggle the sale state\r\n        if(allPaws[_tokenId].forSale) {\r\n            allPaws[_tokenId].forSale = false;\r\n        } else {\r\n            allPaws[_tokenId].forSale = true;\r\n        }\r\n    }\r\n\t\r\n\t// Same as mintPaw() but with zero cost, lasts 15 minutes; Make sure it aligns with \r\n\tfunction presalePaw(string memory _name, string memory _creationStr, uint _price, string memory _tokenURI) external payable{\r\n        //make sure address exists and isnt a 0 address\r\n        require(msg.sender != address(0), \"Non-zero addresses only\");\r\n        //make sure the premint time is not over\r\n        require(block.timestamp <= startTime + 5 minutes, \"The Presale is over\"); // MAKE THE TIME IS CONNECT TO App.js --> checkIfPresaleActive()\r\n        //increment the collection counter\r\n        pawCounter++;\r\n        //pawCounter is the tokenid in this case\r\n        require(!_exists(pawCounter), \"collection counter not found\");\r\n        //checks that color combo does not already exist\r\n        require(!creationStrs[_creationStr], \"this paw print already exists\");\r\n        //checks that uri is new\r\n        require(!tokenURIExists[_tokenURI], \"the URI already exists\");\r\n\r\n        //mint time baby\r\n        _mint(msg.sender, pawCounter);\r\n        //set the URI for the token\r\n        _setTokenURI(pawCounter, _tokenURI);\r\n        \r\n        //add URI to URI list\r\n        tokenURIExists[_tokenURI] = true;\r\n        \r\n        \r\n        CryptoPaw memory newCryptoPaw = CryptoPaw(\r\n            pawCounter,\r\n            _name,\r\n            _creationStr,\r\n            _tokenURI,\r\n            payable(msg.sender),\r\n            payable(msg.sender),\r\n            _price,\r\n            0,\r\n            false);\r\n\r\n            allPaws[pawCounter] = newCryptoPaw;\r\n    }\r\n}",
  "sourcePath": "D:\\CSC333\\cryptoboys-nft-marketplace\\src\\contracts\\CryptoPaws.sol",
  "compiler": {
    "name": "solc",
    "version": "0.8.10+commit.fc410830.Emscripten.clang"
  },
  "schemaVersion": "3.4.3",
  "updatedAt": "2021-11-28T04:45:33.164Z",
  "devdoc": {
    "kind": "dev",
    "methods": {
      "approve(address,uint256)": {
        "details": "See {IERC721-approve}."
      },
      "balanceOf(address)": {
        "details": "See {IERC721-balanceOf}."
      },
      "baseURI()": {
        "details": "Returns the base URI set via {_setBaseURI}. This will be automatically added as a prefix in {tokenURI} to each token's URI, or to the token ID if no specific URI is set for that token ID."
      },
      "getApproved(uint256)": {
        "details": "See {IERC721-getApproved}."
      },
      "isApprovedForAll(address,address)": {
        "details": "See {IERC721-isApprovedForAll}."
      },
      "name()": {
        "details": "See {IERC721Metadata-name}."
      },
      "ownerOf(uint256)": {
        "details": "See {IERC721-ownerOf}."
      },
      "safeTransferFrom(address,address,uint256)": {
        "details": "See {IERC721-safeTransferFrom}."
      },
      "safeTransferFrom(address,address,uint256,bytes)": {
        "details": "See {IERC721-safeTransferFrom}."
      },
      "setApprovalForAll(address,bool)": {
        "details": "See {IERC721-setApprovalForAll}."
      },
      "supportsInterface(bytes4)": {
        "details": "See {IERC165-supportsInterface}. Time complexity O(1), guaranteed to always use less than 30 000 gas."
      },
      "symbol()": {
        "details": "See {IERC721Metadata-symbol}."
      },
      "tokenByIndex(uint256)": {
        "details": "See {IERC721Enumerable-tokenByIndex}."
      },
      "tokenOfOwnerByIndex(address,uint256)": {
        "details": "See {IERC721Enumerable-tokenOfOwnerByIndex}."
      },
      "tokenURI(uint256)": {
        "details": "See {IERC721Metadata-tokenURI}."
      },
      "totalSupply()": {
        "details": "See {IERC721Enumerable-totalSupply}."
      },
      "transferFrom(address,address,uint256)": {
        "details": "See {IERC721-transferFrom}."
      }
    },
    "version": 1
  },
  "userdoc": {
    "kind": "user",
    "methods": {},
    "version": 1
  }
}