{
  "contractName": "InitializableUpgradeabilityProxy",
  "abi": [
    {
      "anonymous": false,
      "inputs": [
        {
          "indexed": true,
          "internalType": "address",
          "name": "implementation",
          "type": "address"
        }
      ],
      "name": "Upgraded",
      "type": "event"
    },
    {
      "stateMutability": "payable",
      "type": "fallback"
    },
    {
      "inputs": [
        {
          "internalType": "address",
          "name": "_logic",
          "type": "address"
        },
        {
          "internalType": "bytes",
          "name": "_data",
          "type": "bytes"
        }
      ],
      "name": "initialize",
      "outputs": [],
      "stateMutability": "payable",
      "type": "function"
    }
  ],
  "bytecode": "0x608060405234801561001057600080fd5b50610693806100206000396000f3fe6080604052600436106100225760003560e01c8063d1f578941461002d57610023565b5b61002b610049565b005b61004760048036038101906100429190610431565b610063565b005b610051610196565b61006161005c610198565b6101c9565b565b600073ffffffffffffffffffffffffffffffffffffffff16610083610198565b73ffffffffffffffffffffffffffffffffffffffff16146100a357600080fd5b60017f360894a13ba1a3210667c828492db98dca3e2076cc3735a920a3ca505d382bbd60001c6100d391906104c6565b60001b7f360894a13ba1a3210667c828492db98dca3e2076cc3735a920a3ca505d382bbc60001b14610108576101076104fa565b5b610111826101ef565b6000815111156101925760008273ffffffffffffffffffffffffffffffffffffffff168260405161014291906105a3565b600060405180830381855af49150503d806000811461017d576040519150601f19603f3d011682016040523d82523d6000602084013e610182565b606091505b505090508061019057600080fd5b505b5050565b565b6000807f360894a13ba1a3210667c828492db98dca3e2076cc3735a920a3ca505d382bbc60001b9050805491505090565b3660008037600080366000845af43d6000803e80600081146101ea573d6000f35b3d6000fd5b6101f881610266565b610237576040517f08c379a000000000000000000000000000000000000000000000000000000000815260040161022e9061063d565b60405180910390fd5b60007f360894a13ba1a3210667c828492db98dca3e2076cc3735a920a3ca505d382bbc60001b90508181555050565b600080823b905060008111915050919050565b6000604051905090565b600080fd5b600080fd5b600073ffffffffffffffffffffffffffffffffffffffff82169050919050565b60006102b88261028d565b9050919050565b6102c8816102ad565b81146102d357600080fd5b50565b6000813590506102e5816102bf565b92915050565b600080fd5b600080fd5b6000601f19601f8301169050919050565b7f4e487b7100000000000000000000000000000000000000000000000000000000600052604160045260246000fd5b61033e826102f5565b810181811067ffffffffffffffff8211171561035d5761035c610306565b5b80604052505050565b6000610370610279565b905061037c8282610335565b919050565b600067ffffffffffffffff82111561039c5761039b610306565b5b6103a5826102f5565b9050602081019050919050565b82818337600083830152505050565b60006103d46103cf84610381565b610366565b9050828152602081018484840111156103f0576103ef6102f0565b5b6103fb8482856103b2565b509392505050565b600082601f830112610418576104176102eb565b5b81356104288482602086016103c1565b91505092915050565b6000806040838503121561044857610447610283565b5b6000610456858286016102d6565b925050602083013567ffffffffffffffff81111561047757610476610288565b5b61048385828601610403565b9150509250929050565b6000819050919050565b7f4e487b7100000000000000000000000000000000000000000000000000000000600052601160045260246000fd5b60006104d18261048d565b91506104dc8361048d565b9250828210156104ef576104ee610497565b5b828203905092915050565b7f4e487b7100000000000000000000000000000000000000000000000000000000600052600160045260246000fd5b600081519050919050565b600081905092915050565b60005b8381101561055d578082015181840152602081019050610542565b8381111561056c576000848401525b50505050565b600061057d82610529565b6105878185610534565b935061059781856020860161053f565b80840191505092915050565b60006105af8284610572565b915081905092915050565b600082825260208201905092915050565b7f43616e6e6f742073657420612070726f787920696d706c656d656e746174696f60008201527f6e20746f2061206e6f6e2d636f6e747261637420616464726573730000000000602082015250565b6000610627603b836105ba565b9150610632826105cb565b604082019050919050565b600060208201905081810360008301526106568161061a565b905091905056fea26469706673582212207e4e6967d1385fd01e127291367fe70b1e9e3e47e013b162e3b1a5e38b8f52c864736f6c634300080a0033",
  "immutableReferences": {},
  "source": "// File: node_modules\\@openzeppelin\\upgrades\\contracts\\upgradeability\\Proxy.sol\r\n\r\npragma solidity >=0.5.0;\r\n\r\n/**\r\n * @title Proxy\r\n * @dev Implements delegation of calls to other contracts, with proper\r\n * forwarding of return values and bubbling of failures.\r\n * It defines a fallback function that delegates all calls to the address\r\n * returned by the abstract _implementation() internal function.\r\n */\r\nabstract contract Proxy {\r\n  /**\r\n   * @dev Fallback function.\r\n   * Implemented entirely in `_fallback`.\r\n   */\r\n  fallback () payable external {\r\n    _fallback();\r\n  }\r\n\r\n  /**\r\n   * @return The Address of the implementation.\r\n   */\r\n  function _implementation() virtual internal view returns (address);\r\n\r\n  /**\r\n   * @dev Delegates execution to an implementation contract.\r\n   * This is a low level function that doesn't return to its internal call site.\r\n   * It will return to the external caller whatever the implementation returns.\r\n   * @param implementation Address to delegate.\r\n   */\r\n  function _delegate(address implementation) internal {\r\n    assembly {\r\n      // Copy msg.data. We take full control of memory in this inline assembly\r\n      // block because it will not return to Solidity code. We overwrite the\r\n      // Solidity scratch pad at memory position 0.\r\n      calldatacopy(0, 0, calldatasize())\r\n\r\n      // Call the implementation.\r\n      // out and outsize are 0 because we don't know the size yet.\r\n      let result := delegatecall(gas(), implementation, 0, calldatasize(), 0, 0)\r\n\r\n      // Copy the returned data.\r\n      returndatacopy(0, 0, returndatasize())\r\n\r\n      switch result\r\n      // delegatecall returns 0 on error.\r\n      case 0 { revert(0, returndatasize()) }\r\n      default { return(0, returndatasize()) }\r\n    }\r\n  }\r\n\r\n  /**\r\n   * @dev Function that is run as the first thing in the fallback function.\r\n   * Can be redefined in derived contracts to add functionality.\r\n   * Redefinitions must call super._willFallback().\r\n   */\r\n  function _willFallback() virtual internal {\r\n  }\r\n\r\n  /**\r\n   * @dev fallback implementation.\r\n   * Extracted to enable manual triggering.\r\n   */\r\n  function _fallback() internal {\r\n    _willFallback();\r\n    _delegate(_implementation());\r\n  }\r\n}\r\n\r\n// File: node_modules\\@openzeppelin\\upgrades\\contracts\\utils\\Address.sol\r\n\r\npragma solidity >=0.5.0;\r\n\r\n/**\r\n * Utility library of inline functions on addresses\r\n *\r\n * Source https://raw.githubusercontent.com/OpenZeppelin/openzeppelin-solidity/v2.1.3/contracts/utils/Address.sol\r\n * This contract is copied here and renamed from the original to avoid clashes in the compiled artifacts\r\n * when the user imports a zos-lib contract (that transitively causes this contract to be compiled and added to the\r\n * build/artifacts folder) as well as the vanilla Address implementation from an openzeppelin version.\r\n */\r\nlibrary OpenZeppelinUpgradesAddress {\r\n    /**\r\n     * Returns whether the target address is a contract\r\n     * @dev This function will return false if invoked during the constructor of a contract,\r\n     * as the code is not actually created until after the constructor finishes.\r\n     * @param account address of the account to check\r\n     * @return whether the target address is a contract\r\n     */\r\n    function isContract(address account) internal view returns (bool) {\r\n        uint256 size;\r\n        // XXX Currently there is no better way to check if there is a contract in an address\r\n        // than to check the size of the code at that address.\r\n        // See https://ethereum.stackexchange.com/a/14016/36603\r\n        // for more details about how this works.\r\n        // TODO Check this again before the Serenity release, because all addresses will be\r\n        // contracts then.\r\n        // solhint-disable-next-line no-inline-assembly\r\n        assembly { size := extcodesize(account) }\r\n        return size > 0;\r\n    }\r\n}\r\n\r\n// File: node_modules\\@openzeppelin\\upgrades\\contracts\\upgradeability\\BaseUpgradeabilityProxy.sol\r\n\r\npragma solidity >=0.5.0;\r\n\r\n\r\n\r\n/**\r\n * @title BaseUpgradeabilityProxy\r\n * @dev This contract implements a proxy that allows to change the\r\n * implementation address to which it will delegate.\r\n * Such a change is called an implementation upgrade.\r\n */\r\ncontract BaseUpgradeabilityProxy is Proxy {\r\n  /**\r\n   * @dev Emitted when the implementation is upgraded.\r\n   * @param implementation Address of the new implementation.\r\n   */\r\n  event Upgraded(address indexed implementation);\r\n\r\n  /**\r\n   * @dev Storage slot with the address of the current implementation.\r\n   * This is the keccak-256 hash of \"eip1967.proxy.implementation\" subtracted by 1, and is\r\n   * validated in the constructor.\r\n   */\r\n  bytes32 internal constant IMPLEMENTATION_SLOT = 0x360894a13ba1a3210667c828492db98dca3e2076cc3735a920a3ca505d382bbc;\r\n\r\n  function _implementation() internal override view returns (address impl) {\r\n    bytes32 slot = IMPLEMENTATION_SLOT;\r\n    assembly {\r\n      impl := sload(slot)\r\n    }\r\n  }\r\n\r\n  /**\r\n   * @dev Upgrades the proxy to a new implementation.\r\n   * @param newImplementation Address of the new implementation.\r\n   */\r\n  function _upgradeTo(address newImplementation) internal {\r\n    _setImplementation(newImplementation);\r\n    emit Upgraded(newImplementation);\r\n  }\r\n\r\n  /**\r\n   * @dev Sets the implementation address of the proxy.\r\n   * @param newImplementation Address of the new implementation.\r\n   */\r\n  function _setImplementation(address newImplementation) internal {\r\n    require(OpenZeppelinUpgradesAddress.isContract(newImplementation), \"Cannot set a proxy implementation to a non-contract address\");\r\n\r\n    bytes32 slot = IMPLEMENTATION_SLOT;\r\n\r\n    assembly {\r\n      sstore(slot, newImplementation)\r\n    }\r\n  }\r\n}\r\n\r\n// File: node_modules\\@openzeppelin\\upgrades\\contracts\\upgradeability\\UpgradeabilityProxy.sol\r\n\r\npragma solidity >=0.5.0;\r\n\r\n\r\n/**\r\n * @title UpgradeabilityProxy\r\n * @dev Extends BaseUpgradeabilityProxy with a constructor for initializing\r\n * implementation and init data.\r\n */\r\ncontract UpgradeabilityProxy is BaseUpgradeabilityProxy {\r\n  /**\r\n   * @dev Contract constructor.\r\n   * @param _logic Address of the initial implementation.\r\n   * @param _data Data to send as msg.data to the implementation to initialize the proxied contract.\r\n   * It should include the signature and the parameters of the function to be called, as described in\r\n   * https://solidity.readthedocs.io/en/v0.4.24/abi-spec.html#function-selector-and-argument-encoding.\r\n   * This parameter is optional, if no data is given the initialization call to proxied contract will be skipped.\r\n   */\r\n  constructor(address _logic, bytes memory _data) public payable {\r\n    assert(IMPLEMENTATION_SLOT == bytes32(uint256(keccak256('eip1967.proxy.implementation')) - 1));\r\n    _setImplementation(_logic);\r\n    if(_data.length > 0) {\r\n      (bool success,) = _logic.delegatecall(_data);\r\n      require(success);\r\n    }\r\n  }\r\n}\r\n\r\n// File: node_modules\\@openzeppelin\\upgrades\\contracts\\upgradeability\\BaseAdminUpgradeabilityProxy.sol\r\n\r\npragma solidity >=0.5.0;\r\n\r\n\r\n/**\r\n * @title BaseAdminUpgradeabilityProxy\r\n * @dev This contract combines an upgradeability proxy with an authorization\r\n * mechanism for administrative tasks.\r\n * All external functions in this contract must be guarded by the\r\n * `ifAdmin` modifier. See ethereum/solidity#3864 for a Solidity\r\n * feature proposal that would enable this to be done automatically.\r\n */\r\ncontract BaseAdminUpgradeabilityProxy is BaseUpgradeabilityProxy {\r\n  /**\r\n   * @dev Emitted when the administration has been transferred.\r\n   * @param previousAdmin Address of the previous admin.\r\n   * @param newAdmin Address of the new admin.\r\n   */\r\n  event AdminChanged(address previousAdmin, address newAdmin);\r\n\r\n  /**\r\n   * @dev Storage slot with the admin of the contract.\r\n   * This is the keccak-256 hash of \"eip1967.proxy.admin\" subtracted by 1, and is\r\n   * validated in the constructor.\r\n   */\r\n\r\n  bytes32 internal constant ADMIN_SLOT = 0xb53127684a568b3173ae13b9f8a6016e243e63b6e8ee1178d6a717850b5d6103;\r\n\r\n  /**\r\n   * @dev Modifier to check whether the `msg.sender` is the admin.\r\n   * If it is, it will run the function. Otherwise, it will delegate the call\r\n   * to the implementation.\r\n   */\r\n  modifier ifAdmin() {\r\n    if (msg.sender == _admin()) {\r\n      _;\r\n    } else {\r\n      _fallback();\r\n    }\r\n  }\r\n\r\n  /**\r\n   * @return The address of the proxy admin.\r\n   */\r\n  function admin() external ifAdmin returns (address) {\r\n    return _admin();\r\n  }\r\n\r\n  /**\r\n   * @return The address of the implementation.\r\n   */\r\n  function implementation() external ifAdmin returns (address) {\r\n    return _implementation();\r\n  }\r\n\r\n  /**\r\n   * @dev Changes the admin of the proxy.\r\n   * Only the current admin can call this function.\r\n   * @param newAdmin Address to transfer proxy administration to.\r\n   */\r\n  function changeAdmin(address newAdmin) external ifAdmin {\r\n    require(newAdmin != address(0), \"Cannot change the admin of a proxy to the zero address\");\r\n    emit AdminChanged(_admin(), newAdmin);\r\n    _setAdmin(newAdmin);\r\n  }\r\n\r\n  /**\r\n   * @dev Upgrade the backing implementation of the proxy.\r\n   * Only the admin can call this function.\r\n   * @param newImplementation Address of the new implementation.\r\n   */\r\n  function upgradeTo(address newImplementation) external ifAdmin {\r\n    _upgradeTo(newImplementation);\r\n  }\r\n\r\n  /**\r\n   * @dev Upgrade the backing implementation of the proxy and call a function\r\n   * on the new implementation.\r\n   * This is useful to initialize the proxied contract.\r\n   * @param newImplementation Address of the new implementation.\r\n   * @param data Data to send as msg.data in the low level call.\r\n   * It should include the signature and the parameters of the function to be called, as described in\r\n   * https://solidity.readthedocs.io/en/v0.4.24/abi-spec.html#function-selector-and-argument-encoding.\r\n   */\r\n  function upgradeToAndCall(address newImplementation, bytes calldata data) payable external ifAdmin {\r\n    _upgradeTo(newImplementation);\r\n    (bool success,) = newImplementation.delegatecall(data);\r\n    require(success);\r\n  }\r\n\r\n  function _admin() internal view returns (address adm) {\r\n    bytes32 slot = ADMIN_SLOT;\r\n    assembly {\r\n      adm := sload(slot)\r\n    }\r\n  }\r\n\r\n  /**\r\n   * @dev Sets the address of the proxy admin.\r\n   * @param newAdmin Address of the new proxy admin.\r\n   */\r\n  function _setAdmin(address newAdmin) internal {\r\n    bytes32 slot = ADMIN_SLOT;\r\n\r\n    assembly {\r\n      sstore(slot, newAdmin)\r\n    }\r\n  }\r\n\r\n  /**\r\n   * @dev Only fall back when the sender is not the admin.\r\n   */\r\n  function _willFallback() override virtual internal {\r\n    require(msg.sender != _admin(), \"Cannot call fallback function from the proxy admin\");\r\n    super._willFallback();\r\n  }\r\n}\r\n\r\n// File: node_modules\\@openzeppelin\\upgrades\\contracts\\upgradeability\\InitializableUpgradeabilityProxy.sol\r\n\r\npragma solidity >=0.5.0;\r\n\r\n\r\n/**\r\n * @title InitializableUpgradeabilityProxy\r\n * @dev Extends BaseUpgradeabilityProxy with an initializer for initializing\r\n * implementation and init data.\r\n */\r\ncontract InitializableUpgradeabilityProxy is BaseUpgradeabilityProxy {\r\n  /**\r\n   * @dev Contract initializer.\r\n   * @param _logic Address of the initial implementation.\r\n   * @param _data Data to send as msg.data to the implementation to initialize the proxied contract.\r\n   * It should include the signature and the parameters of the function to be called, as described in\r\n   * https://solidity.readthedocs.io/en/v0.4.24/abi-spec.html#function-selector-and-argument-encoding.\r\n   * This parameter is optional, if no data is given the initialization call to proxied contract will be skipped.\r\n   */\r\n  function initialize(address _logic, bytes memory _data) public payable {\r\n    require(_implementation() == address(0));\r\n    assert(IMPLEMENTATION_SLOT == bytes32(uint256(keccak256('eip1967.proxy.implementation')) - 1));\r\n    _setImplementation(_logic);\r\n    if(_data.length > 0) {\r\n      (bool success,) = _logic.delegatecall(_data);\r\n      require(success);\r\n    }\r\n  }\r\n}\r\n\r\n// File: node_modules\\@openzeppelin\\upgrades\\contracts\\upgradeability\\InitializableAdminUpgradeabilityProxy.sol\r\n\r\npragma solidity >=0.5.0;\r\n\r\n\r\n\r\n/**\r\n * @title InitializableAdminUpgradeabilityProxy\r\n * @dev Extends from BaseAdminUpgradeabilityProxy with an initializer for\r\n * initializing the implementation, admin, and init data.\r\n */\r\ncontract InitializableAdminUpgradeabilityProxy is BaseAdminUpgradeabilityProxy, InitializableUpgradeabilityProxy {\r\n  /**\r\n   * Contract initializer.\r\n   * @param _logic address of the initial implementation.\r\n   * @param _admin Address of the proxy administrator.\r\n   * @param _data Data to send as msg.data to the implementation to initialize the proxied contract.\r\n   * It should include the signature and the parameters of the function to be called, as described in\r\n   * https://solidity.readthedocs.io/en/v0.4.24/abi-spec.html#function-selector-and-argument-encoding.\r\n   * This parameter is optional, if no data is given the initialization call to proxied contract will be skipped.\r\n   */\r\n  function initialize(address _logic, address _admin, bytes memory _data) public payable {\r\n    require(_implementation() == address(0));\r\n    InitializableUpgradeabilityProxy.initialize(_logic, _data);\r\n    assert(ADMIN_SLOT == bytes32(uint256(keccak256('eip1967.proxy.admin')) - 1));\r\n    _setAdmin(_admin);\r\n  }\r\n\r\n  function _willFallback() override(BaseAdminUpgradeabilityProxy, Proxy) internal {\r\n    require(msg.sender != _admin(), \"Cannot call fallback function from the proxy admin\");\r\n    super._willFallback();\r\n  }\r\n}\r\n\r\n// File: node_modules\\@openzeppelin\\upgrades\\contracts\\cryptography\\ECDSA.sol\r\n\r\npragma solidity >=0.5.2;\r\n\r\n/**\r\n * @title Elliptic curve signature operations\r\n * @dev Based on https://gist.github.com/axic/5b33912c6f61ae6fd96d6c4a47afde6d\r\n * TODO Remove this library once solidity supports passing a signature to ecrecover.\r\n * See https://github.com/ethereum/solidity/issues/864\r\n *\r\n * Source https://raw.githubusercontent.com/OpenZeppelin/openzeppelin-solidity/79dd498b16b957399f84b9aa7e720f98f9eb83e3/contracts/cryptography/ECDSA.sol\r\n * This contract is copied here and renamed from the original to avoid clashes in the compiled artifacts\r\n * when the user imports a zos-lib contract (that transitively causes this contract to be compiled and added to the\r\n * build/artifacts folder) as well as the vanilla implementation from an openzeppelin version.\r\n */\r\n\r\nlibrary OpenZeppelinUpgradesECDSA {\r\n    /**\r\n     * @dev Recover signer address from a message by using their signature\r\n     * @param hash bytes32 message, the hash is the signed message. What is recovered is the signer address.\r\n     * @param signature bytes signature, the signature is generated using web3.eth.sign()\r\n     */\r\n    function recover(bytes32 hash, bytes memory signature) internal pure returns (address) {\r\n        // Check the signature length\r\n        if (signature.length != 65) {\r\n            return (address(0));\r\n        }\r\n\r\n        // Divide the signature in r, s and v variables\r\n        bytes32 r;\r\n        bytes32 s;\r\n        uint8 v;\r\n\r\n        // ecrecover takes the signature parameters, and the only way to get them\r\n        // currently is to use assembly.\r\n        // solhint-disable-next-line no-inline-assembly\r\n        assembly {\r\n            r := mload(add(signature, 0x20))\r\n            s := mload(add(signature, 0x40))\r\n            v := byte(0, mload(add(signature, 0x60)))\r\n        }\r\n\r\n        // EIP-2 still allows signature malleability for ecrecover(). Remove this possibility and make the signature\r\n        // unique. Appendix F in the Ethereum Yellow paper (https://ethereum.github.io/yellowpaper/paper.pdf), defines\r\n        // the valid range for s in (281): 0 < s < secp256k1n  2 + 1, and for v in (282): v  {27, 28}. Most\r\n        // signatures from current libraries generate a unique signature with an s-value in the lower half order.\r\n        //\r\n        // If your library generates malleable signatures, such as s-values in the upper range, calculate a new s-value\r\n        // with 0xFFFFFFFFFFFFFFFFFFFFFFFFFFFFFFFEBAAEDCE6AF48A03BBFD25E8CD0364141 - s1 and flip v from 27 to 28 or\r\n        // vice versa. If your library also generates signatures with 0/1 for v instead 27/28, add 27 to v to accept\r\n        // these malleable signatures as well.\r\n        if (uint256(s) > 0x7FFFFFFFFFFFFFFFFFFFFFFFFFFFFFFF5D576E7357A4501DDFE92F46681B20A0) {\r\n            return address(0);\r\n        }\r\n\r\n        if (v != 27 && v != 28) {\r\n            return address(0);\r\n        }\r\n\r\n        // If the signature is valid (and not malleable), return the signer address\r\n        return ecrecover(hash, v, r, s);\r\n    }\r\n\r\n    /**\r\n     * toEthSignedMessageHash\r\n     * @dev prefix a bytes32 value with \"\\x19Ethereum Signed Message:\"\r\n     * and hash the result\r\n     */\r\n    function toEthSignedMessageHash(bytes32 hash) internal pure returns (bytes32) {\r\n        // 32 is the length in bytes of hash,\r\n        // enforced by the type signature above\r\n        return keccak256(abi.encodePacked(\"\\x19Ethereum Signed Message:\\n32\", hash));\r\n    }\r\n}\r\n\r\n// File: node_modules\\@openzeppelin\\upgrades\\contracts\\upgradeability\\ProxyFactory.sol\r\n\r\npragma solidity >=0.5.3;\r\n\r\n\r\n\r\ncontract ProxyFactory {\r\n\r\n  event ProxyCreated(address proxy);\r\n\r\n  bytes32 private contractCodeHash;\r\n\r\n  constructor() public {\r\n    contractCodeHash = keccak256(\r\n      type(InitializableAdminUpgradeabilityProxy).creationCode\r\n    );\r\n  }\r\n\r\n  function deployMinimal(address _logic, bytes memory _data) public returns (address proxy) {\r\n    // Adapted from https://github.com/optionality/clone-factory/blob/32782f82dfc5a00d103a7e61a17a5dedbd1e8e9d/contracts/CloneFactory.sol\r\n    bytes20 targetBytes = bytes20(_logic);\r\n    assembly {\r\n      let clone := mload(0x40)\r\n      mstore(clone, 0x3d602d80600a3d3981f3363d3d373d3d3d363d73000000000000000000000000)\r\n      mstore(add(clone, 0x14), targetBytes)\r\n      mstore(add(clone, 0x28), 0x5af43d82803e903d91602b57fd5bf30000000000000000000000000000000000)\r\n      proxy := create(0, clone, 0x37)\r\n    }\r\n\r\n    emit ProxyCreated(address(proxy));\r\n\r\n    if(_data.length > 0) {\r\n      (bool success,) = proxy.call(_data);\r\n      require(success);\r\n    }\r\n  }\r\n\r\n  function deploy(uint256 _salt, address _logic, address _admin, bytes memory _data) public returns (address) {\r\n    return _deployProxy(_salt, _logic, _admin, _data, msg.sender);\r\n  }\r\n\r\n  function deploySigned(uint256 _salt, address _logic, address _admin, bytes memory _data, bytes memory _signature) public returns (address) {\r\n    address signer = getSigner(_salt, _logic, _admin, _data, _signature);\r\n    require(signer != address(0), \"Invalid signature\");\r\n    return _deployProxy(_salt, _logic, _admin, _data, signer);\r\n  }\r\n\r\n  function getDeploymentAddress(uint256 _salt, address _sender) public view returns (address) {\r\n    // Adapted from https://github.com/archanova/solidity/blob/08f8f6bedc6e71c24758d20219b7d0749d75919d/contracts/contractCreator/ContractCreator.sol\r\n    bytes32 salt = _getSalt(_salt, _sender);\r\n    bytes32 rawAddress = keccak256(\r\n      abi.encodePacked(\r\n        bytes1(0xff),\r\n        address(this),\r\n        salt,\r\n        contractCodeHash\r\n      )\r\n    );\r\n\r\n    return address(bytes20(rawAddress << 96));\r\n  }\r\n\r\n  function getSigner(uint256 _salt, address _logic, address _admin, bytes memory _data, bytes memory _signature) public view returns (address) {\r\n    bytes32 msgHash = OpenZeppelinUpgradesECDSA.toEthSignedMessageHash(\r\n      keccak256(\r\n        abi.encodePacked(\r\n          _salt, _logic, _admin, _data, address(this)\r\n        )\r\n      )\r\n    );\r\n\r\n    return OpenZeppelinUpgradesECDSA.recover(msgHash, _signature);\r\n  }\r\n\r\n  function _deployProxy(uint256 _salt, address _logic, address _admin, bytes memory _data, address _sender) internal returns (address) {\r\n    InitializableAdminUpgradeabilityProxy proxy = _createProxy(_salt, _sender);\r\n    emit ProxyCreated(address(proxy));\r\n    proxy.initialize(_logic, _admin, _data);\r\n    return address(proxy);\r\n  }\r\n\r\n  function _createProxy(uint256 _salt, address _sender) internal returns (InitializableAdminUpgradeabilityProxy) {\r\n    address payable addr;\r\n    bytes memory code = type(InitializableAdminUpgradeabilityProxy).creationCode;\r\n    bytes32 salt = _getSalt(_salt, _sender);\r\n\r\n    assembly {\r\n      addr := create2(0, add(code, 0x20), mload(code), salt)\r\n      if iszero(extcodesize(addr)) {\r\n        revert(0, 0)\r\n      }\r\n    }\r\n\r\n    return InitializableAdminUpgradeabilityProxy(addr);\r\n  }\r\n\r\n  function _getSalt(uint256 _salt, address _sender) internal pure returns (bytes32) {\r\n    return keccak256(abi.encodePacked(_salt, _sender));\r\n  }\r\n}",
  "sourcePath": "D:\\CSC333\\cryptoboys-nft-marketplace\\src\\contracts\\ProxyFactory.sol",
  "compiler": {
    "name": "solc",
    "version": "0.8.10+commit.fc410830.Emscripten.clang"
  },
  "schemaVersion": "3.4.3",
  "updatedAt": "2021-11-28T04:45:35.593Z",
  "devdoc": {
    "details": "Extends BaseUpgradeabilityProxy with an initializer for initializing implementation and init data.",
    "kind": "dev",
    "methods": {
      "initialize(address,bytes)": {
        "details": "Contract initializer.",
        "params": {
          "_data": "Data to send as msg.data to the implementation to initialize the proxied contract. It should include the signature and the parameters of the function to be called, as described in https://solidity.readthedocs.io/en/v0.4.24/abi-spec.html#function-selector-and-argument-encoding. This parameter is optional, if no data is given the initialization call to proxied contract will be skipped.",
          "_logic": "Address of the initial implementation."
        }
      }
    },
    "title": "InitializableUpgradeabilityProxy",
    "version": 1
  },
  "userdoc": {
    "kind": "user",
    "methods": {},
    "version": 1
  }
}