{
  "contractName": "Lottery",
  "abi": [
    {
      "inputs": [
        {
          "internalType": "uint256",
          "name": "",
          "type": "uint256"
        }
      ],
      "name": "entrants",
      "outputs": [
        {
          "internalType": "address",
          "name": "",
          "type": "address"
        }
      ],
      "stateMutability": "view",
      "type": "function",
      "constant": true
    },
    {
      "inputs": [],
      "name": "entrantscount",
      "outputs": [
        {
          "internalType": "uint256",
          "name": "",
          "type": "uint256"
        }
      ],
      "stateMutability": "view",
      "type": "function",
      "constant": true
    },
    {
      "inputs": [],
      "name": "entryPrice",
      "outputs": [
        {
          "internalType": "uint256",
          "name": "",
          "type": "uint256"
        }
      ],
      "stateMutability": "view",
      "type": "function",
      "constant": true
    },
    {
      "inputs": [],
      "name": "finished",
      "outputs": [
        {
          "internalType": "bool",
          "name": "",
          "type": "bool"
        }
      ],
      "stateMutability": "view",
      "type": "function",
      "constant": true
    },
    {
      "inputs": [],
      "name": "owner",
      "outputs": [
        {
          "internalType": "address payable",
          "name": "",
          "type": "address"
        }
      ],
      "stateMutability": "view",
      "type": "function",
      "constant": true
    },
    {
      "inputs": [],
      "name": "tokenId",
      "outputs": [
        {
          "internalType": "uint256",
          "name": "",
          "type": "uint256"
        }
      ],
      "stateMutability": "view",
      "type": "function",
      "constant": true
    },
    {
      "inputs": [],
      "name": "winner",
      "outputs": [
        {
          "internalType": "address",
          "name": "",
          "type": "address"
        }
      ],
      "stateMutability": "view",
      "type": "function",
      "constant": true
    },
    {
      "inputs": [
        {
          "internalType": "uint256",
          "name": "_id",
          "type": "uint256"
        },
        {
          "internalType": "uint256",
          "name": "_price",
          "type": "uint256"
        },
        {
          "internalType": "address payable",
          "name": "_owner",
          "type": "address"
        }
      ],
      "name": "initialize",
      "outputs": [],
      "stateMutability": "nonpayable",
      "type": "function"
    },
    {
      "inputs": [],
      "name": "enterLottery",
      "outputs": [],
      "stateMutability": "payable",
      "type": "function",
      "payable": true
    },
    {
      "inputs": [],
      "name": "endLottery",
      "outputs": [],
      "stateMutability": "nonpayable",
      "type": "function"
    }
  ],
  "bytecode": "0x608060405234801561001057600080fd5b50610f52806100206000396000f3fe6080604052600436106100915760003560e01c8063bef4876b11610059578063bef4876b14610157578063c1af578514610182578063dfbf53ae1461018c578063e7b4e5ab146101b7578063f745adfc146101f457610091565b80631593a8c71461009657806317d70f7c146100ad5780633757761f146100d85780638da5cb5b14610103578063a6ab36f21461012e575b600080fd5b3480156100a257600080fd5b506100ab61021f565b005b3480156100b957600080fd5b506100c26103f7565b6040516100cf9190610877565b60405180910390f35b3480156100e457600080fd5b506100ed6103fd565b6040516100fa9190610877565b60405180910390f35b34801561010f57600080fd5b50610118610403565b60405161012591906108d3565b60405180910390f35b34801561013a57600080fd5b506101556004803603810190610150919061094b565b610429565b005b34801561016357600080fd5b5061016c6105d0565b60405161017991906109b9565b60405180910390f35b61018a6105e3565b005b34801561019857600080fd5b506101a16107dc565b6040516101ae91906109f5565b60405180910390f35b3480156101c357600080fd5b506101de60048036038101906101d99190610a10565b610802565b6040516101eb91906109f5565b60405180910390f35b34801561020057600080fd5b50610209610841565b6040516102169190610877565b60405180910390f35b603460009054906101000a900473ffffffffffffffffffffffffffffffffffffffff1673ffffffffffffffffffffffffffffffffffffffff163373ffffffffffffffffffffffffffffffffffffffff16146102af576040517f08c379a00000000000000000000000000000000000000000000000000000000081526004016102a690610a9a565b60405180910390fd5b6000444260376040516020016102c793929190610bf9565b6040516020818303038152906040528051906020012060001c905060378080549050826102f49190610c61565b8154811061030557610304610c92565b5b9060005260206000200160009054906101000a900473ffffffffffffffffffffffffffffffffffffffff16603960006101000a81548173ffffffffffffffffffffffffffffffffffffffff021916908373ffffffffffffffffffffffffffffffffffffffff1602179055506001603b60006101000a81548160ff021916908315150217905550603460009054906101000a900473ffffffffffffffffffffffffffffffffffffffff1673ffffffffffffffffffffffffffffffffffffffff166108fc479081150290604051600060405180830381858888f193505050501580156103f3573d6000803e3d6000fd5b5050565b60335481565b603a5481565b603460009054906101000a900473ffffffffffffffffffffffffffffffffffffffff1681565b600060019054906101000a900460ff16806104485750610447610847565b5b8061045e575060008054906101000a900460ff16155b61049d576040517f08c379a000000000000000000000000000000000000000000000000000000000815260040161049490610d33565b60405180910390fd5b60008060019054906101000a900460ff1615905080156104ed576001600060016101000a81548160ff02191690831515021790555060016000806101000a81548160ff0219169083151502179055505b836033819055508260358190555081603460006101000a81548173ffffffffffffffffffffffffffffffffffffffff021916908373ffffffffffffffffffffffffffffffffffffffff16021790555060006038819055506000603960006101000a81548173ffffffffffffffffffffffffffffffffffffffff021916908373ffffffffffffffffffffffffffffffffffffffff1602179055506000603b60006101000a81548160ff0219169083151502179055506000603a8190555080156105ca5760008060016101000a81548160ff0219169083151502179055505b50505050565b603b60009054906101000a900460ff1681565b603b60009054906101000a900460ff1615610633576040517f08c379a000000000000000000000000000000000000000000000000000000000815260040161062a90610d9f565b60405180910390fd5b603660003373ffffffffffffffffffffffffffffffffffffffff1673ffffffffffffffffffffffffffffffffffffffff16815260200190815260200160002060009054906101000a900460ff16156106c0576040517f08c379a00000000000000000000000000000000000000000000000000000000081526004016106b790610e0b565b60405180910390fd5b603554341015610705576040517f08c379a00000000000000000000000000000000000000000000000000000000081526004016106fc90610e77565b60405180910390fd5b6001603660003373ffffffffffffffffffffffffffffffffffffffff1673ffffffffffffffffffffffffffffffffffffffff16815260200190815260200160002060006101000a81548160ff0219169083151502179055506037339080600181540180825580915050600190039060005260206000200160009091909190916101000a81548173ffffffffffffffffffffffffffffffffffffffff021916908373ffffffffffffffffffffffffffffffffffffffff1602179055506001603a60008282546107d39190610ec6565b92505081905550565b603960009054906101000a900473ffffffffffffffffffffffffffffffffffffffff1681565b6037818154811061081257600080fd5b906000526020600020016000915054906101000a900473ffffffffffffffffffffffffffffffffffffffff1681565b60355481565b6000803090506000813b9050600081149250505090565b6000819050919050565b6108718161085e565b82525050565b600060208201905061088c6000830184610868565b92915050565b600073ffffffffffffffffffffffffffffffffffffffff82169050919050565b60006108bd82610892565b9050919050565b6108cd816108b2565b82525050565b60006020820190506108e860008301846108c4565b92915050565b600080fd5b6108fc8161085e565b811461090757600080fd5b50565b600081359050610919816108f3565b92915050565b610928816108b2565b811461093357600080fd5b50565b6000813590506109458161091f565b92915050565b600080600060608486031215610964576109636108ee565b5b60006109728682870161090a565b93505060206109838682870161090a565b925050604061099486828701610936565b9150509250925092565b60008115159050919050565b6109b38161099e565b82525050565b60006020820190506109ce60008301846109aa565b92915050565b60006109df82610892565b9050919050565b6109ef816109d4565b82525050565b6000602082019050610a0a60008301846109e6565b92915050565b600060208284031215610a2657610a256108ee565b5b6000610a348482850161090a565b91505092915050565b600082825260208201905092915050565b7f4e6f74206f776e65720000000000000000000000000000000000000000000000600082015250565b6000610a84600983610a3d565b9150610a8f82610a4e565b602082019050919050565b60006020820190508181036000830152610ab381610a77565b9050919050565b6000819050919050565b610ad5610ad08261085e565b610aba565b82525050565b600081549050919050565b600081905092915050565b60008190508160005260206000209050919050565b610b0f816109d4565b82525050565b6000610b218383610b06565b60208301905092915050565b60008160001c9050919050565b600073ffffffffffffffffffffffffffffffffffffffff82169050919050565b6000610b6d610b6883610b2d565b610b3a565b9050919050565b6000610b808254610b5a565b9050919050565b6000600182019050919050565b6000610b9f82610adb565b610ba98185610ae6565b9350610bb483610af1565b8060005b83811015610bec57610bc982610b74565b610bd38882610b15565b9750610bde83610b87565b925050600181019050610bb8565b5085935050505092915050565b6000610c058286610ac4565b602082019150610c158285610ac4565b602082019150610c258284610b94565b9150819050949350505050565b7f4e487b7100000000000000000000000000000000000000000000000000000000600052601260045260246000fd5b6000610c6c8261085e565b9150610c778361085e565b925082610c8757610c86610c32565b5b828206905092915050565b7f4e487b7100000000000000000000000000000000000000000000000000000000600052603260045260246000fd5b7f436f6e747261637420696e7374616e63652068617320616c726561647920626560008201527f656e20696e697469616c697a6564000000000000000000000000000000000000602082015250565b6000610d1d602e83610a3d565b9150610d2882610cc1565b604082019050919050565b60006020820190508181036000830152610d4c81610d10565b9050919050565b7f4c6f7474657279206973206f7665720000000000000000000000000000000000600082015250565b6000610d89600f83610a3d565b9150610d9482610d53565b602082019050919050565b60006020820190508181036000830152610db881610d7c565b9050919050565b7f596f75206861766520616c726561647920656e74657265640000000000000000600082015250565b6000610df5601883610a3d565b9150610e0082610dbf565b602082019050919050565b60006020820190508181036000830152610e2481610de8565b9050919050565b7f4d757374207061792066756c6c20656e74727920707269636500000000000000600082015250565b6000610e61601983610a3d565b9150610e6c82610e2b565b602082019050919050565b60006020820190508181036000830152610e9081610e54565b9050919050565b7f4e487b7100000000000000000000000000000000000000000000000000000000600052601160045260246000fd5b6000610ed18261085e565b9150610edc8361085e565b9250827fffffffffffffffffffffffffffffffffffffffffffffffffffffffffffffffff03821115610f1157610f10610e97565b5b82820190509291505056fea264697066735822122079b909cdc0668179783e86d606a5bf6624d4f6fdfd528a7d52830f7d425e1ab064736f6c634300080a0033",
  "immutableReferences": {},
  "source": "// File: @openzeppelin\\upgrades\\contracts\\Initializable.sol\r\n\r\npragma solidity >=0.4.24;\r\n\r\n\r\n/**\r\n * @title Initializable\r\n *\r\n * @dev Helper contract to support initializer functions. To use it, replace\r\n * the constructor with a function that has the `initializer` modifier.\r\n * WARNING: Unlike constructors, initializer functions must be manually\r\n * invoked. This applies both to deploying an Initializable contract, as well\r\n * as extending an Initializable contract via inheritance.\r\n * WARNING: When used with inheritance, manual care must be taken to not invoke\r\n * a parent initializer twice, or ensure that all initializers are idempotent,\r\n * because this is not dealt with automatically as with constructors.\r\n */\r\ncontract Initializable {\r\n\r\n  /**\r\n   * @dev Indicates that the contract has been initialized.\r\n   */\r\n  bool private initialized;\r\n\r\n  /**\r\n   * @dev Indicates that the contract is in the process of being initialized.\r\n   */\r\n  bool private initializing;\r\n\r\n  /**\r\n   * @dev Modifier to use in the initializer function of a contract.\r\n   */\r\n  modifier initializer() {\r\n    require(initializing || isConstructor() || !initialized, \"Contract instance has already been initialized\");\r\n\r\n    bool isTopLevelCall = !initializing;\r\n    if (isTopLevelCall) {\r\n      initializing = true;\r\n      initialized = true;\r\n    }\r\n\r\n    _;\r\n\r\n    if (isTopLevelCall) {\r\n      initializing = false;\r\n    }\r\n  }\r\n\r\n  /// @dev Returns true if and only if the function is running in the constructor\r\n  function isConstructor() private view returns (bool) {\r\n    // extcodesize checks the size of the code stored in an address, and\r\n    // address returns the current address. Since the code is still not\r\n    // deployed when running a constructor, any checks on its code size will\r\n    // yield zero, making it an effective way to detect if a contract is\r\n    // under construction or not.\r\n    address self = address(this);\r\n    uint256 cs;\r\n    assembly { cs := extcodesize(self) }\r\n    return cs == 0;\r\n  }\r\n\r\n  // Reserved storage space to allow for layout changes in the future.\r\n  uint256[50] private ______gap;\r\n}\r\n\r\n// File: src\\contracts\\Lottery.sol\r\n\r\n//SPDX-License-Identifier: MIT\r\npragma solidity  >=0.8.0;\r\npragma abicoder v2;\r\n\r\ncontract Lottery is Initializable {\r\n    uint256 public tokenId;\r\n    address payable public owner;\r\n    uint256 public entryPrice;\r\n    mapping(address => bool) private entered;\r\n    address[] public entrants;\r\n    uint256 private key;\r\n    address public winner;\r\n    uint256 public entrantscount;\r\n    bool public finished;\r\n\r\n\r\n    modifier onlyOwner() {\r\n        require(msg.sender == owner, \"Not owner\");\r\n        _;\r\n    }\r\n\r\n    function initialize(uint256 _id, uint256 _price, address payable _owner) public initializer {\r\n        tokenId = _id;\r\n        entryPrice = _price;\r\n        owner = _owner;\r\n        key = 0;\r\n        winner = address(0);\r\n        finished = false;\r\n        entrantscount = 0;\r\n    }\r\n\r\n    function enterLottery() public payable {\r\n        require(!finished, \"Lottery is over\");\r\n        require(!entered[msg.sender], \"You have already entered\");\r\n        require(msg.value >= entryPrice, \"Must pay full entry price\");\r\n        entered[msg.sender] = true;\r\n        entrants.push(msg.sender);\r\n        entrantscount += 1;\r\n    }\r\n\r\n    function endLottery() public onlyOwner {\r\n        uint256 rand = uint(keccak256(abi.encodePacked(block.difficulty, block.timestamp, entrants)));\r\n        winner = entrants[rand % entrants.length];\r\n        finished = true;\r\n        owner.transfer(address(this).balance);\r\n    }\r\n}",
  "sourcePath": "D:\\CSC333\\cryptoboys-nft-marketplace\\src\\contracts\\Lottery.sol",
  "compiler": {
    "name": "solc",
    "version": "0.8.10+commit.fc410830.Emscripten.clang"
  },
  "schemaVersion": "3.4.3",
  "updatedAt": "2021-11-28T23:46:45.025Z",
  "networkType": "ethereum",
  "devdoc": {
    "kind": "dev",
    "methods": {},
    "version": 1
  },
  "userdoc": {
    "kind": "user",
    "methods": {},
    "version": 1
  }
}