{
  "contractName": "LotteryFactory",
  "abi": [
    {
      "inputs": [
        {
          "internalType": "address",
          "name": "_pawaddress",
          "type": "address"
        },
        {
          "internalType": "address",
          "name": "_implementationcontract",
          "type": "address"
        }
      ],
      "stateMutability": "nonpayable",
      "type": "constructor"
    },
    {
      "anonymous": false,
      "inputs": [
        {
          "indexed": false,
          "internalType": "address",
          "name": "proxy",
          "type": "address"
        }
      ],
      "name": "ProxyCreated",
      "type": "event"
    },
    {
      "inputs": [
        {
          "internalType": "uint256",
          "name": "_salt",
          "type": "uint256"
        },
        {
          "internalType": "address",
          "name": "_logic",
          "type": "address"
        },
        {
          "internalType": "address",
          "name": "_admin",
          "type": "address"
        },
        {
          "internalType": "bytes",
          "name": "_data",
          "type": "bytes"
        }
      ],
      "name": "deploy",
      "outputs": [
        {
          "internalType": "address",
          "name": "",
          "type": "address"
        }
      ],
      "stateMutability": "nonpayable",
      "type": "function"
    },
    {
      "inputs": [
        {
          "internalType": "address",
          "name": "_logic",
          "type": "address"
        },
        {
          "internalType": "bytes",
          "name": "_data",
          "type": "bytes"
        }
      ],
      "name": "deployMinimal",
      "outputs": [
        {
          "internalType": "address",
          "name": "proxy",
          "type": "address"
        }
      ],
      "stateMutability": "nonpayable",
      "type": "function"
    },
    {
      "inputs": [
        {
          "internalType": "uint256",
          "name": "_salt",
          "type": "uint256"
        },
        {
          "internalType": "address",
          "name": "_logic",
          "type": "address"
        },
        {
          "internalType": "address",
          "name": "_admin",
          "type": "address"
        },
        {
          "internalType": "bytes",
          "name": "_data",
          "type": "bytes"
        },
        {
          "internalType": "bytes",
          "name": "_signature",
          "type": "bytes"
        }
      ],
      "name": "deploySigned",
      "outputs": [
        {
          "internalType": "address",
          "name": "",
          "type": "address"
        }
      ],
      "stateMutability": "nonpayable",
      "type": "function"
    },
    {
      "inputs": [
        {
          "internalType": "uint256",
          "name": "_salt",
          "type": "uint256"
        },
        {
          "internalType": "address",
          "name": "_sender",
          "type": "address"
        }
      ],
      "name": "getDeploymentAddress",
      "outputs": [
        {
          "internalType": "address",
          "name": "",
          "type": "address"
        }
      ],
      "stateMutability": "view",
      "type": "function"
    },
    {
      "inputs": [
        {
          "internalType": "uint256",
          "name": "_salt",
          "type": "uint256"
        },
        {
          "internalType": "address",
          "name": "_logic",
          "type": "address"
        },
        {
          "internalType": "address",
          "name": "_admin",
          "type": "address"
        },
        {
          "internalType": "bytes",
          "name": "_data",
          "type": "bytes"
        },
        {
          "internalType": "bytes",
          "name": "_signature",
          "type": "bytes"
        }
      ],
      "name": "getSigner",
      "outputs": [
        {
          "internalType": "address",
          "name": "",
          "type": "address"
        }
      ],
      "stateMutability": "view",
      "type": "function"
    },
    {
      "inputs": [],
      "name": "implementationContract",
      "outputs": [
        {
          "internalType": "address",
          "name": "",
          "type": "address"
        }
      ],
      "stateMutability": "view",
      "type": "function"
    },
    {
      "inputs": [
        {
          "internalType": "uint256",
          "name": "",
          "type": "uint256"
        }
      ],
      "name": "lotteries",
      "outputs": [
        {
          "internalType": "address",
          "name": "",
          "type": "address"
        }
      ],
      "stateMutability": "view",
      "type": "function"
    },
    {
      "inputs": [
        {
          "internalType": "address",
          "name": "",
          "type": "address"
        }
      ],
      "name": "owners",
      "outputs": [
        {
          "internalType": "uint256",
          "name": "",
          "type": "uint256"
        }
      ],
      "stateMutability": "view",
      "type": "function"
    },
    {
      "inputs": [
        {
          "internalType": "uint256",
          "name": "_id",
          "type": "uint256"
        },
        {
          "internalType": "uint256",
          "name": "_enterPrice",
          "type": "uint256"
        }
      ],
      "name": "createLottery",
      "outputs": [],
      "stateMutability": "payable",
      "type": "function"
    },
    {
      "inputs": [
        {
          "internalType": "uint256",
          "name": "_id",
          "type": "uint256"
        }
      ],
      "name": "claim",
      "outputs": [],
      "stateMutability": "nonpayable",
      "type": "function"
    }
  ],
  "bytecode": "0x60806040523480156200001157600080fd5b5060405162003c8d38038062003c8d83398181016040528101906200003791906200016c565b604051806020016200004990620000f4565b6020820181038252601f19601f820116604052508051906020012060008190555080600260006101000a81548173ffffffffffffffffffffffffffffffffffffffff021916908373ffffffffffffffffffffffffffffffffffffffff16021790555081600160006101000a81548173ffffffffffffffffffffffffffffffffffffffff021916908373ffffffffffffffffffffffffffffffffffffffff1602179055505050620001b3565b61103b8062002c5283390190565b600080fd5b600073ffffffffffffffffffffffffffffffffffffffff82169050919050565b6000620001348262000107565b9050919050565b620001468162000127565b81146200015257600080fd5b50565b60008151905062000166816200013b565b92915050565b6000806040838503121562000186576200018562000102565b5b6000620001968582860162000155565b9250506020620001a98582860162000155565b9150509250929050565b612a8f80620001c36000396000f3fe6080604052600436106100915760003560e01c80636150864c116100595780636150864c146101b357806381ae1f5b146101f057806399e7d0561461022d578063b3eeb5e214610258578063fe35804e1461029557610091565b8063022914a7146100965780631398e076146100d3578063290f8f5614610110578063332d66261461014d578063379607f51461018a575b600080fd5b3480156100a257600080fd5b506100bd60048036038101906100b89190610e6f565b6102b1565b6040516100ca9190610eb5565b60405180910390f35b3480156100df57600080fd5b506100fa60048036038101906100f59190610efc565b6102c9565b6040516101079190610f38565b60405180910390f35b34801561011c57600080fd5b5061013760048036038101906101329190611099565b6102fc565b6040516101449190610f38565b60405180910390f35b34801561015957600080fd5b50610174600480360381019061016f9190611099565b61034e565b6040516101819190610f38565b60405180910390f35b34801561019657600080fd5b506101b160048036038101906101ac9190610efc565b6103e9565b005b3480156101bf57600080fd5b506101da60048036038101906101d5919061114c565b61059e565b6040516101e79190610f38565b60405180910390f35b3480156101fc57600080fd5b50610217600480360381019061021291906111cf565b6105b7565b6040516102249190610f38565b60405180910390f35b34801561023957600080fd5b5061024261060f565b60405161024f9190610f38565b60405180910390f35b34801561026457600080fd5b5061027f600480360381019061027a919061120f565b610635565b60405161028c9190610f38565b60405180910390f35b6102af60048036038101906102aa919061126b565b610759565b005b60046020528060005260406000206000915090505481565b60036020528060005260406000206000915054906101000a900473ffffffffffffffffffffffffffffffffffffffff1681565b600080610336878787873060405160200161031b95949392919061138e565b60405160208183030381529060405280519060200120610b84565b90506103428184610bb4565b91505095945050505050565b60008061035e87878787876102fc565b9050600073ffffffffffffffffffffffffffffffffffffffff168173ffffffffffffffffffffffffffffffffffffffff1614156103d0576040517f08c379a00000000000000000000000000000000000000000000000000000000081526004016103c790611446565b60405180910390fd5b6103dd8787878785610ca0565b91505095945050505050565b60006003600083815260200190815260200160002060009054906101000a900473ffffffffffffffffffffffffffffffffffffffff169050600081905060008173ffffffffffffffffffffffffffffffffffffffff1663dfbf53ae6040518163ffffffff1660e01b8152600401602060405180830381865afa158015610473573d6000803e3d6000fd5b505050506040513d601f19601f82011682018060405250810190610497919061147b565b90508073ffffffffffffffffffffffffffffffffffffffff163373ffffffffffffffffffffffffffffffffffffffff1614610507576040517f08c379a00000000000000000000000000000000000000000000000000000000081526004016104fe906114f4565b60405180910390fd5b600160009054906101000a900473ffffffffffffffffffffffffffffffffffffffff1673ffffffffffffffffffffffffffffffffffffffff16637b3ba3098585846040518463ffffffff1660e01b815260040161056693929190611514565b600060405180830381600087803b15801561058057600080fd5b505af1158015610594573d6000803e3d6000fd5b5050505050505050565b60006105ad8585858533610ca0565b9050949350505050565b6000806105c48484610d61565b9050600060ff60f81b30836000546040516020016105e594939291906115c3565b604051602081830303815290604052805190602001209050606081901b60601c9250505092915050565b600260009054906101000a900473ffffffffffffffffffffffffffffffffffffffff1681565b6000808360601b90506040517f3d602d80600a3d3981f3363d3d373d3d3d363d7300000000000000000000000081528160148201527f5af43d82803e903d91602b57fd5bf3000000000000000000000000000000000060288201526037816000f09250507efffc2da0b561cae30d9826d37709e9421c4725faebc226cbbb7ef5fc5e7349826040516106c79190610f38565b60405180910390a16000835111156107525760008273ffffffffffffffffffffffffffffffffffffffff16846040516107009190611611565b6000604051808303816000865af19150503d806000811461073d576040519150601f19603f3d011682016040523d82523d6000602084013e610742565b606091505b505090508061075057600080fd5b505b5092915050565b6000600160009054906101000a900473ffffffffffffffffffffffffffffffffffffffff1673ffffffffffffffffffffffffffffffffffffffff1663142687f3846040518263ffffffff1660e01b81526004016107b69190610eb5565b602060405180830381865afa1580156107d3573d6000803e3d6000fd5b505050506040513d601f19601f820116820180604052508101906107f79190611660565b905080610839576040517f08c379a0000000000000000000000000000000000000000000000000000000008152600401610830906116d9565b60405180910390fd5b6000600160009054906101000a900473ffffffffffffffffffffffffffffffffffffffff1673ffffffffffffffffffffffffffffffffffffffff1663a5cd761f856040518263ffffffff1660e01b81526004016108969190610eb5565b602060405180830381865afa1580156108b3573d6000803e3d6000fd5b505050506040513d601f19601f820116820180604052508101906108d7919061147b565b90508073ffffffffffffffffffffffffffffffffffffffff163373ffffffffffffffffffffffffffffffffffffffff1614610947576040517f08c379a000000000000000000000000000000000000000000000000000000000815260040161093e9061176b565b60405180910390fd5b661c6bf526340000341015610991576040517f08c379a0000000000000000000000000000000000000000000000000000000008152600401610988906117fd565b60405180910390fd5b60008484336040516024016109a89392919061181d565b6040516020818303038152906040527f9c5cfe77000000000000000000000000000000000000000000000000000000007bffffffffffffffffffffffffffffffffffffffffffffffffffffffff19166020820180517bffffffffffffffffffffffffffffffffffffffffffffffffffffffff838183161783525050505090506000610a55600260009054906101000a900473ffffffffffffffffffffffffffffffffffffffff1683610635565b9050600160009054906101000a900473ffffffffffffffffffffffffffffffffffffffff1673ffffffffffffffffffffffffffffffffffffffff16633c9eff9c87836040518363ffffffff1660e01b8152600401610ab4929190611854565b600060405180830381600087803b158015610ace57600080fd5b505af1158015610ae2573d6000803e3d6000fd5b5050505085600460003373ffffffffffffffffffffffffffffffffffffffff1673ffffffffffffffffffffffffffffffffffffffff16815260200190815260200160002081905550806003600088815260200190815260200160002060006101000a81548173ffffffffffffffffffffffffffffffffffffffff021916908373ffffffffffffffffffffffffffffffffffffffff160217905550505050505050565b600081604051602001610b9791906118d4565b604051602081830303815290604052805190602001209050919050565b60006041825114610bc85760009050610c9a565b60008060006020850151925060408501519150606085015160001a90507f7fffffffffffffffffffffffffffffff5d576e7357a4501ddfe92f46681b20a08260001c1115610c1c5760009350505050610c9a565b601b8160ff1614158015610c345750601c8160ff1614155b15610c455760009350505050610c9a565b60018682858560405160008152602001604052604051610c689493929190611925565b6020604051602081039080840390855afa158015610c8a573d6000803e3d6000fd5b5050506020604051035193505050505b92915050565b600080610cad8784610d94565b90507efffc2da0b561cae30d9826d37709e9421c4725faebc226cbbb7ef5fc5e734981604051610cdd9190610f38565b60405180910390a18073ffffffffffffffffffffffffffffffffffffffff1663cf7a1d778787876040518463ffffffff1660e01b8152600401610d22939291906119b4565b600060405180830381600087803b158015610d3c57600080fd5b505af1158015610d50573d6000803e3d6000fd5b505050508091505095945050505050565b60008282604051602001610d769291906119f2565b60405160208183030381529060405280519060200120905092915050565b600080600060405180602001610da990610df0565b6020820181038252601f19601f8201166040525090506000610dcb8686610d61565b9050808251602084016000f59250823b610de457600080fd5b82935050505092915050565b61103b80611a1f83390190565b6000604051905090565b600080fd5b600080fd5b600073ffffffffffffffffffffffffffffffffffffffff82169050919050565b6000610e3c82610e11565b9050919050565b610e4c81610e31565b8114610e5757600080fd5b50565b600081359050610e6981610e43565b92915050565b600060208284031215610e8557610e84610e07565b5b6000610e9384828501610e5a565b91505092915050565b6000819050919050565b610eaf81610e9c565b82525050565b6000602082019050610eca6000830184610ea6565b92915050565b610ed981610e9c565b8114610ee457600080fd5b50565b600081359050610ef681610ed0565b92915050565b600060208284031215610f1257610f11610e07565b5b6000610f2084828501610ee7565b91505092915050565b610f3281610e31565b82525050565b6000602082019050610f4d6000830184610f29565b92915050565b600080fd5b600080fd5b6000601f19601f8301169050919050565b7f4e487b7100000000000000000000000000000000000000000000000000000000600052604160045260246000fd5b610fa682610f5d565b810181811067ffffffffffffffff82111715610fc557610fc4610f6e565b5b80604052505050565b6000610fd8610dfd565b9050610fe48282610f9d565b919050565b600067ffffffffffffffff82111561100457611003610f6e565b5b61100d82610f5d565b9050602081019050919050565b82818337600083830152505050565b600061103c61103784610fe9565b610fce565b90508281526020810184848401111561105857611057610f58565b5b61106384828561101a565b509392505050565b600082601f8301126110805761107f610f53565b5b8135611090848260208601611029565b91505092915050565b600080600080600060a086880312156110b5576110b4610e07565b5b60006110c388828901610ee7565b95505060206110d488828901610e5a565b94505060406110e588828901610e5a565b935050606086013567ffffffffffffffff81111561110657611105610e0c565b5b6111128882890161106b565b925050608086013567ffffffffffffffff81111561113357611132610e0c565b5b61113f8882890161106b565b9150509295509295909350565b6000806000806080858703121561116657611165610e07565b5b600061117487828801610ee7565b945050602061118587828801610e5a565b935050604061119687828801610e5a565b925050606085013567ffffffffffffffff8111156111b7576111b6610e0c565b5b6111c38782880161106b565b91505092959194509250565b600080604083850312156111e6576111e5610e07565b5b60006111f485828601610ee7565b925050602061120585828601610e5a565b9150509250929050565b6000806040838503121561122657611225610e07565b5b600061123485828601610e5a565b925050602083013567ffffffffffffffff81111561125557611254610e0c565b5b6112618582860161106b565b9150509250929050565b6000806040838503121561128257611281610e07565b5b600061129085828601610ee7565b92505060206112a185828601610ee7565b9150509250929050565b6000819050919050565b6112c66112c182610e9c565b6112ab565b82525050565b60008160601b9050919050565b60006112e4826112cc565b9050919050565b60006112f6826112d9565b9050919050565b61130e61130982610e31565b6112eb565b82525050565b600081519050919050565b600081905092915050565b60005b8381101561134857808201518184015260208101905061132d565b83811115611357576000848401525b50505050565b600061136882611314565b611372818561131f565b935061138281856020860161132a565b80840191505092915050565b600061139a82886112b5565b6020820191506113aa82876112fd565b6014820191506113ba82866112fd565b6014820191506113ca828561135d565b91506113d682846112fd565b6014820191508190509695505050505050565b600082825260208201905092915050565b7f496e76616c6964207369676e6174757265000000000000000000000000000000600082015250565b60006114306011836113e9565b915061143b826113fa565b602082019050919050565b6000602082019050818103600083015261145f81611423565b9050919050565b60008151905061147581610e43565b92915050565b60006020828403121561149157611490610e07565b5b600061149f84828501611466565b91505092915050565b7f596f7520617265206e6f74207468652077696e6e657200000000000000000000600082015250565b60006114de6016836113e9565b91506114e9826114a8565b602082019050919050565b6000602082019050818103600083015261150d816114d1565b9050919050565b60006060820190506115296000830186610ea6565b6115366020830185610f29565b6115436040830184610f29565b949350505050565b60007fff0000000000000000000000000000000000000000000000000000000000000082169050919050565b6000819050919050565b61159261158d8261154b565b611577565b82525050565b6000819050919050565b6000819050919050565b6115bd6115b882611598565b6115a2565b82525050565b60006115cf8287611581565b6001820191506115df82866112fd565b6014820191506115ef82856115ac565b6020820191506115ff82846115ac565b60208201915081905095945050505050565b600061161d828461135d565b915081905092915050565b60008115159050919050565b61163d81611628565b811461164857600080fd5b50565b60008151905061165a81611634565b92915050565b60006020828403121561167657611675610e07565b5b60006116848482850161164b565b91505092915050565b7f546f6b656e206e6f7420666f756e640000000000000000000000000000000000600082015250565b60006116c3600f836113e9565b91506116ce8261168d565b602082019050919050565b600060208201905081810360008301526116f2816116b6565b9050919050565b7f43616e2774206c6f7474657279206120746f6b656e20796f7520646f6e27742060008201527f6f776e0000000000000000000000000000000000000000000000000000000000602082015250565b60006117556023836113e9565b9150611760826116f9565b604082019050919050565b6000602082019050818103600083015261178481611748565b9050919050565b7f596f75206d757374207061792074686520707269636520746f2063726561746560008201527f20616e2061756374696f6e000000000000000000000000000000000000000000602082015250565b60006117e7602b836113e9565b91506117f28261178b565b604082019050919050565b60006020820190508181036000830152611816816117da565b9050919050565b60006060820190506118326000830186610ea6565b61183f6020830185610ea6565b61184c6040830184610f29565b949350505050565b60006040820190506118696000830185610ea6565b6118766020830184610f29565b9392505050565b600081905092915050565b7f19457468657265756d205369676e6564204d6573736167653a0a333200000000600082015250565b60006118be601c8361187d565b91506118c982611888565b601c82019050919050565b60006118df826118b1565b91506118eb82846115ac565b60208201915081905092915050565b61190381611598565b82525050565b600060ff82169050919050565b61191f81611909565b82525050565b600060808201905061193a60008301876118fa565b6119476020830186611916565b61195460408301856118fa565b61196160608301846118fa565b95945050505050565b600082825260208201905092915050565b600061198682611314565b611990818561196a565b93506119a081856020860161132a565b6119a981610f5d565b840191505092915050565b60006060820190506119c96000830186610f29565b6119d66020830185610f29565b81810360408301526119e8818461197b565b9050949350505050565b60006119fe82856112b5565b602082019150611a0e82846112fd565b601482019150819050939250505056fe608060405234801561001057600080fd5b5061101b806100206000396000f3fe6080604052600436106100745760003560e01c80638f2839701161004e5780638f283970146100ef578063cf7a1d7714610118578063d1f5789414610134578063f851a4401461015057610075565b80633659cfe61461007f5780634f1ef286146100a85780635c60da1b146100c457610075565b5b61007d61017b565b005b34801561008b57600080fd5b506100a660048036038101906100a19190610962565b610195565b005b6100c260048036038101906100bd91906109f4565b6101ea565b005b3480156100d057600080fd5b506100d96102b9565b6040516100e69190610a63565b60405180910390f35b3480156100fb57600080fd5b5061011660048036038101906101119190610962565b610311565b005b610132600480360381019061012d9190610bbf565b610416565b005b61014e60048036038101906101499190610c2e565b6104d3565b005b34801561015c57600080fd5b50610165610606565b6040516101729190610a63565b60405180910390f35b61018361065e565b61019361018e6106de565b61070f565b565b61019d610735565b73ffffffffffffffffffffffffffffffffffffffff163373ffffffffffffffffffffffffffffffffffffffff1614156101de576101d981610766565b6101e7565b6101e661017b565b5b50565b6101f2610735565b73ffffffffffffffffffffffffffffffffffffffff163373ffffffffffffffffffffffffffffffffffffffff1614156102ab5761022e83610766565b60008373ffffffffffffffffffffffffffffffffffffffff168383604051610257929190610cba565b600060405180830381855af49150503d8060008114610292576040519150601f19603f3d011682016040523d82523d6000602084013e610297565b606091505b50509050806102a557600080fd5b506102b4565b6102b361017b565b5b505050565b60006102c3610735565b73ffffffffffffffffffffffffffffffffffffffff163373ffffffffffffffffffffffffffffffffffffffff161415610305576102fe6106de565b905061030e565b61030d61017b565b5b90565b610319610735565b73ffffffffffffffffffffffffffffffffffffffff163373ffffffffffffffffffffffffffffffffffffffff16141561040a57600073ffffffffffffffffffffffffffffffffffffffff168173ffffffffffffffffffffffffffffffffffffffff1614156103bc576040517f08c379a00000000000000000000000000000000000000000000000000000000081526004016103b390610d56565b60405180910390fd5b7f7e644d79422f17c01e4894b5f4f588d331ebfa28653d42ae832dc59e38c9798f6103e5610735565b826040516103f4929190610d76565b60405180910390a1610405816107b5565b610413565b61041261017b565b5b50565b600073ffffffffffffffffffffffffffffffffffffffff166104366106de565b73ffffffffffffffffffffffffffffffffffffffff161461045657600080fd5b61046083826104d3565b60017fb53127684a568b3173ae13b9f8a6016e243e63b6e8ee1178d6a717850b5d610460001c6104909190610dd8565b60001b7fb53127684a568b3173ae13b9f8a6016e243e63b6e8ee1178d6a717850b5d610360001b146104c5576104c4610e0c565b5b6104ce826107b5565b505050565b600073ffffffffffffffffffffffffffffffffffffffff166104f36106de565b73ffffffffffffffffffffffffffffffffffffffff161461051357600080fd5b60017f360894a13ba1a3210667c828492db98dca3e2076cc3735a920a3ca505d382bbd60001c6105439190610dd8565b60001b7f360894a13ba1a3210667c828492db98dca3e2076cc3735a920a3ca505d382bbc60001b1461057857610577610e0c565b5b610581826107e4565b6000815111156106025760008273ffffffffffffffffffffffffffffffffffffffff16826040516105b29190610eaa565b600060405180830381855af49150503d80600081146105ed576040519150601f19603f3d011682016040523d82523d6000602084013e6105f2565b606091505b505090508061060057600080fd5b505b5050565b6000610610610735565b73ffffffffffffffffffffffffffffffffffffffff163373ffffffffffffffffffffffffffffffffffffffff1614156106525761064b610735565b905061065b565b61065a61017b565b5b90565b610666610735565b73ffffffffffffffffffffffffffffffffffffffff163373ffffffffffffffffffffffffffffffffffffffff1614156106d4576040517f08c379a00000000000000000000000000000000000000000000000000000000081526004016106cb90610f33565b60405180910390fd5b6106dc61085b565b565b6000807f360894a13ba1a3210667c828492db98dca3e2076cc3735a920a3ca505d382bbc60001b9050805491505090565b3660008037600080366000845af43d6000803e8060008114610730573d6000f35b3d6000fd5b6000807fb53127684a568b3173ae13b9f8a6016e243e63b6e8ee1178d6a717850b5d610360001b9050805491505090565b61076f816107e4565b8073ffffffffffffffffffffffffffffffffffffffff167fbc7cd75a20ee27fd9adebab32041f755214dbc6bffa90cc0225b39da2e5c2d3b60405160405180910390a250565b60007fb53127684a568b3173ae13b9f8a6016e243e63b6e8ee1178d6a717850b5d610360001b90508181555050565b6107ed816108db565b61082c576040517f08c379a000000000000000000000000000000000000000000000000000000000815260040161082390610fc5565b60405180910390fd5b60007f360894a13ba1a3210667c828492db98dca3e2076cc3735a920a3ca505d382bbc60001b90508181555050565b610863610735565b73ffffffffffffffffffffffffffffffffffffffff163373ffffffffffffffffffffffffffffffffffffffff1614156108d1576040517f08c379a00000000000000000000000000000000000000000000000000000000081526004016108c890610f33565b60405180910390fd5b6108d96108ee565b565b600080823b905060008111915050919050565b565b6000604051905090565b600080fd5b600080fd5b600073ffffffffffffffffffffffffffffffffffffffff82169050919050565b600061092f82610904565b9050919050565b61093f81610924565b811461094a57600080fd5b50565b60008135905061095c81610936565b92915050565b600060208284031215610978576109776108fa565b5b60006109868482850161094d565b91505092915050565b600080fd5b600080fd5b600080fd5b60008083601f8401126109b4576109b361098f565b5b8235905067ffffffffffffffff8111156109d1576109d0610994565b5b6020830191508360018202830111156109ed576109ec610999565b5b9250929050565b600080600060408486031215610a0d57610a0c6108fa565b5b6000610a1b8682870161094d565b935050602084013567ffffffffffffffff811115610a3c57610a3b6108ff565b5b610a488682870161099e565b92509250509250925092565b610a5d81610924565b82525050565b6000602082019050610a786000830184610a54565b92915050565b600080fd5b6000601f19601f8301169050919050565b7f4e487b7100000000000000000000000000000000000000000000000000000000600052604160045260246000fd5b610acc82610a83565b810181811067ffffffffffffffff82111715610aeb57610aea610a94565b5b80604052505050565b6000610afe6108f0565b9050610b0a8282610ac3565b919050565b600067ffffffffffffffff821115610b2a57610b29610a94565b5b610b3382610a83565b9050602081019050919050565b82818337600083830152505050565b6000610b62610b5d84610b0f565b610af4565b905082815260208101848484011115610b7e57610b7d610a7e565b5b610b89848285610b40565b509392505050565b600082601f830112610ba657610ba561098f565b5b8135610bb6848260208601610b4f565b91505092915050565b600080600060608486031215610bd857610bd76108fa565b5b6000610be68682870161094d565b9350506020610bf78682870161094d565b925050604084013567ffffffffffffffff811115610c1857610c176108ff565b5b610c2486828701610b91565b9150509250925092565b60008060408385031215610c4557610c446108fa565b5b6000610c538582860161094d565b925050602083013567ffffffffffffffff811115610c7457610c736108ff565b5b610c8085828601610b91565b9150509250929050565b600081905092915050565b6000610ca18385610c8a565b9350610cae838584610b40565b82840190509392505050565b6000610cc7828486610c95565b91508190509392505050565b600082825260208201905092915050565b7f43616e6e6f74206368616e6765207468652061646d696e206f6620612070726f60008201527f787920746f20746865207a65726f206164647265737300000000000000000000602082015250565b6000610d40603683610cd3565b9150610d4b82610ce4565b604082019050919050565b60006020820190508181036000830152610d6f81610d33565b9050919050565b6000604082019050610d8b6000830185610a54565b610d986020830184610a54565b9392505050565b6000819050919050565b7f4e487b7100000000000000000000000000000000000000000000000000000000600052601160045260246000fd5b6000610de382610d9f565b9150610dee83610d9f565b925082821015610e0157610e00610da9565b5b828203905092915050565b7f4e487b7100000000000000000000000000000000000000000000000000000000600052600160045260246000fd5b600081519050919050565b60005b83811015610e64578082015181840152602081019050610e49565b83811115610e73576000848401525b50505050565b6000610e8482610e3b565b610e8e8185610c8a565b9350610e9e818560208601610e46565b80840191505092915050565b6000610eb68284610e79565b915081905092915050565b7f43616e6e6f742063616c6c2066616c6c6261636b2066756e6374696f6e20667260008201527f6f6d207468652070726f78792061646d696e0000000000000000000000000000602082015250565b6000610f1d603283610cd3565b9150610f2882610ec1565b604082019050919050565b60006020820190508181036000830152610f4c81610f10565b9050919050565b7f43616e6e6f742073657420612070726f787920696d706c656d656e746174696f60008201527f6e20746f2061206e6f6e2d636f6e747261637420616464726573730000000000602082015250565b6000610faf603b83610cd3565b9150610fba82610f53565b604082019050919050565b60006020820190508181036000830152610fde81610fa2565b905091905056fea264697066735822122089107c21e0ab26badd69ded1a1ec4a1277498dd380d55f2c5bfddf7870dc538364736f6c634300080a0033a26469706673582212203c5053170ad362e1d0737ebb6216be26362195f072eb630067d5d23c709c697d64736f6c634300080a0033608060405234801561001057600080fd5b5061101b806100206000396000f3fe6080604052600436106100745760003560e01c80638f2839701161004e5780638f283970146100ef578063cf7a1d7714610118578063d1f5789414610134578063f851a4401461015057610075565b80633659cfe61461007f5780634f1ef286146100a85780635c60da1b146100c457610075565b5b61007d61017b565b005b34801561008b57600080fd5b506100a660048036038101906100a19190610962565b610195565b005b6100c260048036038101906100bd91906109f4565b6101ea565b005b3480156100d057600080fd5b506100d96102b9565b6040516100e69190610a63565b60405180910390f35b3480156100fb57600080fd5b5061011660048036038101906101119190610962565b610311565b005b610132600480360381019061012d9190610bbf565b610416565b005b61014e60048036038101906101499190610c2e565b6104d3565b005b34801561015c57600080fd5b50610165610606565b6040516101729190610a63565b60405180910390f35b61018361065e565b61019361018e6106de565b61070f565b565b61019d610735565b73ffffffffffffffffffffffffffffffffffffffff163373ffffffffffffffffffffffffffffffffffffffff1614156101de576101d981610766565b6101e7565b6101e661017b565b5b50565b6101f2610735565b73ffffffffffffffffffffffffffffffffffffffff163373ffffffffffffffffffffffffffffffffffffffff1614156102ab5761022e83610766565b60008373ffffffffffffffffffffffffffffffffffffffff168383604051610257929190610cba565b600060405180830381855af49150503d8060008114610292576040519150601f19603f3d011682016040523d82523d6000602084013e610297565b606091505b50509050806102a557600080fd5b506102b4565b6102b361017b565b5b505050565b60006102c3610735565b73ffffffffffffffffffffffffffffffffffffffff163373ffffffffffffffffffffffffffffffffffffffff161415610305576102fe6106de565b905061030e565b61030d61017b565b5b90565b610319610735565b73ffffffffffffffffffffffffffffffffffffffff163373ffffffffffffffffffffffffffffffffffffffff16141561040a57600073ffffffffffffffffffffffffffffffffffffffff168173ffffffffffffffffffffffffffffffffffffffff1614156103bc576040517f08c379a00000000000000000000000000000000000000000000000000000000081526004016103b390610d56565b60405180910390fd5b7f7e644d79422f17c01e4894b5f4f588d331ebfa28653d42ae832dc59e38c9798f6103e5610735565b826040516103f4929190610d76565b60405180910390a1610405816107b5565b610413565b61041261017b565b5b50565b600073ffffffffffffffffffffffffffffffffffffffff166104366106de565b73ffffffffffffffffffffffffffffffffffffffff161461045657600080fd5b61046083826104d3565b60017fb53127684a568b3173ae13b9f8a6016e243e63b6e8ee1178d6a717850b5d610460001c6104909190610dd8565b60001b7fb53127684a568b3173ae13b9f8a6016e243e63b6e8ee1178d6a717850b5d610360001b146104c5576104c4610e0c565b5b6104ce826107b5565b505050565b600073ffffffffffffffffffffffffffffffffffffffff166104f36106de565b73ffffffffffffffffffffffffffffffffffffffff161461051357600080fd5b60017f360894a13ba1a3210667c828492db98dca3e2076cc3735a920a3ca505d382bbd60001c6105439190610dd8565b60001b7f360894a13ba1a3210667c828492db98dca3e2076cc3735a920a3ca505d382bbc60001b1461057857610577610e0c565b5b610581826107e4565b6000815111156106025760008273ffffffffffffffffffffffffffffffffffffffff16826040516105b29190610eaa565b600060405180830381855af49150503d80600081146105ed576040519150601f19603f3d011682016040523d82523d6000602084013e6105f2565b606091505b505090508061060057600080fd5b505b5050565b6000610610610735565b73ffffffffffffffffffffffffffffffffffffffff163373ffffffffffffffffffffffffffffffffffffffff1614156106525761064b610735565b905061065b565b61065a61017b565b5b90565b610666610735565b73ffffffffffffffffffffffffffffffffffffffff163373ffffffffffffffffffffffffffffffffffffffff1614156106d4576040517f08c379a00000000000000000000000000000000000000000000000000000000081526004016106cb90610f33565b60405180910390fd5b6106dc61085b565b565b6000807f360894a13ba1a3210667c828492db98dca3e2076cc3735a920a3ca505d382bbc60001b9050805491505090565b3660008037600080366000845af43d6000803e8060008114610730573d6000f35b3d6000fd5b6000807fb53127684a568b3173ae13b9f8a6016e243e63b6e8ee1178d6a717850b5d610360001b9050805491505090565b61076f816107e4565b8073ffffffffffffffffffffffffffffffffffffffff167fbc7cd75a20ee27fd9adebab32041f755214dbc6bffa90cc0225b39da2e5c2d3b60405160405180910390a250565b60007fb53127684a568b3173ae13b9f8a6016e243e63b6e8ee1178d6a717850b5d610360001b90508181555050565b6107ed816108db565b61082c576040517f08c379a000000000000000000000000000000000000000000000000000000000815260040161082390610fc5565b60405180910390fd5b60007f360894a13ba1a3210667c828492db98dca3e2076cc3735a920a3ca505d382bbc60001b90508181555050565b610863610735565b73ffffffffffffffffffffffffffffffffffffffff163373ffffffffffffffffffffffffffffffffffffffff1614156108d1576040517f08c379a00000000000000000000000000000000000000000000000000000000081526004016108c890610f33565b60405180910390fd5b6108d96108ee565b565b600080823b905060008111915050919050565b565b6000604051905090565b600080fd5b600080fd5b600073ffffffffffffffffffffffffffffffffffffffff82169050919050565b600061092f82610904565b9050919050565b61093f81610924565b811461094a57600080fd5b50565b60008135905061095c81610936565b92915050565b600060208284031215610978576109776108fa565b5b60006109868482850161094d565b91505092915050565b600080fd5b600080fd5b600080fd5b60008083601f8401126109b4576109b361098f565b5b8235905067ffffffffffffffff8111156109d1576109d0610994565b5b6020830191508360018202830111156109ed576109ec610999565b5b9250929050565b600080600060408486031215610a0d57610a0c6108fa565b5b6000610a1b8682870161094d565b935050602084013567ffffffffffffffff811115610a3c57610a3b6108ff565b5b610a488682870161099e565b92509250509250925092565b610a5d81610924565b82525050565b6000602082019050610a786000830184610a54565b92915050565b600080fd5b6000601f19601f8301169050919050565b7f4e487b7100000000000000000000000000000000000000000000000000000000600052604160045260246000fd5b610acc82610a83565b810181811067ffffffffffffffff82111715610aeb57610aea610a94565b5b80604052505050565b6000610afe6108f0565b9050610b0a8282610ac3565b919050565b600067ffffffffffffffff821115610b2a57610b29610a94565b5b610b3382610a83565b9050602081019050919050565b82818337600083830152505050565b6000610b62610b5d84610b0f565b610af4565b905082815260208101848484011115610b7e57610b7d610a7e565b5b610b89848285610b40565b509392505050565b600082601f830112610ba657610ba561098f565b5b8135610bb6848260208601610b4f565b91505092915050565b600080600060608486031215610bd857610bd76108fa565b5b6000610be68682870161094d565b9350506020610bf78682870161094d565b925050604084013567ffffffffffffffff811115610c1857610c176108ff565b5b610c2486828701610b91565b9150509250925092565b60008060408385031215610c4557610c446108fa565b5b6000610c538582860161094d565b925050602083013567ffffffffffffffff811115610c7457610c736108ff565b5b610c8085828601610b91565b9150509250929050565b600081905092915050565b6000610ca18385610c8a565b9350610cae838584610b40565b82840190509392505050565b6000610cc7828486610c95565b91508190509392505050565b600082825260208201905092915050565b7f43616e6e6f74206368616e6765207468652061646d696e206f6620612070726f60008201527f787920746f20746865207a65726f206164647265737300000000000000000000602082015250565b6000610d40603683610cd3565b9150610d4b82610ce4565b604082019050919050565b60006020820190508181036000830152610d6f81610d33565b9050919050565b6000604082019050610d8b6000830185610a54565b610d986020830184610a54565b9392505050565b6000819050919050565b7f4e487b7100000000000000000000000000000000000000000000000000000000600052601160045260246000fd5b6000610de382610d9f565b9150610dee83610d9f565b925082821015610e0157610e00610da9565b5b828203905092915050565b7f4e487b7100000000000000000000000000000000000000000000000000000000600052600160045260246000fd5b600081519050919050565b60005b83811015610e64578082015181840152602081019050610e49565b83811115610e73576000848401525b50505050565b6000610e8482610e3b565b610e8e8185610c8a565b9350610e9e818560208601610e46565b80840191505092915050565b6000610eb68284610e79565b915081905092915050565b7f43616e6e6f742063616c6c2066616c6c6261636b2066756e6374696f6e20667260008201527f6f6d207468652070726f78792061646d696e0000000000000000000000000000602082015250565b6000610f1d603283610cd3565b9150610f2882610ec1565b604082019050919050565b60006020820190508181036000830152610f4c81610f10565b9050919050565b7f43616e6e6f742073657420612070726f787920696d706c656d656e746174696f60008201527f6e20746f2061206e6f6e2d636f6e747261637420616464726573730000000000602082015250565b6000610faf603b83610cd3565b9150610fba82610f53565b604082019050919050565b60006020820190508181036000830152610fde81610fa2565b905091905056fea264697066735822122089107c21e0ab26badd69ded1a1ec4a1277498dd380d55f2c5bfddf7870dc538364736f6c634300080a0033",
  "immutableReferences": {},
  "source": "//SPDX-License-Identifier: MIT\r\npragma solidity  >=0.8.0;\r\n\r\nimport \"./CryptoPaws.sol\";\r\nimport \"./Lottery.sol\";\r\nimport './ProxyFactory.sol';\r\n\r\ncontract LotteryFactory is ProxyFactory {\r\n    CryptoPaws cp;\r\n    address public implementationContract;\r\n    \r\n    mapping(uint256 => address) public lotteries;\r\n    mapping(address => uint256) public owners;\r\n\r\n    constructor(address _pawaddress, address _implementationcontract) public {\r\n        implementationContract = _implementationcontract;\r\n        cp = CryptoPaws(_pawaddress);\r\n    } \r\n\r\n    function createLottery(uint256 _id, uint256 _enterPrice) public payable {\r\n        bool exist = cp.getTokenExists(_id);\r\n        require(exist, \"Token not found\");\r\n        address owner = cp.getTokenOwner(_id);\r\n        require(msg.sender == owner, \"Can't lottery a token you don't own\");\r\n        require(msg.value >= 8000000000000000 wei, \"You must pay the price to create an auction\");\r\n        bytes memory payload = abi.encodeWithSignature(\"initialize(uint256, uint256, address)\", _id, _enterPrice, msg.sender);\r\n        address lotto = deployMinimal(implementationContract, payload);\r\n        cp.lottoTransferTo(_id, lotto);\r\n        owners[msg.sender] = _id;\r\n        lotteries[_id] = lotto;\r\n    }\r\n\r\n    function claim(uint256 _id) public {\r\n        address cont = lotteries[_id];\r\n        Lottery lottoCont = Lottery(cont);\r\n        address Lwinner = lottoCont.winner();\r\n        require(msg.sender == Lwinner, \"You are not the winner\");\r\n        cp.lottoTransferFrom(_id, cont, Lwinner);\r\n\r\n    }\r\n}",
  "sourcePath": "D:\\CSC333\\cryptoboys-nft-marketplace\\src\\contracts\\LotteryCloneFactory.sol",
  "compiler": {
    "name": "solc",
    "version": "0.8.10+commit.fc410830.Emscripten.clang"
  },
  "schemaVersion": "3.4.3",
  "updatedAt": "2021-11-28T04:45:35.227Z",
  "devdoc": {
    "kind": "dev",
    "methods": {},
    "version": 1
  },
  "userdoc": {
    "kind": "user",
    "methods": {},
    "version": 1
  }
}