{
  "contractName": "LotteryFactory",
  "abi": [
    {
      "inputs": [
        {
          "internalType": "address",
          "name": "_pawaddress",
          "type": "address"
        },
        {
          "internalType": "address",
          "name": "_implementationcontract",
          "type": "address"
        }
      ],
      "stateMutability": "nonpayable",
      "type": "constructor"
    },
    {
      "anonymous": false,
      "inputs": [
        {
          "indexed": false,
          "internalType": "address",
          "name": "proxy",
          "type": "address"
        }
      ],
      "name": "ProxyCreated",
      "type": "event"
    },
    {
      "inputs": [
        {
          "internalType": "uint256",
          "name": "",
          "type": "uint256"
        }
      ],
      "name": "active",
      "outputs": [
        {
          "internalType": "bool",
          "name": "",
          "type": "bool"
        }
      ],
      "stateMutability": "view",
      "type": "function",
      "constant": true
    },
    {
      "inputs": [
        {
          "internalType": "uint256",
          "name": "_salt",
          "type": "uint256"
        },
        {
          "internalType": "address",
          "name": "_logic",
          "type": "address"
        },
        {
          "internalType": "address",
          "name": "_admin",
          "type": "address"
        },
        {
          "internalType": "bytes",
          "name": "_data",
          "type": "bytes"
        }
      ],
      "name": "deploy",
      "outputs": [
        {
          "internalType": "address",
          "name": "",
          "type": "address"
        }
      ],
      "stateMutability": "nonpayable",
      "type": "function"
    },
    {
      "inputs": [
        {
          "internalType": "address",
          "name": "_logic",
          "type": "address"
        },
        {
          "internalType": "bytes",
          "name": "_data",
          "type": "bytes"
        }
      ],
      "name": "deployMinimal",
      "outputs": [
        {
          "internalType": "address",
          "name": "proxy",
          "type": "address"
        }
      ],
      "stateMutability": "nonpayable",
      "type": "function"
    },
    {
      "inputs": [
        {
          "internalType": "uint256",
          "name": "_salt",
          "type": "uint256"
        },
        {
          "internalType": "address",
          "name": "_logic",
          "type": "address"
        },
        {
          "internalType": "address",
          "name": "_admin",
          "type": "address"
        },
        {
          "internalType": "bytes",
          "name": "_data",
          "type": "bytes"
        },
        {
          "internalType": "bytes",
          "name": "_signature",
          "type": "bytes"
        }
      ],
      "name": "deploySigned",
      "outputs": [
        {
          "internalType": "address",
          "name": "",
          "type": "address"
        }
      ],
      "stateMutability": "nonpayable",
      "type": "function"
    },
    {
      "inputs": [
        {
          "internalType": "uint256",
          "name": "_salt",
          "type": "uint256"
        },
        {
          "internalType": "address",
          "name": "_sender",
          "type": "address"
        }
      ],
      "name": "getDeploymentAddress",
      "outputs": [
        {
          "internalType": "address",
          "name": "",
          "type": "address"
        }
      ],
      "stateMutability": "view",
      "type": "function",
      "constant": true
    },
    {
      "inputs": [
        {
          "internalType": "uint256",
          "name": "_salt",
          "type": "uint256"
        },
        {
          "internalType": "address",
          "name": "_logic",
          "type": "address"
        },
        {
          "internalType": "address",
          "name": "_admin",
          "type": "address"
        },
        {
          "internalType": "bytes",
          "name": "_data",
          "type": "bytes"
        },
        {
          "internalType": "bytes",
          "name": "_signature",
          "type": "bytes"
        }
      ],
      "name": "getSigner",
      "outputs": [
        {
          "internalType": "address",
          "name": "",
          "type": "address"
        }
      ],
      "stateMutability": "view",
      "type": "function",
      "constant": true
    },
    {
      "inputs": [],
      "name": "implementationContract",
      "outputs": [
        {
          "internalType": "address",
          "name": "",
          "type": "address"
        }
      ],
      "stateMutability": "view",
      "type": "function",
      "constant": true
    },
    {
      "inputs": [
        {
          "internalType": "uint256",
          "name": "",
          "type": "uint256"
        }
      ],
      "name": "lotteries",
      "outputs": [
        {
          "internalType": "address",
          "name": "",
          "type": "address"
        }
      ],
      "stateMutability": "view",
      "type": "function",
      "constant": true
    },
    {
      "inputs": [
        {
          "internalType": "uint256",
          "name": "",
          "type": "uint256"
        }
      ],
      "name": "lotteriesarray",
      "outputs": [
        {
          "internalType": "uint256",
          "name": "",
          "type": "uint256"
        }
      ],
      "stateMutability": "view",
      "type": "function",
      "constant": true
    },
    {
      "inputs": [],
      "name": "lottoPrice",
      "outputs": [
        {
          "internalType": "uint256",
          "name": "",
          "type": "uint256"
        }
      ],
      "stateMutability": "view",
      "type": "function",
      "constant": true
    },
    {
      "inputs": [
        {
          "internalType": "uint256",
          "name": "",
          "type": "uint256"
        }
      ],
      "name": "owners",
      "outputs": [
        {
          "internalType": "address",
          "name": "",
          "type": "address"
        }
      ],
      "stateMutability": "view",
      "type": "function",
      "constant": true
    },
    {
      "inputs": [],
      "name": "totalactive",
      "outputs": [
        {
          "internalType": "uint256",
          "name": "",
          "type": "uint256"
        }
      ],
      "stateMutability": "view",
      "type": "function",
      "constant": true
    },
    {
      "inputs": [
        {
          "internalType": "uint256",
          "name": "_id",
          "type": "uint256"
        },
        {
          "internalType": "uint256",
          "name": "_enterPrice",
          "type": "uint256"
        }
      ],
      "name": "createLottery",
      "outputs": [],
      "stateMutability": "payable",
      "type": "function",
      "payable": true
    },
    {
      "inputs": [
        {
          "internalType": "uint256",
          "name": "_id",
          "type": "uint256"
        }
      ],
      "name": "claim",
      "outputs": [],
      "stateMutability": "nonpayable",
      "type": "function"
    }
  ],
  "bytecode": "0x6080604052661c6bf5263400006008553480156200001c57600080fd5b506040516200407b3803806200407b83398181016040528101906200004291906200017f565b60405180602001620000549062000107565b6020820181038252601f19601f820116604052508051906020012060008190555080600260006101000a81548173ffffffffffffffffffffffffffffffffffffffff021916908373ffffffffffffffffffffffffffffffffffffffff16021790555081600160006101000a81548173ffffffffffffffffffffffffffffffffffffffff021916908373ffffffffffffffffffffffffffffffffffffffff16021790555060006007819055505050620001c6565b61103b806200304083390190565b600080fd5b600073ffffffffffffffffffffffffffffffffffffffff82169050919050565b600062000147826200011a565b9050919050565b62000159816200013a565b81146200016557600080fd5b50565b60008151905062000179816200014e565b92915050565b6000806040838503121562000199576200019862000115565b5b6000620001a98582860162000168565b9250506020620001bc8582860162000168565b9150509250929050565b612e6a80620001d66000396000f3fe6080604052600436106100dd5760003560e01c80638033d5811161007f57806399e7d0561161005957806399e7d0561461031e578063a0876bec14610349578063b3eeb5e214610374578063fe35804e146103b1576100dd565b80638033d5811461026757806381ae1f5b146102a45780638c298812146102e1576100dd565b8063332d6626116100bb578063332d662614610199578063379607f5146101d65780634fafee40146101ff5780636150864c1461022a576100dd565b8063025e7c27146100e25780631398e0761461011f578063290f8f561461015c575b600080fd5b3480156100ee57600080fd5b506101096004803603810190610104919061111b565b6103cd565b6040516101169190611189565b60405180910390f35b34801561012b57600080fd5b506101466004803603810190610141919061111b565b610400565b6040516101539190611189565b60405180910390f35b34801561016857600080fd5b50610183600480360381019061017e9190611316565b610433565b6040516101909190611189565b60405180910390f35b3480156101a557600080fd5b506101c060048036038101906101bb9190611316565b610485565b6040516101cd9190611189565b60405180910390f35b3480156101e257600080fd5b506101fd60048036038101906101f8919061111b565b610520565b005b34801561020b57600080fd5b506102146107c4565b60405161022191906113d8565b60405180910390f35b34801561023657600080fd5b50610251600480360381019061024c91906113f3565b6107ca565b60405161025e9190611189565b60405180910390f35b34801561027357600080fd5b5061028e6004803603810190610289919061111b565b6107e3565b60405161029b9190611491565b60405180910390f35b3480156102b057600080fd5b506102cb60048036038101906102c691906114ac565b610803565b6040516102d89190611189565b60405180910390f35b3480156102ed57600080fd5b506103086004803603810190610303919061111b565b61085b565b60405161031591906113d8565b60405180910390f35b34801561032a57600080fd5b5061033361087f565b6040516103409190611189565b60405180910390f35b34801561035557600080fd5b5061035e6108a5565b60405161036b91906113d8565b60405180910390f35b34801561038057600080fd5b5061039b600480360381019061039691906114ec565b6108ab565b6040516103a89190611189565b60405180910390f35b6103cb60048036038101906103c69190611548565b6109cf565b005b60056020528060005260406000206000915054906101000a900473ffffffffffffffffffffffffffffffffffffffff1681565b60046020528060005260406000206000915054906101000a900473ffffffffffffffffffffffffffffffffffffffff1681565b60008061046d878787873060405160200161045295949392919061166b565b60405160208183030381529060405280519060200120610e58565b90506104798184610e88565b91505095945050505050565b6000806104958787878787610433565b9050600073ffffffffffffffffffffffffffffffffffffffff168173ffffffffffffffffffffffffffffffffffffffff161415610507576040517f08c379a00000000000000000000000000000000000000000000000000000000081526004016104fe90611723565b60405180910390fd5b6105148787878785610f74565b91505095945050505050565b60006004600083815260200190815260200160002060009054906101000a900473ffffffffffffffffffffffffffffffffffffffff169050600081905060008173ffffffffffffffffffffffffffffffffffffffff1663dfbf53ae6040518163ffffffff1660e01b8152600401602060405180830381865afa1580156105aa573d6000803e3d6000fd5b505050506040513d601f19601f820116820180604052508101906105ce9190611758565b90508073ffffffffffffffffffffffffffffffffffffffff163373ffffffffffffffffffffffffffffffffffffffff161461063e576040517f08c379a0000000000000000000000000000000000000000000000000000000008152600401610635906117d1565b60405180910390fd5b600160009054906101000a900473ffffffffffffffffffffffffffffffffffffffff1673ffffffffffffffffffffffffffffffffffffffff16637b3ba3098585846040518463ffffffff1660e01b815260040161069d939291906117f1565b600060405180830381600087803b1580156106b757600080fd5b505af11580156106cb573d6000803e3d6000fd5b5050505060005b6003805490508110156107915784600382815481106106f4576106f3611828565b5b9060005260206000200154141561077e57600360016003805490506107199190611886565b8154811061072a57610729611828565b5b90600052602060002001546003828154811061074957610748611828565b5b9060005260206000205050506003805480610767576107666118ba565b5b600190038181906000526020600020016000905590555b8080610789906118e9565b9150506106d2565b5060006006600086815260200190815260200160002060006101000a81548160ff02191690831515021790555050505050565b60085481565b60006107d98585858533610f74565b9050949350505050565b60066020528060005260406000206000915054906101000a900460ff1681565b6000806108108484611035565b9050600060ff60f81b308360005460405160200161083194939291906119aa565b604051602081830303815290604052805190602001209050606081901b60601c9250505092915050565b6003818154811061086b57600080fd5b906000526020600020016000915090505481565b600260009054906101000a900473ffffffffffffffffffffffffffffffffffffffff1681565b60075481565b6000808360601b90506040517f3d602d80600a3d3981f3363d3d373d3d3d363d7300000000000000000000000081528160148201527f5af43d82803e903d91602b57fd5bf3000000000000000000000000000000000060288201526037816000f09250507efffc2da0b561cae30d9826d37709e9421c4725faebc226cbbb7ef5fc5e73498260405161093d9190611189565b60405180910390a16000835111156109c85760008273ffffffffffffffffffffffffffffffffffffffff168460405161097691906119f8565b6000604051808303816000865af19150503d80600081146109b3576040519150601f19603f3d011682016040523d82523d6000602084013e6109b8565b606091505b50509050806109c657600080fd5b505b5092915050565b6000600160009054906101000a900473ffffffffffffffffffffffffffffffffffffffff1673ffffffffffffffffffffffffffffffffffffffff1663142687f3846040518263ffffffff1660e01b8152600401610a2c91906113d8565b602060405180830381865afa158015610a49573d6000803e3d6000fd5b505050506040513d601f19601f82011682018060405250810190610a6d9190611a3b565b905080610aaf576040517f08c379a0000000000000000000000000000000000000000000000000000000008152600401610aa690611ab4565b60405180910390fd5b6000600160009054906101000a900473ffffffffffffffffffffffffffffffffffffffff1673ffffffffffffffffffffffffffffffffffffffff1663a5cd761f856040518263ffffffff1660e01b8152600401610b0c91906113d8565b602060405180830381865afa158015610b29573d6000803e3d6000fd5b505050506040513d601f19601f82011682018060405250810190610b4d9190611758565b90508073ffffffffffffffffffffffffffffffffffffffff163373ffffffffffffffffffffffffffffffffffffffff1614610bbd576040517f08c379a0000000000000000000000000000000000000000000000000000000008152600401610bb490611b46565b60405180910390fd5b600854341015610c02576040517f08c379a0000000000000000000000000000000000000000000000000000000008152600401610bf990611bd8565b60405180910390fd5b6000848433604051602401610c1993929190611bf8565b6040516020818303038152906040527f9c5cfe77000000000000000000000000000000000000000000000000000000007bffffffffffffffffffffffffffffffffffffffffffffffffffffffff19166020820180517bffffffffffffffffffffffffffffffffffffffffffffffffffffffff838183161783525050505090506000610cc6600260009054906101000a900473ffffffffffffffffffffffffffffffffffffffff16836108ab565b9050600160009054906101000a900473ffffffffffffffffffffffffffffffffffffffff1673ffffffffffffffffffffffffffffffffffffffff16633c9eff9c87836040518363ffffffff1660e01b8152600401610d25929190611c2f565b600060405180830381600087803b158015610d3f57600080fd5b505af1158015610d53573d6000803e3d6000fd5b50505050336005600088815260200190815260200160002060006101000a81548173ffffffffffffffffffffffffffffffffffffffff021916908373ffffffffffffffffffffffffffffffffffffffff160217905550806004600088815260200190815260200160002060006101000a81548173ffffffffffffffffffffffffffffffffffffffff021916908373ffffffffffffffffffffffffffffffffffffffff16021790555060016006600088815260200190815260200160002060006101000a81548160ff0219169083151502179055506003869080600181540180825580915050600190039060005260206000200160009091909190915055505050505050565b600081604051602001610e6b9190611caf565b604051602081830303815290604052805190602001209050919050565b60006041825114610e9c5760009050610f6e565b60008060006020850151925060408501519150606085015160001a90507f7fffffffffffffffffffffffffffffff5d576e7357a4501ddfe92f46681b20a08260001c1115610ef05760009350505050610f6e565b601b8160ff1614158015610f085750601c8160ff1614155b15610f195760009350505050610f6e565b60018682858560405160008152602001604052604051610f3c9493929190611d00565b6020604051602081039080840390855afa158015610f5e573d6000803e3d6000fd5b5050506020604051035193505050505b92915050565b600080610f818784611068565b90507efffc2da0b561cae30d9826d37709e9421c4725faebc226cbbb7ef5fc5e734981604051610fb19190611189565b60405180910390a18073ffffffffffffffffffffffffffffffffffffffff1663cf7a1d778787876040518463ffffffff1660e01b8152600401610ff693929190611d8f565b600060405180830381600087803b15801561101057600080fd5b505af1158015611024573d6000803e3d6000fd5b505050508091505095945050505050565b6000828260405160200161104a929190611dcd565b60405160208183030381529060405280519060200120905092915050565b60008060006040518060200161107d906110c4565b6020820181038252601f19601f820116604052509050600061109f8686611035565b9050808251602084016000f59250823b6110b857600080fd5b82935050505092915050565b61103b80611dfa83390190565b6000604051905090565b600080fd5b600080fd5b6000819050919050565b6110f8816110e5565b811461110357600080fd5b50565b600081359050611115816110ef565b92915050565b600060208284031215611131576111306110db565b5b600061113f84828501611106565b91505092915050565b600073ffffffffffffffffffffffffffffffffffffffff82169050919050565b600061117382611148565b9050919050565b61118381611168565b82525050565b600060208201905061119e600083018461117a565b92915050565b6111ad81611168565b81146111b857600080fd5b50565b6000813590506111ca816111a4565b92915050565b600080fd5b600080fd5b6000601f19601f8301169050919050565b7f4e487b7100000000000000000000000000000000000000000000000000000000600052604160045260246000fd5b611223826111da565b810181811067ffffffffffffffff82111715611242576112416111eb565b5b80604052505050565b60006112556110d1565b9050611261828261121a565b919050565b600067ffffffffffffffff821115611281576112806111eb565b5b61128a826111da565b9050602081019050919050565b82818337600083830152505050565b60006112b96112b484611266565b61124b565b9050828152602081018484840111156112d5576112d46111d5565b5b6112e0848285611297565b509392505050565b600082601f8301126112fd576112fc6111d0565b5b813561130d8482602086016112a6565b91505092915050565b600080600080600060a08688031215611332576113316110db565b5b600061134088828901611106565b9550506020611351888289016111bb565b9450506040611362888289016111bb565b935050606086013567ffffffffffffffff811115611383576113826110e0565b5b61138f888289016112e8565b925050608086013567ffffffffffffffff8111156113b0576113af6110e0565b5b6113bc888289016112e8565b9150509295509295909350565b6113d2816110e5565b82525050565b60006020820190506113ed60008301846113c9565b92915050565b6000806000806080858703121561140d5761140c6110db565b5b600061141b87828801611106565b945050602061142c878288016111bb565b935050604061143d878288016111bb565b925050606085013567ffffffffffffffff81111561145e5761145d6110e0565b5b61146a878288016112e8565b91505092959194509250565b60008115159050919050565b61148b81611476565b82525050565b60006020820190506114a66000830184611482565b92915050565b600080604083850312156114c3576114c26110db565b5b60006114d185828601611106565b92505060206114e2858286016111bb565b9150509250929050565b60008060408385031215611503576115026110db565b5b6000611511858286016111bb565b925050602083013567ffffffffffffffff811115611532576115316110e0565b5b61153e858286016112e8565b9150509250929050565b6000806040838503121561155f5761155e6110db565b5b600061156d85828601611106565b925050602061157e85828601611106565b9150509250929050565b6000819050919050565b6115a361159e826110e5565b611588565b82525050565b60008160601b9050919050565b60006115c1826115a9565b9050919050565b60006115d3826115b6565b9050919050565b6115eb6115e682611168565b6115c8565b82525050565b600081519050919050565b600081905092915050565b60005b8381101561162557808201518184015260208101905061160a565b83811115611634576000848401525b50505050565b6000611645826115f1565b61164f81856115fc565b935061165f818560208601611607565b80840191505092915050565b60006116778288611592565b60208201915061168782876115da565b60148201915061169782866115da565b6014820191506116a7828561163a565b91506116b382846115da565b6014820191508190509695505050505050565b600082825260208201905092915050565b7f496e76616c6964207369676e6174757265000000000000000000000000000000600082015250565b600061170d6011836116c6565b9150611718826116d7565b602082019050919050565b6000602082019050818103600083015261173c81611700565b9050919050565b600081519050611752816111a4565b92915050565b60006020828403121561176e5761176d6110db565b5b600061177c84828501611743565b91505092915050565b7f596f7520617265206e6f74207468652077696e6e657200000000000000000000600082015250565b60006117bb6016836116c6565b91506117c682611785565b602082019050919050565b600060208201905081810360008301526117ea816117ae565b9050919050565b600060608201905061180660008301866113c9565b611813602083018561117a565b611820604083018461117a565b949350505050565b7f4e487b7100000000000000000000000000000000000000000000000000000000600052603260045260246000fd5b7f4e487b7100000000000000000000000000000000000000000000000000000000600052601160045260246000fd5b6000611891826110e5565b915061189c836110e5565b9250828210156118af576118ae611857565b5b828203905092915050565b7f4e487b7100000000000000000000000000000000000000000000000000000000600052603160045260246000fd5b60006118f4826110e5565b91507fffffffffffffffffffffffffffffffffffffffffffffffffffffffffffffffff82141561192757611926611857565b5b600182019050919050565b60007fff0000000000000000000000000000000000000000000000000000000000000082169050919050565b6000819050919050565b61197961197482611932565b61195e565b82525050565b6000819050919050565b6000819050919050565b6119a461199f8261197f565b611989565b82525050565b60006119b68287611968565b6001820191506119c682866115da565b6014820191506119d68285611993565b6020820191506119e68284611993565b60208201915081905095945050505050565b6000611a04828461163a565b915081905092915050565b611a1881611476565b8114611a2357600080fd5b50565b600081519050611a3581611a0f565b92915050565b600060208284031215611a5157611a506110db565b5b6000611a5f84828501611a26565b91505092915050565b7f546f6b656e206e6f7420666f756e640000000000000000000000000000000000600082015250565b6000611a9e600f836116c6565b9150611aa982611a68565b602082019050919050565b60006020820190508181036000830152611acd81611a91565b9050919050565b7f43616e2774206c6f7474657279206120746f6b656e20796f7520646f6e27742060008201527f6f776e0000000000000000000000000000000000000000000000000000000000602082015250565b6000611b306023836116c6565b9150611b3b82611ad4565b604082019050919050565b60006020820190508181036000830152611b5f81611b23565b9050919050565b7f596f75206d757374207061792074686520707269636520746f2063726561746560008201527f20616e2061756374696f6e000000000000000000000000000000000000000000602082015250565b6000611bc2602b836116c6565b9150611bcd82611b66565b604082019050919050565b60006020820190508181036000830152611bf181611bb5565b9050919050565b6000606082019050611c0d60008301866113c9565b611c1a60208301856113c9565b611c27604083018461117a565b949350505050565b6000604082019050611c4460008301856113c9565b611c51602083018461117a565b9392505050565b600081905092915050565b7f19457468657265756d205369676e6564204d6573736167653a0a333200000000600082015250565b6000611c99601c83611c58565b9150611ca482611c63565b601c82019050919050565b6000611cba82611c8c565b9150611cc68284611993565b60208201915081905092915050565b611cde8161197f565b82525050565b600060ff82169050919050565b611cfa81611ce4565b82525050565b6000608082019050611d156000830187611cd5565b611d226020830186611cf1565b611d2f6040830185611cd5565b611d3c6060830184611cd5565b95945050505050565b600082825260208201905092915050565b6000611d61826115f1565b611d6b8185611d45565b9350611d7b818560208601611607565b611d84816111da565b840191505092915050565b6000606082019050611da4600083018661117a565b611db1602083018561117a565b8181036040830152611dc38184611d56565b9050949350505050565b6000611dd98285611592565b602082019150611de982846115da565b601482019150819050939250505056fe608060405234801561001057600080fd5b5061101b806100206000396000f3fe6080604052600436106100745760003560e01c80638f2839701161004e5780638f283970146100ef578063cf7a1d7714610118578063d1f5789414610134578063f851a4401461015057610075565b80633659cfe61461007f5780634f1ef286146100a85780635c60da1b146100c457610075565b5b61007d61017b565b005b34801561008b57600080fd5b506100a660048036038101906100a19190610962565b610195565b005b6100c260048036038101906100bd91906109f4565b6101ea565b005b3480156100d057600080fd5b506100d96102b9565b6040516100e69190610a63565b60405180910390f35b3480156100fb57600080fd5b5061011660048036038101906101119190610962565b610311565b005b610132600480360381019061012d9190610bbf565b610416565b005b61014e60048036038101906101499190610c2e565b6104d3565b005b34801561015c57600080fd5b50610165610606565b6040516101729190610a63565b60405180910390f35b61018361065e565b61019361018e6106de565b61070f565b565b61019d610735565b73ffffffffffffffffffffffffffffffffffffffff163373ffffffffffffffffffffffffffffffffffffffff1614156101de576101d981610766565b6101e7565b6101e661017b565b5b50565b6101f2610735565b73ffffffffffffffffffffffffffffffffffffffff163373ffffffffffffffffffffffffffffffffffffffff1614156102ab5761022e83610766565b60008373ffffffffffffffffffffffffffffffffffffffff168383604051610257929190610cba565b600060405180830381855af49150503d8060008114610292576040519150601f19603f3d011682016040523d82523d6000602084013e610297565b606091505b50509050806102a557600080fd5b506102b4565b6102b361017b565b5b505050565b60006102c3610735565b73ffffffffffffffffffffffffffffffffffffffff163373ffffffffffffffffffffffffffffffffffffffff161415610305576102fe6106de565b905061030e565b61030d61017b565b5b90565b610319610735565b73ffffffffffffffffffffffffffffffffffffffff163373ffffffffffffffffffffffffffffffffffffffff16141561040a57600073ffffffffffffffffffffffffffffffffffffffff168173ffffffffffffffffffffffffffffffffffffffff1614156103bc576040517f08c379a00000000000000000000000000000000000000000000000000000000081526004016103b390610d56565b60405180910390fd5b7f7e644d79422f17c01e4894b5f4f588d331ebfa28653d42ae832dc59e38c9798f6103e5610735565b826040516103f4929190610d76565b60405180910390a1610405816107b5565b610413565b61041261017b565b5b50565b600073ffffffffffffffffffffffffffffffffffffffff166104366106de565b73ffffffffffffffffffffffffffffffffffffffff161461045657600080fd5b61046083826104d3565b60017fb53127684a568b3173ae13b9f8a6016e243e63b6e8ee1178d6a717850b5d610460001c6104909190610dd8565b60001b7fb53127684a568b3173ae13b9f8a6016e243e63b6e8ee1178d6a717850b5d610360001b146104c5576104c4610e0c565b5b6104ce826107b5565b505050565b600073ffffffffffffffffffffffffffffffffffffffff166104f36106de565b73ffffffffffffffffffffffffffffffffffffffff161461051357600080fd5b60017f360894a13ba1a3210667c828492db98dca3e2076cc3735a920a3ca505d382bbd60001c6105439190610dd8565b60001b7f360894a13ba1a3210667c828492db98dca3e2076cc3735a920a3ca505d382bbc60001b1461057857610577610e0c565b5b610581826107e4565b6000815111156106025760008273ffffffffffffffffffffffffffffffffffffffff16826040516105b29190610eaa565b600060405180830381855af49150503d80600081146105ed576040519150601f19603f3d011682016040523d82523d6000602084013e6105f2565b606091505b505090508061060057600080fd5b505b5050565b6000610610610735565b73ffffffffffffffffffffffffffffffffffffffff163373ffffffffffffffffffffffffffffffffffffffff1614156106525761064b610735565b905061065b565b61065a61017b565b5b90565b610666610735565b73ffffffffffffffffffffffffffffffffffffffff163373ffffffffffffffffffffffffffffffffffffffff1614156106d4576040517f08c379a00000000000000000000000000000000000000000000000000000000081526004016106cb90610f33565b60405180910390fd5b6106dc61085b565b565b6000807f360894a13ba1a3210667c828492db98dca3e2076cc3735a920a3ca505d382bbc60001b9050805491505090565b3660008037600080366000845af43d6000803e8060008114610730573d6000f35b3d6000fd5b6000807fb53127684a568b3173ae13b9f8a6016e243e63b6e8ee1178d6a717850b5d610360001b9050805491505090565b61076f816107e4565b8073ffffffffffffffffffffffffffffffffffffffff167fbc7cd75a20ee27fd9adebab32041f755214dbc6bffa90cc0225b39da2e5c2d3b60405160405180910390a250565b60007fb53127684a568b3173ae13b9f8a6016e243e63b6e8ee1178d6a717850b5d610360001b90508181555050565b6107ed816108db565b61082c576040517f08c379a000000000000000000000000000000000000000000000000000000000815260040161082390610fc5565b60405180910390fd5b60007f360894a13ba1a3210667c828492db98dca3e2076cc3735a920a3ca505d382bbc60001b90508181555050565b610863610735565b73ffffffffffffffffffffffffffffffffffffffff163373ffffffffffffffffffffffffffffffffffffffff1614156108d1576040517f08c379a00000000000000000000000000000000000000000000000000000000081526004016108c890610f33565b60405180910390fd5b6108d96108ee565b565b600080823b905060008111915050919050565b565b6000604051905090565b600080fd5b600080fd5b600073ffffffffffffffffffffffffffffffffffffffff82169050919050565b600061092f82610904565b9050919050565b61093f81610924565b811461094a57600080fd5b50565b60008135905061095c81610936565b92915050565b600060208284031215610978576109776108fa565b5b60006109868482850161094d565b91505092915050565b600080fd5b600080fd5b600080fd5b60008083601f8401126109b4576109b361098f565b5b8235905067ffffffffffffffff8111156109d1576109d0610994565b5b6020830191508360018202830111156109ed576109ec610999565b5b9250929050565b600080600060408486031215610a0d57610a0c6108fa565b5b6000610a1b8682870161094d565b935050602084013567ffffffffffffffff811115610a3c57610a3b6108ff565b5b610a488682870161099e565b92509250509250925092565b610a5d81610924565b82525050565b6000602082019050610a786000830184610a54565b92915050565b600080fd5b6000601f19601f8301169050919050565b7f4e487b7100000000000000000000000000000000000000000000000000000000600052604160045260246000fd5b610acc82610a83565b810181811067ffffffffffffffff82111715610aeb57610aea610a94565b5b80604052505050565b6000610afe6108f0565b9050610b0a8282610ac3565b919050565b600067ffffffffffffffff821115610b2a57610b29610a94565b5b610b3382610a83565b9050602081019050919050565b82818337600083830152505050565b6000610b62610b5d84610b0f565b610af4565b905082815260208101848484011115610b7e57610b7d610a7e565b5b610b89848285610b40565b509392505050565b600082601f830112610ba657610ba561098f565b5b8135610bb6848260208601610b4f565b91505092915050565b600080600060608486031215610bd857610bd76108fa565b5b6000610be68682870161094d565b9350506020610bf78682870161094d565b925050604084013567ffffffffffffffff811115610c1857610c176108ff565b5b610c2486828701610b91565b9150509250925092565b60008060408385031215610c4557610c446108fa565b5b6000610c538582860161094d565b925050602083013567ffffffffffffffff811115610c7457610c736108ff565b5b610c8085828601610b91565b9150509250929050565b600081905092915050565b6000610ca18385610c8a565b9350610cae838584610b40565b82840190509392505050565b6000610cc7828486610c95565b91508190509392505050565b600082825260208201905092915050565b7f43616e6e6f74206368616e6765207468652061646d696e206f6620612070726f60008201527f787920746f20746865207a65726f206164647265737300000000000000000000602082015250565b6000610d40603683610cd3565b9150610d4b82610ce4565b604082019050919050565b60006020820190508181036000830152610d6f81610d33565b9050919050565b6000604082019050610d8b6000830185610a54565b610d986020830184610a54565b9392505050565b6000819050919050565b7f4e487b7100000000000000000000000000000000000000000000000000000000600052601160045260246000fd5b6000610de382610d9f565b9150610dee83610d9f565b925082821015610e0157610e00610da9565b5b828203905092915050565b7f4e487b7100000000000000000000000000000000000000000000000000000000600052600160045260246000fd5b600081519050919050565b60005b83811015610e64578082015181840152602081019050610e49565b83811115610e73576000848401525b50505050565b6000610e8482610e3b565b610e8e8185610c8a565b9350610e9e818560208601610e46565b80840191505092915050565b6000610eb68284610e79565b915081905092915050565b7f43616e6e6f742063616c6c2066616c6c6261636b2066756e6374696f6e20667260008201527f6f6d207468652070726f78792061646d696e0000000000000000000000000000602082015250565b6000610f1d603283610cd3565b9150610f2882610ec1565b604082019050919050565b60006020820190508181036000830152610f4c81610f10565b9050919050565b7f43616e6e6f742073657420612070726f787920696d706c656d656e746174696f60008201527f6e20746f2061206e6f6e2d636f6e747261637420616464726573730000000000602082015250565b6000610faf603b83610cd3565b9150610fba82610f53565b604082019050919050565b60006020820190508181036000830152610fde81610fa2565b905091905056fea264697066735822122089107c21e0ab26badd69ded1a1ec4a1277498dd380d55f2c5bfddf7870dc538364736f6c634300080a0033a264697066735822122084aafcec4f5f3947e90e8db5619da687d35e9c6fc3e0b8a6ccc95c7b51526a5864736f6c634300080a0033608060405234801561001057600080fd5b5061101b806100206000396000f3fe6080604052600436106100745760003560e01c80638f2839701161004e5780638f283970146100ef578063cf7a1d7714610118578063d1f5789414610134578063f851a4401461015057610075565b80633659cfe61461007f5780634f1ef286146100a85780635c60da1b146100c457610075565b5b61007d61017b565b005b34801561008b57600080fd5b506100a660048036038101906100a19190610962565b610195565b005b6100c260048036038101906100bd91906109f4565b6101ea565b005b3480156100d057600080fd5b506100d96102b9565b6040516100e69190610a63565b60405180910390f35b3480156100fb57600080fd5b5061011660048036038101906101119190610962565b610311565b005b610132600480360381019061012d9190610bbf565b610416565b005b61014e60048036038101906101499190610c2e565b6104d3565b005b34801561015c57600080fd5b50610165610606565b6040516101729190610a63565b60405180910390f35b61018361065e565b61019361018e6106de565b61070f565b565b61019d610735565b73ffffffffffffffffffffffffffffffffffffffff163373ffffffffffffffffffffffffffffffffffffffff1614156101de576101d981610766565b6101e7565b6101e661017b565b5b50565b6101f2610735565b73ffffffffffffffffffffffffffffffffffffffff163373ffffffffffffffffffffffffffffffffffffffff1614156102ab5761022e83610766565b60008373ffffffffffffffffffffffffffffffffffffffff168383604051610257929190610cba565b600060405180830381855af49150503d8060008114610292576040519150601f19603f3d011682016040523d82523d6000602084013e610297565b606091505b50509050806102a557600080fd5b506102b4565b6102b361017b565b5b505050565b60006102c3610735565b73ffffffffffffffffffffffffffffffffffffffff163373ffffffffffffffffffffffffffffffffffffffff161415610305576102fe6106de565b905061030e565b61030d61017b565b5b90565b610319610735565b73ffffffffffffffffffffffffffffffffffffffff163373ffffffffffffffffffffffffffffffffffffffff16141561040a57600073ffffffffffffffffffffffffffffffffffffffff168173ffffffffffffffffffffffffffffffffffffffff1614156103bc576040517f08c379a00000000000000000000000000000000000000000000000000000000081526004016103b390610d56565b60405180910390fd5b7f7e644d79422f17c01e4894b5f4f588d331ebfa28653d42ae832dc59e38c9798f6103e5610735565b826040516103f4929190610d76565b60405180910390a1610405816107b5565b610413565b61041261017b565b5b50565b600073ffffffffffffffffffffffffffffffffffffffff166104366106de565b73ffffffffffffffffffffffffffffffffffffffff161461045657600080fd5b61046083826104d3565b60017fb53127684a568b3173ae13b9f8a6016e243e63b6e8ee1178d6a717850b5d610460001c6104909190610dd8565b60001b7fb53127684a568b3173ae13b9f8a6016e243e63b6e8ee1178d6a717850b5d610360001b146104c5576104c4610e0c565b5b6104ce826107b5565b505050565b600073ffffffffffffffffffffffffffffffffffffffff166104f36106de565b73ffffffffffffffffffffffffffffffffffffffff161461051357600080fd5b60017f360894a13ba1a3210667c828492db98dca3e2076cc3735a920a3ca505d382bbd60001c6105439190610dd8565b60001b7f360894a13ba1a3210667c828492db98dca3e2076cc3735a920a3ca505d382bbc60001b1461057857610577610e0c565b5b610581826107e4565b6000815111156106025760008273ffffffffffffffffffffffffffffffffffffffff16826040516105b29190610eaa565b600060405180830381855af49150503d80600081146105ed576040519150601f19603f3d011682016040523d82523d6000602084013e6105f2565b606091505b505090508061060057600080fd5b505b5050565b6000610610610735565b73ffffffffffffffffffffffffffffffffffffffff163373ffffffffffffffffffffffffffffffffffffffff1614156106525761064b610735565b905061065b565b61065a61017b565b5b90565b610666610735565b73ffffffffffffffffffffffffffffffffffffffff163373ffffffffffffffffffffffffffffffffffffffff1614156106d4576040517f08c379a00000000000000000000000000000000000000000000000000000000081526004016106cb90610f33565b60405180910390fd5b6106dc61085b565b565b6000807f360894a13ba1a3210667c828492db98dca3e2076cc3735a920a3ca505d382bbc60001b9050805491505090565b3660008037600080366000845af43d6000803e8060008114610730573d6000f35b3d6000fd5b6000807fb53127684a568b3173ae13b9f8a6016e243e63b6e8ee1178d6a717850b5d610360001b9050805491505090565b61076f816107e4565b8073ffffffffffffffffffffffffffffffffffffffff167fbc7cd75a20ee27fd9adebab32041f755214dbc6bffa90cc0225b39da2e5c2d3b60405160405180910390a250565b60007fb53127684a568b3173ae13b9f8a6016e243e63b6e8ee1178d6a717850b5d610360001b90508181555050565b6107ed816108db565b61082c576040517f08c379a000000000000000000000000000000000000000000000000000000000815260040161082390610fc5565b60405180910390fd5b60007f360894a13ba1a3210667c828492db98dca3e2076cc3735a920a3ca505d382bbc60001b90508181555050565b610863610735565b73ffffffffffffffffffffffffffffffffffffffff163373ffffffffffffffffffffffffffffffffffffffff1614156108d1576040517f08c379a00000000000000000000000000000000000000000000000000000000081526004016108c890610f33565b60405180910390fd5b6108d96108ee565b565b600080823b905060008111915050919050565b565b6000604051905090565b600080fd5b600080fd5b600073ffffffffffffffffffffffffffffffffffffffff82169050919050565b600061092f82610904565b9050919050565b61093f81610924565b811461094a57600080fd5b50565b60008135905061095c81610936565b92915050565b600060208284031215610978576109776108fa565b5b60006109868482850161094d565b91505092915050565b600080fd5b600080fd5b600080fd5b60008083601f8401126109b4576109b361098f565b5b8235905067ffffffffffffffff8111156109d1576109d0610994565b5b6020830191508360018202830111156109ed576109ec610999565b5b9250929050565b600080600060408486031215610a0d57610a0c6108fa565b5b6000610a1b8682870161094d565b935050602084013567ffffffffffffffff811115610a3c57610a3b6108ff565b5b610a488682870161099e565b92509250509250925092565b610a5d81610924565b82525050565b6000602082019050610a786000830184610a54565b92915050565b600080fd5b6000601f19601f8301169050919050565b7f4e487b7100000000000000000000000000000000000000000000000000000000600052604160045260246000fd5b610acc82610a83565b810181811067ffffffffffffffff82111715610aeb57610aea610a94565b5b80604052505050565b6000610afe6108f0565b9050610b0a8282610ac3565b919050565b600067ffffffffffffffff821115610b2a57610b29610a94565b5b610b3382610a83565b9050602081019050919050565b82818337600083830152505050565b6000610b62610b5d84610b0f565b610af4565b905082815260208101848484011115610b7e57610b7d610a7e565b5b610b89848285610b40565b509392505050565b600082601f830112610ba657610ba561098f565b5b8135610bb6848260208601610b4f565b91505092915050565b600080600060608486031215610bd857610bd76108fa565b5b6000610be68682870161094d565b9350506020610bf78682870161094d565b925050604084013567ffffffffffffffff811115610c1857610c176108ff565b5b610c2486828701610b91565b9150509250925092565b60008060408385031215610c4557610c446108fa565b5b6000610c538582860161094d565b925050602083013567ffffffffffffffff811115610c7457610c736108ff565b5b610c8085828601610b91565b9150509250929050565b600081905092915050565b6000610ca18385610c8a565b9350610cae838584610b40565b82840190509392505050565b6000610cc7828486610c95565b91508190509392505050565b600082825260208201905092915050565b7f43616e6e6f74206368616e6765207468652061646d696e206f6620612070726f60008201527f787920746f20746865207a65726f206164647265737300000000000000000000602082015250565b6000610d40603683610cd3565b9150610d4b82610ce4565b604082019050919050565b60006020820190508181036000830152610d6f81610d33565b9050919050565b6000604082019050610d8b6000830185610a54565b610d986020830184610a54565b9392505050565b6000819050919050565b7f4e487b7100000000000000000000000000000000000000000000000000000000600052601160045260246000fd5b6000610de382610d9f565b9150610dee83610d9f565b925082821015610e0157610e00610da9565b5b828203905092915050565b7f4e487b7100000000000000000000000000000000000000000000000000000000600052600160045260246000fd5b600081519050919050565b60005b83811015610e64578082015181840152602081019050610e49565b83811115610e73576000848401525b50505050565b6000610e8482610e3b565b610e8e8185610c8a565b9350610e9e818560208601610e46565b80840191505092915050565b6000610eb68284610e79565b915081905092915050565b7f43616e6e6f742063616c6c2066616c6c6261636b2066756e6374696f6e20667260008201527f6f6d207468652070726f78792061646d696e0000000000000000000000000000602082015250565b6000610f1d603283610cd3565b9150610f2882610ec1565b604082019050919050565b60006020820190508181036000830152610f4c81610f10565b9050919050565b7f43616e6e6f742073657420612070726f787920696d706c656d656e746174696f60008201527f6e20746f2061206e6f6e2d636f6e747261637420616464726573730000000000602082015250565b6000610faf603b83610cd3565b9150610fba82610f53565b604082019050919050565b60006020820190508181036000830152610fde81610fa2565b905091905056fea264697066735822122089107c21e0ab26badd69ded1a1ec4a1277498dd380d55f2c5bfddf7870dc538364736f6c634300080a0033",
  "immutableReferences": {},
  "source": "//SPDX-License-Identifier: MIT\r\npragma solidity  >=0.8.0;\r\n\r\nimport \"./CryptoPaws.sol\";\r\nimport \"./Lottery.sol\";\r\nimport './ProxyFactory.sol';\r\n\r\ncontract LotteryFactory is ProxyFactory {\r\n    CryptoPaws cp;\r\n    address public implementationContract;\r\n    \r\n    uint256[] public lotteriesarray;\r\n    mapping(uint256 => address) public lotteries;\r\n    mapping(uint256 => address) public owners;\r\n    mapping(uint256 => bool) public active;\r\n    uint256 public totalactive;\r\n    uint256 public lottoPrice = 8000000000000000 wei;\r\n\r\n    constructor(address _pawaddress, address _implementationcontract) {\r\n        implementationContract = _implementationcontract;\r\n        cp = CryptoPaws(_pawaddress);\r\n        totalactive = 0;\r\n    } \r\n\r\n    function createLottery(uint256 _id, uint256 _enterPrice) public payable {\r\n        bool exist = cp.getTokenExists(_id);\r\n        require(exist, \"Token not found\");\r\n        address owner = cp.getTokenOwner(_id);\r\n        require(msg.sender == owner, \"Can't lottery a token you don't own\");\r\n        require(msg.value >= lottoPrice, \"You must pay the price to create an auction\");\r\n        bytes memory payload = abi.encodeWithSignature(\"initialize(uint256, uint256, address)\", _id, _enterPrice, msg.sender);\r\n        address lotto = deployMinimal(implementationContract, payload);\r\n        cp.lottoTransferTo(_id, lotto);\r\n        owners[_id] = msg.sender;\r\n        lotteries[_id] = lotto;\r\n        active[_id] = true;\r\n        lotteriesarray.push(_id);\r\n    }\r\n\r\n    function claim(uint256 _id) public {\r\n        address cont = lotteries[_id];\r\n        Lottery lottoCont = Lottery(cont);\r\n        address Lwinner = lottoCont.winner();\r\n        require(msg.sender == Lwinner, \"You are not the winner\");\r\n        cp.lottoTransferFrom(_id, cont, Lwinner);\r\n        for (uint256 i = 0; i < lotteriesarray.length; i++) {\r\n            if (lotteriesarray[i] == _id) {\r\n                lotteriesarray[i] == lotteriesarray[lotteriesarray.length-1];\r\n                lotteriesarray.pop();\r\n            }\r\n        }\r\n        active[_id] = false;\r\n    }\r\n}",
  "sourcePath": "D:\\CSC333\\cryptoboys-nft-marketplace\\src\\contracts\\LotteryFactory.sol",
  "compiler": {
    "name": "solc",
    "version": "0.8.10+commit.fc410830.Emscripten.clang"
  },
  "schemaVersion": "3.4.3",
  "updatedAt": "2021-11-28T23:46:45.040Z",
  "networkType": "ethereum",
  "devdoc": {
    "kind": "dev",
    "methods": {},
    "version": 1
  },
  "userdoc": {
    "kind": "user",
    "methods": {},
    "version": 1
  }
}