{
  "contractName": "Lottery",
  "abi": [
    {
      "inputs": [
        {
          "internalType": "uint256",
          "name": "",
          "type": "uint256"
        }
      ],
      "name": "entrants",
      "outputs": [
        {
          "internalType": "address",
          "name": "",
          "type": "address"
        }
      ],
      "stateMutability": "view",
      "type": "function"
    },
    {
      "inputs": [],
      "name": "entryPrice",
      "outputs": [
        {
          "internalType": "uint256",
          "name": "",
          "type": "uint256"
        }
      ],
      "stateMutability": "view",
      "type": "function"
    },
    {
      "inputs": [],
      "name": "finished",
      "outputs": [
        {
          "internalType": "bool",
          "name": "",
          "type": "bool"
        }
      ],
      "stateMutability": "view",
      "type": "function"
    },
    {
      "inputs": [],
      "name": "owner",
      "outputs": [
        {
          "internalType": "address payable",
          "name": "",
          "type": "address"
        }
      ],
      "stateMutability": "view",
      "type": "function"
    },
    {
      "inputs": [],
      "name": "tokenId",
      "outputs": [
        {
          "internalType": "uint256",
          "name": "",
          "type": "uint256"
        }
      ],
      "stateMutability": "view",
      "type": "function"
    },
    {
      "inputs": [],
      "name": "winner",
      "outputs": [
        {
          "internalType": "address",
          "name": "",
          "type": "address"
        }
      ],
      "stateMutability": "view",
      "type": "function"
    },
    {
      "inputs": [
        {
          "internalType": "uint256",
          "name": "_id",
          "type": "uint256"
        },
        {
          "internalType": "uint256",
          "name": "_price",
          "type": "uint256"
        },
        {
          "internalType": "address payable",
          "name": "_owner",
          "type": "address"
        }
      ],
      "name": "initialize",
      "outputs": [],
      "stateMutability": "nonpayable",
      "type": "function"
    },
    {
      "inputs": [],
      "name": "enterLottery",
      "outputs": [],
      "stateMutability": "payable",
      "type": "function"
    },
    {
      "inputs": [],
      "name": "endLottery",
      "outputs": [],
      "stateMutability": "nonpayable",
      "type": "function"
    }
  ],
  "bytecode": "0x608060405234801561001057600080fd5b50610e6f806100206000396000f3fe6080604052600436106100865760003560e01c8063bef4876b11610059578063bef4876b14610121578063c1af57851461014c578063dfbf53ae14610156578063e7b4e5ab14610181578063f745adfc146101be57610086565b80631593a8c71461008b57806317d70f7c146100a25780638da5cb5b146100cd578063a6ab36f2146100f8575b600080fd5b34801561009757600080fd5b506100a06101e9565b005b3480156100ae57600080fd5b506100b76103c1565b6040516100c49190610819565b60405180910390f35b3480156100d957600080fd5b506100e26103c7565b6040516100ef9190610875565b60405180910390f35b34801561010457600080fd5b5061011f600480360381019061011a91906108ed565b6103ed565b005b34801561012d57600080fd5b5061013661058c565b604051610143919061095b565b60405180910390f35b61015461059f565b005b34801561016257600080fd5b5061016b61077e565b6040516101789190610997565b60405180910390f35b34801561018d57600080fd5b506101a860048036038101906101a391906109b2565b6107a4565b6040516101b59190610997565b60405180910390f35b3480156101ca57600080fd5b506101d36107e3565b6040516101e09190610819565b60405180910390f35b603460009054906101000a900473ffffffffffffffffffffffffffffffffffffffff1673ffffffffffffffffffffffffffffffffffffffff163373ffffffffffffffffffffffffffffffffffffffff1614610279576040517f08c379a000000000000000000000000000000000000000000000000000000000815260040161027090610a3c565b60405180910390fd5b60004442603760405160200161029193929190610b9b565b6040516020818303038152906040528051906020012060001c905060378080549050826102be9190610c03565b815481106102cf576102ce610c34565b5b9060005260206000200160009054906101000a900473ffffffffffffffffffffffffffffffffffffffff16603960006101000a81548173ffffffffffffffffffffffffffffffffffffffff021916908373ffffffffffffffffffffffffffffffffffffffff1602179055506001603960146101000a81548160ff021916908315150217905550603460009054906101000a900473ffffffffffffffffffffffffffffffffffffffff1673ffffffffffffffffffffffffffffffffffffffff166108fc479081150290604051600060405180830381858888f193505050501580156103bd573d6000803e3d6000fd5b5050565b60335481565b603460009054906101000a900473ffffffffffffffffffffffffffffffffffffffff1681565b600060019054906101000a900460ff168061040c575061040b6107e9565b5b80610422575060008054906101000a900460ff16155b610461576040517f08c379a000000000000000000000000000000000000000000000000000000000815260040161045890610cd5565b60405180910390fd5b60008060019054906101000a900460ff1615905080156104b1576001600060016101000a81548160ff02191690831515021790555060016000806101000a81548160ff0219169083151502179055505b836033819055508260358190555081603460006101000a81548173ffffffffffffffffffffffffffffffffffffffff021916908373ffffffffffffffffffffffffffffffffffffffff16021790555060006038819055506000603960006101000a81548173ffffffffffffffffffffffffffffffffffffffff021916908373ffffffffffffffffffffffffffffffffffffffff1602179055506000603960146101000a81548160ff02191690831515021790555080156105865760008060016101000a81548160ff0219169083151502179055505b50505050565b603960149054906101000a900460ff1681565b603960149054906101000a900460ff16156105ef576040517f08c379a00000000000000000000000000000000000000000000000000000000081526004016105e690610d41565b60405180910390fd5b603660003373ffffffffffffffffffffffffffffffffffffffff1673ffffffffffffffffffffffffffffffffffffffff16815260200190815260200160002060009054906101000a900460ff161561067c576040517f08c379a000000000000000000000000000000000000000000000000000000000815260040161067390610dad565b60405180910390fd5b6035543410156106c1576040517f08c379a00000000000000000000000000000000000000000000000000000000081526004016106b890610e19565b60405180910390fd5b6001603660003373ffffffffffffffffffffffffffffffffffffffff1673ffffffffffffffffffffffffffffffffffffffff16815260200190815260200160002060006101000a81548160ff0219169083151502179055506037339080600181540180825580915050600190039060005260206000200160009091909190916101000a81548173ffffffffffffffffffffffffffffffffffffffff021916908373ffffffffffffffffffffffffffffffffffffffff160217905550565b603960009054906101000a900473ffffffffffffffffffffffffffffffffffffffff1681565b603781815481106107b457600080fd5b906000526020600020016000915054906101000a900473ffffffffffffffffffffffffffffffffffffffff1681565b60355481565b6000803090506000813b9050600081149250505090565b6000819050919050565b61081381610800565b82525050565b600060208201905061082e600083018461080a565b92915050565b600073ffffffffffffffffffffffffffffffffffffffff82169050919050565b600061085f82610834565b9050919050565b61086f81610854565b82525050565b600060208201905061088a6000830184610866565b92915050565b600080fd5b61089e81610800565b81146108a957600080fd5b50565b6000813590506108bb81610895565b92915050565b6108ca81610854565b81146108d557600080fd5b50565b6000813590506108e7816108c1565b92915050565b60008060006060848603121561090657610905610890565b5b6000610914868287016108ac565b9350506020610925868287016108ac565b9250506040610936868287016108d8565b9150509250925092565b60008115159050919050565b61095581610940565b82525050565b6000602082019050610970600083018461094c565b92915050565b600061098182610834565b9050919050565b61099181610976565b82525050565b60006020820190506109ac6000830184610988565b92915050565b6000602082840312156109c8576109c7610890565b5b60006109d6848285016108ac565b91505092915050565b600082825260208201905092915050565b7f4e6f74206f776e65720000000000000000000000000000000000000000000000600082015250565b6000610a266009836109df565b9150610a31826109f0565b602082019050919050565b60006020820190508181036000830152610a5581610a19565b9050919050565b6000819050919050565b610a77610a7282610800565b610a5c565b82525050565b600081549050919050565b600081905092915050565b60008190508160005260206000209050919050565b610ab181610976565b82525050565b6000610ac38383610aa8565b60208301905092915050565b60008160001c9050919050565b600073ffffffffffffffffffffffffffffffffffffffff82169050919050565b6000610b0f610b0a83610acf565b610adc565b9050919050565b6000610b228254610afc565b9050919050565b6000600182019050919050565b6000610b4182610a7d565b610b4b8185610a88565b9350610b5683610a93565b8060005b83811015610b8e57610b6b82610b16565b610b758882610ab7565b9750610b8083610b29565b925050600181019050610b5a565b5085935050505092915050565b6000610ba78286610a66565b602082019150610bb78285610a66565b602082019150610bc78284610b36565b9150819050949350505050565b7f4e487b7100000000000000000000000000000000000000000000000000000000600052601260045260246000fd5b6000610c0e82610800565b9150610c1983610800565b925082610c2957610c28610bd4565b5b828206905092915050565b7f4e487b7100000000000000000000000000000000000000000000000000000000600052603260045260246000fd5b7f436f6e747261637420696e7374616e63652068617320616c726561647920626560008201527f656e20696e697469616c697a6564000000000000000000000000000000000000602082015250565b6000610cbf602e836109df565b9150610cca82610c63565b604082019050919050565b60006020820190508181036000830152610cee81610cb2565b9050919050565b7f4c6f7474657279206973206f7665720000000000000000000000000000000000600082015250565b6000610d2b600f836109df565b9150610d3682610cf5565b602082019050919050565b60006020820190508181036000830152610d5a81610d1e565b9050919050565b7f596f75206861766520616c726561647920656e74657265640000000000000000600082015250565b6000610d976018836109df565b9150610da282610d61565b602082019050919050565b60006020820190508181036000830152610dc681610d8a565b9050919050565b7f4d757374207061792066756c6c20656e74727920707269636500000000000000600082015250565b6000610e036019836109df565b9150610e0e82610dcd565b602082019050919050565b60006020820190508181036000830152610e3281610df6565b905091905056fea2646970667358221220c2e783df7c430f2095e95a05a5a642b6540cae4dcb77915bb10121ef0acdc32864736f6c634300080a0033",
  "immutableReferences": {},
  "source": "// File: @openzeppelin\\upgrades\\contracts\\Initializable.sol\r\n\r\npragma solidity >=0.4.24;\r\n\r\n\r\n/**\r\n * @title Initializable\r\n *\r\n * @dev Helper contract to support initializer functions. To use it, replace\r\n * the constructor with a function that has the `initializer` modifier.\r\n * WARNING: Unlike constructors, initializer functions must be manually\r\n * invoked. This applies both to deploying an Initializable contract, as well\r\n * as extending an Initializable contract via inheritance.\r\n * WARNING: When used with inheritance, manual care must be taken to not invoke\r\n * a parent initializer twice, or ensure that all initializers are idempotent,\r\n * because this is not dealt with automatically as with constructors.\r\n */\r\ncontract Initializable {\r\n\r\n  /**\r\n   * @dev Indicates that the contract has been initialized.\r\n   */\r\n  bool private initialized;\r\n\r\n  /**\r\n   * @dev Indicates that the contract is in the process of being initialized.\r\n   */\r\n  bool private initializing;\r\n\r\n  /**\r\n   * @dev Modifier to use in the initializer function of a contract.\r\n   */\r\n  modifier initializer() {\r\n    require(initializing || isConstructor() || !initialized, \"Contract instance has already been initialized\");\r\n\r\n    bool isTopLevelCall = !initializing;\r\n    if (isTopLevelCall) {\r\n      initializing = true;\r\n      initialized = true;\r\n    }\r\n\r\n    _;\r\n\r\n    if (isTopLevelCall) {\r\n      initializing = false;\r\n    }\r\n  }\r\n\r\n  /// @dev Returns true if and only if the function is running in the constructor\r\n  function isConstructor() private view returns (bool) {\r\n    // extcodesize checks the size of the code stored in an address, and\r\n    // address returns the current address. Since the code is still not\r\n    // deployed when running a constructor, any checks on its code size will\r\n    // yield zero, making it an effective way to detect if a contract is\r\n    // under construction or not.\r\n    address self = address(this);\r\n    uint256 cs;\r\n    assembly { cs := extcodesize(self) }\r\n    return cs == 0;\r\n  }\r\n\r\n  // Reserved storage space to allow for layout changes in the future.\r\n  uint256[50] private ______gap;\r\n}\r\n\r\n// File: src\\contracts\\Lottery.sol\r\n\r\n//SPDX-License-Identifier: MIT\r\npragma solidity  >=0.8.0;\r\npragma abicoder v2;\r\n\r\ncontract Lottery is Initializable {\r\n    uint256 public tokenId;\r\n    address payable public owner;\r\n    uint256 public entryPrice;\r\n    mapping(address => bool) private entered;\r\n    address[] public entrants;\r\n    uint256 private key;\r\n    address public winner;\r\n    bool public finished;\r\n\r\n\r\n    modifier onlyOwner() {\r\n        require(msg.sender == owner, \"Not owner\");\r\n        _;\r\n    }\r\n\r\n    function initialize(uint256 _id, uint256 _price, address payable _owner) public initializer {\r\n        tokenId = _id;\r\n        entryPrice = _price;\r\n        owner = _owner;\r\n        key = 0;\r\n        winner = address(0);\r\n        finished = false;\r\n    }\r\n\r\n    function enterLottery() public payable {\r\n        require(!finished, \"Lottery is over\");\r\n        require(!entered[msg.sender], \"You have already entered\");\r\n        require(msg.value >= entryPrice, \"Must pay full entry price\");\r\n        entered[msg.sender] = true;\r\n        entrants.push(msg.sender);\r\n    }\r\n\r\n    function endLottery() public onlyOwner {\r\n        uint256 rand = uint(keccak256(abi.encodePacked(block.difficulty, block.timestamp, entrants)));\r\n        winner = entrants[rand % entrants.length];\r\n        finished = true;\r\n        owner.transfer(address(this).balance);\r\n    }\r\n}",
  "sourcePath": "D:\\CSC333\\cryptoboys-nft-marketplace\\src\\contracts\\Lottery.sol",
  "compiler": {
    "name": "solc",
    "version": "0.8.10+commit.fc410830.Emscripten.clang"
  },
  "schemaVersion": "3.4.3",
  "updatedAt": "2021-11-28T04:45:35.136Z",
  "devdoc": {
    "kind": "dev",
    "methods": {},
    "version": 1
  },
  "userdoc": {
    "kind": "user",
    "methods": {},
    "version": 1
  }
}