{
  "contractName": "ProxyFactory",
  "abi": [
    {
      "inputs": [],
      "stateMutability": "nonpayable",
      "type": "constructor"
    },
    {
      "anonymous": false,
      "inputs": [
        {
          "indexed": false,
          "internalType": "address",
          "name": "proxy",
          "type": "address"
        }
      ],
      "name": "ProxyCreated",
      "type": "event"
    },
    {
      "inputs": [
        {
          "internalType": "address",
          "name": "_logic",
          "type": "address"
        },
        {
          "internalType": "bytes",
          "name": "_data",
          "type": "bytes"
        }
      ],
      "name": "deployMinimal",
      "outputs": [
        {
          "internalType": "address",
          "name": "proxy",
          "type": "address"
        }
      ],
      "stateMutability": "nonpayable",
      "type": "function"
    },
    {
      "inputs": [
        {
          "internalType": "uint256",
          "name": "_salt",
          "type": "uint256"
        },
        {
          "internalType": "address",
          "name": "_logic",
          "type": "address"
        },
        {
          "internalType": "address",
          "name": "_admin",
          "type": "address"
        },
        {
          "internalType": "bytes",
          "name": "_data",
          "type": "bytes"
        }
      ],
      "name": "deploy",
      "outputs": [
        {
          "internalType": "address",
          "name": "",
          "type": "address"
        }
      ],
      "stateMutability": "nonpayable",
      "type": "function"
    },
    {
      "inputs": [
        {
          "internalType": "uint256",
          "name": "_salt",
          "type": "uint256"
        },
        {
          "internalType": "address",
          "name": "_logic",
          "type": "address"
        },
        {
          "internalType": "address",
          "name": "_admin",
          "type": "address"
        },
        {
          "internalType": "bytes",
          "name": "_data",
          "type": "bytes"
        },
        {
          "internalType": "bytes",
          "name": "_signature",
          "type": "bytes"
        }
      ],
      "name": "deploySigned",
      "outputs": [
        {
          "internalType": "address",
          "name": "",
          "type": "address"
        }
      ],
      "stateMutability": "nonpayable",
      "type": "function"
    },
    {
      "inputs": [
        {
          "internalType": "uint256",
          "name": "_salt",
          "type": "uint256"
        },
        {
          "internalType": "address",
          "name": "_sender",
          "type": "address"
        }
      ],
      "name": "getDeploymentAddress",
      "outputs": [
        {
          "internalType": "address",
          "name": "",
          "type": "address"
        }
      ],
      "stateMutability": "view",
      "type": "function"
    },
    {
      "inputs": [
        {
          "internalType": "uint256",
          "name": "_salt",
          "type": "uint256"
        },
        {
          "internalType": "address",
          "name": "_logic",
          "type": "address"
        },
        {
          "internalType": "address",
          "name": "_admin",
          "type": "address"
        },
        {
          "internalType": "bytes",
          "name": "_data",
          "type": "bytes"
        },
        {
          "internalType": "bytes",
          "name": "_signature",
          "type": "bytes"
        }
      ],
      "name": "getSigner",
      "outputs": [
        {
          "internalType": "address",
          "name": "",
          "type": "address"
        }
      ],
      "stateMutability": "view",
      "type": "function"
    }
  ],
  "bytecode": "0x608060405234801561001057600080fd5b506040518060200161002190610047565b6020820181038252601f19601f8201166040525080519060200120600081905550610054565b61103b80611f3e83390190565b611edb806100636000396000f3fe608060405234801561001057600080fd5b50600436106100575760003560e01c8063290f8f561461005c578063332d66261461008c5780636150864c146100bc57806381ae1f5b146100ec578063b3eeb5e21461011c575b600080fd5b61007660048036038101906100719190610835565b61014c565b60405161008391906108f7565b60405180910390f35b6100a660048036038101906100a19190610835565b61019e565b6040516100b391906108f7565b60405180910390f35b6100d660048036038101906100d19190610912565b610239565b6040516100e391906108f7565b60405180910390f35b61010660048036038101906101019190610995565b610252565b60405161011391906108f7565b60405180910390f35b610136600480360381019061013191906109d5565b6102aa565b60405161014391906108f7565b60405180910390f35b600080610186878787873060405160200161016b959493929190610b14565b604051602081830303815290604052805190602001206103ce565b905061019281846103fe565b91505095945050505050565b6000806101ae878787878761014c565b9050600073ffffffffffffffffffffffffffffffffffffffff168173ffffffffffffffffffffffffffffffffffffffff161415610220576040517f08c379a000000000000000000000000000000000000000000000000000000000815260040161021790610bcc565b60405180910390fd5b61022d87878787856104ea565b91505095945050505050565b600061024885858585336104ea565b9050949350505050565b60008061025f84846105ab565b9050600060ff60f81b30836000546040516020016102809493929190610c64565b604051602081830303815290604052805190602001209050606081901b60601c9250505092915050565b6000808360601b90506040517f3d602d80600a3d3981f3363d3d373d3d3d363d7300000000000000000000000081528160148201527f5af43d82803e903d91602b57fd5bf3000000000000000000000000000000000060288201526037816000f09250507efffc2da0b561cae30d9826d37709e9421c4725faebc226cbbb7ef5fc5e73498260405161033c91906108f7565b60405180910390a16000835111156103c75760008273ffffffffffffffffffffffffffffffffffffffff16846040516103759190610cb2565b6000604051808303816000865af19150503d80600081146103b2576040519150601f19603f3d011682016040523d82523d6000602084013e6103b7565b606091505b50509050806103c557600080fd5b505b5092915050565b6000816040516020016103e19190610d20565b604051602081830303815290604052805190602001209050919050565b6000604182511461041257600090506104e4565b60008060006020850151925060408501519150606085015160001a90507f7fffffffffffffffffffffffffffffff5d576e7357a4501ddfe92f46681b20a08260001c111561046657600093505050506104e4565b601b8160ff161415801561047e5750601c8160ff1614155b1561048f57600093505050506104e4565b600186828585604051600081526020016040526040516104b29493929190610d71565b6020604051602081039080840390855afa1580156104d4573d6000803e3d6000fd5b5050506020604051035193505050505b92915050565b6000806104f787846105de565b90507efffc2da0b561cae30d9826d37709e9421c4725faebc226cbbb7ef5fc5e73498160405161052791906108f7565b60405180910390a18073ffffffffffffffffffffffffffffffffffffffff1663cf7a1d778787876040518463ffffffff1660e01b815260040161056c93929190610e00565b600060405180830381600087803b15801561058657600080fd5b505af115801561059a573d6000803e3d6000fd5b505050508091505095945050505050565b600082826040516020016105c0929190610e3e565b60405160208183030381529060405280519060200120905092915050565b6000806000604051806020016105f39061063a565b6020820181038252601f19601f820116604052509050600061061586866105ab565b9050808251602084016000f59250823b61062e57600080fd5b82935050505092915050565b61103b80610e6b83390190565b6000604051905090565b600080fd5b600080fd5b6000819050919050565b61066e8161065b565b811461067957600080fd5b50565b60008135905061068b81610665565b92915050565b600073ffffffffffffffffffffffffffffffffffffffff82169050919050565b60006106bc82610691565b9050919050565b6106cc816106b1565b81146106d757600080fd5b50565b6000813590506106e9816106c3565b92915050565b600080fd5b600080fd5b6000601f19601f8301169050919050565b7f4e487b7100000000000000000000000000000000000000000000000000000000600052604160045260246000fd5b610742826106f9565b810181811067ffffffffffffffff821117156107615761076061070a565b5b80604052505050565b6000610774610647565b90506107808282610739565b919050565b600067ffffffffffffffff8211156107a05761079f61070a565b5b6107a9826106f9565b9050602081019050919050565b82818337600083830152505050565b60006107d86107d384610785565b61076a565b9050828152602081018484840111156107f4576107f36106f4565b5b6107ff8482856107b6565b509392505050565b600082601f83011261081c5761081b6106ef565b5b813561082c8482602086016107c5565b91505092915050565b600080600080600060a0868803121561085157610850610651565b5b600061085f8882890161067c565b9550506020610870888289016106da565b9450506040610881888289016106da565b935050606086013567ffffffffffffffff8111156108a2576108a1610656565b5b6108ae88828901610807565b925050608086013567ffffffffffffffff8111156108cf576108ce610656565b5b6108db88828901610807565b9150509295509295909350565b6108f1816106b1565b82525050565b600060208201905061090c60008301846108e8565b92915050565b6000806000806080858703121561092c5761092b610651565b5b600061093a8782880161067c565b945050602061094b878288016106da565b935050604061095c878288016106da565b925050606085013567ffffffffffffffff81111561097d5761097c610656565b5b61098987828801610807565b91505092959194509250565b600080604083850312156109ac576109ab610651565b5b60006109ba8582860161067c565b92505060206109cb858286016106da565b9150509250929050565b600080604083850312156109ec576109eb610651565b5b60006109fa858286016106da565b925050602083013567ffffffffffffffff811115610a1b57610a1a610656565b5b610a2785828601610807565b9150509250929050565b6000819050919050565b610a4c610a478261065b565b610a31565b82525050565b60008160601b9050919050565b6000610a6a82610a52565b9050919050565b6000610a7c82610a5f565b9050919050565b610a94610a8f826106b1565b610a71565b82525050565b600081519050919050565b600081905092915050565b60005b83811015610ace578082015181840152602081019050610ab3565b83811115610add576000848401525b50505050565b6000610aee82610a9a565b610af88185610aa5565b9350610b08818560208601610ab0565b80840191505092915050565b6000610b208288610a3b565b602082019150610b308287610a83565b601482019150610b408286610a83565b601482019150610b508285610ae3565b9150610b5c8284610a83565b6014820191508190509695505050505050565b600082825260208201905092915050565b7f496e76616c6964207369676e6174757265000000000000000000000000000000600082015250565b6000610bb6601183610b6f565b9150610bc182610b80565b602082019050919050565b60006020820190508181036000830152610be581610ba9565b9050919050565b60007fff0000000000000000000000000000000000000000000000000000000000000082169050919050565b6000819050919050565b610c33610c2e82610bec565b610c18565b82525050565b6000819050919050565b6000819050919050565b610c5e610c5982610c39565b610c43565b82525050565b6000610c708287610c22565b600182019150610c808286610a83565b601482019150610c908285610c4d565b602082019150610ca08284610c4d565b60208201915081905095945050505050565b6000610cbe8284610ae3565b915081905092915050565b600081905092915050565b7f19457468657265756d205369676e6564204d6573736167653a0a333200000000600082015250565b6000610d0a601c83610cc9565b9150610d1582610cd4565b601c82019050919050565b6000610d2b82610cfd565b9150610d378284610c4d565b60208201915081905092915050565b610d4f81610c39565b82525050565b600060ff82169050919050565b610d6b81610d55565b82525050565b6000608082019050610d866000830187610d46565b610d936020830186610d62565b610da06040830185610d46565b610dad6060830184610d46565b95945050505050565b600082825260208201905092915050565b6000610dd282610a9a565b610ddc8185610db6565b9350610dec818560208601610ab0565b610df5816106f9565b840191505092915050565b6000606082019050610e1560008301866108e8565b610e2260208301856108e8565b8181036040830152610e348184610dc7565b9050949350505050565b6000610e4a8285610a3b565b602082019150610e5a8284610a83565b601482019150819050939250505056fe608060405234801561001057600080fd5b5061101b806100206000396000f3fe6080604052600436106100745760003560e01c80638f2839701161004e5780638f283970146100ef578063cf7a1d7714610118578063d1f5789414610134578063f851a4401461015057610075565b80633659cfe61461007f5780634f1ef286146100a85780635c60da1b146100c457610075565b5b61007d61017b565b005b34801561008b57600080fd5b506100a660048036038101906100a19190610962565b610195565b005b6100c260048036038101906100bd91906109f4565b6101ea565b005b3480156100d057600080fd5b506100d96102b9565b6040516100e69190610a63565b60405180910390f35b3480156100fb57600080fd5b5061011660048036038101906101119190610962565b610311565b005b610132600480360381019061012d9190610bbf565b610416565b005b61014e60048036038101906101499190610c2e565b6104d3565b005b34801561015c57600080fd5b50610165610606565b6040516101729190610a63565b60405180910390f35b61018361065e565b61019361018e6106de565b61070f565b565b61019d610735565b73ffffffffffffffffffffffffffffffffffffffff163373ffffffffffffffffffffffffffffffffffffffff1614156101de576101d981610766565b6101e7565b6101e661017b565b5b50565b6101f2610735565b73ffffffffffffffffffffffffffffffffffffffff163373ffffffffffffffffffffffffffffffffffffffff1614156102ab5761022e83610766565b60008373ffffffffffffffffffffffffffffffffffffffff168383604051610257929190610cba565b600060405180830381855af49150503d8060008114610292576040519150601f19603f3d011682016040523d82523d6000602084013e610297565b606091505b50509050806102a557600080fd5b506102b4565b6102b361017b565b5b505050565b60006102c3610735565b73ffffffffffffffffffffffffffffffffffffffff163373ffffffffffffffffffffffffffffffffffffffff161415610305576102fe6106de565b905061030e565b61030d61017b565b5b90565b610319610735565b73ffffffffffffffffffffffffffffffffffffffff163373ffffffffffffffffffffffffffffffffffffffff16141561040a57600073ffffffffffffffffffffffffffffffffffffffff168173ffffffffffffffffffffffffffffffffffffffff1614156103bc576040517f08c379a00000000000000000000000000000000000000000000000000000000081526004016103b390610d56565b60405180910390fd5b7f7e644d79422f17c01e4894b5f4f588d331ebfa28653d42ae832dc59e38c9798f6103e5610735565b826040516103f4929190610d76565b60405180910390a1610405816107b5565b610413565b61041261017b565b5b50565b600073ffffffffffffffffffffffffffffffffffffffff166104366106de565b73ffffffffffffffffffffffffffffffffffffffff161461045657600080fd5b61046083826104d3565b60017fb53127684a568b3173ae13b9f8a6016e243e63b6e8ee1178d6a717850b5d610460001c6104909190610dd8565b60001b7fb53127684a568b3173ae13b9f8a6016e243e63b6e8ee1178d6a717850b5d610360001b146104c5576104c4610e0c565b5b6104ce826107b5565b505050565b600073ffffffffffffffffffffffffffffffffffffffff166104f36106de565b73ffffffffffffffffffffffffffffffffffffffff161461051357600080fd5b60017f360894a13ba1a3210667c828492db98dca3e2076cc3735a920a3ca505d382bbd60001c6105439190610dd8565b60001b7f360894a13ba1a3210667c828492db98dca3e2076cc3735a920a3ca505d382bbc60001b1461057857610577610e0c565b5b610581826107e4565b6000815111156106025760008273ffffffffffffffffffffffffffffffffffffffff16826040516105b29190610eaa565b600060405180830381855af49150503d80600081146105ed576040519150601f19603f3d011682016040523d82523d6000602084013e6105f2565b606091505b505090508061060057600080fd5b505b5050565b6000610610610735565b73ffffffffffffffffffffffffffffffffffffffff163373ffffffffffffffffffffffffffffffffffffffff1614156106525761064b610735565b905061065b565b61065a61017b565b5b90565b610666610735565b73ffffffffffffffffffffffffffffffffffffffff163373ffffffffffffffffffffffffffffffffffffffff1614156106d4576040517f08c379a00000000000000000000000000000000000000000000000000000000081526004016106cb90610f33565b60405180910390fd5b6106dc61085b565b565b6000807f360894a13ba1a3210667c828492db98dca3e2076cc3735a920a3ca505d382bbc60001b9050805491505090565b3660008037600080366000845af43d6000803e8060008114610730573d6000f35b3d6000fd5b6000807fb53127684a568b3173ae13b9f8a6016e243e63b6e8ee1178d6a717850b5d610360001b9050805491505090565b61076f816107e4565b8073ffffffffffffffffffffffffffffffffffffffff167fbc7cd75a20ee27fd9adebab32041f755214dbc6bffa90cc0225b39da2e5c2d3b60405160405180910390a250565b60007fb53127684a568b3173ae13b9f8a6016e243e63b6e8ee1178d6a717850b5d610360001b90508181555050565b6107ed816108db565b61082c576040517f08c379a000000000000000000000000000000000000000000000000000000000815260040161082390610fc5565b60405180910390fd5b60007f360894a13ba1a3210667c828492db98dca3e2076cc3735a920a3ca505d382bbc60001b90508181555050565b610863610735565b73ffffffffffffffffffffffffffffffffffffffff163373ffffffffffffffffffffffffffffffffffffffff1614156108d1576040517f08c379a00000000000000000000000000000000000000000000000000000000081526004016108c890610f33565b60405180910390fd5b6108d96108ee565b565b600080823b905060008111915050919050565b565b6000604051905090565b600080fd5b600080fd5b600073ffffffffffffffffffffffffffffffffffffffff82169050919050565b600061092f82610904565b9050919050565b61093f81610924565b811461094a57600080fd5b50565b60008135905061095c81610936565b92915050565b600060208284031215610978576109776108fa565b5b60006109868482850161094d565b91505092915050565b600080fd5b600080fd5b600080fd5b60008083601f8401126109b4576109b361098f565b5b8235905067ffffffffffffffff8111156109d1576109d0610994565b5b6020830191508360018202830111156109ed576109ec610999565b5b9250929050565b600080600060408486031215610a0d57610a0c6108fa565b5b6000610a1b8682870161094d565b935050602084013567ffffffffffffffff811115610a3c57610a3b6108ff565b5b610a488682870161099e565b92509250509250925092565b610a5d81610924565b82525050565b6000602082019050610a786000830184610a54565b92915050565b600080fd5b6000601f19601f8301169050919050565b7f4e487b7100000000000000000000000000000000000000000000000000000000600052604160045260246000fd5b610acc82610a83565b810181811067ffffffffffffffff82111715610aeb57610aea610a94565b5b80604052505050565b6000610afe6108f0565b9050610b0a8282610ac3565b919050565b600067ffffffffffffffff821115610b2a57610b29610a94565b5b610b3382610a83565b9050602081019050919050565b82818337600083830152505050565b6000610b62610b5d84610b0f565b610af4565b905082815260208101848484011115610b7e57610b7d610a7e565b5b610b89848285610b40565b509392505050565b600082601f830112610ba657610ba561098f565b5b8135610bb6848260208601610b4f565b91505092915050565b600080600060608486031215610bd857610bd76108fa565b5b6000610be68682870161094d565b9350506020610bf78682870161094d565b925050604084013567ffffffffffffffff811115610c1857610c176108ff565b5b610c2486828701610b91565b9150509250925092565b60008060408385031215610c4557610c446108fa565b5b6000610c538582860161094d565b925050602083013567ffffffffffffffff811115610c7457610c736108ff565b5b610c8085828601610b91565b9150509250929050565b600081905092915050565b6000610ca18385610c8a565b9350610cae838584610b40565b82840190509392505050565b6000610cc7828486610c95565b91508190509392505050565b600082825260208201905092915050565b7f43616e6e6f74206368616e6765207468652061646d696e206f6620612070726f60008201527f787920746f20746865207a65726f206164647265737300000000000000000000602082015250565b6000610d40603683610cd3565b9150610d4b82610ce4565b604082019050919050565b60006020820190508181036000830152610d6f81610d33565b9050919050565b6000604082019050610d8b6000830185610a54565b610d986020830184610a54565b9392505050565b6000819050919050565b7f4e487b7100000000000000000000000000000000000000000000000000000000600052601160045260246000fd5b6000610de382610d9f565b9150610dee83610d9f565b925082821015610e0157610e00610da9565b5b828203905092915050565b7f4e487b7100000000000000000000000000000000000000000000000000000000600052600160045260246000fd5b600081519050919050565b60005b83811015610e64578082015181840152602081019050610e49565b83811115610e73576000848401525b50505050565b6000610e8482610e3b565b610e8e8185610c8a565b9350610e9e818560208601610e46565b80840191505092915050565b6000610eb68284610e79565b915081905092915050565b7f43616e6e6f742063616c6c2066616c6c6261636b2066756e6374696f6e20667260008201527f6f6d207468652070726f78792061646d696e0000000000000000000000000000602082015250565b6000610f1d603283610cd3565b9150610f2882610ec1565b604082019050919050565b60006020820190508181036000830152610f4c81610f10565b9050919050565b7f43616e6e6f742073657420612070726f787920696d706c656d656e746174696f60008201527f6e20746f2061206e6f6e2d636f6e747261637420616464726573730000000000602082015250565b6000610faf603b83610cd3565b9150610fba82610f53565b604082019050919050565b60006020820190508181036000830152610fde81610fa2565b905091905056fea264697066735822122089107c21e0ab26badd69ded1a1ec4a1277498dd380d55f2c5bfddf7870dc538364736f6c634300080a0033a2646970667358221220be10c554666688ce396275aff2512094795fabc8c9627662f2c0e574a59b670264736f6c634300080a0033608060405234801561001057600080fd5b5061101b806100206000396000f3fe6080604052600436106100745760003560e01c80638f2839701161004e5780638f283970146100ef578063cf7a1d7714610118578063d1f5789414610134578063f851a4401461015057610075565b80633659cfe61461007f5780634f1ef286146100a85780635c60da1b146100c457610075565b5b61007d61017b565b005b34801561008b57600080fd5b506100a660048036038101906100a19190610962565b610195565b005b6100c260048036038101906100bd91906109f4565b6101ea565b005b3480156100d057600080fd5b506100d96102b9565b6040516100e69190610a63565b60405180910390f35b3480156100fb57600080fd5b5061011660048036038101906101119190610962565b610311565b005b610132600480360381019061012d9190610bbf565b610416565b005b61014e60048036038101906101499190610c2e565b6104d3565b005b34801561015c57600080fd5b50610165610606565b6040516101729190610a63565b60405180910390f35b61018361065e565b61019361018e6106de565b61070f565b565b61019d610735565b73ffffffffffffffffffffffffffffffffffffffff163373ffffffffffffffffffffffffffffffffffffffff1614156101de576101d981610766565b6101e7565b6101e661017b565b5b50565b6101f2610735565b73ffffffffffffffffffffffffffffffffffffffff163373ffffffffffffffffffffffffffffffffffffffff1614156102ab5761022e83610766565b60008373ffffffffffffffffffffffffffffffffffffffff168383604051610257929190610cba565b600060405180830381855af49150503d8060008114610292576040519150601f19603f3d011682016040523d82523d6000602084013e610297565b606091505b50509050806102a557600080fd5b506102b4565b6102b361017b565b5b505050565b60006102c3610735565b73ffffffffffffffffffffffffffffffffffffffff163373ffffffffffffffffffffffffffffffffffffffff161415610305576102fe6106de565b905061030e565b61030d61017b565b5b90565b610319610735565b73ffffffffffffffffffffffffffffffffffffffff163373ffffffffffffffffffffffffffffffffffffffff16141561040a57600073ffffffffffffffffffffffffffffffffffffffff168173ffffffffffffffffffffffffffffffffffffffff1614156103bc576040517f08c379a00000000000000000000000000000000000000000000000000000000081526004016103b390610d56565b60405180910390fd5b7f7e644d79422f17c01e4894b5f4f588d331ebfa28653d42ae832dc59e38c9798f6103e5610735565b826040516103f4929190610d76565b60405180910390a1610405816107b5565b610413565b61041261017b565b5b50565b600073ffffffffffffffffffffffffffffffffffffffff166104366106de565b73ffffffffffffffffffffffffffffffffffffffff161461045657600080fd5b61046083826104d3565b60017fb53127684a568b3173ae13b9f8a6016e243e63b6e8ee1178d6a717850b5d610460001c6104909190610dd8565b60001b7fb53127684a568b3173ae13b9f8a6016e243e63b6e8ee1178d6a717850b5d610360001b146104c5576104c4610e0c565b5b6104ce826107b5565b505050565b600073ffffffffffffffffffffffffffffffffffffffff166104f36106de565b73ffffffffffffffffffffffffffffffffffffffff161461051357600080fd5b60017f360894a13ba1a3210667c828492db98dca3e2076cc3735a920a3ca505d382bbd60001c6105439190610dd8565b60001b7f360894a13ba1a3210667c828492db98dca3e2076cc3735a920a3ca505d382bbc60001b1461057857610577610e0c565b5b610581826107e4565b6000815111156106025760008273ffffffffffffffffffffffffffffffffffffffff16826040516105b29190610eaa565b600060405180830381855af49150503d80600081146105ed576040519150601f19603f3d011682016040523d82523d6000602084013e6105f2565b606091505b505090508061060057600080fd5b505b5050565b6000610610610735565b73ffffffffffffffffffffffffffffffffffffffff163373ffffffffffffffffffffffffffffffffffffffff1614156106525761064b610735565b905061065b565b61065a61017b565b5b90565b610666610735565b73ffffffffffffffffffffffffffffffffffffffff163373ffffffffffffffffffffffffffffffffffffffff1614156106d4576040517f08c379a00000000000000000000000000000000000000000000000000000000081526004016106cb90610f33565b60405180910390fd5b6106dc61085b565b565b6000807f360894a13ba1a3210667c828492db98dca3e2076cc3735a920a3ca505d382bbc60001b9050805491505090565b3660008037600080366000845af43d6000803e8060008114610730573d6000f35b3d6000fd5b6000807fb53127684a568b3173ae13b9f8a6016e243e63b6e8ee1178d6a717850b5d610360001b9050805491505090565b61076f816107e4565b8073ffffffffffffffffffffffffffffffffffffffff167fbc7cd75a20ee27fd9adebab32041f755214dbc6bffa90cc0225b39da2e5c2d3b60405160405180910390a250565b60007fb53127684a568b3173ae13b9f8a6016e243e63b6e8ee1178d6a717850b5d610360001b90508181555050565b6107ed816108db565b61082c576040517f08c379a000000000000000000000000000000000000000000000000000000000815260040161082390610fc5565b60405180910390fd5b60007f360894a13ba1a3210667c828492db98dca3e2076cc3735a920a3ca505d382bbc60001b90508181555050565b610863610735565b73ffffffffffffffffffffffffffffffffffffffff163373ffffffffffffffffffffffffffffffffffffffff1614156108d1576040517f08c379a00000000000000000000000000000000000000000000000000000000081526004016108c890610f33565b60405180910390fd5b6108d96108ee565b565b600080823b905060008111915050919050565b565b6000604051905090565b600080fd5b600080fd5b600073ffffffffffffffffffffffffffffffffffffffff82169050919050565b600061092f82610904565b9050919050565b61093f81610924565b811461094a57600080fd5b50565b60008135905061095c81610936565b92915050565b600060208284031215610978576109776108fa565b5b60006109868482850161094d565b91505092915050565b600080fd5b600080fd5b600080fd5b60008083601f8401126109b4576109b361098f565b5b8235905067ffffffffffffffff8111156109d1576109d0610994565b5b6020830191508360018202830111156109ed576109ec610999565b5b9250929050565b600080600060408486031215610a0d57610a0c6108fa565b5b6000610a1b8682870161094d565b935050602084013567ffffffffffffffff811115610a3c57610a3b6108ff565b5b610a488682870161099e565b92509250509250925092565b610a5d81610924565b82525050565b6000602082019050610a786000830184610a54565b92915050565b600080fd5b6000601f19601f8301169050919050565b7f4e487b7100000000000000000000000000000000000000000000000000000000600052604160045260246000fd5b610acc82610a83565b810181811067ffffffffffffffff82111715610aeb57610aea610a94565b5b80604052505050565b6000610afe6108f0565b9050610b0a8282610ac3565b919050565b600067ffffffffffffffff821115610b2a57610b29610a94565b5b610b3382610a83565b9050602081019050919050565b82818337600083830152505050565b6000610b62610b5d84610b0f565b610af4565b905082815260208101848484011115610b7e57610b7d610a7e565b5b610b89848285610b40565b509392505050565b600082601f830112610ba657610ba561098f565b5b8135610bb6848260208601610b4f565b91505092915050565b600080600060608486031215610bd857610bd76108fa565b5b6000610be68682870161094d565b9350506020610bf78682870161094d565b925050604084013567ffffffffffffffff811115610c1857610c176108ff565b5b610c2486828701610b91565b9150509250925092565b60008060408385031215610c4557610c446108fa565b5b6000610c538582860161094d565b925050602083013567ffffffffffffffff811115610c7457610c736108ff565b5b610c8085828601610b91565b9150509250929050565b600081905092915050565b6000610ca18385610c8a565b9350610cae838584610b40565b82840190509392505050565b6000610cc7828486610c95565b91508190509392505050565b600082825260208201905092915050565b7f43616e6e6f74206368616e6765207468652061646d696e206f6620612070726f60008201527f787920746f20746865207a65726f206164647265737300000000000000000000602082015250565b6000610d40603683610cd3565b9150610d4b82610ce4565b604082019050919050565b60006020820190508181036000830152610d6f81610d33565b9050919050565b6000604082019050610d8b6000830185610a54565b610d986020830184610a54565b9392505050565b6000819050919050565b7f4e487b7100000000000000000000000000000000000000000000000000000000600052601160045260246000fd5b6000610de382610d9f565b9150610dee83610d9f565b925082821015610e0157610e00610da9565b5b828203905092915050565b7f4e487b7100000000000000000000000000000000000000000000000000000000600052600160045260246000fd5b600081519050919050565b60005b83811015610e64578082015181840152602081019050610e49565b83811115610e73576000848401525b50505050565b6000610e8482610e3b565b610e8e8185610c8a565b9350610e9e818560208601610e46565b80840191505092915050565b6000610eb68284610e79565b915081905092915050565b7f43616e6e6f742063616c6c2066616c6c6261636b2066756e6374696f6e20667260008201527f6f6d207468652070726f78792061646d696e0000000000000000000000000000602082015250565b6000610f1d603283610cd3565b9150610f2882610ec1565b604082019050919050565b60006020820190508181036000830152610f4c81610f10565b9050919050565b7f43616e6e6f742073657420612070726f787920696d706c656d656e746174696f60008201527f6e20746f2061206e6f6e2d636f6e747261637420616464726573730000000000602082015250565b6000610faf603b83610cd3565b9150610fba82610f53565b604082019050919050565b60006020820190508181036000830152610fde81610fa2565b905091905056fea264697066735822122089107c21e0ab26badd69ded1a1ec4a1277498dd380d55f2c5bfddf7870dc538364736f6c634300080a0033",
  "immutableReferences": {},
  "source": "// File: node_modules\\@openzeppelin\\upgrades\\contracts\\upgradeability\\Proxy.sol\r\n\r\npragma solidity >=0.5.0;\r\n\r\n/**\r\n * @title Proxy\r\n * @dev Implements delegation of calls to other contracts, with proper\r\n * forwarding of return values and bubbling of failures.\r\n * It defines a fallback function that delegates all calls to the address\r\n * returned by the abstract _implementation() internal function.\r\n */\r\nabstract contract Proxy {\r\n  /**\r\n   * @dev Fallback function.\r\n   * Implemented entirely in `_fallback`.\r\n   */\r\n  fallback () payable external {\r\n    _fallback();\r\n  }\r\n\r\n  /**\r\n   * @return The Address of the implementation.\r\n   */\r\n  function _implementation() virtual internal view returns (address);\r\n\r\n  /**\r\n   * @dev Delegates execution to an implementation contract.\r\n   * This is a low level function that doesn't return to its internal call site.\r\n   * It will return to the external caller whatever the implementation returns.\r\n   * @param implementation Address to delegate.\r\n   */\r\n  function _delegate(address implementation) internal {\r\n    assembly {\r\n      // Copy msg.data. We take full control of memory in this inline assembly\r\n      // block because it will not return to Solidity code. We overwrite the\r\n      // Solidity scratch pad at memory position 0.\r\n      calldatacopy(0, 0, calldatasize())\r\n\r\n      // Call the implementation.\r\n      // out and outsize are 0 because we don't know the size yet.\r\n      let result := delegatecall(gas(), implementation, 0, calldatasize(), 0, 0)\r\n\r\n      // Copy the returned data.\r\n      returndatacopy(0, 0, returndatasize())\r\n\r\n      switch result\r\n      // delegatecall returns 0 on error.\r\n      case 0 { revert(0, returndatasize()) }\r\n      default { return(0, returndatasize()) }\r\n    }\r\n  }\r\n\r\n  /**\r\n   * @dev Function that is run as the first thing in the fallback function.\r\n   * Can be redefined in derived contracts to add functionality.\r\n   * Redefinitions must call super._willFallback().\r\n   */\r\n  function _willFallback() virtual internal {\r\n  }\r\n\r\n  /**\r\n   * @dev fallback implementation.\r\n   * Extracted to enable manual triggering.\r\n   */\r\n  function _fallback() internal {\r\n    _willFallback();\r\n    _delegate(_implementation());\r\n  }\r\n}\r\n\r\n// File: node_modules\\@openzeppelin\\upgrades\\contracts\\utils\\Address.sol\r\n\r\npragma solidity >=0.5.0;\r\n\r\n/**\r\n * Utility library of inline functions on addresses\r\n *\r\n * Source https://raw.githubusercontent.com/OpenZeppelin/openzeppelin-solidity/v2.1.3/contracts/utils/Address.sol\r\n * This contract is copied here and renamed from the original to avoid clashes in the compiled artifacts\r\n * when the user imports a zos-lib contract (that transitively causes this contract to be compiled and added to the\r\n * build/artifacts folder) as well as the vanilla Address implementation from an openzeppelin version.\r\n */\r\nlibrary OpenZeppelinUpgradesAddress {\r\n    /**\r\n     * Returns whether the target address is a contract\r\n     * @dev This function will return false if invoked during the constructor of a contract,\r\n     * as the code is not actually created until after the constructor finishes.\r\n     * @param account address of the account to check\r\n     * @return whether the target address is a contract\r\n     */\r\n    function isContract(address account) internal view returns (bool) {\r\n        uint256 size;\r\n        // XXX Currently there is no better way to check if there is a contract in an address\r\n        // than to check the size of the code at that address.\r\n        // See https://ethereum.stackexchange.com/a/14016/36603\r\n        // for more details about how this works.\r\n        // TODO Check this again before the Serenity release, because all addresses will be\r\n        // contracts then.\r\n        // solhint-disable-next-line no-inline-assembly\r\n        assembly { size := extcodesize(account) }\r\n        return size > 0;\r\n    }\r\n}\r\n\r\n// File: node_modules\\@openzeppelin\\upgrades\\contracts\\upgradeability\\BaseUpgradeabilityProxy.sol\r\n\r\npragma solidity >=0.5.0;\r\n\r\n\r\n\r\n/**\r\n * @title BaseUpgradeabilityProxy\r\n * @dev This contract implements a proxy that allows to change the\r\n * implementation address to which it will delegate.\r\n * Such a change is called an implementation upgrade.\r\n */\r\ncontract BaseUpgradeabilityProxy is Proxy {\r\n  /**\r\n   * @dev Emitted when the implementation is upgraded.\r\n   * @param implementation Address of the new implementation.\r\n   */\r\n  event Upgraded(address indexed implementation);\r\n\r\n  /**\r\n   * @dev Storage slot with the address of the current implementation.\r\n   * This is the keccak-256 hash of \"eip1967.proxy.implementation\" subtracted by 1, and is\r\n   * validated in the constructor.\r\n   */\r\n  bytes32 internal constant IMPLEMENTATION_SLOT = 0x360894a13ba1a3210667c828492db98dca3e2076cc3735a920a3ca505d382bbc;\r\n\r\n  function _implementation() internal override view returns (address impl) {\r\n    bytes32 slot = IMPLEMENTATION_SLOT;\r\n    assembly {\r\n      impl := sload(slot)\r\n    }\r\n  }\r\n\r\n  /**\r\n   * @dev Upgrades the proxy to a new implementation.\r\n   * @param newImplementation Address of the new implementation.\r\n   */\r\n  function _upgradeTo(address newImplementation) internal {\r\n    _setImplementation(newImplementation);\r\n    emit Upgraded(newImplementation);\r\n  }\r\n\r\n  /**\r\n   * @dev Sets the implementation address of the proxy.\r\n   * @param newImplementation Address of the new implementation.\r\n   */\r\n  function _setImplementation(address newImplementation) internal {\r\n    require(OpenZeppelinUpgradesAddress.isContract(newImplementation), \"Cannot set a proxy implementation to a non-contract address\");\r\n\r\n    bytes32 slot = IMPLEMENTATION_SLOT;\r\n\r\n    assembly {\r\n      sstore(slot, newImplementation)\r\n    }\r\n  }\r\n}\r\n\r\n// File: node_modules\\@openzeppelin\\upgrades\\contracts\\upgradeability\\UpgradeabilityProxy.sol\r\n\r\npragma solidity >=0.5.0;\r\n\r\n\r\n/**\r\n * @title UpgradeabilityProxy\r\n * @dev Extends BaseUpgradeabilityProxy with a constructor for initializing\r\n * implementation and init data.\r\n */\r\ncontract UpgradeabilityProxy is BaseUpgradeabilityProxy {\r\n  /**\r\n   * @dev Contract constructor.\r\n   * @param _logic Address of the initial implementation.\r\n   * @param _data Data to send as msg.data to the implementation to initialize the proxied contract.\r\n   * It should include the signature and the parameters of the function to be called, as described in\r\n   * https://solidity.readthedocs.io/en/v0.4.24/abi-spec.html#function-selector-and-argument-encoding.\r\n   * This parameter is optional, if no data is given the initialization call to proxied contract will be skipped.\r\n   */\r\n  constructor(address _logic, bytes memory _data) public payable {\r\n    assert(IMPLEMENTATION_SLOT == bytes32(uint256(keccak256('eip1967.proxy.implementation')) - 1));\r\n    _setImplementation(_logic);\r\n    if(_data.length > 0) {\r\n      (bool success,) = _logic.delegatecall(_data);\r\n      require(success);\r\n    }\r\n  }\r\n}\r\n\r\n// File: node_modules\\@openzeppelin\\upgrades\\contracts\\upgradeability\\BaseAdminUpgradeabilityProxy.sol\r\n\r\npragma solidity >=0.5.0;\r\n\r\n\r\n/**\r\n * @title BaseAdminUpgradeabilityProxy\r\n * @dev This contract combines an upgradeability proxy with an authorization\r\n * mechanism for administrative tasks.\r\n * All external functions in this contract must be guarded by the\r\n * `ifAdmin` modifier. See ethereum/solidity#3864 for a Solidity\r\n * feature proposal that would enable this to be done automatically.\r\n */\r\ncontract BaseAdminUpgradeabilityProxy is BaseUpgradeabilityProxy {\r\n  /**\r\n   * @dev Emitted when the administration has been transferred.\r\n   * @param previousAdmin Address of the previous admin.\r\n   * @param newAdmin Address of the new admin.\r\n   */\r\n  event AdminChanged(address previousAdmin, address newAdmin);\r\n\r\n  /**\r\n   * @dev Storage slot with the admin of the contract.\r\n   * This is the keccak-256 hash of \"eip1967.proxy.admin\" subtracted by 1, and is\r\n   * validated in the constructor.\r\n   */\r\n\r\n  bytes32 internal constant ADMIN_SLOT = 0xb53127684a568b3173ae13b9f8a6016e243e63b6e8ee1178d6a717850b5d6103;\r\n\r\n  /**\r\n   * @dev Modifier to check whether the `msg.sender` is the admin.\r\n   * If it is, it will run the function. Otherwise, it will delegate the call\r\n   * to the implementation.\r\n   */\r\n  modifier ifAdmin() {\r\n    if (msg.sender == _admin()) {\r\n      _;\r\n    } else {\r\n      _fallback();\r\n    }\r\n  }\r\n\r\n  /**\r\n   * @return The address of the proxy admin.\r\n   */\r\n  function admin() external ifAdmin returns (address) {\r\n    return _admin();\r\n  }\r\n\r\n  /**\r\n   * @return The address of the implementation.\r\n   */\r\n  function implementation() external ifAdmin returns (address) {\r\n    return _implementation();\r\n  }\r\n\r\n  /**\r\n   * @dev Changes the admin of the proxy.\r\n   * Only the current admin can call this function.\r\n   * @param newAdmin Address to transfer proxy administration to.\r\n   */\r\n  function changeAdmin(address newAdmin) external ifAdmin {\r\n    require(newAdmin != address(0), \"Cannot change the admin of a proxy to the zero address\");\r\n    emit AdminChanged(_admin(), newAdmin);\r\n    _setAdmin(newAdmin);\r\n  }\r\n\r\n  /**\r\n   * @dev Upgrade the backing implementation of the proxy.\r\n   * Only the admin can call this function.\r\n   * @param newImplementation Address of the new implementation.\r\n   */\r\n  function upgradeTo(address newImplementation) external ifAdmin {\r\n    _upgradeTo(newImplementation);\r\n  }\r\n\r\n  /**\r\n   * @dev Upgrade the backing implementation of the proxy and call a function\r\n   * on the new implementation.\r\n   * This is useful to initialize the proxied contract.\r\n   * @param newImplementation Address of the new implementation.\r\n   * @param data Data to send as msg.data in the low level call.\r\n   * It should include the signature and the parameters of the function to be called, as described in\r\n   * https://solidity.readthedocs.io/en/v0.4.24/abi-spec.html#function-selector-and-argument-encoding.\r\n   */\r\n  function upgradeToAndCall(address newImplementation, bytes calldata data) payable external ifAdmin {\r\n    _upgradeTo(newImplementation);\r\n    (bool success,) = newImplementation.delegatecall(data);\r\n    require(success);\r\n  }\r\n\r\n  function _admin() internal view returns (address adm) {\r\n    bytes32 slot = ADMIN_SLOT;\r\n    assembly {\r\n      adm := sload(slot)\r\n    }\r\n  }\r\n\r\n  /**\r\n   * @dev Sets the address of the proxy admin.\r\n   * @param newAdmin Address of the new proxy admin.\r\n   */\r\n  function _setAdmin(address newAdmin) internal {\r\n    bytes32 slot = ADMIN_SLOT;\r\n\r\n    assembly {\r\n      sstore(slot, newAdmin)\r\n    }\r\n  }\r\n\r\n  /**\r\n   * @dev Only fall back when the sender is not the admin.\r\n   */\r\n  function _willFallback() override virtual internal {\r\n    require(msg.sender != _admin(), \"Cannot call fallback function from the proxy admin\");\r\n    super._willFallback();\r\n  }\r\n}\r\n\r\n// File: node_modules\\@openzeppelin\\upgrades\\contracts\\upgradeability\\InitializableUpgradeabilityProxy.sol\r\n\r\npragma solidity >=0.5.0;\r\n\r\n\r\n/**\r\n * @title InitializableUpgradeabilityProxy\r\n * @dev Extends BaseUpgradeabilityProxy with an initializer for initializing\r\n * implementation and init data.\r\n */\r\ncontract InitializableUpgradeabilityProxy is BaseUpgradeabilityProxy {\r\n  /**\r\n   * @dev Contract initializer.\r\n   * @param _logic Address of the initial implementation.\r\n   * @param _data Data to send as msg.data to the implementation to initialize the proxied contract.\r\n   * It should include the signature and the parameters of the function to be called, as described in\r\n   * https://solidity.readthedocs.io/en/v0.4.24/abi-spec.html#function-selector-and-argument-encoding.\r\n   * This parameter is optional, if no data is given the initialization call to proxied contract will be skipped.\r\n   */\r\n  function initialize(address _logic, bytes memory _data) public payable {\r\n    require(_implementation() == address(0));\r\n    assert(IMPLEMENTATION_SLOT == bytes32(uint256(keccak256('eip1967.proxy.implementation')) - 1));\r\n    _setImplementation(_logic);\r\n    if(_data.length > 0) {\r\n      (bool success,) = _logic.delegatecall(_data);\r\n      require(success);\r\n    }\r\n  }\r\n}\r\n\r\n// File: node_modules\\@openzeppelin\\upgrades\\contracts\\upgradeability\\InitializableAdminUpgradeabilityProxy.sol\r\n\r\npragma solidity >=0.5.0;\r\n\r\n\r\n\r\n/**\r\n * @title InitializableAdminUpgradeabilityProxy\r\n * @dev Extends from BaseAdminUpgradeabilityProxy with an initializer for\r\n * initializing the implementation, admin, and init data.\r\n */\r\ncontract InitializableAdminUpgradeabilityProxy is BaseAdminUpgradeabilityProxy, InitializableUpgradeabilityProxy {\r\n  /**\r\n   * Contract initializer.\r\n   * @param _logic address of the initial implementation.\r\n   * @param _admin Address of the proxy administrator.\r\n   * @param _data Data to send as msg.data to the implementation to initialize the proxied contract.\r\n   * It should include the signature and the parameters of the function to be called, as described in\r\n   * https://solidity.readthedocs.io/en/v0.4.24/abi-spec.html#function-selector-and-argument-encoding.\r\n   * This parameter is optional, if no data is given the initialization call to proxied contract will be skipped.\r\n   */\r\n  function initialize(address _logic, address _admin, bytes memory _data) public payable {\r\n    require(_implementation() == address(0));\r\n    InitializableUpgradeabilityProxy.initialize(_logic, _data);\r\n    assert(ADMIN_SLOT == bytes32(uint256(keccak256('eip1967.proxy.admin')) - 1));\r\n    _setAdmin(_admin);\r\n  }\r\n\r\n  function _willFallback() override(BaseAdminUpgradeabilityProxy, Proxy) internal {\r\n    require(msg.sender != _admin(), \"Cannot call fallback function from the proxy admin\");\r\n    super._willFallback();\r\n  }\r\n}\r\n\r\n// File: node_modules\\@openzeppelin\\upgrades\\contracts\\cryptography\\ECDSA.sol\r\n\r\npragma solidity >=0.5.2;\r\n\r\n/**\r\n * @title Elliptic curve signature operations\r\n * @dev Based on https://gist.github.com/axic/5b33912c6f61ae6fd96d6c4a47afde6d\r\n * TODO Remove this library once solidity supports passing a signature to ecrecover.\r\n * See https://github.com/ethereum/solidity/issues/864\r\n *\r\n * Source https://raw.githubusercontent.com/OpenZeppelin/openzeppelin-solidity/79dd498b16b957399f84b9aa7e720f98f9eb83e3/contracts/cryptography/ECDSA.sol\r\n * This contract is copied here and renamed from the original to avoid clashes in the compiled artifacts\r\n * when the user imports a zos-lib contract (that transitively causes this contract to be compiled and added to the\r\n * build/artifacts folder) as well as the vanilla implementation from an openzeppelin version.\r\n */\r\n\r\nlibrary OpenZeppelinUpgradesECDSA {\r\n    /**\r\n     * @dev Recover signer address from a message by using their signature\r\n     * @param hash bytes32 message, the hash is the signed message. What is recovered is the signer address.\r\n     * @param signature bytes signature, the signature is generated using web3.eth.sign()\r\n     */\r\n    function recover(bytes32 hash, bytes memory signature) internal pure returns (address) {\r\n        // Check the signature length\r\n        if (signature.length != 65) {\r\n            return (address(0));\r\n        }\r\n\r\n        // Divide the signature in r, s and v variables\r\n        bytes32 r;\r\n        bytes32 s;\r\n        uint8 v;\r\n\r\n        // ecrecover takes the signature parameters, and the only way to get them\r\n        // currently is to use assembly.\r\n        // solhint-disable-next-line no-inline-assembly\r\n        assembly {\r\n            r := mload(add(signature, 0x20))\r\n            s := mload(add(signature, 0x40))\r\n            v := byte(0, mload(add(signature, 0x60)))\r\n        }\r\n\r\n        // EIP-2 still allows signature malleability for ecrecover(). Remove this possibility and make the signature\r\n        // unique. Appendix F in the Ethereum Yellow paper (https://ethereum.github.io/yellowpaper/paper.pdf), defines\r\n        // the valid range for s in (281): 0 < s < secp256k1n  2 + 1, and for v in (282): v  {27, 28}. Most\r\n        // signatures from current libraries generate a unique signature with an s-value in the lower half order.\r\n        //\r\n        // If your library generates malleable signatures, such as s-values in the upper range, calculate a new s-value\r\n        // with 0xFFFFFFFFFFFFFFFFFFFFFFFFFFFFFFFEBAAEDCE6AF48A03BBFD25E8CD0364141 - s1 and flip v from 27 to 28 or\r\n        // vice versa. If your library also generates signatures with 0/1 for v instead 27/28, add 27 to v to accept\r\n        // these malleable signatures as well.\r\n        if (uint256(s) > 0x7FFFFFFFFFFFFFFFFFFFFFFFFFFFFFFF5D576E7357A4501DDFE92F46681B20A0) {\r\n            return address(0);\r\n        }\r\n\r\n        if (v != 27 && v != 28) {\r\n            return address(0);\r\n        }\r\n\r\n        // If the signature is valid (and not malleable), return the signer address\r\n        return ecrecover(hash, v, r, s);\r\n    }\r\n\r\n    /**\r\n     * toEthSignedMessageHash\r\n     * @dev prefix a bytes32 value with \"\\x19Ethereum Signed Message:\"\r\n     * and hash the result\r\n     */\r\n    function toEthSignedMessageHash(bytes32 hash) internal pure returns (bytes32) {\r\n        // 32 is the length in bytes of hash,\r\n        // enforced by the type signature above\r\n        return keccak256(abi.encodePacked(\"\\x19Ethereum Signed Message:\\n32\", hash));\r\n    }\r\n}\r\n\r\n// File: node_modules\\@openzeppelin\\upgrades\\contracts\\upgradeability\\ProxyFactory.sol\r\n\r\npragma solidity >=0.5.3;\r\n\r\n\r\n\r\ncontract ProxyFactory {\r\n\r\n  event ProxyCreated(address proxy);\r\n\r\n  bytes32 private contractCodeHash;\r\n\r\n  constructor() public {\r\n    contractCodeHash = keccak256(\r\n      type(InitializableAdminUpgradeabilityProxy).creationCode\r\n    );\r\n  }\r\n\r\n  function deployMinimal(address _logic, bytes memory _data) public returns (address proxy) {\r\n    // Adapted from https://github.com/optionality/clone-factory/blob/32782f82dfc5a00d103a7e61a17a5dedbd1e8e9d/contracts/CloneFactory.sol\r\n    bytes20 targetBytes = bytes20(_logic);\r\n    assembly {\r\n      let clone := mload(0x40)\r\n      mstore(clone, 0x3d602d80600a3d3981f3363d3d373d3d3d363d73000000000000000000000000)\r\n      mstore(add(clone, 0x14), targetBytes)\r\n      mstore(add(clone, 0x28), 0x5af43d82803e903d91602b57fd5bf30000000000000000000000000000000000)\r\n      proxy := create(0, clone, 0x37)\r\n    }\r\n\r\n    emit ProxyCreated(address(proxy));\r\n\r\n    if(_data.length > 0) {\r\n      (bool success,) = proxy.call(_data);\r\n      require(success);\r\n    }\r\n  }\r\n\r\n  function deploy(uint256 _salt, address _logic, address _admin, bytes memory _data) public returns (address) {\r\n    return _deployProxy(_salt, _logic, _admin, _data, msg.sender);\r\n  }\r\n\r\n  function deploySigned(uint256 _salt, address _logic, address _admin, bytes memory _data, bytes memory _signature) public returns (address) {\r\n    address signer = getSigner(_salt, _logic, _admin, _data, _signature);\r\n    require(signer != address(0), \"Invalid signature\");\r\n    return _deployProxy(_salt, _logic, _admin, _data, signer);\r\n  }\r\n\r\n  function getDeploymentAddress(uint256 _salt, address _sender) public view returns (address) {\r\n    // Adapted from https://github.com/archanova/solidity/blob/08f8f6bedc6e71c24758d20219b7d0749d75919d/contracts/contractCreator/ContractCreator.sol\r\n    bytes32 salt = _getSalt(_salt, _sender);\r\n    bytes32 rawAddress = keccak256(\r\n      abi.encodePacked(\r\n        bytes1(0xff),\r\n        address(this),\r\n        salt,\r\n        contractCodeHash\r\n      )\r\n    );\r\n\r\n    return address(bytes20(rawAddress << 96));\r\n  }\r\n\r\n  function getSigner(uint256 _salt, address _logic, address _admin, bytes memory _data, bytes memory _signature) public view returns (address) {\r\n    bytes32 msgHash = OpenZeppelinUpgradesECDSA.toEthSignedMessageHash(\r\n      keccak256(\r\n        abi.encodePacked(\r\n          _salt, _logic, _admin, _data, address(this)\r\n        )\r\n      )\r\n    );\r\n\r\n    return OpenZeppelinUpgradesECDSA.recover(msgHash, _signature);\r\n  }\r\n\r\n  function _deployProxy(uint256 _salt, address _logic, address _admin, bytes memory _data, address _sender) internal returns (address) {\r\n    InitializableAdminUpgradeabilityProxy proxy = _createProxy(_salt, _sender);\r\n    emit ProxyCreated(address(proxy));\r\n    proxy.initialize(_logic, _admin, _data);\r\n    return address(proxy);\r\n  }\r\n\r\n  function _createProxy(uint256 _salt, address _sender) internal returns (InitializableAdminUpgradeabilityProxy) {\r\n    address payable addr;\r\n    bytes memory code = type(InitializableAdminUpgradeabilityProxy).creationCode;\r\n    bytes32 salt = _getSalt(_salt, _sender);\r\n\r\n    assembly {\r\n      addr := create2(0, add(code, 0x20), mload(code), salt)\r\n      if iszero(extcodesize(addr)) {\r\n        revert(0, 0)\r\n      }\r\n    }\r\n\r\n    return InitializableAdminUpgradeabilityProxy(addr);\r\n  }\r\n\r\n  function _getSalt(uint256 _salt, address _sender) internal pure returns (bytes32) {\r\n    return keccak256(abi.encodePacked(_salt, _sender));\r\n  }\r\n}",
  "sourcePath": "D:\\CSC333\\cryptoboys-nft-marketplace\\src\\contracts\\ProxyFactory.sol",
  "compiler": {
    "name": "solc",
    "version": "0.8.10+commit.fc410830.Emscripten.clang"
  },
  "schemaVersion": "3.4.3",
  "updatedAt": "2021-11-28T04:45:35.976Z",
  "devdoc": {
    "kind": "dev",
    "methods": {},
    "version": 1
  },
  "userdoc": {
    "kind": "user",
    "methods": {},
    "version": 1
  }
}